:100000000C9427020C945F020C945F020C945F0224
:100010000C945F020C945F020C945F020C945F02DC
:100020000C945F020C945F020C94F3200C94C72193
:100030000C946F1B0C945F020C945F020C945F0293
:100040000C945F020C945F020C945F020C945F02AC
:100050000C945F020C94F61B0C945F020C945F02EC
:100060000C945F020C945F020C945F020C945F028C
:100070000C945F020C945F020C945F020C945F027C
:100080000C945F020C945F020C945F020C945F026C
:100090000C945F020C945F020C945F020C945F025C
:1000A0000C945F020C945F020C945F0214001A001F
:1000B0000800150017001C0018000C0012001300A7
:1000C00004001600070009000A000B000D000E00D6
:1000D0000F002A001D001B0006001900050011007A
:1000E00010002D0028000000E100E000E200000008
:1000F0002C00000050004F002152000029001A007F
:100100000800150017001C0018000C001200130056
:100110002B001600070009000A000B000D000E005E
:100120000F004C00E1001B00060019000500110043
:1001300010002D0028000000E100E000E2000000B7
:100140002C00000050004F002152000014001A0043
:100150000800150017001C0018000C001200130006
:1001600004001600070009000A000B000D000E0035
:100170000F002A001D001B000600190005001100D9
:1001800010002D0028000000E100E000E200000067
:100190002C00000050004F002152000014001A00F3
:1001A0000800150017001C0018000C0012001300B6
:1001B00004001600070009000A000B000D000E00E5
:1001C0000F002A001D001B00060019000500110089
:1001D00010002D0028000000E100E000E200000017
:1001E0002C00000050004F002152000000000000D1
:1001F000000000002A2B2800000000000000000082
:100200000000000000000029000000002C1E342027
:10021000212224342627252E362D3738271E1F204D
:100220002122232425263333362E37381F04050692
:100230000708090A0B0C0D0E0F10111213141516D6
:100240001718191A1B1C1D2F3130232D35040506D4
:100250000708090A0B0C0D0E0F10111213141516B6
:100260001718191A1B1C1D2F3130354C00000000C7
:10027000000000000000000000000000000000007E
:10028000000000000000000000000000000000006E
:100290007E0F00D4FFFFFFC700000078120371003B
:1002A0007500610069006C007A00330036000000C0
:1002B0001203730061006D00310064006100720080
:1002C000650000000403090409025B00030100A0AB
:1002D000FA090400000103010100092111010001D4
:1002E0002240000705810308000109040100020300
:1002F00000000009211101000122220007058203EC
:100300002000010705030320000109040200010386
:1003100000000009211101000122B6000705840335
:100320002000011201000200000008313A04000020
:1003300001010200010660FF0961A10109621500C7
:1003400026FF009520750881020963150026FF002D
:10035000952075089102C005010902A101850209D5
:1003600001A1000509190129081500250195087545
:100370000181020501093009311581257F9502753A
:1003800008810609381581257F95017508810605C4
:100390000C0A38021581257F950175088106C0C0B9
:1003A00005010980A101850319012AB7001501265D
:1003B000B700950175108100C0050C0901A10185E8
:1003C0000419012AA002150126A0029501751081C9
:1003D00000C005010906A1018506050719E029E706
:1003E000150025019508750181020507190029EFFF
:1003F0001500250195F075018102050819012905EF
:10040000950575019102950175039101C0050109DA
:1004100006A101050719E029E715002501950875D2
:100420000181029501750881010507190029FF1551
:100430000026FF00950675088100050819012905A9
:10044000950575019102950175039101C000112474
:100450001FBECFEFDAE0DEBFCDBF04B603FE18C08B
:100460008091AF029091B002A091B102B091B2021E
:100470008730904BA740B04B59F41092AF021092C6
:10048000B0021092B1021092B202E0E0F8E30995D6
:1004900011E0A0E0B1E0ECE0F9E402C005900D92BB
:1004A000A63AB107D9F722E0A6EAB1E001C01D9251
:1004B000AF3AB207E1F70E9490110C9432240C94E9
:1004C000000084E008958430B8F46430A8F44A3021
:1004D00098F450E09AE0699F400D511D1124FA01F3
:1004E00098E2899FE00DF11D1124EE0FFF1FE455E6
:1004F000FF4F85919491089581E090E0089581E007
:10050000089581E008950E948102089508950E944F
:1005100086020895A5E0B0E0E0E9F2E00C949E23A5
:1005200049835A833091AD0189819A81311119C073
:10053000662399F0222389F00E940608182F682F5D
:1005400089819A810E94E20769817A81812F0E94C4
:10055000030F2596E3E00C94BA230E94F407182FAA
:10056000F3CF0E94060869817A81F1CFFC01262F22
:10057000408151816281738184810E948A02089541
:1005800081E00895CF93DF93EC0160E00E94B60212
:10059000BE010E948702DF91CF91089508950E94C5
:1005A000D8060E94CE022FEF84E39CE021508040C9
:1005B0009040E1F700C0000008950E94CF020E9421
:1005C0001A1C08950E94CF020E943E1C08950F93AA
:1005D0001F93CF93DF938C0161E00E94B602EC0180
:1005E000B8010E948714811106C080E0DF91CF918D
:1005F0001F910F910895B801CE010E9483028823B4
:10060000A1F3B801CE010E944719882371F3B80104
:10061000CE010E946E15882341F3B801CE010E94DD
:10062000B918882311F3B801CE010E948B198823D1
:10063000E1F2F8018281882361F0C330FCE7DF0733
:10064000E9F058F4C115ECE7DE07A9F0C130DC474A
:10065000B9F0C8010E947F02C9CFCB358CE7D8071B
:10066000A9F0CC35ECE7DE0771F0CA35DC4789F735
:100670000E94590CEECF0E94DD02B7CF0E94610CA0
:100680000E94E202B2CF0E944F0CE3CF0E945D0CA9
:10069000E0CF0E944B1B0E94700308950E947403D8
:1006A0000E94501B0895089581E008950895CF9306
:1006B000DF93D82F0E945403C82F882319F08D2F61
:1006C0000E9456038C2FDF91CF9108950895CF9308
:1006D000C82F0E9453038C2F0E945703CF91089577
:1006E00080E00E94670308950E94DE190E9467035C
:1006F0000895CF930E94DE19C82F8091A8018C170E
:1007000079F0C093A8010E94DB1B6093A90170934C
:10071000AA018093AB019093AC018C2F0E946703D8
:10072000CF910895ABE0B0E0E8E9F3E00C949F23AB
:100730004F83588769877A878B8761110E949A0B4C
:100740001E821D8285E0FE013796DE011196019022
:100750000D928A95E1F78C819D81892B61F4498105
:100760005A816B817C818D819E810E94C20A2B9669
:10077000E2E00C94BB2389819A8189238F3F79F32E
:10078000CE0101960E94C0028111E9CFF0CFFC0199
:10079000808191810E9433080895662329F00E9488
:1007A00014120E94E71208950E946E12FACFCF939E
:1007B000C82F8823B9F08CEF8C0F813AA8F46C2FE6
:1007C00080910001909101010E94711A882329F003
:1007D0008C2F0E945A0B0E94BB0B8C2F0E94520B35
:1007E0000E94BB0BCF91089580E28C0F883048F4B3
:1007F000C77081E001C0880FCA95EAF70E947D0B9F
:10080000EFCFEBE5EC0FE33040F4F0E0E45BFE4FBC
:10081000808190E00E94131AE5CFE8E5EC0FEB3100
:1008200050F4F0E0EE0FFF1FEA5EFE4F80819181F1
:100830000E94381AD7CF83E38C0F833198F661E09A
:100840008C2F0E94CD03CECF882381F19CEF980F8F
:10085000913A28F40E945A0B0E94BB0B089590E233
:10086000980F983050F4877091E001C0990F8A95E5
:10087000EAF7892F0E94830BEFCF9BE5980F933007
:1008800028F490E080E00E94131A089598E5980FEC
:100890009B3128F490E080E00E94381A089593E399
:1008A000980F933118F460E00E94CD0308951F93D0
:1008B000CF93DF93182FEB010E94D703209739F4D1
:1008C000812F0E942404DF91CF911F9108958FE919
:1008D0009FE00197F1F700C000002197EFCF70E093
:1008E00060E0893311F460E570E00E9457040895D8
:1008F000882321F00E947D0B0E94BB0B0895882362
:1009000021F00E94830B0E94BB0B0895B0E0A0E091
:10091000ECE8F4E00C9498236C01D62FC72FFC016F
:100920001281058102950F700E94730BE82E8823B7
:10093000E9F0E12E1123D1F08C2F807F803451F02B
:1009400080E28D0F8830F8F0011104C08C2F807E7A
:100950008032C9F080918D0282FF15C082E00E9432
:100960001E0C0E94730B91E0E82EE926BC2EB29477
:100970009FE0B922FBE0FB15B8F1EB2DF0E0EC5C59
:10098000FB4D0C948223E12CF1CF0C2F0F70C07F14
:1009900011F00295007F112399F0002359F080E2B5
:1009A0008D0F883010F0D11107C0802F0E947D0B71
:1009B0000E94BB0B8D2F63C0802F0E948D0BF8CF40
:1009C0008D2F0E942404002379F080E28D0F88305F
:1009D00010F0D11104C0802F0E94830B03C0802F20
:1009E0000E94930B0E94BB0B2B2D2850330B2430FD
:1009F000310520F40E94DE190E946703EE2089F081
:100A00000E946F0B80FD0DC0F60112820E94690BDF
:100A10000E945607C6010E9498060E94690B0E9418
:100A20006207CDB7DEB7E9E00C94B4232C2F2F700A
:100A3000F22EC07FC03219F0F29480EFF822DD234D
:100A400081F0D13009F449C0112309F451C00023C9
:100A500009F448C0F601858180FFACCF8F70858393
:100A600041C080918D0282FD15C0112359F0FF20F5
:100A700029F08F2D0E947D0B0E94BB0B80E00E940D
:100A8000D703B2CF80E00E942404FF2009F4ACCF4A
:100A90008F2DA2CF112381F0011106C00E949D0B62
:100AA0008F290E947804A0CF0130C1F70E949D0BCE
:100AB0008F290E94A40B98CF011106C00E94B10B90
:100AC0008F2D0E947F0490CF013009F48DCF8F2DA0
:100AD0000E947F040E94B10B87CF112329F00630BA
:100AE00008F082CF8F2DDDCF053008F07DCFE8CF25
:100AF000002331F3D93349F4FFEF27EE33E0F1500F
:100B000020403040E1F700C000008D2F0E942404F7
:100B10006BCF8C2F86958695837069F0813009F0B4
:100B200063CF8D2F9C2F9370111102C080E090E055
:100B30000E94381A59CF8D2F9C2F9370111102C02B
:100B400080E090E00E94131A4FCF612F8D2F0E94FA
:100B5000CD034ACF8C2F837079F5111145CF4D2FDE
:100B6000429546954770440F440F8D2F8F70042E89
:100B700001C0880F0A94EAF72D2F2071D4FF07C017
:100B80002FE030E001C0220F4A95EAF72095C69584
:100B9000C695C370822BC23049F058F4C13019F0A9
:100BA0000E94320721CF0E942C071ECF0E943807D7
:100BB0001BCF0E94290718CF8695112311F08C2F87
:100BC0008170882309F410CF4D2F429546954770C8
:100BD000440F440F8D2F8F70042E01C0880F0A948C
:100BE000EAF72D2F2071D4FF07C02FE030E001C0BD
:100BF000220F4A95EAF72095C695C695C370822BB9
:100C0000C23049F058F4C13019F00E948107ECCE8F
:100C10000E947B07E9CE0E948707E6CE0E94440728
:100C2000E3CECF70112329F08C2F0E9456078D2F11
:100C300038CF8D2F0E947F048C2F0E946207D4CE64
:100C4000D23F41F160F4D03FB9F0D13F81F01123A0
:100C500009F446C00111AECE8C2F8F711FC0D33F57
:100C600001F1D43FA1F780918D0282FD24C08C2F29
:100C70008F71112311F312C0112341F0053008F0D8
:100C8000B3CE8C2F8F710E946F07AECE063008F066
:100C9000ABCEF7CF8C2F8F711111CFCF0E9456079B
:100CA000A3CE112329F08C2F8F710E944D079CCE6B
:100CB0000E94490799CE112349F0CF718C2F0E94D1
:100CC000560763E08C2F0E94000C8ECE81E00E94BC
:100CD0001E0C023008F488CE82E00E941E0C84CEE6
:100CE000002359F0D93309F010CF8FEF97EEE3E0EE
:100CF00081509040E040E1F706CF8C2F8F719DCF5F
:100D00000F931F93CF93DF93EC01688179818A81E0
:100D10000E943E088C010E948D070E942807B8019E
:100D2000CE010E948604DF91CF911F910F9108950B
:100D3000CF93DF93EC018B819C81892B29F08881F3
:100D4000998189238F3F51F4DF91CF910895CE018E
:100D50000E948006CE010E94C202F6CFCE010E9400
:100D6000E7028111F4CF0E94730B882369F38A8113
:100D7000882351F380918D0282FFE6CF82E00E94AA
:100D80001E0CE2CF90E080E00E94131A90E080E019
:100D90000E94381A0E949A0B0E94BB0B0E940313F8
:100DA0000E94E71208950E94620B0E94C2060895F5
:100DB0000E948A0B0E94D306089592959F709630E8
:100DC00091F058F4925F9F70923058F4803F19F080
:100DD00030F4883E30F481E008959A5FF4CF843F88
:100DE000D1F380E00895883EB0F3813FD1F7F3CF8F
:100DF000FC0183819481892B29F080819181892351
:100E00008F3F11F480E00895808191810E94330822
:100E10000E94DD060895A5E0B0E0E1E1F7E00C9462
:100E20009F232596E2E00C94BB23A6E0B0E0EBE123
:100E3000F7E00C949F232696E2E00C94BB230895E0
:100E40000E941F0708950E9420078093BE01089505
:100E500008950E94230708959091BE01892B0E9456
:100E6000230708959091BE0189230E9423070895C6
:100E70009091BE0189270E94230708950E941F07B1
:100E800008950E943E0708950E9441078093BD0186
:100E9000089580E00E944407089591E001C0990FF1
:100EA0008A95EAF7892F0E944407089521E030E0EF
:100EB00001C0220F8A95EAF78091BD01822B0E9422
:100EC0004407089521E030E001C0220F8A95EAF737
:100ED00020958091BD0182230E944407089521E05E
:100EE00030E001C0220F8A95EAF78091BD01822788
:100EF0000E94440708959091BD01892B0E944407E8
:100F000008959091BD0189230E944407089590910E
:100F1000BD0189270E94440708950895262F277050
:100F200091E001C0990F2A95EAF723E0769567953D
:100F30002A95E1F7FB01EE0FFF1FE60FF71FE40F05
:100F4000F51F50E040E0682F70E08191DF011197BC
:100F50009B01042E02C0369527950A94E2F7217072
:100F600021952827292328272C934F5F5F4F433053
:100F7000510559F70895A82FA77023E096958795F6
:100F80002A95E1F7FC01EE0FFF1FE80FF91FE60FAE
:100F9000F71F50E040E080E0219130E00A2E02C0CF
:100FA000369527950A94E2F721703327042E01C065
:100FB000220F0A94EAF7822B4F5F5F4F43305105AF
:100FC00059F70895262F943070F48A3060F4682F12
:100FD00070E08AE0989F600D711D11244EEA51E087
:100FE000822F0E948E070895292F943068F48A304A
:100FF00058F490E06EEA71E03AE0239F800D911D75
:1010000011240E94BB07089580E00895CF92DF92DB
:10101000FF920F931F93CF93DF936C010091BD015B
:101020008091BE01082BC3E0D0E010E0FC2EC80187
:101030000C2E02C0959587950A94E2F780FD0CC0AE
:101040002197A0F7F12C8F2DDF91CF911F910F9158
:10105000FF90DF90CF900895B6018C2F0E940F0F64
:10106000019771F3F0CFCF93DF93EC010E94060854
:10107000BE010E940F0FDF91CF9108951F93CF9370
:10108000DF93EB019091AD01992339F0CB010E94E0
:101090003308DF91CF911F910895882369F0CB0128
:1010A0000E940608182F682FCE010E94E207BE0199
:1010B000812F0E940F0FEDCFCB010E94F407182F54
:1010C000F6CFE1E0F0E0DF0102C0AA0FBB1F6A9596
:1010D000E2F7BD01DF0102C0AA0FBB1F4A95E2F78C
:1010E0006A2B01C0EE0F2A95EAF7962F98239613E4
:1010F00002C08E2B0895E0958E230895242F462F4D
:10110000682F8091BD010E9461080E9444070895E4
:101110001F93CF93DF93C091BF0116E08091C00170
:101120008C1304C0DF91CF911F910895D0E01C9FD4
:10113000F0011D9FF00D1124EF53FE4F40815181AE
:1011400062817381848195810E9415072196C77001
:10115000E5CF4091F1015091F2016091F30170915E
:10116000F4018091F5019091F6010E941507089510
:101170002091BF019091C00156E0291302C080E088
:10118000089530E0529FF001539FF00D1124EF536A
:10119000FE4F7181761306C07081781303C072818F
:1011A000741304C02F5F3F4F2770E7CF81E008958D
:1011B0001F93CF93DF938091F601807F09F04BC09E
:1011C0008091F301882309F446C08091BF01C0914A
:1011D000C0014091F1015091F2016091F4017091D0
:1011E000F501D42FD52316E0C817A9F190E06115B9
:1011F0007105A9F1DF3F99F1189FF001199FF00DDA
:101200001124DF01AF53BE4F11962C911197251376
:1012100026C02C91241323C012962C9112972111D1
:101220001EC013962D913C91261B370B283C31058F
:10123000B0F48091F6018F7080618093F601EA53DB
:10124000FE4F80818F708061808381EF91E00E94EA
:1012500098060E948808DF91CF911F91089501960A
:101260008770C2CFA1E1B0E0E8E3F9E00C949523E8
:101270008C0185E0F801DE011D9601900D928A95A2
:10128000E1F7F801F28081EFA82E81E0B82E4091BD
:10129000F4015091F5014115510509F45AC190919D
:1012A000F1012091F201892F82238F3F09F451C16E
:1012B000C080D18083809480E090F301B401641BEE
:1012C000750BEE2009F4F6C08091F601382F307FBF
:1012D000683C710508F0AFC031117AC0EF2C2D11B8
:1012E00016C09C1114C0F11012C08F7080618093E1
:1012F000F6010E94A908C5010E9498068091F60196
:10130000F80185838E2D6196ECE00C94B123811455
:101310009104C9F18C2D8D218F3FA9F181E08F259A
:1013200080FF05C04F2D6D2D8C2D0E94B8088114B3
:10133000910459F18C2D8D218F3F39F181E08F255A
:10134000F82FF170BF2E80FF39C04F2D6D2D8C2DE1
:101350000E94B808A82E811131C0CD86DE868D8509
:101360009E850E943308292F22952F70243078F40F
:101370009F702230A8F09923B9F0F8019581907FF1
:1013800099F4EA2CBFCF80E0CBCF80E0D9CF2A5FA1
:101390002F70223068F0C8010E949806AB2CF1CF64
:1013A000992311F0882369F3805E883050F3F3CFDE
:1013B000803F38F3815F833070F7E3CFFF2009F47B
:1013C000A1CF8091F60181608093F601E12C9ACF44
:1013D0002D1105C09C1103C0FF2009F486C0C8016F
:1013E0000E94F806882319F1FF2009F18091F60187
:1013F000803270F02091F1013091F20138872F8313
:1014000019869B868A868C87CE0107960E9498064D
:1014100086E0F801A1EFB1E001900D928A95E1F725
:101420000E94D8080E94A908EE24E3946BCFC8015B
:101430000E949806F9CF311114C0782D998A888AB4
:10144000A6016F2D89890E940B0781EF91E00E9410
:10145000980686E0F50111928A95E9F70E94A9089D
:10146000B5CF2D110EC09C110CC0F1100AC08583A0
:10147000C8010E94980686E0F50111928A95E9F765
:1014800041CFC8010E94F806882389F2FF2079F233
:101490008091F601803208F4BBCF2091F1013091A8
:1014A000F2013A8329831B829D828C828E83CE0136
:1014B0000196ACCF683C710508F03DC0EF2CFF20D1
:1014C00009F4B5CF2D1129C09C1127C08091F601D8
:1014D00080FD1AC0982F907FB9F08583903F31F03E
:1014E000982F907F905F8F70892B8583C8010E9411
:1014F000980686E0F801A1EFB1E001900D928A957F
:10150000E1F70E94A908FECE86E0F801A1EFB1E064
:1015100001900D928A95E1F7F5CEC8010E94F80678
:10152000811176CF8091F60181608093F601C80128
:101530000E949806E7CE782D998A888AA6016F2D99
:1015400089890E940B0786E0F50111928A95E9F7D7
:10155000D8CFFF2009F46BCFC8010E94F806E82E0F
:10156000882309F464CF86E0F801A1EFB1E001908F
:101570000D928A95E1F781EF91E00E94C7030E94E6
:10158000D808BFCFACE0B0E0E8ECFAE00C949E23C2
:101590004F83588769877A878B879C87CE01079608
:1015A0000E9432098823B1F08A859B85892B39F006
:1015B0004F815885842F85238F3F09F06CC016E03A
:1015C0008091BF019091C001891343C02C96E3E044
:1015D0000C94BA2386E0FE013796DE011196019045
:1015E0000D928A95E1F78A859B85892B41F38F813E
:1015F000988589238F3F19F32091C00130E0C901FC
:101600000196877099274091BF014817190671F418
:101610000E94D8061092C0011092BF0186E0E1EF4F
:10162000F1E0DF011D928A95E9F7C9CF96E0929F1C
:10163000D001939FB00D1124AF53BE4FFE013196E0
:1016400001900D929A95E1F78093C0010E9488085D
:10165000B6CF819FC00111248F539E4F0E94320943
:10166000882309F4B3CFE091BF011E9FF00111243C
:10167000EF53FE4F40815181628173818481958156
:101680000E9415078091BF0190E00196877099270D
:101690008093BF0195CF69857A858B859C850E9453
:1016A00015078DCF682F80910001909101010E9454
:1016B000F11A0895682F80910001909101010E9414
:1016C000FF1A089580910001909101010E940D1B65
:1016D0000895809117028595859585950895809147
:1016E00017028770089590911702977081E009F4AE
:1016F00080E0089580913A02089590913A02892BF2
:1017000080933A020895809590913A02982390939D
:101710003A02089510923A02089590913902892B65
:10172000809339020895809590913902982390937F
:10173000390208951092390208958091180208958F
:1017400008950E94A00B089590918D0292FF08C009
:1017500090911802981721F0809318020E94A10B13
:10176000089580911802882329F01092180280E0D1
:101770000E94A10B0895CF93DF93E0910001F091B7
:10178000010180913A028083E0910001F091010112
:10179000808190913902892B80839091180299233E
:1017A00081F0E0910001F09101018081892B80831B
:1017B00080910001909101010E945D1A81110E94A7
:1017C000B10BC0910001D091010140E250E067EF00
:1017D00071E0CE010E94DA23892B59F080E2FE01EC
:1017E000A7EFB1E001900D928A95E1F7CE010E943A
:1017F000EB19DF91CF91089508950E94FC0B089595
:1018000090918D0292FF11C098E0899F9001112460
:10181000622B609317020E945607809117028595EC
:10182000859585950E94FD0B08950E9456070895A1
:101830001092170280E00E94FD0B0895909117020C
:101840008095892380931702282F277091F4282FE1
:10185000082E000C330B9217130659F090918D024D
:1018600092FF07C08595859585950E9462070E9425
:10187000180C089590918D0292FB222720F92817C9
:1018800069F080FB92F990938D0280918C02909187
:101890008D020E94830C82E00E941E0C08958091AC
:1018A0008D0282FB882780F991E089270E943A0CFB
:1018B000089581E00E943A0C089580E00E943A0C5D
:1018C00008956FEF7FEF90E080E00E941C24089560
:1018D00090E080E00E94F823873E9E4F19F40E941A
:1018E0002114089580E0089582E090E00E94F023A2
:1018F000089583E090E00E94F023089584E090E052
:101900000E94F8230895BC0184E090E00E941C240A
:101910000895AB01BC018FE090E00E94102408956F
:10192000AB01BC0183E190E00E941024089560E0C7
:1019300070E0CB010E94900C089560E070E0CB0154
:101940000E94890C0E94970C089567EE7EEF90E04C
:1019500080E00E941C2460E082E090E00E94FE2370
:1019600060E083E090E00E94FE231092BE0160E000
:1019700074E184E090E00E941C2460E086E090E046
:101980000E94FE236FEF87E090E00E94FE2340E07C
:1019900050E0BA0188E090E00E94102460E08DE001
:1019A00090E00E94FE2340E050E0BA0188E190E020
:1019B0000E94102460E087E190E00E94FE2340E056
:1019C00050E0BA018CE190E00E94102470E060E0E9
:1019D00080E290E00E941C2440E050E0BA0188E1DF
:1019E00090E00E94102480E00E943A140E94691442
:1019F0000E949D0C08950E94A50C0895682F8EE00A
:101A000090E00E94FE230895A5E0B0E0EAE0FDE04A
:101A10000C949D230E94CF1B8C0180913B029091DE
:101A20003C0280179107A1F08FEF89838A831B8284
:101A30000E94CF1B8160782F9D838C8349815A81BE
:101A40006B818D810E94920310933C0200933B02B4
:101A50002596E4E00C94B9230E94DB1B60934902B5
:101A600070934A0280934B0290934C02609345021C
:101A70007093460280934702909348020895089518
:101A800008950E94400D089508950E94440D089500
:101A900081E0089589EF9FE00E94D4190E943F0DD4
:101AA0000E94410D08950E94480D08950E94530D13
:101AB0000895089508950E94590D0E945A0D0895A1
:101AC0000E9418100E94660308950E94C61B0E947F
:101AD00079140E94F1100E94600D0E94450D089536
:101AE000A5E0B0E0E6E7FDE00C9494230E94480DE9
:101AF00081110AC00E94040D0E9425130E947903DF
:101B00002596EDE00C94B0230E9407112DE3822E60
:101B100022E0922E640110E0F601E190F1906F0155
:101B2000812F0E943B101F5F143009F449C0E81652
:101B3000F90691F380914D0281FD0E9444100E94AC
:101B4000560D782E10E0812F0E943B107C01F4018D
:101B5000A190B1904F018A159B0561F1A826BF2481
:101B600000E0CC24C394D12CC5018C219D21892B6C
:101B7000C1F07720B1F009831A8321E0C7018C21DD
:101B80009D21892B09F420E02B830E94CF1B8160CB
:101B9000782F9D838C8349815A816B818D810E942E
:101BA00092030F5FCC0CDD1C0A30F1F6F401329782
:101BB000F182E0821F5F143031F60E942C0D9CCF21
:101BC000E816F90609F0B6CF95CF1F93CF93DF93B0
:101BD0000E94140FEC01C11580E5D807F0F5C1157E
:101BE00080E4D80708F09CC0C03ED10520F5CD3C6C
:101BF000D10508F082C0C83AD10578F4C53AD105BC
:101C000008F073C0C130D10519F1209709F1C43033
:101C1000D105F0F4D0E0C0E01BC0C13CD105D0F745
:101C2000C85AD0E0CC0FDD1FC15BDE4F0990D881D0
:101C3000C02DD4640DC0C11580E2D80708F0D1C012
:101C4000C11581E0D80708F05AC0C83ED10510F789
:101C5000CE01DF91CF911F910895C03682E5D8075C
:101C600018F5C03482E5D80708F06BC0C03282E5B1
:101C7000D80708F05FC0C11582E5D80708F497C0FF
:101C80002C2F2695269580E2289F900111248C2FD9
:101C90008370C1E0D0E002C0CC0FDD1F8A95E2F76F
:101CA000C22BD32BDD68D4CFC03A82E5D80760F4CD
:101CB000C03882E5D80708F459C0CF71D0E0DC2FD6
:101CC000CC27C46FD06AC4CFC03C82E5D80708F4E3
:101CD00062C0C03E82E5D80708F09CCFDC2FCC273D
:101CE000CC27DF71C06FD06AB3CFC55AD0E0CB57D5
:101CF000DE4FC881D0E0D064ABCFD065A9CF8D2FA7
:101D00000E94B60F182FCE0199270E94140FC12FE1
:101D1000D0E0DC2FCC27CC27DF71C82BD92B98CF74
:101D2000CE0199270E94140FCC27DF70C82BD92B26
:101D3000D06A8ECFCF71D0E0DC2FCC27C16FD06AB4
:101D400087CF2C2F26952695277080E2289F90011B
:101D500011248C2F8370C1E0D0E002C0CC0FDD1FB6
:101D60008A95E2F7C22BD32BDC6872CF2C2F2695F5
:101D70002695277080E2289F900111248C2F837074
:101D8000C1E0D0E002C0CC0FDD1F8A95E2F7C22B84
:101D9000D32BDA685DCF8C2F8F710E94B60FC82FBE
:101DA000D0E0DC2FCC27CC27DF71D06251CF8C2F35
:101DB0008F710E94B60F55E0D695C7955A95E1F7F9
:101DC000CF70D0E0DC2FCC27282F30E084FF05C077
:101DD00044E0220F331F4A95E1F7C22BD32BD06981
:101DE00037CF8D2F8F710E94B60F182FCE019927F4
:101DF0000E94140FC12FD0E0DC2FCC27CC27DF713D
:101E0000C82BD92BD2CF462F743030F46A3020F44F
:101E1000672F0E94D117089590E080E008950E94F6
:101E2000030F0E94E50D089582389105B9F1B0F4D1
:101E30008133910509F47DC048F48932910509F494
:101E40006DC08A32910509F47BC0089585339105F0
:101E500009F45FC08933910509F10895833E910526
:101E6000D9F138F4803E910529F1823E910579F14E
:101E70000895863E9105D9F1873E910509F43EC04B
:101E8000843E910541F520918D0221FF24C080916F
:101E90008C0284FD19C087EE90E0089520918C0299
:101EA000237009F05AC020918D0223FF14C089E2EB
:101EB00090E0089520918C0220FD38C030918D0271
:101EC00030FF09C024FF43C090E080E008952091D6
:101ED0008C0222FDF7CF089520918C0222FD3AC09A
:101EE00030918D0230FD39C024FFF5CFEDCF209128
:101EF0008C0223FFF0CF24FDE7CFCDCF20918C02C1
:101F000023FD2EC030918D0231FFEECF84EE90E0A4
:101F1000089520918C0225FFDECFC9CF20918C023D
:101F200025FD21C020918D0223FFD5CF89E390E0CC
:101F3000D2CF20918C0226FFCECF8AE290E0089586
:101F400020918C0226FFC7CF81E390E0089583EEB5
:101F500090E0089582EE90E0089580EE90E008957C
:101F600086EE90E0089585E390E0089590918C02CC
:101F700092FF06C0282F28712830F9F4877F8460EB
:101F800093FF06C0282F28712831F1F4877E8461E1
:101F900020918D0220FF06C0382F38713830D9F4D7
:101FA000877F816021FF06C0282F28712831D1F456
:101FB000877E816194FD877E0895282F24712430C7
:101FC000F9F68B7F8860DCCF282F2471243101F74C
:101FD0008B7E8861DDCF382F3171313019F78E7FDC
:101FE0008860E0CF282F2171213121F78E7E886112
:101FF000E1CF80E008950E94610C08950E940711CE
:102000002FEF86E791E0215080409040E1F700C03B
:1020100000000E94071180E00E943B1080FF04C076
:102020000E94FB0F0E941A1C08950E94FE0F089543
:102030000E94680C811102C00E94FB0C0E94740C6B
:1020400080934D020E947E0C90938D0280938C02AF
:102050000E9415100E94790C0E9429078091BD01F1
:102060000E944107089508950E943310089508952D
:102070000E9437100895E82FF0E0EE0FFF1FEA5698
:10208000FD4F808191810895089580EA8A95F1F746
:10209000089500C008950E9445100895F894E82F0F
:1020A000E295EF70F0E031A1282F2F7081E090E0F1
:1020B00001C0880F2A95EAF7982F9095932391A352
:1020C00092A1892B82A378940895CF93DF9381E91D
:1020D0000E944E1080E90E944E1084E90E944E102A
:1020E00086E60E944E10C8E8D1E089918F3F11F03A
:1020F0000E944E1081E0C239D807B9F7DF91CF9125
:102100000895AF92BF92DF92EF92FF920F931F93C9
:10211000CF93DF938C01D62EC62FD0E0CE018E5602
:102120009E4F7C01FC0120812F3F09F44DC0F894A3
:10213000E22FE295EF70F0E031A12F7081E090E0A6
:1021400001C0880F2A95EAF7932F982B91A392A1AB
:102150008095892382A378940E944910E8E8F1E0F1
:1021600042E951E021E030E0B12CA12C61916F3FB8
:10217000A9F1A62FA295AF70B0E090968C9190E057
:102180006F7002C0959587956A95E2F780FD26C02D
:10219000C901A82AB92A220F331F4E175F0731F74A
:1021A000F70180818F3F11F00E944E1061E0A11471
:1021B000B10409F460E08D2D0E944B10CC0FDD1F9F
:1021C000C00FD11FB982A882DF91CF911F910F91CB
:1021D000FF90EF90DF90BF90AF90089590E080E087
:1021E000D8CF0E94651088E0E6E9F2E0DF01982F81
:1021F0001D929A95E9F7EEE8F2E0DF011D928A95CB
:10220000E9F784E00E9442110E9434100895A8E08A
:10221000B0E0EDE0F1E10C949C238E010F5F1F4FC5
:1022200088E0F80111928A95E9F7F12C6F2DC80129
:102230000E948110F394F4E0FF12F8CF48E050E0E0
:10224000B8018EE892E00E94DA2321E0009709F4B9
:1022500020E0892B41F088E0F801AEE8B2E001907F
:102260000D928A95E1F744E066E972E08EE892E02B
:102270000E944311182F0E943810812F2896E5E004
:102280000C94B8230895CF92DF92EF92FF921F93A0
:10229000CF93DF936C017B01C42F222349F081E0AF
:1022A000809350020E94CF1B90934F0280934E0266
:1022B0001091500211110AC010E0812FDF91CF91CF
:1022C0001F91FF90EF90DF90CF90089580914E0284
:1022D00090914F020E94E71B059770F3D0E0CC0F5E
:1022E000DD1FAE01B601C7010E94DA23892B41F040
:1022F000AE01B601C7010E94E72310925002DDCF64
:1023000010E0FBCF0E94C81D0E94650D0E94D51DE4
:1023100008950E94DA1D0E94700D0E94F41D089518
:102320000E94681B0E94AE1D0E944A0D0E948211ED
:102330000E9489110E945B0DFBCF8091570280FFA4
:102340000DC06091070170E0660F771F603871055E
:1023500070F56115710569F1862F089581FF07C039
:102360006091070184E0689FB0011124EFCF609174
:10237000070182FD0AC0809156028823A9F02091AE
:10238000060160910701821710F088E0ECCF869F6C
:10239000C001112433E0880F991F3A95E1F7622FAD
:1023A00070E00E946E23D2CF68E070E0D5CF8FE757
:1023B000089581E008958091570280FF0CC06091DC
:1023C000030170E0759567957595679561157105C1
:1023D00049F1862F089581FF06C06091030170E0E6
:1023E00075956795F3CF6091030182FD0BC09091C5
:1023F00055029923A1F06091020180910301961783
:1024000038F0682F70E06038710500F38FE70895A9
:10241000899FC001112470E00E946E23F4CF61E017
:1024200070E0D7CF81E008958D3C31F40E949D117A
:10243000819580935B0208958E3C19F40E949D1152
:10244000F8CF8F3C31F40E949D11819580935A0200
:102450000895803D19F40E949D11F8CF893D29F41B
:102460000E94DB1180935C0208958A3D21F40E9452
:10247000DB118195F7CF8B3D31F40E94DB11819503
:1024800080935D0208958C3D19F40E94DB11F8CF12
:102490009FE2980F983070F4815D990B21E030E055
:1024A00001C0220F8A95EAF780915902822B80930E
:1024B000590208958D3D31F48091570281608093D7
:1024C000570208958E3D21F4809157028260F7CF24
:1024D0008F3DB9F7809157028460F1CF40915A0245
:1024E0008D3C59F480915B0287FF0DC010925B0216
:1024F00041110BC01092560208C08E3C81F48091AD
:102500005B0218169CF3442381F080915C02909149
:102510005D02892B09F05AC01092550208958F3C34
:1025200049F447FFF0CF10925A0280915B0281116B
:10253000ECCFE0CF803D19F41416ACF3E4CF9091CA
:102540005C02893D29F41916F4F610925C02DBCF87
:102550008A3D19F497FFD7CFF8CF90915D028B3D5C
:1025600029F497FFD0CF10925D02CDCF8C3D19F4A6
:102570001916CCF3C8CF9FE2980F983090F4815D84
:10258000990B21E030E0B90102C0660F771F8A95F0
:10259000E2F7CB01809590915902892380935902EB
:1025A000B2CF8D3D31F4809157028E7F80935702D8
:1025B000AACF8E3D21F4809157028D7FF7CF8F3DBA
:1025C00009F0A1CF809157028B7FF0CF08950E9430
:1025D000CF1B9C0190915A0280915B02982B21F0B5
:1025E000309354022093530290915C0280915D02DB
:1025F000982B21F0309352022093510288E592E00B
:102600000E94051A089586E0E8E5F2E0DF011D92D8
:102610008A95E9F7109256021092550210925702CD
:102620000895FC01828181110EC0838181110BC04C
:102630008481811108C091E08581811101C090E001
:10264000892F8170089581E0FCCFA6E0B0E0EBE235
:10265000F3E10C949E2386E0E8E5F2E0DE011196BA
:1026600001900D928A95E1F710925A0210925B0246
:1026700010925C0210925D028B819C81892B89F003
:1026800080915302909154020E94E71BAC019091FB
:1026900056029923C9F1809108018417150608F4A0
:1026A00040C08D819E81892B91F080915102909143
:1026B00052020E94E71BAC0190915502992309F444
:1026C00071C0809104018417150608F479C0BE0119
:1026D0006F5F7F4F88E592E00E941F1B811105C04C
:1026E00088E592E00E94111381110E94E71286E0B2
:1026F000FE013196A8E5B2E001900D928A95E1F7CE
:102700002696E3E00C94BA23209109018AE0289FE1
:10271000900111242417350720F69F5F90935602ED
:1027200002C09F3FD1F71B81112359F00E949D11D8
:102730009FEF11160CF491E0899F802D1124809356
:102740005A021C81112359F00E949D119FEF11160E
:102750000CF491E0899F802D112480935B023091CD
:102760005A02332309F49DCF20915B02222309F4FE
:1027700098CF45EB3403C0011124992359F090936D
:102780005A0245EB240390011124332339F030938E
:102790005B0287CF81E080935A02F3CF81E0809380
:1027A0005B027FCF209105018AE0289F90011124D0
:1027B0002417350708F08BCF9F5F9093550202C016
:1027C0009F3FD1F71D81112359F00E94DB119FEF2C
:1027D00011160CF491E0899F802D112480935C02E6
:1027E0001E81112359F00E94DB119FEF11160CF48A
:1027F00091E0899F802D112480935D0230915C02CD
:10280000332309F464CF20915D02222309F45FCFC2
:1028100045EB3403C0011124992359F090935C02D5
:1028200045EB240390011124332339F030935D02EA
:102830004ECF81E080935C02F3CF81E080935D0214
:1028400046CF82E290E00E94F023833289F483E253
:1028500090E00E94F023803159F484E290E00E94DD
:10286000F02391E0823209F090E0892F8170089581
:1028700080E0FCCFCF93C82F6FEF811163E282E23B
:1028800090E00E94FE236FEFC11160E183E290E0CF
:102890000E94FE236FEFC11162E284E290E00E9489
:1028A000FE23CF910895089585E290E00E94F023E1
:1028B000682F70E090E080E008950895CF93C62FD0
:1028C0000E945D146C2F85E290E00E94FE23CF9160
:1028D000089580E00E943A1460E070E0CB010E940D
:1028E0005E140E945D170E942C1881E00E943A1429
:1028F00008950E9453140E9454140E945D140E9473
:102900002114811102C00E946914089508959C0148
:10291000FB018281882351F0A901575740385105A6
:1029200030F4822F0E943C1880E0089581E00895E1
:102930002FEFFC01208308950E949814089580E0F1
:102940000895B0E0A0E0E7EAF4E10C949923EC01EB
:10295000C62E0E949F14811110C0E881E150E3311E
:10296000B8F4F0E0E05CFB4D0C94822319828CE01B
:102970008A836C2DCE010E94A21CCDB7DEB7E8E0A1
:102980000C94B52389818230C1F028F4813061F044
:102990008FEF8883EECF833099F08430C9F71A82A5
:1029A0001B821C821D82E5CF0E94DB1B0E948823B4
:1029B0006A837B838C839D83DCCF0E945414F6CF83
:1029C0008A81082F10E07E019EE0D92ED80E0430B7
:1029D000110578F6802F0E943B10F70193838483C2
:1029E0000F5F1F4FF2E0EF0EF11CD012F0CFC1CFFE
:1029F0008981823031F0853059F68A810E948614AF
:102A0000B8CF6A817B818C819D810E9488230E943E
:102A10005E14AFCF4B816A8189810E941F1798276E
:102A2000892798279D838C83A4CF2C813D813227D1
:102A3000232732274B816A8189810E94411799CFD0
:102A40000E945D1796CF6C2DCE010E949C1491CFF1
:102A50000E94DD1789838DCF0E94DF179827892771
:102A600098279A83898385CF6B8170E089819A81C9
:102A7000AE014C5F5F4F9827892798270E94E21785
:102A800078CF6B8170E089819A81AE014C5F5F4F96
:102A90009827892798270E9407186BCF0E942C1827
:102AA00068CF0E940D17D6CF6B8170E089819A8123
:102AB000AE014C5F5F4F9827892798270E9489179E
:102AC00058CF6B8170E089819A81AE014C5F5F4F76
:102AD0009827892798270E94AD174BCFCF93DF9374
:102AE000EC01FB018281882309F4D2C09E0130579A
:102AF0002332310508F0B2C00E947E0C90938D0203
:102B000080938C02FE01E150F047E232F10520F49F
:102B1000ED5AFB4D0C94822380918C02816080934E
:102B20008C0293C080918D02886080938D028DC04D
:102B300080918C028260F3CF80918C028460EFCF11
:102B400080918C028860EBCF80918D028160EDCF07
:102B500080918D028260E9CF80918C028061DFCF0D
:102B600080918C028062DBCF80918C028064D7CF11
:102B70000E94D80680918C028068D1CF80918C020F
:102B80008C60CDCF80918D028360CFCF80918C02FD
:102B90008E7FC5CF80918D02877FC7CF80918C02B9
:102BA0008D7FBDCF80918C028B7FB9CF80918C02BD
:102BB000877FB5CF80918D028E7FB7CF80918D02B8
:102BC0008D7FB3CF80918C028F7EA9CF80918C02B4
:102BD0008F7DA5CF80918C028F7BA1CF0E94D806DC
:102BE00080918C028F779BCF80918C02837F97CFCF
:102BF00080918D028C7F99CF80918C0282FB9927E6
:102C000090F921E0922790FB82F990FB83F987CF1E
:102C100080918D02982F909591708E7F892B90FBDB
:102C200081F983CF90918C02892F8F7B96FF8064EE
:102C300076CF0E94D80690918C02892F97FB87F956
:102C400080586DCF81E00E94FE0C80918C029091A3
:102C50008D020E94830C0E94D80680E0DF91CF9104
:102C6000089580E0F0CF90918C02892F8F7E94FFA1
:102C7000806155CF90918C02892F8E7F90FF81606B
:102C80004ECF90918D02892F877F93FF88604DCF23
:102C900081E0E4CFB0E0A0E0E0E5F6E10C949A2317
:102CA000E82FF0E0E451FE4FD490282F269526958A
:102CB000269530E0F901E457FD4F0491877010E04C
:102CC000082E02C0159507950A94E2F701701127A6
:102CD000F901E458FD4FE490F12C082E02C0F59460
:102CE000E7940A94E2F791E0E922FF24F901E4591C
:102CF000FD4FC491D0E002C0D595C7958A95E2F703
:102D0000C170DD270115110519F081EE0E94D7036E
:102D1000E114F10419F086EE0E94D7038D2D0E9474
:102D20006F04E114F10419F086EE0E9424040115E9
:102D3000110519F081EE0E942404CD2B19F08CE2CC
:102D40000E946F04CDB7DEB7E7E00C94B623EF9294
:102D5000FF920F931F93CF93DF93EC01162F0AE09E
:102D60008881882309F454C0813009F04EC08981DC
:102D7000813099F47E0122E0E20EF11C8A810E94EA
:102D80006F04E7012196812F815050F3EFE9FFE0B6
:102D90003197F1F700C00000F7CF823041F47E0197
:102DA00082E0E80EF11C8A810E94D703EACF8330CB
:102DB00041F47E01E2E0EE0EF11C8A810E942404BF
:102DC000E0CF843011F02196DDCF2A81229690E069
:102DD00080E0AE014F5F5F4F2053330B2A30310547
:102DE00048F0019778F2EFE9FFE03197F1F700C082
:102DF0000000F7CF089FB001099F700D1124C90191
:102E0000860F971F2981EA01E4CF0E944A16BACFA4
:102E1000CDB7DEB7E6E00C94B72384E0089550E028
:102E2000440F551F94E1699F400D511D112490E5F9
:102E3000899F400D511D1124CA01869608950F9354
:102E40001F93CF93DF938430C8F46430B8F44A30D2
:102E5000A8F40E940F178C010E94F023C82FD0E025
:102E6000DC2FCC27C80101960E94F0239E01282B5D
:102E7000C901DF91CF911F910F91089590E080E0FB
:102E8000F8CF0F931F93CF93DF93122F032F84302C
:102E900078F4643068F44A3058F40E940F17EC015B
:102EA000602F0E94FE23612FCE0101960E94FE2317
:102EB000DF91CF911F910F9108950F931F93CF939F
:102EC000DF93D0E0C0E010E019C00E94610221E071
:102ED00030E08C171D0639F034F0402F612F8C2F15
:102EE0000E9463029C01402F612F8C2F0E9441178A
:102EF0000F5F0A3051F71F5F143011F000E0E5CF8B
:102F00002196C430D105F9F6DF91CF911F910F9131
:102F10000895EF92FF920F931F93CF93DF93EC01ED
:102F20008A017C01E60EF71ECE018696CE15DF05DE
:102F300029F4CDB7DEB7E6E00C94B723C03421E026
:102F4000D20740F40E94F023F80180830F5F1F4FE7
:102F50002196EACFF8011082F9CFB0E0A0E0E3EBD0
:102F6000F7E10C9499237C016A018C01060F171F6D
:102F7000EC01CE018696C017D10729F4CDB7DEB794
:102F8000E8E00C94B523C03421E0D20740F4FE0100
:102F9000EE19FF09EC0DFD1D60810E94FE232196B4
:102FA000E8CF843038F4643028F44A3018F40E94B2
:102FB0001F17089590E080E0089580E108958AE960
:102FC00092E00895EF92FF920F931F93CF93DF93B8
:102FD000EC018A017C01E60EF71ECE018A599E4F54
:102FE000CE15DF0529F4CDB7DEB7E6E00C94B723A4
:102FF000CA3922E0D20740F40E94F023F80180830E
:103000000F5F1F4F2196E9CFF8011082F9CFB0E092
:10301000A0E0EDE0F8E10C9499237C016A018C01B9
:10302000060F171FEC01CE018A599E4FC017D1071A
:1030300029F4CDB7DEB7E8E00C94B523CA3922E015
:10304000D20740F4FE01EE19FF09EC0DFD1D608171
:103050000E94FE232196E7CFCF93DF93C6E6D1E00F
:1030600060E0CE010E94FE232196C11584E0D807BE
:10307000B9F7DF91CF910895A8E0B0E0E2E4F8E17C
:103080000C949723F82E8FE08F1508F46EC08FEF05
:1030900093E00E94F023811168C006E611E0F11070
:1030A00035C0FE0131966F0188E011928A95E9F7EB
:1030B0007801FFEFEF1AFF0AC8010E94F02389830D
:1030C0001A82882309F451C08130D1F4580182E07A
:1030D000A80EB11CC7010E94F0238A83882309F43B
:1030E00044C09FEF980F9330F0F4780193E0E90E1D
:1030F000F11CC5010E94F0238B838823B1F11C824F
:1031000060E0C6010E94A7168701D2CF011594E0A6
:10311000190759F1C8010E94F023811101C0FA94E6
:103120000F5F1F4FBCCF7501843051F702E010E0F4
:103130007501EFEFEE1AFE0AC5010E94F023F601B9
:10314000E00FF11F8083882381F08C3741F4E2E0A7
:10315000F0E0EC0FFD1FE00FF11F1082D1CF0F5FE9
:103160001F4F57010730110519F72896EAE00C9414
:10317000B323CF93DF93EB0186319C4711F50E9477
:103180007A0B9A81992399F08A7A91E009F490E078
:1031900090935E02811109C089E20E94520B0E9445
:1031A000BB0B80E0DF91CF91089585E3F6CF80914E
:1031B0005E02811104C089E20E945A0BF0CF85E3C0
:1031C000FBCF81E0EFCF0F931F93CF93DF93C42FFB
:1031D000D22FFC0182818823C9F0409361020E94B2
:1031E000CF1B9093600280935F0280E28C0F883047
:1031F00040F4C77081E001C0880FCA95EAF70E94C9
:103200007804DF91CF911F910F9108951091610281
:10321000141332C080915F02909160020E94E71BFC
:10322000883C910548F5C0E2CD0F1D17B9F080E24A
:10323000810F883040F4177081E001C0880F1A9523
:10324000EAF70E947F04C83048F481E09D2F977010
:1032500001C0880F9A95EAF70E947804802F0E9497
:103260006F04C83070F6D77081E001C0880FDA951E
:10327000EAF70E947F04C5CF80E28C0F883008F601
:10328000C77081E001C0880FCA95EAF7F2CF0F93AB
:10329000DB0188519C4787309105A0F5FC01EB5874
:1032A000FB4D0C94822306E221EE41EE6AE17CE7BD
:1032B000CD010E94E31880E00F91089507E225EE0A
:1032C00045EE6BE17CE7F4CF06E221EE40EE68E1EB
:1032D0007CE7EECF07E225EE44EE69E17CE7E8CF3C
:1032E00006E221EE42EE6CE17CE7E2CF07E225EE5A
:1032F00046EE6DE17CE7DCCF08E221E045EE6EE1D1
:103300007CE7D6CF12968C91882319F01092610237
:10331000D3CF81E0D1CF1F93CF93DF9387372CE7B3
:10332000920759F0C1E088379C47E1F4FB01C28164
:10333000CC2371F10E94CE1906C0FB01C281CC23BF
:10334000B1F00E94CB190E9456070E94D119D82FC4
:103350000E94CE19C82F0E94CB194D2F6C2F0E94AE
:103360007E08C0E08C2FDF91CF911F9108950E94BD
:10337000CB190E9462070E94D119182F0E94CE1902
:10338000D82F0E94CB19412F6D2F0E947E08EACFC3
:103390000E94CE19EECF80910C01089580910B010F
:1033A000089580910A0108959093A7018093A60142
:1033B000089590936702809366020895E0916602F3
:1033C000F0916702309729F00190F081E02D099586
:1033D000089580E00895E0916602F09167023097C9
:1033E00099F020911501222359F020918C0227FF9A
:1033F00007C0DC012C9111962C93119726E02C9399
:103400000280F381E02D09950895E0916602F09124
:103410006702309739F022E0DC012C930480F581BB
:10342000E02D09950895A3E0B0E0E9E1FAE10C94FC
:103430009F23209164023091650228173907A1F07B
:103440009093650280936402E0916602F0916702B6
:10345000309751F023E029839B838A830680F7818C
:10346000E02DCE01019609952396E2E00C94BB2352
:10347000A3E0B0E0EEE3FAE10C949F232091620216
:103480003091630228173907A1F09093630280936B
:103490006202E0916602F0916702309751F024E0F9
:1034A00029839B838A830680F781E02DCE010196D4
:1034B00009952396E2E00C94BB23FC01329680919F
:1034C0001501882321F080918C029EE187FF96E010
:1034D00080E0915008F4089521912223D1F38F5F69
:1034E000F8CF662301F1209115012223F1F02091FC
:1034F0008C0227FF1AC0462F4695469546954E31B9
:1035000090F4677021E030E002C0220F331F6A950B
:10351000E2F7840F911DFC01828190E0282339237A
:1035200081E0232B69F480E00895FC01329608962F
:103530002191261721F0E817F907D1F7F4CF81E0A0
:1035400008959C01FC0132969FEF80E0419146175F
:1035500051F09F3F19F4411101C0982F8F5F8630C1
:10356000A9F79F3F09F40895290F311D97FD3A955A
:10357000F90162830895FC01329608962191261381
:1035800003C0DF0111971C92E817F907B9F70895F6
:10359000E62FE695E695E695EE3168F4E80FF92F0B
:1035A000F11D677021E030E001C0220F6A95EAF753
:1035B0008281822B82830895E62FE695E695E69533
:1035C000EE3170F4E80FF92FF11D677021E030E063
:1035D00001C0220F6A95EAF7209582812823228371
:1035E000089520911501222339F020918C0227FFA4
:1035F00003C00E94C81A08950E94A11A089520913C
:103600001501222339F020918C0227FF03C00E946C
:10361000DC1A08950E94BB1A0895FC01329680912D
:103620001501882351F080918C0287FF06C08EE13E
:10363000DF011D928A95E9F7089586E0F9CF46E00B
:1036400050E00E94DA2321E0892B09F420E0822F48
:10365000089508950E94291B0895811106C081E0F4
:10366000809368020E942A1B089582E0F9CF83E0CC
:10367000809368020E942A1B08950E942D1B0895C2
:1036800081E0809368020E942A1B08950E94401BDB
:103690000895089508950E944A1B08950895089575
:1036A0000E94491B0895CF930E944E1B0E94071150
:1036B0000E944F1BC0E08C2F0E943B10892B31F4DD
:1036C000CF5FC430C1F780E0CF91089581E0FCCF97
:1036D00085B7806885BF85B7806885BF08951F92CC
:1036E0001FB61F9211248F939F93AF93BF93809126
:1036F0006902811113C080919E0290919F02A09156
:10370000A002B091A1024196A11DB11D80939E021D
:1037100090939F02A093A002B093A102BF91AF919A
:103720009F918F911F901FBE1F9018958091A602A8
:10373000843031F10E9449031092690288E190E0DF
:1037400020E40FB6F894A895809360000FBE2093F4
:10375000600083B7817F846083BF83B7816083BF4C
:103760007894889583B78E7F83BF0FB6F894A89519
:1037700080916000886180936000109260000FBEAD
:1037800008950E94D8060E944E03089582E084BDE9
:1037900093E095BD9AEF97BD80936E0008952FB783
:1037A000F89480919E0290919F02A091A002B09106
:1037B000A1022FBF08952FB7F89460919E027091D7
:1037C0009F028091A0029091A1022FBF08959C01B9
:1037D0004FB7F89480919E0290919F02A091A00211
:1037E000B091A1024FBF821B930B089578941F9252
:1037F0001FB61F9211248F939F93AF93BF93809115
:103800009E0290919F02A091A002B091A102019608
:10381000A11DB11D80939E0290939F02A093A002D0
:10382000B093A102BF91AF919F918F911F901FBE46
:103830001F90189581E08093E00080E28093D8008B
:103840001092C9008FE19EE40197F1F700C00000DB
:1038500087E090EBDC018093AF029093B002A093DD
:10386000B102B093B20288E19CE00FB6F894A8953B
:10387000809360000FBE90936000FFCF88E19CE0D2
:103880000FB6F894A895809360000FBE90936000E7
:10389000FFCF80918A0208959B01BA019091A60200
:1038A0009430E9F48F708093E9009FEF8091E800F5
:1038B000915085FD06C085ED8A95F1F700009111C4
:1038C000F5CF8091E80085FF0AC050E040E0C901D3
:1038D0000E94981E8091E8008E778093E8000895FA
:1038E00043E050E0BC0184E00E944C1C089546E097
:1038F00050E0BC0184E00E944C1C0895CF93DF93FC
:10390000EC0180911501811111C048E050E0BE0129
:1039100081E00E944C1C80E2FE01AAE6B2E0019028
:103920000D928A95E1F7DF91CF91089580918C02F5
:1039300087FF05C040E284E050E0BE01EACF48E0E6
:1039400081E0FACF603231F440E250E0BC0182E025
:103950000E944C1C08958091A502811109C00E940B
:1039600077200E94D4208091E20084608093E2005E
:1039700008951092A50208950E94401B0895609139
:10398000A20281E0611101C080E00E94371B08950E
:103990009091A60281E0943009F080E06091A2024B
:1039A0000E943D1B089542E061EC81E00E94F31FFC
:1039B00042E261EC84E00E94F31F42E261EC82E0AB
:1039C0000E94F31F42E260EC83E00E94F31F90919B
:1039D000A60281E0943009F080E06091A2020E948A
:1039E0002D1B08958091A802833009F463C030F440
:1039F0008130E1F1823009F4A0C008958A3009F4E1
:103A00008CC08B3009F471C0893009F052C08091AC
:103A1000A702813209F04DC08091AB029091AC02B7
:103A2000009719F0029709F044C08091E800877F61
:103A30008093E8008091E80082FF37C09091F30006
:103A40008091F200029731F48091F100813011F001
:103A5000863021F48091F10080938A028091E80001
:103A60008B778093E8000E94272023C08091A702D3
:103A7000813AF9F48091E800877F8093E800809193
:103A8000AB029091AC02892B61F460E28AE692E08D
:103A900070E00E94361F8091E8008B778093E800E9
:103AA000089560E090E080E0F3CF8091A60281115C
:103AB000C1CF08958091A702813AD9F78091AB02D6
:103AC0009091AC02892BA9F78091E800877F8093C1
:103AD000E8008091E80080FFFCCF80911501809381
:103AE000F1008091E8008E77BCCF8091A7028132EF
:103AF00001F78091AB029091AC02892BD1F68091B5
:103B0000E800877F8093E8000E9427208091A90227
:103B1000809315010E94D80608958091A7028132F2
:103B200041F68091E800877F8093E8000E9427207B
:103B30008091AA0280938B0208958091A702813A16
:103B400009F0B7CF8091E800877F8093E8008091EB
:103B5000E80080FFFCCF80918B02C1CF84B7877FC4
:103B600084BF0FB6F894A895809160008861809317
:103B70006000109260000FBE80E890E00FB6F894ED
:103B800080936100909361000FBE0E94461B0895D0
:103B90000E9477200E94D420E2EEF0E080818460D1
:103BA000808378940E94532308958DE091E00E94D1
:103BB000D91908958091A602853031F48091A6022A
:103BC000853019F00E94C11B08950E94961B8091B8
:103BD000A402882399F30E94531B882379F30E943F
:103BE000821E0E94D806EACFA0E2B0E0EAEFFDE133
:103BF0000C949F238091A602843009F583E0809382
:103C0000E9008091E80082FF1AC08091E80090E00E
:103C100085FF09C050E040E060E270E0CE0101960F
:103C20000E94E71E91E08091E8008B778093E80086
:103C3000992329F060E2CE0101960E94A114A0967A
:103C4000E2E00C94BB239A014091AD025091AE0288
:103C50000E942B1E0895492F55274330510521F10D
:103C600068F44130510509F443C04230510509F46C
:103C700044C090E080E050E040E026C04132510571
:103C800051F142325105A9F76330710590F7FB01FC
:103C9000EE0FFF1FE756FE4F408151816A567E4F5F
:103CA000FB01808190E010C099278130910581F05F
:103CB000009729F00297E9F6ECE9F2E002C0E4ECA3
:103CC000F2E0849190E0AF01F901518340830895BF
:103CD000E0EBF2E0F6CF6330710558F6660F771F20
:103CE000FB01E156FE4F4081518189E090E0ECCF2D
:103CF00082E190E043E253E0E7CF8BE590E048ECCF
:103D000052E0E2CF80E189BD82E189BD09B400FEC5
:103D1000FDCF8091D8008F7D8093D8008091E00006
:103D200082608093E0008091E00081FDFCCF0895E7
:103D3000AF92BF92CF92DF92FF920F931F93CF93D8
:103D4000DF936C01EB018A010E944620F82E81115D
:103D500023C00115110539F0F80180819181C81B3C
:103D6000D90BC80ED91EB12CA12C2097A9F0809197
:103D7000E80085FD22C08091E8008E778093E800FE
:103D800001151105A1F0F80180819181A80EB91EDD
:103D9000B182A08285E0F82E8F2DDF91CF911F9107
:103DA0000F91FF90DF90CF90BF90AF9008950E9449
:103DB00046208823D1F2F82EEFCFF60181916F01D2
:103DC0008093F1002197FFEFAF1ABF0ACECFAF92D9
:103DD000BF92CF92DF92FF920F931F93CF93DF9307
:103DE0006C01EB018A010E944620F82E811123C04C
:103DF0000115110539F0F80180819181C81BD90B9B
:103E0000C80ED91EB12CA12C2097A9F08091E800F2
:103E100085FD22C08091E8008B778093E800011532
:103E20001105A1F0F80180819181A80EB91EB1821F
:103E3000A08285E0F82E8F2DDF91CF911F910F91F9
:103E4000FF90DF90CF90BF90AF9008950E944620E2
:103E50008823D1F2F82EEFCF8091F100F601819303
:103E60006F012197FFEFAF1ABF0ACECFFC018091FF
:103E7000AD029091AE0286179707A0F0611571050B
:103E800029F49091E8009E779093E80090E0611506
:103E9000710551F4911108C08091E80082FF34C08F
:103EA00080E00895BC01F2CF8091A6028823C1F181
:103EB0008530C1F18091E80083FD30C08091E80039
:103EC00082FDEACF8091E80080FFE1CF8091F3008E
:103ED0002091F200382F6115710519F02830310555
:103EE00058F091E02830310509F090E02091E80089
:103EF0002E772093E800CBCF81918093F100615021
:103F000071092F5F3F4FE7CF8091A602882341F0D0
:103F1000853041F08091E80083FFBECF81E00895B5
:103F200082E0089583E00895FC018091AD029091B4
:103F3000AE0286179707A0F06115710529F48091EC
:103F4000E8008E778093E80090E06115710551F4E8
:103F5000911108C08091E80082FF35C080E008958B
:103F6000BC01F2CF8091A6028823C9F18530C9F146
:103F70008091E80083FD31C08091E80082FDEACFA6
:103F80008091E80080FFE1CF8091F3002091F20062
:103F9000382F6115710519F02830310558F091E07E
:103FA0002830310509F090E08091E8008E77809309
:103FB000E800CBCF84918093F10031966150710974
:103FC0002F5F3F4FE6CF8091A602882341F08530D6
:103FD00041F08091E80083FFBDCF81E0089582E049
:103FE000089583E00895982F973028F08F7080937C
:103FF000E90081E008959093E900242F762F50E0A6
:10400000981731F07091EC002091ED005091F00084
:1040100021FD02C09F5FE8CF3091EB003E7F3093DF
:10402000EB003091ED003D7F3093ED003091EB00DF
:1040300031603093EB007093EC002093ED005093CF
:10404000F0002091EE0027FDE5CF80E008958091FB
:10405000A70287FF13C08091E80082FF06C080910D
:10406000E8008B778093E80004C08091A60281115C
:10407000F2CF08958091A6028823D9F38091E800B9
:1040800080FFF8CF8091E8008E77ECCF2091E4009C
:104090003091E50095E6A9012091EC00822F817016
:1040A00020FF06C08091E80080FF06C080E00895F0
:1040B0002091E80022FD1AC08091A602882389F091
:1040C000853089F08091EB0085FD0FC02091E400E0
:1040D0003091E50042175307F9F29150E1F684E080
:1040E000089582E0089583E0089581E008950E9494
:1040F000E6200E94EE20E0EEF0E080818160808387
:10410000E8EDF0E080818F77808319BCA7EDB0E007
:104110008C918E7F8C9380818F7E80831092A502FC
:1041200008950F931F93CF93DF930E94E6200E9480
:10413000EE20C8EDD0E088818F7788838881806801
:10414000888388818F7D888319BC1092A602109283
:10415000A2021092A4021092A30200EE10E0F80155
:1041600080818B7F808388818160888342E060E0EA
:1041700080E00E94F31FE1EEF0E080818E7F80837B
:10418000E2EEF0E0808181608083808188608083BE
:10419000F80180818E7F8083888180618883DF91B0
:1041A000CF911F910F910895E8EDF0E080818F7E0F
:1041B0008083E7EDF0E080818160808384E082BFCE
:1041C00081E08093A5020E9491200895E8EDF0E03F
:1041D00080818E7F80831092E20008951092DA0031
:1041E0001092E10008951F920F920FB60F921124C2
:1041F0002F933F934F935F936F937F938F939F93EF
:10420000AF93BF93EF93FF938091E10082FF0BC0C8
:104210008091E20082FF07C08091E1008B7F809354
:10422000E1000E9452238091DA0080FF19C0809142
:10423000D80080FF15C08091DA008E7F8093DA006D
:104240008091D90080FF96C080E189BD82E189BD5F
:1042500009B400FEFDCF81E08093A6020E94AB1C52
:104260008091E10080FF19C08091E20080FF15C0BD
:104270008091E2008E7F8093E2008091E200806175
:104280008093E2008091D80080628093D80019BCAE
:1042900085E08093A6020E94BF1C8091E10084FF0C
:1042A0002BC08091E20084FF27C080E189BD82E1BC
:1042B00089BD89B5982F917080FFFBCF8091D80080
:1042C0008F7D8093D8008091E1008F7E8093E10004
:1042D0008091E2008F7E8093E2008091E200816015
:1042E0008093E2008091A202882309F449C084E00F
:1042F0008093A6020E94C81C8091E10083FF29C020
:104300008091E20083FF25C08091E100877F809348
:10431000E10082E08093A6021092A2028091E10067
:104320008E7F8093E1008091E2008E7F8093E20097
:104330008091E20080618093E20042E060E080E0F2
:104340000E94F31F8091F00088608093F0000E942B
:10435000BC1CFF91EF91BF91AF919F918F917F9185
:104360006F915F914F913F912F910F900FBE0F90E2
:104370001F90189519BC1092A6020E94B91C70CF0C
:104380008091E30087FD93E09093A602B3CF1F9244
:104390000F920FB60F9211242F933F934F935F9379
:1043A0006F937F938F939F93AF93BF93CF93DF933D
:1043B000EF93FF93D091E900DF708091EC00C82F5C
:1043C000C17080FDC0E81092E9008091F000877F05
:1043D0008093F00078940E940B221092E900809163
:1043E000F00088608093F000CD2BCF70C093E9007F
:1043F000FF91EF91DF91CF91BF91AF919F918F91FD
:104400007F916F915F914F913F912F910F900FBED0
:104410000F901F901895AAE2B0E0E1E1F2E20C944F
:104420009E2387EA92E02091F100FC012193CF01C5
:10443000F2E08F3A9F07B9F70E94F21C8091E800E2
:1044400083FF1EC18091A7029091A8029A3008F0C4
:1044500017C1E92FF0E0E458FB4D0C94822380381B
:1044600099F0823809F00CC18091AB028F708730CF
:1044700008F006C18093E9008091EB0085FB882756
:1044800080F91092E90006C08091A3029091A402E5
:10449000911182609091E800977F9093E80080935B
:1044A000F1001092F1008091E8008E77E5C088233A
:1044B00009F4D3C0823009F0E3C08091A9028111D0
:1044C000D6C08091AB028F702FEF280F263008F0F6
:1044D000D7C08093E9002091EB0020FFC8C0933043
:1044E00031F48091EB0080628093EB00C0C090912A
:1044F000EB0090619093EB0021E030E001C0220FCF
:104500008A95EAF72093EA001092EA008091EB0086
:104510008860EACF8111B4C01091A9021F77809101
:10452000E3008078812B8093E3008091E800877F0F
:104530008093E8000E9427208091E80080FFFCCF54
:104540008091E30080688093E30082E0111183E0B2
:104550008093A60295C08058823008F091C0809167
:10456000A9029091AA028C3D23E09207A1F583E075
:104570008A838AE289834FB7F894DE01139620E09C
:104580003EE051E2E32FF0E050935700E49120FF2A
:1045900003C0E295EF703F5FEF708E2F90E0EA303E
:1045A000C0F0C7968D939D932F5F243159F74FBF6D
:1045B0008091E800877F8093E8006AE270E0CE0196
:1045C00001960E94361F8091E8008B778093E80067
:1045D00057C0C096E7CF6091AB027091AC02AE01BC
:1045E0004F5F5F4F0E94231EBC01892B09F448C016
:1045F0009091E800977F9093E80089819A810E94CA
:10460000941FE1CF8038E1F58091E800877F8093A7
:10461000E8008091A2028093F10045CF811130C063
:104620009091A902923060F58091E800877F809395
:10463000E8009093A2020E9427208091A202882382
:1046400011F084E005C08091E30087FDFACF81E09E
:104650008093A6020E94D31C13C08091A9028130CE
:1046600079F481E0933009F080E08093A402109205
:10467000E9008091E800877F8093E8000E9427206E
:104680008091E80083FF0AC08091E800877F8093D3
:10469000E8008091EB0080628093EB00AA96E3E053
:1046A0000C94BA230895CF938091A6028823A1F099
:1046B000C091E900CF709091EC00892F817090FD3E
:1046C00080E8C82B1092E9008091E80083FD0E94E9
:1046D0000B22CF70C093E900CF91089597FB072E6E
:1046E00016F4009407D077FD09D00E94C62307FC7A
:1046F00005D03EF4909581959F4F089570956195F2
:104700007F4F0895EE0FFF1F0590F491E02D09945F
:1047100069279627692778278727782708952F9272
:104720003F924F925F926F927F928F929F92AF9241
:10473000BF92CF92DF92EF92FF920F931F93CF938E
:10474000DF93CDB7DEB7CA1BDB0B0FB6F894DEBF25
:104750000FBECDBF09942A88398848885F846E844B
:104760007D848C849B84AA84B984C884DF80EE8095
:10477000FD800C811B81AA81B981CE0FD11D0FB69E
:10478000F894DEBF0FBECDBFED010895AA1BBB1B81
:1047900051E107C0AA1FBB1FA617B70710F0A61B41
:1047A000B70B881F991F5A95A9F780959095BC0162
:1047B000CD010895FB01DC0104C08D9101908019A9
:1047C00021F441505040C8F7881B990B0895FB0114
:1047D000DC0102C001900D9241505040D8F708957D
:1047E000F999FECF92BD81BDF89A992780B50895B9
:1047F000A8E1B0E042E050E00C942424262FF9997F
:10480000FECF92BD81BDF89A019700B4021639F02F
:104810001FBA20BD0FB6F894FA9AF99A0FBE089500
:104820000396272F0E94FF230E94FE23252F0E941C
:10483000FF23242F0C94FF230196272F0E94FF2390
:104840000C94FE23DC01CB01FC01F999FECF06C0DC
:10485000F2BDE1BDF89A319600B40D92415050403E
:10486000B8F70895F894FFCFC504C50416051605DA
:104870008905A505F404F404AA05110620062006FE
:10488000B614C214F8140A1515152015231523158E
:104890002315C814C81428152C15341541154E15A8
:1048A000511554156115C6153A16CE1598159C1557
:1048B000D215A015D615E215AC153316B015E615B0
:1048C000B415EA151216B815EE151916BE15F4151D
:1048D000FC15A415DA15A815DE15C215F81508166D
:1048E000221631169215CA15411664196A19531900
:1048F0005E19701976197C192F22572240235722EE
:0C49000040238A22AB22402302230E2316
:10490C001902280850011E0A1401030201491C7ED9
:10491C001C771C701C01E200E900EA00B500B6002F
:10492C00B700CD008301CC008A01920194012102D1
:10493C00230224022502260227022A02B300B40015
:10494C006F0070009F01CB019F02A002818283E265
:10495C0000E900EA00B500B600B700CD008301CC39
:10496C00008A0192019401210223022402250226CD
:10497C000227022A02B300B4006F0070009F01CB23
:10498C00019F02A002818283F4F5F6F731333236AF
:10499C003435919094664022B60D0435035703DAF2
:0649AC0002F302130300F8
:00000001FF
