:100000000C9429020C9461020C9461020C9461021C
:100010000C9461020C9461020C9461020C946102D4
:100020000C9461020C9461020C9466210C943922A8
:100030000C94EF1B0C9461020C9461020C9461020D
:100040000C9461020C9461020C9461020C946102A4
:100050000C9461020C94761C0C9461020C94610265
:100060000C9461020C9461020C9461020C94610284
:100070000C9461020C9461020C9461020C94610274
:100080000C9461020C9461020C9461020C94610264
:100090000C9461020C9461020C9461020C94610254
:1000A0000C9461020C9461020C94610214001A0019
:1000B0000800150017001C0018000C0012001300A7
:1000C00004001600070009000A000B000D000E00D6
:1000D0000F002A001D001B0006001900050011007A
:1000E00010002D0028000000E100E000E200000008
:1000F0002C00000050004F002152000029001A007F
:100100000800150017001C0018000C001200130056
:100110002B001600070009000A000B000D000E005E
:100120000F004C00E1001B00060019000500110043
:1001300010002D0028000000E100E000E2000000B7
:100140002C00000050004F002152000014001A0043
:100150000800150017001C0018000C001200130006
:1001600004001600070009000A000B000D000E0035
:100170000F002A001D001B000600190005001100D9
:1001800010002D0028000000E100E000E200000067
:100190002C00000050004F002152000014001A00F3
:1001A0000800150017001C0018000C0012001300B6
:1001B00004001600070009000A000B000D000E00E5
:1001C0000F002A001D001B00060019000500110089
:1001D00010002D0028000000E100E000E200000017
:1001E0002C00000050004F002152000000000000D1
:1001F000000000002A2B2800000000000000000082
:100200000000000000000029000000002C1E342027
:10021000212224342627252E362D3738271E1F204D
:100220002122232425263333362E37381F04050692
:100230000708090A0B0C0D0E0F10111213141516D6
:100240001718191A1B1C1D2F3130232D35040506D4
:100250000708090A0B0C0D0E0F10111213141516B6
:100260001718191A1B1C1D2F3130354C00000000C7
:10027000000000000000000000000000000000007E
:10028000000000000000000000000000000000006E
:100290007E0F00D4FFFFFFC700000078120371003B
:1002A0007500610069006C007A00330036000000C0
:1002B0001203730061006D00310064006100720080
:1002C000650000000403090409025B00030100A0AB
:1002D000FA090400000103010100092111010001D4
:1002E00022440007058103080001090401000203FC
:1002F00000000009211101000122220007058203EC
:100300002000010705030320000109040200010386
:1003100000000009211101000122B6000705840335
:100320002000011201000200000008313A0400011F
:1003300001010200010660FF0961A10109621500C7
:1003400026FF009520750881020963150026FF002D
:10035000952075089102C005010902A101850209D5
:1003600001A1000509190129081500250195087545
:100370000181020501093009311581257F9502753A
:1003800008810609381581257F95017508810605C4
:100390000C0A38021581257F950175088106C0C0B9
:1003A00005010980A101850319012AB7001501265D
:1003B000B700950175108100C0050C0901A10185E8
:1003C0000419012AA002150126A0029501751081C9
:1003D00000C005010906A1018506050719E029E706
:1003E000150025019508750181020507190029EFFF
:1003F0001500250195F075018102050819012905EF
:10040000950575019102950175039101C0050109DA
:1004100006A101050719E029E715002501950875D2
:100420000181029501750881010507190029FF1551
:100430000026FF00950675088100050819012905A9
:10044000150025019505750191029501750391012E
:10045000C00011241FBECFEFDAE0DEBFCDBF04B66F
:1004600003FE18C08091AF029091B002A091B1023A
:10047000B091B2028730904BA740B04B59F4109224
:10048000AF021092B0021092B1021092B202E0E0FC
:10049000F8E3099511E0A0E0B1E0E4E4FAE402C079
:1004A00005900D92A43AB107D9F722E0A4EAB1E091
:1004B00001C01D92AF3AB207E1F70E9484110C947B
:1004C000BB240C940000982F962B9430A8F44A304B
:1004D00098F4E42FF0E09AE0699FE00DF11D1124FB
:1004E00098E2899FE00DF11D1124EE0FFF1FE455E6
:1004F000FF4F85919491089581E090E0089581E007
:1005000008950E947F02089581E0089581E0089592
:100510000E948602089508950E948B020895A6E025
:10052000B0E0E5E9F2E00C94172449835A839E83F6
:100530003091AB0189819A8131111AC03E81311508
:1005400099F0211589F00E940F08182F682F8981D2
:100550009A810E94EB0769817A81812F0E94240F82
:100560002696E3E00C9433240E94FD07182FF3CF66
:100570000E940F0869817A81F1CFFC01262F40810A
:10058000518162817381848195810E948F020895D7
:10059000CF93DF93D82FC92F61E00E94BD026D2F4A
:1005A0007C2F0E948102DF91CF910895CF93DF933A
:1005B000D82FC92F60E00E94BD026D2F7C2F0E94B2
:1005C0008C02DF91CF91089581E008950E94E402AA
:1005D0000895CF93C82F0E94D9068C2F0E94E6025F
:1005E0002FEF84E39CE0215080409040E1F700C071
:1005F0000000CF91089581E00E94E9020E949A1CB8
:10060000089580E00E94E9020E94BE1C08950F93A5
:100610001F93CF93DF938C0161E00E94BD02EC0138
:10062000B8010E941819811509F442C0B801CE0121
:100630000E9488028115E1F1B801CE010E943218B2
:100640008115B1F1B801CE010E947713811581F1B6
:10065000B801CE010E944C13811551F1B801CE01B1
:100660000E947418811521F1F8018581811581F0AE
:10067000CA35FCE7DF0739F178F4C130ECE7DE0773
:10068000F9F0C330FCE7DF07C9F0C115DC4771F0B2
:10069000C8010E9484020DC0CB35ECE7DE07B1F043
:1006A000CC35DC47A9F70E945C0CF2CF0E94FB021C
:1006B00080E0DF91CF911F910F9108950E946D0C02
:1006C0000E940103F5CF0E94650CE2CF0E94690CE5
:1006D000DFCF0E94CB1B0E94890308950E948D03E7
:1006E0000E94D01B089581E008950895CF93DF9371
:1006F000D82F0E947303C82F811519F08D2F0E94E7
:1007000075038C2FDF91CF91089508950E94760391
:10071000089580E00E94860308950E94061A0E94B0
:1007200086030895CF930E94061AC82F8091A601D0
:100730008C1779F0C093A6010E945B1C6093A701FF
:100740007093A8018093A9019093AA018C2F0E9415
:100750008603CF910895ADE0B0E0E1EBF3E00C94B7
:100760001824488759876A877B878C879D879111D2
:100770000E94680B1F8286E0FE013896DE0111960A
:1007800001900D928A95E1F78D8181110DC029812B
:100790003A814B815C816D817E818F810E94B20A9A
:1007A0002D96E2E00C943424CE0101960E94C802FA
:1007B0008111EDCFF5CFFC018481813021F480815E
:1007C00091810E9438080895611529F00E94DD1476
:1007D0000E949E1508950E942615FACFCF93C82F28
:1007E000811599F08CEF8C0F813A88F48C2F0E9440
:1007F000AA1A811529F08C2F0E944F1B0E94FE0B14
:100800008C2F0E94381B0E94FE0BCF91089580E22E
:100810008C0F883048F4C77081E001C0880FCA95FA
:10082000EAF70E94490BEFCF8BE58C0F833038F449
:100830002C2F2452330BC9010E943C1AE6CFE8E565
:10084000EC0FEB3150F4F0E0EE0FFF1FE65EFE4FD1
:10085000808191810E94621AD8CF83E38C0F83310B
:10086000A0F661E08C2F0E94E403CFCF811581F1C7
:100870009CEF980F913A28F40E944F1B0E94FE0BA8
:10088000089590E2980F983050F4877091E001C07D
:10089000990F8A95EAF7892F0E944F0BEFCF9BE5BE
:1008A000980F933028F480E090E00E943C1A08955D
:1008B00098E5980F9B3128F480E090E00E94621A3E
:1008C000089593E3980F933118F460E00E94E403D5
:1008D00008950F931F93CF93C82F8B010E94EE03AF
:1008E0000115110539F48C2F0E943604CF911F9108
:1008F0000F9108958FE99FE00197F1F700C0000084
:1009000001501109EDCF60E570E0893311F060E02E
:1009100070E00E9469040895811521F00E94490B3E
:100920000E94FE0B0895811521F00E944F0B0E943A
:10093000FE0B0895A0E0B0E0E0EAF4E00C9412248D
:100940006C01D62FC72FFC011581068102950F700F
:100950000E943E0BE82E8115F9F0E12E1115E1F011
:100960008C2F807F803461F080E28D0F8830F0F032
:100970008C2F807E803221F4D230C0F00115B1F08E
:1009800080918D0282FF12C082E00E942F0C0E9493
:100990003E0B91E0E82EE926EC2FE295EF70C03C8B
:1009A000B0F5F0E0E354FB4D0C94FB23E12CF4CFC5
:1009B0000C2F0F70C03110F00295007F111599F0C7
:1009C000011559F080E28D0F883010F0D11107C069
:1009D000802F0E94490B0E94FE0B8D2F51C0802F4B
:1009E0000E945A0BF8CF8D2F0E943604011579F022
:1009F00080E28D0F883010F0D11104C0802F0E944A
:100A00004F0B03C0802F0E94600B0E94FE0BE1146D
:100A100089F00E943A0B80FD0DC0F60115820E94FC
:100A2000340B0E945A07C6010E94A0060E94340B94
:100A30000E946607CDB7DEB7E8E00C942E24FC2FA9
:100A4000FF70FF2EC07FC03219F0F29480EFF822C1
:100A5000D11541F0D130D1F1111509F444C001157F
:100A6000F1F0BBCF80918D0282FD15C0111559F0B8
:100A7000F11429F08F2D0E94490B0E94FE0B80E09B
:100A80000E94EE03C4CF80E00E943604F11409F402
:100A9000BECF8F2DB4CF111569F0011104C08F2D79
:100AA0000E948C04B4CF013009F0B1CF8F2D0E9489
:100AB000800BADCF0111ABCF8F2D0E9493048F2DF2
:100AC0000E948C0B8F2D0E946F0BA1CF111521F06E
:100AD000063008F09CCFE3CF053008F098CF8F2D7B
:100AE0000E94930494CF0115D1F3D93349F42FEF29
:100AF00087EE93E0215080409040E1F700C0000075
:100B00008D2F0E94360483CF8C2F86958695837017
:100B1000811569F0813009F07ACF8D2F9C2F937069
:100B2000111102C080E090E00E94621A70CF8D2FF8
:100B30009C2F9370111102C080E090E00E943C1A3B
:100B400066CF612F8D2F0E94E40361CF8C2F8370BD
:100B5000811134C0111124C04D2F42954695477024
:100B6000440F440F8D2F8F70042E01C0880F0A94FC
:100B7000EAF72D2F2071D4FF07C02FE030E001C02D
:100B8000220F4A95EAF72095C695C695C370822B29
:100B9000C23071F0C33079F0C13039F00E943607AD
:100BA0000E94061A0E94860332CF0E943007F8CFB7
:100BB0000E943C07F5CF0E942D07F2CF111539F1A5
:100BC000C0FFEECF4D2F429546954770440F440F1E
:100BD0008D2F8F70042E01C0880F0A94EAF72D2FF5
:100BE0002071D4FF07C02FE030E001C0220F4A95EA
:100BF000EAF72095C695C695C370822BC23069F07E
:100C0000C33071F0C13031F00E948807C9CF823003
:100C100038F2D8CF0E948207C3CF0E948E07C0CF80
:100C20000E944807BDCFCF70111539F08C2F0E945C
:100C30005A078D2F0E948C04B3CF8D2F0E949304EE
:100C40008C2F0E946607ACCFD23F41F170F4D03FA9
:100C5000C9F0D13F91F0111509F446C0011509F40E
:100C600040C08D2F0E94EE039BCFD33FF1F0D43FC5
:100C700091F780918D0282FD22C08C2F8F7111150A
:100C800001F310C0111541F0053008F089CF8C2F09
:100C90008F710E94760784CF0630F7CF8C2F8F712B
:100CA0001111CFCF0E945A077BCF111529F08C2F3D
:100CB0008F710E94510774CF0E944D0771CF11159B
:100CC00031F063E08C2F8F710E94100C69CF81E0AE
:100CD0000E942F0C023008F463CF82E00E942F0C98
:100CE0005FCF8C2F8F71DECF011579F0D93349F4A6
:100CF000EFEFF7EE23E0E150F0402040E1F700C0D5
:100D000000008D2F0E9436044BCF8C2F8F7199CF0E
:100D10000F931F93CF93DF93EC01688179818D81CD
:100D20000E9445088C010E9494070E942C07B8017C
:100D3000CE010E949A04DF91CF911F910F910895E7
:100D4000CF93DF93EC018C81811599F0CE010E9445
:100D50000703811111C00E943E0B811551F08D8156
:100D6000811539F080918D0282FF03C082E00E94DC
:100D70002F0CDF91CF910895CE010E948806CE01FD
:100D80000E94D602F6CF80E090E00E943C1A80E0FC
:100D900090E00E94621A0E94680B0E94FE0B0E9463
:100DA000BB150E949E1508950E94661B0E94C306F3
:100DB00008950E94570B0E94D4060895282F9295FB
:100DC0009F70963099F060F4925F9F70923030F48B
:100DD000203FB1F038F481E0283E38F080E00895FB
:100DE0009A5FF3CF81E0243FC9F7089591E0813FF6
:100DF00009F090E081E0283E08F080E0892B08951A
:100E000081E00895FC018481811539F08081918110
:100E10000E9438080E94DE06089580E00895A6E04A
:100E2000B0E0E5E1F7E00C9418242696E2E00C949B
:100E30003424A7E0B0E0EFE1F7E00C941824279603
:100E4000E2E00C94342408950E94230708950E9440
:100E500024078093BC01089508950E9427070895F0
:100E60009091BC01892B0E94270708959091BC01A5
:100E700089230E94270708959091BC0189270E9429
:100E8000270708950E94230708950E9442070895A6
:100E90000E9445078093BB01089580E00E944807A7
:100EA000089591E001C0990F8A95EAF7892F0E9471
:100EB0004807089521E030E001C0220F8A95EAF743
:100EC0008091BB01822B0E944807089521E030E009
:100ED000A90102C0440F551F8A95E2F7CA01809507
:100EE0009091BB0189230E944807089521E030E0DA
:100EF00001C0220F8A95EAF78091BB0182270E94E8
:100F0000480708959091BB01892B0E9448070895D6
:100F10009091BB0189230E94480708959091BB01DD
:100F200089270E944807089508959B01677091E002
:100F300001C0990F6A95EAF763E0369527956A959F
:100F4000E1F7B901660F771F260F371FFA01E20F8D
:100F5000F31F40E050E0682F70E08191DF019B01BA
:100F6000042E02C0369527950A94E2F72170219548
:100F70002827292328272E934F5F5F4F43305105A1
:100F800061F708959C01A82FA77083E036952795F7
:100F90008A95E1F7C901880F991F820F931FFB0102
:100FA000E80FF91F40E050E080E0219130E00A2E88
:100FB00002C0369527950A94E2F721703327042E54
:100FC00001C0220F0A94EAF7822B4F5F5F4F433034
:100FD000510559F70895282F862F943068F42A3048
:100FE00058F4622F70E02AE0929F600D711D112469
:100FF0004CEA51E00E9495070895292F943068F437
:101000008A3058F490E06CEA71E03AE0239F800D5A
:10101000911D11240E94C207089580E00895A0E068
:10102000B0E0E5E1F8E00C9413247C010091BB01F1
:101030008091BC01082BC3E0D0E010E0C8010C2E69
:1010400002C0959587950A94E2F780FD09C0219723
:10105000A8F7D12C8D2DCDB7DEB7E7E00C942F2467
:10106000DC2EB7018C2F0E94300F019781F3F2CF55
:10107000CF93DF93D82FC92F0E940F086D2F7C2F9D
:101080000E94300FDF91CF9108951F93CF93DF938C
:10109000162FD72F9091AB01911541F0862F972FE6
:1010A0000E943808DF91CF911F910895811581F03A
:1010B000862F972F0E940F08C82F682F812F9D2FF2
:1010C0000E94EB07612F7D2F8C2F0E94300FEACFFB
:1010D000862F972F0E94FD07C82FF4CFE1E0F0E0A4
:1010E000DF0102C0AA0FBB1F6A95E2F7BD01DF0155
:1010F00002C0AA0FBB1F4A95E2F76A2B01C0EE0F90
:101100002A95EAF7962F9823961302C08E2B0895FE
:10111000E0958E230895242F462F682F8091BB01E0
:101120000E946E080E94480708950F931F93CF9363
:10113000E091BD01C7E08091BE018E1304C0CF9144
:101140001F910F9108950E2F10E0CE9FF0011124F2
:10115000E154FE4F20813181428153816481758148
:1011600086810E941907F8013196E770E4CF20913B
:10117000F7013091F8014091F9015091FA01609125
:10118000FB017091FC018091FD010E9419070895F7
:101190008091FD01803178F48091FC01811559F036
:1011A000E091BD012091BE013091F8014091F7011D
:1011B00057E02E1301C008956E2F70E05E9FF0017E
:1011C0001124DF01A154BE4F14968C911497811500
:1011D00061F111968C911197831327C08C91841320
:1011E00024C015968C91159781111FC012968D9170
:1011F0009C91A091F901B091FA018A1B9B0B883C4C
:10120000910598F48091FD018F7080618093FD01BC
:10121000EB53FE4F80818F708061808387EF91E078
:101220000E94A0060E9495080895FB013196E77080
:10123000C0CFE091BD019091BE0127E0E91302C04B
:1012400080E00895AE2FB0E02E9FF0011124E1540C
:10125000FE4F3181361306C03081381303C035810B
:10126000341304C0FD013196E770E8CF81E00895A2
:101270008F929F92AF92BF92DF92EF92FF920F9365
:101280001F93CF93DF93CDB7DEB72D970FB6F894AA
:10129000DEBF0FBECDBF8C0186E0F801DE011896DF
:1012A00001900D928A95E1F7F801F580848197EF1E
:1012B000892E91E0992E9091FB0191111BC081150F
:1012C00009F4FFC0F11409F440C1C8010E940207EB
:1012D000811509F43AC187E0F801D40101900D921B
:1012E0008A95E1F7C4010E94DB030E94C8080E94AE
:1012F000B708E7C0E080A280B380D090FC012091C5
:10130000F9013091FA01A501421B530BD11409F4E4
:10131000DBC0483C510508F0A6C0811509F4D1C0D6
:101320009091F80191808091FD01803108F06BC0AF
:10133000991228C09091F7019E1124C0F1105DC050
:101340008F7080618093FD010E94B70887EF91E064
:101350000E94A0068091FD01F8018683F12C8F2D5B
:101360002D960FB6F894DEBF0FBECDBFDF91CF91A3
:101370001F910F91FF90EF90DF90BF90AF909F90E3
:101380008F900895F11039C040E0692D8E2D0E9494
:10139000190940E0692D8E2D0E941909F82E81113E
:1013A000DDCF888599850E943808292F22952F70D6
:1013B000903450F49F70223080F0911599F0F8012C
:1013C0009681903178F4CBCF2A5F2F70223078F05D
:1013D000C8010E94A006FD2CC2CF911519F08115FD
:1013E00009F4BDCF805E883008F4B9CFF1CF803FDB
:1013F00008F4B5CF815F8330F7CF8091FD01816024
:101400008093FD01ABCF991207C09091F7019E1117
:1014100003C0F11409F479C0C8010E9402078115C4
:1014200009F493C0F11409F490C08091FD01803259
:1014300088F02091F7013091F8013A832983BC822A
:10144000AB829091FB019D831E828F83CE0101961A
:101450000E94A00687E0F801A7EFB1E001900D928D
:101460008A95E1F742CF9091FD019031A0F4488533
:1014700059856A857B858C859D850E940F0787EF3E
:1014800091E00E94A00687E0F40111928A95E9F7A5
:101490000E94B70863CF8115A1F02091F8018181E6
:1014A0002813BACF8091F7018E11B6CFF110B4CFC7
:1014B0009683C8010E94A00687E0F40111928A95E4
:1014C000E9F7FF24F3944BCF483C510508F041C0A5
:1014D0008115B9F3F114C9F19091F8018181981344
:1014E0002AC08091F7018E1126C08091FD0180FDF8
:1014F00019C08031B8F08683807F803F39F08681C3
:10150000982F907F905F8F70892B8683C8010E94EF
:10151000A00687E0F801A7EFB1E001900D928A954F
:10152000E1F7E5CE87E0F801A7EFB1E001900D9279
:101530008A95E1F7C6CFC8010E94020781118ACFC0
:101540008091FD0181608093FD01C8010E94A00689
:10155000B8CF488559856A857B858C859D850E9495
:101560000F0791CFAEE0B0E0E8EBFAE00C9417245F
:10157000288739874A875B876C877D878E87CE016E
:1015800008960E9438096C858115A9F0611541F013
:10159000288539854A855B857D858E850E9419075A
:1015A00017E08091BD019091BE0189133AC02E963B
:1015B000E3E00C94332487E0FE013896DE011196B7
:1015C00001900D928A95E1F7611551F3A091BE014A
:1015D0008A2F90E00196877099272091BD012817E6
:1015E000190689F097E09A9FD0011124A154BE4FAB
:1015F000FE01319601900D929A95E1F78093BE011C
:101600000E949508CDCF0E94D9061092BE0110927B
:10161000BD0187E0E7EFF1E0DF011D928A95E9F770
:10162000BFCF189FC001112481549E4F0E943809DA
:10163000811509F4BCCFE091BD011E9FF00111247A
:10164000E154FE4F20813181428153816481758153
:1016500086810E9419078091BD0190E001968770F4
:1016600099278093BD019DCF80912602869586950E
:10167000869508958091260287700895909126029C
:10168000977081E0911101C080E00895809152022D
:10169000089590915202982B909352020895982F9A
:1016A000909580915202892380935202089510925E
:1016B0005202089590915102982B909351020895EF
:1016C000982F90958091510289238093510208951B
:1016D00010925102089508950E946B0B0895909105
:1016E0002702292F2823211531F080958923809303
:1016F00027020E946C0B089508950E947C0B0895A8
:1017000090912802292F2823281729F0982B9093AD
:1017100028020E947D0B089590912802292F2823EA
:10172000211531F080958923809328020E947D0B3A
:10173000089580912802811529F01092280280E0F6
:101740000E947D0B0895CF93C09152028091510267
:10175000C82B80912802811531F0C82B0E94881A6D
:1017600081110E94990B8C2FCF910895CF93DF9315
:10177000C0910201D09103010E94A30B8883C09104
:101780000201D091030148E050E06EE172E0CE0129
:101790000E945324892B59F088E0FE01AEE1B2E0AB
:1017A00001900D928A95E1F7CE010E94131ADF9104
:1017B000CF910895CF93DF93C0910001D0910101A3
:1017C0000E94A30B8983C0910001D091010140E2E6
:1017D00050E06EEF71E0CE010E945324892B59F046
:1017E00080E2FE01AEEFB1E001900D928A95E1F743
:1017F000CE010E941E1ADF91CF91089580911901A8
:10180000811539F080918C0287FF03C00E94DA0BAA
:1018100008950E94B60B089508950E940C0C089537
:10182000962F20918D0222FF11C0682F660F660F40
:10183000660F692B609326020E945A078091260248
:101840008695869586950E940D0C08950E945A07EC
:1018500008951092260280E00E940D0C0895909148
:1018600026028095892380932602282F2770211134
:101870000DC0891759F090918D0292FF07C086958F
:10188000869586950E9466070E94290C089590917E
:101890008D0292FB222720F9281769F080FB92F92C
:1018A00090938D0280918C0290918D020E948F0CFA
:1018B00082E00E942F0C089580918D02002482FF07
:1018C0000394802D0E94470C089581E00E94470CEC
:1018D000089580E00E94470C08956FEF7FEF80E04D
:1018E00090E00E94A524089580E090E00E94712479
:1018F000853E9E4F19F40E94AF18089580E0089528
:1019000082E090E00E946924089583E090E00E94C4
:101910006924089584E090E00E9471240895BC0138
:1019200084E090E00E94A5240895AB01BC018FE003
:1019300090E00E9499240895AB01BC0183E190E0FE
:101940000E949924089560E070E0CB010E949C0CF5
:10195000089560E070E0CB010E94950C0E94A30CFA
:101960000895A8E0B0E0E7EBFCE00C94182465EEE5
:101970007EEF80E090E00E94A52460E082E090E0AD
:101980000E94872481E08093BC0161E083E090E0C5
:101990000E94872460E074E184E090E00E94A52426
:1019A00060E086E090E00E94872460E087E090E0BD
:1019B0000E94872440E050E0BA0188E090E00E9455
:1019C000992460E083E290E00E94872460E08CE04C
:1019D00090E00E94872460E08DE090E00E948724E0
:1019E00019821A821B821C821D821E821F82188607
:1019F00048E050E067E170E0CE0101960E94772454
:101A000040E050E0BA018FE190E00E94992480E02C
:101A10000E94C8180E94FA180E94A90C2896E2E0B9
:101A20000C9434240E94B10C0895682F8EE090E04D
:101A30000E9487240895A6E0B0E0E1E2FDE00C9466
:101A400016240E944F1C8C018091530290915402E5
:101A50008017910779F019821A820E944F1CBC01ED
:101A600049815A8180E090E00E94AB0310935402B8
:101A7000009353022696E4E00C9432240E945B1CEF
:101A80006093610270936202809363029093640298
:101A900060935D0270935E0280935F029093600298
:101AA0000895089508950E94510D089508950E9483
:101AB000560D089585E290E10E949B110E94520DFF
:101AC0000E94530D089581E0089581E008950E94D9
:101AD000630D0895089508950E946A0D0E946B0D8C
:101AE00008950E94740C811102C00E94120D0E9480
:101AF000800C809365020E948A0C90938D028093E3
:101B00008C020E94BE110E94850C0E942D078091BC
:101B1000BB010E94450708950E94461C0E940A19B5
:101B20000E94EC100E94710D0E9485030E94570DC7
:101B30000895A6E0B0E0EFE9FDE00C940C240E94CB
:101B4000650D81110AC00E941B0D0E94DC150E94C8
:101B500092032696EEE00C9428240E94021125E5BB
:101B6000822E22E0922E540110E0F50161907190D6
:101B70005F01812F0E942F106C011F5F143009F448
:101B80004AC06816790689F38091650281FD0E943A
:101B900038100E94670D782E10E066246394812F20
:101BA0000E942F107C01F401A190B1904F018A1581
:101BB0009B0559F1A826BF2400E0CC24C394D12C66
:101BC000C5018C219D21892BC1F07114B1F00983CD
:101BD0001A830E944F1C9C838B836D8221E0C70176
:101BE0008C219D21892B09F420E049815A816B8148
:101BF0007C818D81922F0E94AB030F5FCC0CDD1C8A
:101C00000A30F1F6F401F292E2921F5F143039F6D5
:101C10000E943E0D9ACF6816790609F0B5CF93CF92
:101C20001F93CF93DF930E94350FEC01811522E5BE
:101C3000920708F05DC0811540E5940708F0DBC00D
:101C4000803E910528F58D3C910508F0ACC0883A9E
:101C5000910578F4853A910508F0A2C0813091058C
:101C600009F441C00497813A9105E8F1C0E0D0E061
:101C70003AC0885A91094B97C8F7C85AD0E0CC0FA0
:101C8000DD1FC05BDE4F0990D881C02DD4642BC00E
:101C9000811550E49507F8F4C11580E2D80708F0E3
:101CA000C0C0C83ED105F8F0CE019A9581159F417C
:101CB000E8F68D2F0E94D60F182FCE0199270E948B
:101CC000350F212F30E0322F2227E901CC27DF7199
:101CD000C82BD92B08C099270E94350FCC27DF705D
:101CE000C82BD92BD06ACE01DF91CF911F910895D7
:101CF000803842E59407C8F5803652E5950708F02C
:101D00005BC0C03482E5D807D0F4C03292E5D90771
:101D100008F04BC08C2F8695869520E2829FC001EB
:101D20001124C37021E030E0A90102C0440F551F07
:101D3000CA95E2F7EA01C82BD92BDD68D4CF8C2FE6
:101D400086958695877050E2859FC0011124C370E7
:101D500021E030E0A90102C0440F551FCA95E2F707
:101D6000EA01C82BD92BDC68BECF803C52E5950731
:101D700058F48F71C03AD245A0F590E0982F88278B
:101D8000EC01C46FD06AAFCF805C9245809708F0B9
:101D90006DCFDC2FCC27CC27DF71C06FD06AA3CFEB
:101DA000A497D064A0CFD0659ECFCF71D0E0DC2FB8
:101DB000CC27C16FD06A97CF86958695877020E231
:101DC000829FC0011124C37021E030E0A90102C04C
:101DD000440F551FCA95E2F7EA01C82BD92BDA68E0
:101DE00082CF0E94D60FC82FD0E0DC2FCC27CC2783
:101DF000DF71D06278CF8F710E94D60F53E0CC0F85
:101E0000DD1F5A95E1F7CC27DF70282F30E084FFE3
:101E100004C050E1859F90011124C22BD32BD069BF
:101E200062CF8D2F8F710E94D60F182FCE01992768
:101E30000E94350F212F30E0322F222722273F71B9
:101E4000282B392BE901D5CF462F672F743028F482
:101E50004A3018F40E947212089580E090E00895CC
:101E60000E94240F0E94100E08959C01803E91054F
:101E700009F448C0D8F48133910509F47DC048F4D1
:101E80008932910509F46DC08A9709F47CC0C901B3
:101E900008958933910551F18238910539F1C5973B
:101EA000B1F780918C0285FFF2CF29C0843E910565
:101EB00009F447C048F4823E910599F1833E9105AB
:101EC000A9F121EE30E0E3CF863E910509F444C04C
:101ED000873E9105E1F680918C0283FD61C090916F
:101EE0008D0291FF2BC024EE30E0D1CF80918C0287
:101EF0008370811152C080918D0283FFC8CF29E287
:101F000030E0C5CF80918C0280FD33C090918D026E
:101F100090FFBDCF23EE30E084FFB9CF20E030E06A
:101F2000B6CF80918C0282FDF5CFB1CF80918C022B
:101F300082FD30C090918D0290FD2FC084FFA7CF0D
:101F4000EDCF80918D0281FFA2CF80918C0227EE90
:101F500030E084FDE3CF9BCF80918C0283FDF7CFEF
:101F600096CF80918C0285FD1EC080918D0283FFEB
:101F70008ECF29E330E08BCF80918C0286FF87CF14
:101F80002AE230E084CF80918C0286FF80CF21E36B
:101F900030E07DCF22EE30E07ACF20EE30E077CF18
:101FA00026EE30E074CF25E330E071CF90918C02C3
:101FB00092FF10C041E0282F2471243009F040E046
:101FC00031E0282F2871283009F030E0431711F054
:101FD0002CE0822793FF10C041E0282F2471243188
:101FE00009F040E031E0282F2871283109F030E075
:101FF000431711F02CE0822730918D0230FF10C082
:1020000051E0282F2171213009F050E041E0282FC4
:102010002871283009F040E0541711F029E0822798
:1020200031FF10C041E0282F2171213109F040E03B
:1020300031E0282F2871283109F030E0431711F0E2
:1020400029E0822794FD877E089580E00895089511
:102050000E942710089508950E942B100895E82FDC
:10206000F0E0EE0FFF1FEA56FD4F80819181089549
:10207000089580EA8A95F1F7089500C008950E94B6
:1020800039100895F894E82FE295EF70F0E041A13F
:102090008F7021E030E0B90102C0660F771F8A958A
:1020A000E2F7CB01962F9095942391A392A1892BCF
:1020B00082A378940895CF93DF9381E90E94421020
:1020C00080E90E94421084E90E94421086E60E9444
:1020D0004210C6E8D1E089918F3F11F00E94421072
:1020E00081E0C039D807B9F7DF91CF9108958F9279
:1020F0009F92BF92CF92DF92EF92FF920F931F9326
:10210000CF93DF938C01B62EE62EF12CC7018057BA
:102110009E4F6C01FC0180818F3F09F451C0F894FF
:10212000E82FE295EF70F0E091A18F7021E030E0B0
:1021300001C0220F8A95EAF7892F822B81A382A101
:102140002095282322A378940E943D10E6E8F1E030
:1021500021E030E0812C912C41914F3F81F0A42F60
:10216000A295AF70A05EB0E08C9190E04F7002C07D
:10217000959587954A95E2F7E90180FF04C080E0D4
:10218000C82F90E0D92F8C2A9D2A220F331F81E07F
:10219000E039F80709F7F60180818F3F11F00E94BE
:1021A000421061E08114910409F460E08B2D0E94DB
:1021B0003F10EE0CFF1C0E0D1F1DF8019182808256
:1021C000DF91CF911F910F91FF90EF90DF90CF9013
:1021D000BF909F908F9008950E945B1088E0E6E981
:1021E000F2E0DF01982F1D929A95E9F7EEE8F2E010
:1021F000DF011D928A95E9F784E00E943F110E9459
:1022000028100895A8E0B0E0E8E0F1E10C9415246E
:10221000FE01319688E0DF011D928A95E9F710E012
:10222000FE2E0F2F612F8F2D902F0E9477101F5F92
:102230001430C1F748E050E06F2D702F8EE892E027
:102240000E94532421E0892B81F420E044E066E9D8
:1022500072E08EE892E00E944011182F0E942C102C
:10226000812F2896E5E00C94312488E0EF2DF02FA3
:10227000AEE8B2E001900D928A95E1F7E7CF0895BC
:10228000A0E0B0E0E6E4F1E10C941224D82EE92EAF
:10229000F62ED72F042FC22F211579F081E08093DD
:1022A00068020E944F1C909367028093660280E050
:1022B000CDB7DEB7E8E00C942E24C0906802C114BC
:1022C000B1F380916602909167020E94671C0597A6
:1022D00070F310E0000F111FA8016D2D7E2D8F2DC2
:1022E0009D2F0E945324892B41F0A8016D2D7E2D36
:1022F0008F2D9D2F0E946024CC2D109268028C2F70
:10230000D7CF0E94990D08950E94E81B0E94551E88
:102310000E945A0D0E946F1E0E948C0D0E947C1E0E
:102320000E94811E0E9481110E949B1E0E94251DF9
:102330000E946C0DF5CF9093A5018093A4010895A0
:102340000E946D0C089580E00E942F108170089506
:102350000E9402112FEF86E791E0215080409040CB
:10236000E1F700C000000E9402110E94A311811534
:1023700021F00E94A0110E949A1C08950E94A811A9
:10238000089584E0089550E0440F551F94E1699F3B
:10239000400D511D112490E5899F400D511D1124C0
:1023A000CA01889608950F931F93CF93DF93982FB8
:1023B000962B9430B8F44A30A8F40E94C3118C01D3
:1023C0000E946924C82FD0E0DC2FCC27C8010196D9
:1023D0000E9469249E01282BC901DF91CF911F9192
:1023E0000F91089580E090E0F8CF0F931F93CF9363
:1023F000DF93122F032F982F962B943068F44A30D6
:1024000058F40E94C311EC01602F0E948724612FB1
:10241000CE0101960E948724DF91CF911F910F91E9
:1024200008951F93CF93DF93D0E0C0E011C0412FF8
:102430006C2F8D2F0E9463029C01412F6C2F8D2FDA
:102440000E94F5111F5F1A3091F7CF5FC43011F071
:1024500010E0EDCFDF5FD43041F7DF91CF911F91D6
:102460000895EF92FF920F931F93CF93DF938C0108
:10247000EA017A01E60EF71ECE15DF0529F4CDB785
:10248000DEB7E6E00C943024003481E0180740F415
:10249000C80188960E94692489930F5F1F4FECCF73
:1024A00080E0FACFEF92FF920F931F93CF93DF93C9
:1024B0008C01EA017A01E60EF71ECE15DF0529F43C
:1024C000CDB7DEB7E6E00C943024003481E0180785
:1024D00028F46881C80188960E94872421960F5F9E
:1024E0001F4FEBCF982F962B943028F44A3018F4D6
:1024F0000E94D311089580E090E0089580E108954E
:1025000088E992E00895EF92FF920F931F93CF9383
:10251000DF938C01EA017A01E60EF71ECE15DF0586
:1025200029F4CDB7DEB7E6E00C943024083982E018
:10253000180748F4C80188599E4F0E94692489935E
:102540000F5F1F4FEBCF80E0FACFEF92FF920F9318
:102550001F93CF93DF938C01EA017A01E60EF71EF9
:10256000CE15DF0529F4CDB7DEB7E6E00C943024B4
:10257000083982E0180730F46881C80188599E4FF5
:102580000E94872421960F5F1F4FEACFCF93DF93DE
:10259000C8E6D1E060E0CE010E9487242196C115F3
:1025A00084E0D807B9F7DF91CF910895A8E0B0E0B3
:1025B000ECEDF2E10C941024F82E20E1821708F0E3
:1025C00067C08FEF93E00E946924811161C008E623
:1025D00011E0F11033C0FE0131965F0188E01192E5
:1025E0008A95E9F76801FFEFCF1ADF0AC8010E9458
:1025F000692489831A82811509F44AC08130C1F4A3
:10260000780122E0E20EF11CC6010E9469248A834F
:102610008115F1F19FEF980F9330E8F482E0C80E36
:10262000D11CC7010E9469248B83811589F11C820A
:1026300060E0C5010E9461178601D4CF011584E0D6
:10264000180731F1C8010E9469240F5F1F4F8111E3
:10265000F5CFFA94BECF8430A1F402E010E0C701B8
:10266000EFEFEE1AFE0A0E946924F501E00FF11F58
:102670008083811569F08C3731F4FE01E00FF11F82
:1026800012826701D5CF0F5F1F4F0730110539F751
:102690002896EAE00C942C24CF93DF93EB0186314B
:1026A0009C4719F50E94460B9D819115A1F08A7AED
:1026B00091E0811101C090E090936902811549F089
:1026C00085E30E94381B0E94FE0B80E0DF91CF91D2
:1026D000089589E2F6CF80916902811521F085E3A2
:1026E0000E944F1BF0CF89E2FBCF81E0EFCFCF9369
:1026F000DF93EC01FB018581811509F4CFC09E01B8
:1027000030572332310508F0AFC00E948A0C9093F5
:102710008D0280938C02FE01E150F047E232F10518
:1027200020F4E753FB4D0C94FB2380918C028160D5
:1027300080938C0290C080918D02886080938D027E
:102740008AC080918C028260F3CF80918C02846079
:10275000EFCF80918C028860EBCF80918D028160F9
:10276000EDCF80918D028260E9CF80918C028061F3
:10277000DFCF80918C028062DBCF80918C028064FD
:10278000D7CF0E94D90680918C028068D1CF8091EA
:102790008C028C60CDCF80918D028360CFCF8091F1
:1027A0008C028E7FC5CF80918D02877FC7CF8091AD
:1027B0008C028D7FBDCF80918C028B7FB9CF8091B1
:1027C0008C02877FB5CF80918D028E7FB7CF8091AD
:1027D0008D028D7FB3CF80918C028F7EA9CF8091A7
:1027E0008C028F7DA5CF80918C028F7BA1CF0E9420
:1027F000D90680918C028F779BCF80918C02837F4A
:1028000097CF80918D028C7F99CF80918C029927F0
:1028100082FF939590FB82F990FB83F989CF809199
:102820008D02982F909590FB80F990FB81F986CFCF
:1028300090918C02892F8F7B96FF806479CF0E94C4
:10284000D90690918C02892F97FB87F9805870CF19
:1028500081E00E94150D80918C0290918D020E9462
:102860008F0C0E94D90680E0DF91CF91089580E01F
:10287000F0CF90918C02892F8F7E94FF806158CF8A
:1028800090918C02892F8E7F90FF816051CF909123
:102890008D02892F877F93FF886050CF81E0E4CF3E
:1028A000282F35EB2303C001112497FF04C0805863
:1028B0009109892F089580589F4FFBCF8091700216
:1028C00080FF0DC06091090170E0660F771F6038CE
:1028D0007105B0F561157105A9F1862F089581FF85
:1028E00007C06091090184E0689FB0011124EFCF17
:1028F00082FF04C06091090188E0F6CF90916F02D9
:102900009115D9F02091080180910901682F70E09C
:10291000921730F043E0660F771F4A95E1F7D7CF63
:10292000899FC001112433E0880F991F3A95E1F780
:10293000622F70E00E94E723CACF68E070E0CDCF3D
:102940008FE7089581E008958091700280FF0CC0A8
:102950006091050170E075956795759567956115AE
:10296000710549F1862F089581FF06C06091050128
:1029700070E075956795F3CF6091050182FD0BC0FE
:1029800090916E029115A1F0609104018091050172
:10299000961738F0682F70E06038710500F38FE704
:1029A0000895899FC001112470E00E94E723F4CFAD
:1029B00061E070E0D7CF81E00895E3E3E80FE33111
:1029C000E0F5F0E0E551FB4D0C94FB230E945E1412
:1029D00081958093740208950E945E14FACF0E943C
:1029E0005E1481958093730208950E945E14FACF5D
:1029F0000E94A4148093750208950E94A4148195E6
:102A0000F9CF0E94A41481958093760208950E94C4
:102A1000A414FACF815D990B21E030E001C0220FB0
:102A20008A95EAF780917202822B80937202089550
:102A3000809170028160809370020895809170028D
:102A40008260F9CF809170028460F5CF409173026B
:102A50008D3C59F48091740287FF0DC0109274026E
:102A6000411559F410926F0208C08E3C81F4809198
:102A7000740218169CF3411581F0809175029091B3
:102A80007602892B811159C010926E0208958F3CF5
:102A900041F447FFF0CF10927302809174028115C8
:102AA000E0CF803D19F41416B4F3E5CF9091750290
:102AB000893D29F41916FCF610927502DCCF8A3D87
:102AC00019F497FFD8CFF8CF909176028B3D29F477
:102AD00097FFD1CF10927602CECF8C3D19F4191604
:102AE000CCF3C9CF9FE2980F983090F4815D990B99
:102AF00021E030E0B90102C0660F771F8A95E2F746
:102B0000CB01809590917202892380937202B3CF9A
:102B10008D3D31F4809170028E7F80937002ABCF37
:102B20008E3D21F4809170028D7FF7CF8F3D09F0AB
:102B3000A2CF809170028B7FF0CF08950E944F1C2E
:102B40002091730230917402232B211521F0809380
:102B50006C0290936D022091750230917602232BC6
:102B6000211521F080936A0290936B0281E792E035
:102B70000E942D1A089586E0E1E7F2E0DF011D9240
:102B80008A95E9F710926F0210926E02109270020D
:102B90000895FC01828181110DC0838181110AC0D9
:102BA0008481811107C081E09581911101C080E08D
:102BB0008170089581E0FCCFA6E0B0E0E2EEF5E19F
:102BC0000C94122486E0E1E7F2E09E012F5F3F4F74
:102BD000D90101900D928A95E1F71092730210923B
:102BE000740210927502109276028B819C81892B5F
:102BF0007901811589F080916C0290916D020E949B
:102C0000671C6C0180916F028115B9F190910A01E6
:102C10009C151D0408F43EC08D819E81892B811571
:102C200091F080916A0290916B020E94671C8C0166
:102C300080916E02811509F45FC090910601901792
:102C4000110608F467C0B70181E792E00E94801B7B
:102C5000811105C081E792E00E94C91581110E948F
:102C60009E1586E0F701A1E7B2E001900D928A95EA
:102C7000E1F72696E8E00C942E2420910B019AE0CF
:102C8000299F900111242C153D0530F68F5F80930C
:102C90006F0202C08F3FD1F7DB80D11459F00E9440
:102CA0005E1491E01D140CF09FEF899F802D11247C
:102CB00080937302DC80D11459F00E945E1491E07D
:102CC0001D140CF09FEF899F802D112480937402B6
:102CD00080917302811509F49FCFD0907402D114B2
:102CE00009F49ACF0E945014809373028D2D0E9494
:102CF00050148093740290CF209107019AE0299F8D
:102D0000900111242017310708F09DCF8F5F809329
:102D10006E0202C08F3FD1F71D81111559F00E943C
:102D2000A41491E011160CF09FEF899F802D1124BF
:102D3000809375021E81111559F00E94A41491E030
:102D400011160CF09FEF899F802D1124809376023D
:102D500080917502811509F476CF109176021115D4
:102D600009F471CF0E94501480937502812F0E9444
:102D700050148093760267CFA0E0B0E0E2ECF6E179
:102D80000C941124E82FF0E0E451FE4FB490282F6A
:102D900026952695269530E0F901E457FD4F0491DC
:102DA000877010E0082E02C0159507950A94E2F787
:102DB00001701127F901E458FD4FE490F12C082E21
:102DC00002C0F594E7940A94E2F7E0FAEE24FF24B7
:102DD000E0F8F901E459FD4FC491D0E002C0D59567
:102DE000C7958A95E2F7C170DD27C62ED12C011553
:102DF000110549F5E114F10431F086EE0E94EE036D
:102E0000C601009771F5B6018B2D0E946904C601B9
:102E1000009779F5E114F104A1F50115110531F0E0
:102E200081EE0E943604C6010097C9F5CD2B31F022
:102E30008CE20E948304C114D104C9F5CDB7DEB77A
:102E4000E9E00C942D2481EE0E94EE03C601009768
:102E500089F2EFE9FFE03197F1F700C00000019738
:102E6000F6CFEFE9FFE03197F1F700C000000197DE
:102E7000C8CFEFE9FFE03197F1F700C000000197FC
:102E8000C7CF86EE0E943604C601009731F2EFE903
:102E9000FFE03197F1F700C000000197F6CFEFE9AE
:102EA000FFE03197F1F700C000000197BDCF8FE937
:102EB0009FE00197F1F700C0000091E0C91AD10826
:102EC000BACFEF92FF921F93CF93DF93EC01162FAF
:102ED0008881811509F45AC0813009F053C0898175
:102EE000813071F47E0182E0E80EF11C8A810E943B
:102EF0008304E701812F90E00097E1F52196E8CF68
:102F0000823041F47E01E2E0EE0EF11C8A810E94E3
:102F1000EE03EFCF833041F47E01F2E0EF0EF11CBF
:102F20008A810E943604E5CF843011F02196E2CFE9
:102F30002A81229680E090E06AE0AE014F5F5F4F09
:102F40002053330B2A30310550F0009799F2EFE906
:102F5000FFE03197F1F700C000000197F6CF689FBE
:102F6000F001699FF00D1124C9018E0F9F1F298167
:102F7000EA01E3CFEFE9FFE03197F1F700C000008D
:102F80000197BACF612F0E94BC16B8CFDF91CF91C5
:102F90001F91FF90EF9008950F931F93CF93DF93AE
:102FA000C42FD22FFC0185818115C9F0409379028D
:102FB0000E944F1C909378028093770280E28C0FDE
:102FC000883040F4C77081E001C0880FCA95EAF7E5
:102FD0000E948C04DF91CF911F910F910895109161
:102FE0007902141333C080917702909178020E9485
:102FF000671C883C910550F5C0E2CD0F1D17C1F04C
:1030000080E2810F883040F4177081E001C0880FA2
:103010001A95EAF70E949304C83050F491E08D2F7E
:10302000877001C0990F8A95EAF7892F0E948C0456
:10303000802F0E948304C83068F6D77081E001C0F9
:10304000880FDA95EAF70E949304C4CF80E28C0FD0
:10305000883008F0BFCFC77081E001C0880FCA95E3
:10306000EAF7F1CF0F93DB01FC01E851FC47E730B1
:10307000F10598F5E250FB4D0C94FB2306E221EE9E
:1030800041EE6AE17CE7CD010E94CC1780E00F9110
:10309000089507E225EE45EE6BE17CE7F4CF06E20A
:1030A00021EE40EE68E17CE7EECF07E225EE44EE4C
:1030B00069E17CE7E8CF06E221EE42EE6CE17CE7D5
:1030C000E2CF07E225EE46EE6DE17CE7DCCF08E2D9
:1030D00021E045EE6EE17CE7D6CF15968C9181110B
:1030E0001092790281E0D3CFCF93DF939C01FB0153
:1030F00027378CE7380739F028373C47F1F081E073
:10310000DF91CF9108958581811591F00E94A618D5
:103110000E945A070E94AC18D82F0E94A918C82FE5
:103120000E94A6184D2F6C2F0E948B0880E0E8CFDC
:103130000E94A6180E946607EDCF8581811519F0BF
:103140000E94A918E5CF0E94A918F4CF80910E0122
:10315000089580910D01089580910C01089584E2F5
:1031600090E00E946924843289F485E290E00E9414
:103170006924893059F486E290E00E94692491E044
:10318000843009F090E0892F8170089580E0FCCFB1
:10319000CF93C82F64E2811101C06FEF84E290E009
:1031A0000E94872469E0C11101C06FEF85E290E0C1
:1031B0000E94872464E0C11101C06FEF86E290E0B5
:1031C0000E948724CF910895089587E290E00E949D
:1031D0006924682F70E080E090E008950895CF930F
:1031E000C62F0E94EE186C2F87E290E00E94872481
:1031F000CF91089580E00E94C81860E070E0CB0194
:103200000E94EF180E9411120E94C61281E00E94D3
:10321000C81808950E94E4180E94E5180E94EE184C
:103220000E94AF18811102C00E94FA1808950895F3
:103230009C01FB018581811551F0A9015757403848
:10324000510530F4822F0E94D61280E0089581E06B
:1032500008952FEFFC01208308950E9429190895F5
:1032600080E00895CF92DF92FF920F931F93CF9348
:10327000DF93EC01F62E0E943019811110C0E88115
:10328000E150E331E0F4F0E0EB5FFA4D0C94FB2306
:1032900019828CE08A836F2DCE010E941B1DDF9165
:1032A000CF911F910F91FF90DF90CF90089589816A
:1032B0008330F9F038F4813061F0823099F08FEF8B
:1032C0008883E9CF8430D9F71A821B821C821D8241
:1032D000E2CF0E945B1C0E9401246A837B838C8363
:1032E0009D83D9CF0E94E5181A821B821C826D83B0
:1032F000D2CF0A8110E06E01F2E0CF0ED11C043073
:1033000011054CF6802F0E942F10F60191838283C5
:103310000F5F1F4FF1CF8981823031F0853079F610
:103320008A810E941719B7CF6A817B818C819D8128
:103330000E9401240E94EF18AECF4B816A818981DF
:103340000E94D3119827892798279D838C83A3CF28
:103350002C813D813227232732274B816A81898145
:103360000E94F51198CF0E94111295CF6F2DCE01BA
:103370000E942D1990CF0E947E1289838CCF0E94CB
:1033800080129827892798279A83898384CF6B8115
:1033900070E089819A81AE014C5F5F4F9827892741
:1033A00098270E94831277CF6B8170E089819A8180
:1033B000AE014C5F5F4F9827892798270E94A5127E
:1033C0006ACF0E94C61267CF0E94C111D6CF6B810F
:1033D00070E089819A81AE014C5F5F4F9827892701
:1033E00098270E94311257CF6B8170E089819A81B2
:1033F000AE014C5F5F4F9827892798270E94521291
:103400004ACF90937F0280937E020895E0917E02DE
:10341000F0917F02309729F00190F081E02D09951D
:10342000089580E00895E0917E02F0917F02309748
:1034300021F00280F381E02D09950895DC01E091EF
:103440007E02F0917F02309739F086E08C93048001
:10345000F581E02DCD0109950895DC01E0917E0212
:10346000F0917F02309739F082E08C930680F781EB
:10347000E02DCD0109950895A3E0B0E0E2E4FAE182
:103480000C9418249C0180917C0290917D028217FB
:103490009307A1F030937D0220937C02E0917E029D
:1034A000F0917F02309751F083E089833B832A8338
:1034B0000084F185E02DCE01019609952396E2E086
:1034C0000C943424A3E0B0E0E8E6FAE10C9418246C
:1034D0009C0180917A0290917B0282179307A1F060
:1034E00030937B0220937A02E0917E02F0917F027A
:1034F000309751F084E089833B832A830084F185EF
:10350000E02DCE01019609952396E2E00C94342437
:1035100020910201309103012E5F3F4F80911901EC
:10352000811579F080918C0287FF0BC020910001FA
:10353000309101012E5F3F4F9EE180E0915018F4E1
:10354000089596E0FACFF90141919F014115B1F339
:103550008F5FF4CF8115A1F190911901911521F0A0
:1035600090918C0297FD0FC02091020130910301D0
:10357000F9013296285F3F4F9191981719F1E217A0
:10358000F307D1F71DC0982F969596959695803F95
:10359000B8F4E0910001F0910101E90FF11D2281E1
:1035A00030E0877041E050E0BA0102C0660F771F3B
:1035B0008A95E2F7CB012623392381E0232B19F4E6
:1035C00080E0089581E008959C01FC0132968FEF20
:1035D00090E04191461751F08F3F19F4411101C01D
:1035E000892F9F5F9630A9F78F3F09F40895280F20
:1035F000311D87FD3A95F901628308959C01FC0114
:103600003296285F3F4F8191861302C0DF011E92E0
:10361000E217F307C1F70895FC01862F869586957A
:103620008695603F60F4E80FF11D677021E030E09F
:1036300001C0220F6A95EAF78281822B8283089566
:10364000FC01862F869586958695603F80F4E80F6D
:10365000F11D677081E090E09C0102C0220F331FD2
:103660006A95E2F7B90160958281682362830895C3
:10367000682F80911901811559F080918C0287FF84
:1036800007C080910001909101010E940C1B0895D8
:1036900080910201909103010E94E41A0895682F1D
:1036A00080911901811559F080918C0287FF07C024
:1036B00080910001909101010E94201B089580914A
:1036C0000201909103010E94FE1A08958091190150
:1036D000811579F080918C0287FF0BC0E091000189
:1036E000F091010132968EE1DF011D928A95E9F792
:1036F0000895E0910201F0910301329686E0F4CF43
:10370000DC01FB0111969C9111978181981322C0D5
:1037100012968C911297811519F0928189131AC013
:1037200013968C911397811519F09381891312C008
:1037300015968C911597811519F0958189130AC0FA
:1037400014969C91911521F081E02481291303C0E6
:1037500080E001C081E08170089508950E94AD1B52
:1037600008958F5F809380020E94AE1B089583E0CE
:10377000809380020E94AE1B08950E94B11B0895A1
:1037800081E0809380020E94AE1B08950E94C01BBE
:103790000895089508950E94CA1B089508950895F4
:1037A0000E94C91B0895CF930E94CE1B0E94021154
:1037B0000E94CF1BC0E08C2F0E942F10892B31F468
:1037C000CF5FC430C1F780E0CF91089581E0FCCF96
:1037D00085B7806885BF85B7806885BF08951F92CB
:1037E0001FB61F9211248F939F93AF93BF93809125
:1037F0008102811113C080919E0290919F02A0913D
:10380000A002B091A1024196A11DB11D80939E021C
:1038100090939F02A093A002B093A102BF91AF9199
:103820009F918F911F901FBE1F9018958091A602A7
:10383000843031F10E9469031092810288E190E0A6
:1038400020E40FB6F894A895809360000FBE2093F3
:10385000600083B7817F846083BF83B7816083BF4B
:103860007894889583B78E7F83BF0FB6F894A89518
:1038700080916000886180936000109260000FBEAC
:1038800008950E94D9060E946E03089582E084BDC7
:1038900093E095BD9AEF97BD80936E0008952FB782
:1038A000F89480919E0290919F02A091A002B09105
:1038B000A1022FBF08952FB7F89460919E027091D6
:1038C0009F028091A0029091A1022FBF08959C01B8
:1038D0004FB7F89480919E0290919F02A091A00210
:1038E000B091A1024FBF821B930B089578941F9251
:1038F0001FB61F9211248F939F93AF93BF93809114
:103900009E0290919F02A091A002B091A102019607
:10391000A11DB11D80939E0290939F02A093A002CF
:10392000B093A102BF91AF919F918F911F901FBE45
:103930001F90189581E08093E00080E28093D8008A
:103940001092C9008FE19EE40197F1F700C00000DA
:1039500087E090EBDC018093AF029093B002A093DC
:10396000B102B093B20288E19CE00FB6F894A8953A
:10397000809360000FBE90936000FFCF88E19CE0D1
:103980000FB6F894A895809360000FBE90936000E6
:10399000FFCF80918A020895282FCB01BA01309180
:1039A000A6023430D9F42F702093E9002FEF309124
:1039B000E80035FD06C035ED3A95F1F700002A958F
:1039C000B1F72091E80025FF09C040E050E00E94D7
:1039D000111F8091E8008E778093E8000895BC0164
:1039E00043E050E084E00E94CC1C0895BC0146E016
:1039F00050E084E00E94CC1C0895BC0140E250E0FD
:103A000084E00E94CC1C0895CF93DF93D82FC92F58
:103A100048E050E0682F792F81E00E94CC1C88E0BC
:103A2000ED2FFC2FA2E8B2E001900D928A95E1F70C
:103A3000DF91CF910895792F603231F440E250E068
:103A4000682F82E00E94CC1C0895A0E2B0E0EBE277
:103A5000FDE10C9418248091A602843009F583E0DE
:103A60008093E9008091E80082FF1AC08091E8000D
:103A700090E085FF09C040E050E060E270E0CE01D8
:103A800001960E94611F91E08091E8008B778093FE
:103A9000E800911529F060E2CE0101960E943219EA
:103AA000A096E2E00C9434248091A502811109C013
:103AB0000E94EA200E9447218091E2008460809366
:103AC000E20008951092A50208950E94C01B089577
:103AD0006091A20281E0611101C080E00E94B71BE9
:103AE00008959091A60281E0943009F080E0609101
:103AF000A2020E94BD1B089542E061EC81E00E9499
:103B0000662042E261EC84E00E94662042E261ECC1
:103B100082E00E94662042E260EC83E00E94662020
:103B20009091A60281E0943009F080E06091A202B9
:103B30000E94B11B08958091A802893089F148F450
:103B4000823009F4A1C0833009F45BC0813041F0B8
:103B500008958A3009F488C08B3009F46DC0089547
:103B60008091A702813A09F04BC08091E800877FDD
:103B70008093E8008091AB029091AC02892B61F0B8
:103B800060E080E090E070E00E94B11F8091E8006A
:103B90008B778093E800089568E082E892E0F3CFA5
:103BA0008091A702813261F58091AB029091AC02C5
:103BB0008D7F892B29F58091E800877F8093E8002D
:103BC0008091E80082FF18C09091F3008091F2008C
:103BD000029731F48091F100813011F0863021F4A8
:103BE0008091F10080938A028091E8008B77809326
:103BF000E8000E949A2008958091A6028111E0CFEA
:103C000008958091A702813AD9F78091AB029091F3
:103C1000AC02892BA9F78091E800877F8093E800A8
:103C20008091E80080FFFCCF809119018093F10022
:103C30008091E8008E77DBCF8091A702813201F777
:103C40008091AB029091AC02892BD1F68091E80073
:103C5000877F8093E8000E949A208091A902809338
:103C600019010E94D90608958091A702813241F678
:103C70008091E800877F8093E8000E949A208091DD
:103C8000AA0280938B0208958091A702813A09F0DD
:103C9000B7CF8091E800877F8093E8008091E800AB
:103CA00080FFFCCF80918B02C1CF84B7877F84BF18
:103CB0000FB6F894A89580916000886180936000A9
:103CC000109260000FBE80E890E00FB6F8948093E9
:103CD0006100909361000FBE0E94C61B08950E9470
:103CE000EA200E944721E2EEF0E080818460808338
:103CF00078940E94CD2308958FE091E00E94011AEC
:103D000008958091A602853031F48091A602853015
:103D100019F00E94411C08950E94161C0E94D31B9A
:103D2000811599F38091A402811579F30E94FB1EFD
:103D30000E94D906EACF08959A014091AD025091B0
:103D4000AE020E94A41E0895FC01AB01D901892F87
:103D5000992783309105C1F068F48130910509F409
:103D600045C0029761F48BE590E028EC32E02D939A
:103D70003C93089581329105E1F0829739F180E01A
:103D800090E020E030E0F3CFCF019927E13059F007
:103D90008230910559F0E4ECF2E0892B81F78491AF
:103DA00090E09F01E4CFE0EBF2E0F9CFECE9F2E044
:103DB000F6CF6330710518F7FB01EE0FFF1FE356D6
:103DC000FE4F2081318189E090E0D1CF63307105D1
:103DD000B0F6FB01EE0FFF1FE956FE4F2081318147
:103DE0004C565E4FFA01808190E0C1CF82E190E0B5
:103DF00023E233E0BCCF80E189BD82E189BD09B413
:103E000000FEFDCF8091D8008F7D8093D8008091F7
:103E1000E00082608093E0008091E00081FDFCCFB3
:103E20000895AF92BF92CF92DF92EF92FF920F93DD
:103E30001F93CF936C018B017A010E94B920C82F88
:103E4000811123C0E114F10439F0F70180819181DF
:103E5000081B190BC80ED91EA12CB12C0115110578
:103E6000A1F08091E80085FD21C08091E8008E7767
:103E70008093E800E114F10499F0F70180819181C9
:103E80008A0D9B1D91838083C5E08C2FCF911F915C
:103E90000F91FF90EF90DF90CF90BF90AF9008957B
:103EA0000E94B9208115E9F2C82FEFCFF601819168
:103EB0006F018093F10001501109FFEFAF1ABF0AA3
:103EC000CDCFAF92BF92CF92DF92EF92FF920F933E
:103ED0001F93CF936C018B017A010E94B920C82FE8
:103EE000811123C0E114F10439F0F701808191813F
:103EF000081B190BC80ED91EA12CB12C01151105D8
:103F0000A1F08091E80085FD21C08091E8008B77C9
:103F10008093E800E114F10499F0F7018081918128
:103F20008A0D9B1D91838083C5E08C2FCF911F91BB
:103F30000F91FF90EF90DF90CF90BF90AF900895DA
:103F40000E94B9208115E9F2C82FEFCF8091F100CE
:103F5000F60181936F0101501109FFEFAF1ABF0AFB
:103F6000CDCFFC019B018091AD029091AE028617EE
:103F7000970718F0672B61F0C90140E0009771F4D2
:103F800041110CC08091E80082FF35C080E00895A7
:103F90008091E8008E778093E800EECF2091A60212
:103FA0002115A9F12530A9F12091E80023FD2DC0AC
:103FB0002091E80022FDE6CF2091E80020FFDECF2F
:103FC0003091F3002091F200009719F0283031056C
:103FD00058F041E02830310509F040E02091E80038
:103FE0002E772093E800CACF41914093F1000197CA
:103FF0002F5F3F4FE9CF8091A602811541F08530B8
:1040000041F08091E80083FFBDCF81E0089582E018
:10401000089583E00895FC019B018091AD02909189
:10402000AE028617970718F0672B61F0C90140E0D0
:10403000009771F441110CC08091E80082FF36C0F6
:1040400080E008958091E8008E778093E800EECFBD
:104050002091A6022115B1F12530B1F12091E8009F
:1040600023FD2EC02091E80022FDE6CF2091E8003C
:1040700020FFDECF3091F3002091F200009719F07D
:104080002830310558F041E02830310509F040E092
:104090002091E8002E772093E800CACF4491409306
:1040A000F100319601972F5F3F4FE8CF8091A60234
:1040B000811541F0853041F08091E80083FFBCCF4D
:1040C00081E0089582E0089583E00895982F973065
:1040D00028F08F708093E90081E008959093E900C3
:1040E000242F762F50E0981731F07091EC0020913A
:1040F000ED005091F00021FD02C09F5FE8CF3091AC
:10410000EB003E7F3093EB003091ED003D7F30932C
:10411000ED003091EB0031603093EB007093EC00D8
:104120002093ED005093F0002091EE0027FDE5CFA5
:1041300080E008958091A70287FF13C08091E80076
:1041400082FF06C08091E8008B778093E800089595
:104150008091A6028111F2CF08958091A602811567
:10416000D9F38091E80080FFF8CF8091E8008E7746
:10417000ECCF2091E4003091E50095E6A901209173
:10418000EC00822F817020FF06C08091E80080FF44
:1041900006C080E008952091E80022FD1AC08091B9
:1041A000A602811589F0853089F08091EB0085FDAC
:1041B0000FC02091E4003091E50042175307F9F257
:1041C0009A95E1F684E0089582E0089583E00895E9
:1041D00081E008950E9459210E946121E0EEF0E003
:1041E000808181608083E8EDF0E080818F7780833B
:1041F00019BCA7EDB0E08C918E7F8C9380818F7E6F
:1042000080831092A50208950F931F93CF93DF939D
:104210000E9459210E946121C8EDD0E088818F77EA
:10422000888388818068888388818F7D888319BC92
:104230001092A6021092A2021092A4021092A3025F
:1042400000EE10E0F80180818B7F8083888181609F
:10425000888342E060E080E00E946620E1EEF0E0CA
:1042600080818E7F8083E2EEF0E0808181608083B8
:10427000808188608083F80180818E7F808388813F
:1042800080618883DF91CF911F910F910895E8EDB0
:10429000F0E080818F7E8083E7EDF0E080818160B7
:1042A000808384E082BF81E08093A5020E94042184
:1042B0000895E8EDF0E080818E7F80831092E20027
:1042C00008951092DA001092E10008951F920F9263
:1042D0000FB60F9211242F933F934F935F936F93D9
:1042E0007F938F939F93AF93BF93EF93FF938091AF
:1042F000E10082FF0BC08091E20082FF07C0809145
:10430000E1008B7F8093E1000E94CC238091DA0052
:1043100080FF19C08091D80080FF15C08091DA001D
:104320008E7F8093DA008091D90080FF94C080E175
:1043300089BD82E189BD09B400FEFDCF81E0809393
:10434000A6020E94541D8091E10080FF19C0809157
:10435000E20080FF15C08091E2008E7F8093E20032
:104360008091E20080618093E2008091D8008062B9
:104370008093D80019BC85E08093A6020E94681D36
:104380008091E10084FF29C08091E20084FF25C074
:1043900080E189BD82E189BD09B400FEFDCF809135
:1043A000D8008F7D8093D8008091E1008F7E80932C
:1043B000E1008091E2008F7E8093E2008091E20034
:1043C00081608093E2008091A202811509F449C0C6
:1043D00084E08093A6020E94711D8091E10083FF1A
:1043E00029C08091E20083FF25C08091E100877F92
:1043F0008093E10082E08093A6021092A202809155
:10440000E1008E7F8093E1008091E2008E7F8093B7
:10441000E2008091E20080618093E20042E060E08F
:1044200080E00E9466208091F00088608093F00018
:104430000E94651DFF91EF91BF91AF919F918F9168
:104440007F916F915F914F913F912F910F900FBE90
:104450000F901F90189519BC1092A6020E94621D21
:1044600072CF8091E30087FF02C083E0B2CF81E08A
:10447000B0CF1F920F920FB60F921124EF92FF92BE
:104480000F931F932F933F934F935F936F937F935C
:104490008F939F93AF93BF93CF93EF93FF9309EEC7
:1044A00010E0F8018081C091EC008F70C795CC2797
:1044B000C795C82B108280EFE82EF12CF701808180
:1044C000877F808378940E948422F8011082F7010C
:1044D000808188608083CF70F801C083FF91EF9165
:1044E000CF91BF91AF919F918F917F916F915F918C
:1044F0004F913F912F911F910F91FF90EF900F904F
:104500000FBE0F901F901895AAE2B0E0EAE8F2E221
:104510000C94162487EA92E0FC0101962091F100A8
:10452000208322E08F3A9207B9F70E949B1D809169
:10453000E80083FF38C08091A7029091A8029A30CA
:1045400090F5E92FF0E0E85EFA4D0C94FB238038FB
:1045500089F0823841F58091AB028F70873018F571
:104560008093E9008091EB0085FB882780F9109209
:10457000E90006C08091A402880F9091A302892BC4
:104580009091E800977F9093E8008093F10010925B
:10459000F1008091E8008E7723C0811116C08091D0
:1045A000A902813011F18091E80083FF0AC0809157
:1045B000E800877F8093E8008091EB008062809321
:1045C000EB00AA96E4E00C943224823061F78091EB
:1045D000A902811589F01092E9008091E800877F97
:1045E0008093E8000E949A20DECF81E0933009F0AA
:1045F00080E08093A402EFCF8091AB028F702FEF09
:10460000280F263080F68093E9002091EB0020FFF0
:10461000E2CF933031F48091EB0080628093EB0025
:10462000DACF9091EB0090619093EB0021E030E0C5
:10463000A90102C0440F551F8A95E2F74093EA0092
:104640001092EA008091EB008860E8CF8111ABCF37
:104650001091A9021F778091E3008078812B8093CD
:10466000E3008091E800877F8093E8000E949A2011
:104670008091E80080FFFCCF8091E3008068809308
:10468000E30083E0111101C082E08093A6028BCF8A
:104690008058823008F087CF8091A9029091AA02B9
:1046A0008C3D53E0950799F583E08A838AE28983FC
:1046B0004FB7F894DE01139620E03EE051E2E32F7D
:1046C000F0E050935700849120FF03C082958F70D3
:1046D0003F5F8F708A30C8F0895C90E08D939D9326
:1046E0002F5F243161F74FBF8091E800877F80936F
:1046F000E8006AE270E0CE0101960E94B11F80914D
:10470000E8008B778093E8004ECF805DE6CF609124
:10471000AB027091AC02AE014F5F5F4F0E949C1ED6
:104720008C01892B09F43FCF8091E800877F80932B
:10473000E800B80189819A810E940B20E0CF80387F
:1047400009F031CF8091E800877F8093E800809165
:10475000A2028093F1001DCF811125CF9091A90273
:10476000923008F020CF8091E800877F8093E800A6
:104770009093A2020E949A208091A202811531F0AA
:1047800084E08093A6020E947C1D0DCF8091E300FF
:1047900087FDF6CF81E0F5CF0895CF938091A602F3
:1047A000811599F08091E900C091EC008F70C79558
:1047B000CC27C795C82B1092E9008091E80083FDB3
:1047C0000E948422CF70C093E900CF91089597FB97
:1047D000072E16F4009407D077FD09D00E943F24DD
:1047E00007FC05D03EF4909581959F4F08957095F4
:1047F00061957F4F0895EE0FFF1F0590F491E02D16
:1048000009946927962769277827872778270895A5
:104810002F923F924F925F926F927F928F929F92D0
:10482000AF92BF92CF92DF92EF92FF920F931F93BE
:10483000CF93DF93CDB7DEB7CA1BDB0B0FB6F8946F
:10484000DEBF0FBECDBF09942A88398848885F84AF
:104850006E847D848C849B84AA84B984C884DF8020
:10486000EE80FD800C811B81AA81B981CE0FD11D04
:104870000FB6F894DEBF0FBECDBFED010895AA1BA1
:10488000BB1B51E107C0AA1FBB1FA617B70710F03B
:10489000A61BB70B881F991F5A95A9F7809590956D
:1048A000BC01CD010895FB01DC0104C08D91019094
:1048B000801921F441505040C8F7881B990B089586
:1048C000FB01DC0102C001900D9241505040D8F72D
:1048D0000895F999FECF92BD81BDF89A992780B5C8
:1048E0000895A8E1B0E042E050E00C94AD24DC0172
:1048F000A40FB51F4150504048F0CB01840F951FC5
:104900002E910E94882441505040D0F70895262FC0
:10491000F999FECF92BD81BDF89A019700B40216B5
:1049200039F01FBA20BD0FB6F894FA9AF99A0FBE63
:1049300008950396272F0E9488240E948724252FFC
:104940000E948824242F0C9488240196272F0E94EB
:1049500088240C948724DC01CB01FC01F999FECF5B
:1049600006C0F2BDE1BDF89A319600B40D924150F7
:104970005040B8F70895F894FFCFD804D8041F0525
:104980001F058405A10507050705A60513062406CE
:104990002406CF134014D713A113A513DB13A913B7
:1049A000DF13EB13B5133914B913EF13BD13F3135E
:1049B0001814C113F7131F14C713FD130514AD13F7
:1049C000E313B113E713CB1301140F142814371496
:1049D0009B13D3134714E614EC14EF14F5140A15C3
:1049E0000A150A150A150A150A150A150A15F814E2
:1049F000FD140115071518151E1522154F18551809
:104A00003E1849185B1861186718481957198B190F
:104A10009D19A819B319B619B619B6195F195F19F6
:104A2000BB19BF19C719D419E119E419E719F41909
:104A3000A722CD22D322CD22D32226234823D3223C
:044A40009F23AC23E1
:104A440029024902280850011E0A1401030201C95F
:104A54001C041DFD1CF61CEF1C01E200E900EA0029
:104A6400B500B600B700CD008301CC008A019201E5
:104A740094012102230224022502260227022A028B
:104A8400B300B4006F0070009F01CB019F02A0022D
:104A9400E200E900EA00B500B600B700CD008301EA
:104AA400CC008A01920194012102230224022502EE
:104AB400260227022A02B300B4006F0070009F018F
:104AC400CB019F02A002F4F5F6F7313332363435C8
:104AD400919094664422B60D0435035703DA02F329
:044AE40002130300B6
:00000001FF
