:100000000C9452020C948A020C948A020C948A0278
:100010000C948A020C948A020C948A020C948A0230
:100020000C948A020C948A020C948E210C94612206
:100030000C94171C0C948A020C948A020C948A0269
:100040000C948A020C948A020C948A020C948A0200
:100050000C948A020C949E1C0C948A020C948A02C2
:100060000C948A020C948A020C948A020C948A02E0
:100070000C948A020C948A020C948A020C948A02D0
:100080000C948A020C948A020C948A020C948A02C0
:100090000C948A020C948A020C948A020C948A02B0
:1000A0000C948A020C948A020C948A021E001F008F
:1000B0002000210022002300240025002600270024
:1000C00014001A000800150017001C0018000C008E
:1000D0001200130004001600070009000A000B00BC
:1000E0000D000E000F002A001D001B000600190065
:1000F0000500110010002D0028000000E100E000C4
:10010000E20000002C000000000050004F002152CF
:100110002900900091003B003E0040004100420059
:100120004300460014001A000800150017001C00C8
:1001300018000C0012004600040016000700090019
:100140000A000B000D000E000F004C001D001B00EC
:10015000060019000500110010002D002800000005
:10016000E100E000E20000002C0000000000500070
:100170004F0021521E001F002000210022002300FA
:10018000240025002600270014001A00080015008E
:1001900017001C0018000C001200130004001600C9
:1001A000070009000A000B000D000E000F002A00D6
:1001B0001D001B00060019000500110010002D0095
:1001C00028000000E100E000E20000002C00000038
:1001D000000050004F0021521E001F00200021008F
:1001E00022002300240025002600270014001A0006
:1001F0000800150017001C0018000C001200130066
:1002000004001600070009000A000B000D000E0094
:100210000F002A001D001B00060019000500110038
:1002200010002D0028000000E100E000E2000000C6
:100230002C000000000050004F0021520000000080
:10024000000000002A2B2800000000000000000031
:100250000000000000000029000000002C1E3420D7
:10026000212224342627252E362D3738271E1F20FD
:100270002122232425263333362E37381F04050642
:100280000708090A0B0C0D0E0F1011121314151686
:100290001718191A1B1C1D2F3130232D3504050684
:1002A0000708090A0B0C0D0E0F1011121314151666
:1002B0001718191A1B1C1D2F3130354C0000000077
:1002C000000000000000000000000000000000002E
:1002D000000000000000000000000000000000001E
:1002E0007E0F00D4FFFFFFC70000007814036E00EC
:1002F00075006D0062006500720039003400320044
:1003000000001203730061006D00310064006100A1
:100310007200650000000403090409025B00030188
:1003200000A0FA09040000010301010009211101E4
:1003300000012244000705810308000109040100AF
:10034000020300000009211101000122220007051B
:1003500082032000010705030320000109040200B5
:10036000010300000009211101000122B600070568
:1003700084032000011201000200000008313A0548
:10038000000101010200010660FF0961A10109628B
:10039000150026FF009520750881020963150026C7
:1003A000FF00952075089102C005010902A1018591
:1003B000020901A100050919012908150025019567
:1003C00008750181020501093009311581257F95E4
:1003D000027508810609381581257F950175088108
:1003E00006050C0A38021581257F950175088106DE
:1003F000C0C005010980A101850319012AB70015B4
:100400000126B700950175108100C0050C0901A1F6
:1004100001850419012AA002150126A00295017583
:10042000108100C005010906A1018506050719E034
:1004300029E71500250195087501810205071900B6
:1004400029EF1500250195F07501810205081901B4
:100450002905950575019102950175039101C00566
:10046000010906A101050719E029E71500250195F5
:100470000875018102950175088101050719002998
:10048000FF150026FF009506750881000508190173
:100490002905150025019505750191029501750342
:1004A0009101C00011241FBECFEFDAE0DEBFCDBF47
:1004B00004B603FE18C08091BB029091BC02A091CB
:1004C000BD02B091BE028730904BA740B04B59F4AB
:1004D0001092BB021092BC021092BD021092BE029A
:1004E000E0E0F8E3099511E0A0E0B1E0E4E9FAE426
:1004F00002C005900D92A43AB107D9F722E0A4EA10
:10050000B1E001C01D92AB3BB207E1F70E94AC1114
:100510000C94E3240C9400008430B8F46530A8F403
:100520004A3098F4E42FF0E09AE0699FE00DF11D65
:10053000112492E3899FE00DF11D1124EE0FFF1F9E
:10054000E455FF4F85919491089581E090E00895DE
:1005500081E008950E94A802089581E0089581E055
:1005600008950E94AF02089508950E94B40208956C
:10057000A6E0B0E0EEEBF2E00C943F2449835A830E
:100580009E833091AB0189819A8131111AC03E81DD
:10059000311599F0211589F00E943808182F682F1D
:1005A00089819A810E94140869817A81812F0E9431
:1005B0004D0F2696E3E00C945B240E942608182F2A
:1005C000F3CF0E94380869817A81F1CFFC01262F90
:1005D0004081518162817381848195810E94B8023A
:1005E0000895CF93DF93D82FC92F61E00E94E602D0
:1005F0006D2F7C2F0E94AA02DF91CF910895CF9397
:10060000DF93D82FC92F60E00E94E6026D2F7C2F68
:100610000E94B502DF91CF91089581E008950E9474
:100620000D030895CF93C82F0E9402078C2F0E94BC
:100630000F032FEF84E39CE0215080409040E1F7CE
:1006400000C00000CF91089581E00E9412030E9433
:10065000C21C089580E00E9412030E94E61C0895C7
:100660000F931F93CF93DF938C0161E00E94E6020A
:10067000EC01B8010E944019811509F442C0B8018B
:10068000CE010E94B1028115E1F1B801CE010E94B4
:100690005A188115B1F1B801CE010E949F1381153E
:1006A00081F1B801CE010E947413811551F1B80196
:1006B000CE010E949C18811521F1F80185818115D8
:1006C00081F0CA35FCE7DF0739F178F4C130ECE797
:1006D000DE07F9F0C330FCE7DF07C9F0C115DC47DE
:1006E00071F0C8010E94AD020DC0CB35ECE7DE070A
:1006F000B1F0CC35DC47A9F70E94850CF2CF0E94FF
:10070000240380E0DF91CF911F910F9108950E9403
:10071000960C0E942A03F5CF0E948E0CE2CF0E9415
:10072000920CDFCF0E94F31B0E94B20308950E9437
:10073000B6030E94F81B089581E008950895CF93B1
:10074000DF93D82F0E949C03C82F811519F08D2F9D
:100750000E949E038C2FDF91CF91089508950E94EF
:100760009F03089580E00E94AF0308950E942E1A0F
:100770000E94AF030895CF930E942E1AC82F809134
:10078000A6018C1779F0C093A6010E94831C609388
:10079000A7017093A8018093A9019093AA018C2FBF
:1007A0000E94AF03CF910895ADE0B0E0EAEDF3E031
:1007B0000C944024488759876A877B878C879D875C
:1007C00091110E94910B1F8286E0FE013896DE0196
:1007D000119601900D928A95E1F78D8181110DC0DE
:1007E00029813A814B815C816D817E818F810E945C
:1007F000DB0A2D96E2E00C945C24CE0101960E9467
:10080000F1028111EDCFF5CFFC018481813021F41B
:10081000808191810E9461080895611529F00E94EC
:1008200005150E94C61508950E944E15FACFCF9364
:10083000C82F811599F08CEF8C0F813A88F48C2F9A
:100840000E94D21A811529F08C2F0E94771B0E94DA
:10085000270C8C2F0E94601B0E94270CCF910895BB
:1008600080E28C0F883048F4C77081E001C0880FA7
:10087000CA95EAF70E94720BEFCF8BE58C0F83309D
:1008800038F42C2F2452330BC9010E94641AE6CF8E
:10089000E8E5EC0FEB3150F4F0E0EE0FFF1FE65E01
:1008A000FE4F808191810E948A1AD8CF83E38C0FFA
:1008B0008331A0F661E08C2F0E940D04CFCF81150B
:1008C00081F19CEF980F913A28F40E94771B0E94C7
:1008D000270C089590E2980F983050F4877091E0BB
:1008E00001C0990F8A95EAF7892F0E94780BEFCF04
:1008F0009BE5980F933028F480E090E00E94641A02
:10090000089598E5980F9B3128F480E090E00E94CC
:100910008A1A089593E3980F933118F460E00E94C7
:100920000D0408950F931F93CF93C82F8B010E943E
:1009300017040115110539F48C2F0E945F04CF9123
:100940001F910F9108958FE99FE00197F1F700C083
:10095000000001501109EDCF60E570E0893311F01E
:1009600060E070E00E9492040895811521F00E94D9
:10097000720B0E94270C0895811521F00E94780BBC
:100980000E94270C0895A0E0B0E0E9ECF4E00C949C
:100990003A246C01D62FC72FFC01158106810295E0
:1009A0000F700E94670BE82E8115F9F0E12E1115EA
:1009B000E1F08C2F807F803461F080E28D0F8830F1
:1009C000F0F08C2F807E803221F4D230C0F00115FF
:1009D000B1F08091950282FF12C082E00E94580C13
:1009E0000E94670B91E0E82EE926EC2FE295EF706C
:1009F000C03CB0F5F0E0EB51FB4D0C942324E12C0E
:100A0000F4CF0C2F0F70C03110F00295007F11153C
:100A100099F0011559F080E28D0F883010F0D11156
:100A200007C0802F0E94720B0E94270C8D2F51C08F
:100A3000802F0E94830BF8CF8D2F0E945F04011539
:100A400079F080E28D0F883010F0D11104C0802F32
:100A50000E94780B03C0802F0E94890B0E94270CF4
:100A6000E11489F00E94630B80FD0DC0F601158230
:100A70000E945D0B0E948307C6010E94C9060E9466
:100A80005D0B0E948F07CDB7DEB7E8E00C945624CB
:100A9000FC2FFF70FF2EC07FC03219F0F29480EF60
:100AA000F822D11541F0D130D1F1111509F444C02B
:100AB0000115F1F0BBCF8091950282FD15C0111593
:100AC00059F0F11429F08F2D0E94720B0E94270C0F
:100AD00080E00E941704C4CF80E00E945F04F114FC
:100AE00009F4BECF8F2DB4CF111569F0011104C0E8
:100AF0008F2D0E94B504B4CF013009F0B1CF8F2DF6
:100B00000E94A90BADCF0111ABCF8F2D0E94BC0469
:100B10008F2D0E94B50B8F2D0E94980BA1CF111520
:100B200021F0063008F09CCFE3CF053008F098CFD5
:100B30008F2D0E94BC0494CF0115D1F3D93349F411
:100B40002FEF87EE93E0215080409040E1F700C006
:100B500000008D2F0E945F0483CF8C2F8695869591
:100B60008370811569F0813009F07ACF8D2F9C2F29
:100B70009370111102C080E090E00E948A1A70CF39
:100B80008D2F9C2F9370111102C080E090E00E9485
:100B9000641A66CF612F8D2F0E940D0461CF8C2FB8
:100BA0008370811134C0111124C04D2F4295469598
:100BB0004770440F440F8D2F8F70042E01C0880F93
:100BC0000A94EAF72D2F2071D4FF07C02FE030E000
:100BD00001C0220F4A95EAF72095C695C695C370C5
:100BE000822BC23071F0C33079F0C13039F00E94ED
:100BF0005F070E942E1A0E94AF0332CF0E9459074E
:100C0000F8CF0E946507F5CF0E945607F2CF111565
:100C100039F1C0FFEECF4D2F429546954770440FF6
:100C2000440F8D2F8F70042E01C0880F0A94EAF7AD
:100C30002D2F2071D4FF07C02FE030E001C0220F1C
:100C40004A95EAF72095C695C695C370822BC230A7
:100C500069F0C33071F0C13031F00E94B107C9CFE3
:100C6000823038F2D8CF0E94AB07C3CF0E94B707BB
:100C7000C0CF0E947107BDCFCF70111539F08C2FF6
:100C80000E9483078D2F0E94B504B3CF8D2F0E9441
:100C9000BC048C2F0E948F07ACCFD23F41F170F47F
:100CA000D03FC9F0D13F91F0111509F446C00115AC
:100CB00009F440C08D2F0E9417049BCFD33FF1F061
:100CC000D43F91F78091950282FD22C08C2F8F71C5
:100CD000111501F310C0111541F0053008F089CF4E
:100CE0008C2F8F710E949F0784CF0630F7CF8C2FF7
:100CF0008F711111CFCF0E9483077BCF111529F07F
:100D00008C2F8F710E947A0774CF0E94760771CF63
:100D1000111531F063E08C2F8F710E94390C69CF6F
:100D200081E00E94580C023008F463CF82E00E94F8
:100D3000580C5FCF8C2F8F71DECF011579F0D9332E
:100D400049F4EFEFF7EE23E0E150F0402040E1F707
:100D500000C000008D2F0E945F044BCF8C2F8F713D
:100D600099CF0F931F93CF93DF93EC016881798123
:100D70008D810E946E088C010E94BD070E9455075C
:100D8000B801CE010E94C304DF91CF911F910F9152
:100D90000895CF93DF93EC018C81811599F0CE01FA
:100DA0000E943003811111C00E94670B811551F020
:100DB0008D81811539F08091950282FF03C082E018
:100DC0000E94580CDF91CF910895CE010E94B10688
:100DD000CE010E94FF02F6CF80E090E00E94641AEC
:100DE00080E090E00E948A1A0E94910B0E94270CDA
:100DF0000E94E3150E94C61508950E948E1B0E9452
:100E0000EC0608950E94800B0E94FD060895282F8D
:100E100092959F70963099F060F4925F9F70923037
:100E200030F4203FB1F038F481E0283E38F080E023
:100E300008959A5FF3CF81E0243FC9F7089591E0C8
:100E4000813F09F090E081E0283E08F080E0892BA6
:100E5000089581E00895FC018481811539F0808135
:100E600091810E9461080E940707089580E008951B
:100E7000A6E0B0E0EEE3F7E00C9440242696E2E032
:100E80000C945C24A7E0B0E0E8E4F7E00C94402484
:100E90002796E2E00C945C2408950E944C07089584
:100EA0000E944D078093C201089508950E94500743
:100EB00008959091C201892B0E9450070895909146
:100EC000C20189230E94500708959091C201892789
:100ED0000E94500708950E944C0708950E946B07D6
:100EE00008950E946E078093C101089580E00E94DA
:100EF0007107089591E001C0990F8A95EAF7892F4B
:100F00000E947107089521E030E001C0220F8A9508
:100F1000EAF78091C101822B0E947107089521E0B8
:100F200030E0A90102C0440F551F8A95E2F7CA01BB
:100F300080959091C10189230E947107089521E055
:100F400030E001C0220F8A95EAF78091C101822723
:100F50000E94710708959091C101892B0E94710729
:100F600008959091C10189230E947107089590917D
:100F7000C10189270E947107089508959B01677038
:100F800091E001C0990F6A95EAF763E036952795DD
:100F90006A95E1F7B901660F771F260F371FFA012F
:100FA000E20FF31F40E050E0682F70E08191DF0115
:100FB0009B01042E02C0369527950A94E2F7217012
:100FC00021952827292328272E934F5F5F4F4330F1
:100FD000510561F708959C01A82FA77083E036950D
:100FE00027958A95E1F7C901880F991F820F931FF2
:100FF000FB01E80FF91F40E050E080E0219130E074
:101000000A2E02C0369527950A94E2F721703327FD
:10101000042E01C0220F0A94EAF7822B4F5F5F4F24
:101020004330510559F70895282F862F953068F4DD
:101030002A3058F4622F70E02AE0929F600D711DF3
:1010400011244CEA51E00E94BE070895292F9530E3
:1010500068F48A3058F490E06CEA71E03AE0239F3B
:10106000800D911D11240E94EB07089580E00895E2
:10107000A0E0B0E0EEE3F8E00C943B247C010091AA
:10108000C1018091C201082BC3E0D0E010E0C8018B
:101090000C2E02C0959587950A94E2F780FD09C051
:1010A0002197A8F7D12C8D2DCDB7DEB7E7E00C94B2
:1010B0005724DC2EB7018C2F0E94590F019781F322
:1010C000F2CFCF93DF93D82FC92F0E9438086D2F0E
:1010D0007C2F0E94590FDF91CF9108951F93CF93DA
:1010E000DF93162FD72F9091AB01911541F0862FEA
:1010F000972F0E946108DF91CF911F91089581156C
:1011000081F0862F972F0E943808C82F682F812FD3
:101110009D2F0E941408612F7D2F8C2F0E94590F44
:10112000EACF862F972F0E942608C82FF4CFE1E040
:10113000F0E0DF0102C0AA0FBB1F6A95E2F7BD0114
:10114000DF0102C0AA0FBB1F4A95E2F76A2B01C05C
:10115000EE0F2A95EAF7962F9823961302C08E2B4E
:101160000895E0958E230895242F462F682F8091AF
:10117000C1010E9497080E94710708950F931F9361
:10118000CF93E091C301C7E08091C4018E1304C0E6
:10119000CF911F910F9108950E2F10E0CE9FF00177
:1011A0001124EB53FE4F20813181428153816481B0
:1011B000758186810E944207F8013196E770E4CF7D
:1011C0002091FD013091FE014091FF0150910002FC
:1011D0006091010270910202809103020E94420715
:1011E000089580910302803178F480910202811584
:1011F00059F0E091C3012091C4013091FE0140916A
:10120000FD0157E02E1301C008956E2F70E05E9F20
:10121000F0011124DF01AB53BE4F14968C9114974B
:10122000811561F111968C911197831327C08C91D0
:10123000841324C015968C91159781111FC01296A6
:101240008D919C91A091FF01B09100028A1B9B0B94
:10125000883C910598F4809103028F70806180939F
:101260000302E553FE4F80818F70806180838DEF94
:1012700091E00E94C9060E94BE080895FB013196C4
:10128000E770C0CFE091C3019091C40127E0E9135A
:1012900002C080E00895AE2FB0E02E9FF00111242F
:1012A000EB53FE4F3181361306C03081381303C033
:1012B0003581341304C0FD013196E770E8CF81E039
:1012C00008958F929F92AF92BF92DF92EF92FF921A
:1012D0000F931F93CF93DF93CDB7DEB72D970FB644
:1012E000F894DEBF0FBECDBF8C0186E0F801DE01B1
:1012F000189601900D928A95E1F7F801F5808481A6
:101300009DEF892E91E0992E9091010291111BC0C1
:10131000811509F4FFC0F11409F440C1C8010E940D
:101320002B07811509F43AC187E0F801D401019037
:101330000D928A95E1F7C4010E9404040E94F1080D
:101340000E94E008E7C0E080A280B380D090020253
:101350002091FF0130910002A501421B530BD114D3
:1013600009F4DBC0483C510508F0A6C0811509F41A
:10137000D1C09091FE01918080910302803108F0EC
:101380006BC0991228C09091FD019E1124C0F110EC
:101390005DC08F708061809303020E94E0088DEF32
:1013A00091E00E94C90680910302F8018683F12C26
:1013B0008F2D2D960FB6F894DEBF0FBECDBFDF91F7
:1013C000CF911F910F91FF90EF90DF90BF90AF9062
:1013D0009F908F900895F11039C040E0692D8E2DB7
:1013E0000E94420940E0692D8E2D0E944209F82E8C
:1013F0008111DDCF888599850E946108292F22956A
:101400002F70903450F49F70223080F0911599F035
:10141000F8019681903178F4CBCF2A5F2F7022307B
:1014200078F0C8010E94C906FD2CC2CF911519F0B1
:10143000811509F4BDCF805E883008F4B9CFF1CFB3
:10144000803F08F4B5CF815F8330F7CF80910302EE
:10145000816080930302ABCF991207C09091FD0188
:101460009E1103C0F11409F479C0C8010E942B0732
:10147000811509F493C0F11409F490C0809103021E
:10148000803288F02091FD013091FE013A8329835A
:10149000BC82AB82909101029D831E828F83CE011C
:1014A00001960E94C90687E0F801ADEFB1E0019016
:1014B0000D928A95E1F742CF909103029031A0F40A
:1014C000488559856A857B858C859D850E9438076E
:1014D0008DEF91E00E94C90687E0F40111928A9590
:1014E000E9F70E94E00863CF8115A1F02091FE0189
:1014F00081812813BACF8091FD018E11B6CFF110F2
:10150000B4CF9683C8010E94C90687E0F401119206
:101510008A95E9F7FF24F3944BCF483C510508F036
:1015200041C08115B9F3F114C9F19091FE01818197
:1015300098132AC08091FD018E1126C0809103026C
:1015400080FD19C08031B8F08683807F803F39F0FC
:101550008681982F907F905F8F70892B8683C8013A
:101560000E94C90687E0F801ADEFB1E001900D924D
:101570008A95E1F7E5CE87E0F801ADEFB1E00190A3
:101580000D928A95E1F7C6CFC8010E942B07811101
:101590008ACF80910302816080930302C8010E9478
:1015A000C906B8CF488559856A857B858C859D8518
:1015B0000E94380791CFAEE0B0E0E1EEFAE00C9483
:1015C0003F24288739874A875B876C877D878E878A
:1015D000CE0108960E9461096C858115A9F06115FC
:1015E00041F0288539854A855B857D858E850E94F9
:1015F000420717E08091C3019091C40189133AC05A
:101600002E96E3E00C945B2487E0FE013896DE0121
:10161000119601900D928A95E1F7611551F3A09111
:10162000C4018A2F90E00196877099272091C30109
:101630002817190689F097E09A9FD0011124AB531F
:10164000BE4FFE01319601900D929A95E1F780937D
:10165000C4010E94BE08CDCF0E9402071092C401AF
:101660001092C30187E0EDEFF1E0DF011D928A9552
:10167000E9F7BFCF189FC00111248B539E4F0E94E2
:101680006109811509F4BCCFE091C3011E9FF001EF
:101690001124EB53FE4F20813181428153816481BB
:1016A000758186810E9442078091C30190E0019676
:1016B000877099278093C3019DCF80912C028695D6
:1016C00086958695089580912C0287700895909153
:1016D0002C02977081E0911101C080E00895809103
:1016E0005802089590915802982B909358020895AB
:1016F000982F9095809158028923809358020895DD
:1017000010925802089590915702982B9093570287
:101710000895982F909580915702892380935702BE
:10172000089510925702089508950E94940B089509
:1017300090912D02292F2823211531F0809589239E
:1017400080932D020E94950B089508950E94A50B89
:10175000089590912E02292F2823281729F0982BDD
:1017600090932E020E94A60B089590912E02292F8D
:101770002823211531F08095892380932E020E9421
:10178000A60B089580912E02811529F010922E0249
:1017900080E00E94A60B0895CF93C09158028091DB
:1017A0005702C82B80912E02811531F0C82B0E9460
:1017B000B01A81110E94C20B8C2FCF910895CF9344
:1017C000DF93C0910201D09103010E94CC0B88836A
:1017D000C0910201D091030148E050E064E272E060
:1017E000CE010E947B24892B59F088E0FE01A4E2FF
:1017F000B2E001900D928A95E1F7CE010E943B1A6A
:10180000DF91CF910895CF93DF93C0910001D091E4
:1018100001010E94CC0B8983C0910001D09101018C
:1018200040E250E064E072E0CE010E947B24892B0C
:1018300059F080E2FE01A4E0B2E001900D928A9599
:10184000E1F7CE010E94461ADF91CF910895809171
:101850001901811539F08091940287FF03C00E941D
:10186000030C08950E94DF0B089508950E94350C23
:101870000895962F2091950222FF11C0682F660FC0
:10188000660F660F692B60932C020E94830780917C
:101890002C028695869586950E94360C08950E94A6
:1018A0008307089510922C0280E00E94360C089560
:1018B00090912C028095892380932C02282F2770E9
:1018C00021110DC0891759F09091950292FF07C020
:1018D0008695869586950E948F070E94520C0895E2
:1018E0009091950292FB222720F9281769F080FB3E
:1018F00092F99093950280919402909195020E94A2
:10190000B80C82E00E94580C089580919502002442
:1019100082FF0394802D0E94700C089581E00E9444
:10192000700C089580E00E94700C08956FEF7FEFB7
:1019300080E090E00E94CD24089580E090E00E9435
:101940009924853E9E4F19F40E94D718089580E08F
:10195000089582E090E00E949124089583E090E051
:101960000E949124089584E090E00E9499240895B3
:10197000BC0184E090E00E94CD240895AB01BC013D
:101980008FE090E00E94C1240895AB01BC0183E187
:1019900090E00E94C124089560E070E0CB010E94B5
:1019A000C50C089560E070E0CB010E94BE0C0E945F
:1019B000CC0C0895A8E0B0E0E0EEFCE00C944024EC
:1019C00065EE7EEF80E090E00E94CD2460E082E052
:1019D00090E00E94AF2481E08093C20161E083E047
:1019E00090E00E94AF2460E074E184E090E00E9407
:1019F000CD2460E086E090E00E94AF2460E087E0C4
:101A000090E00E94AF2440E050E0BA0188E090E00E
:101A10000E94C12460E083E290E00E94AF2460E075
:101A20008CE090E00E94AF2460E08DE090E00E94A6
:101A3000AF2419821A821B821C821D821E821F8281
:101A4000188648E050E067E170E0CE0101960E9400
:101A50009F2440E050E0BA018FE190E00E94C12451
:101A600080E00E94F0180E9422190E94D20C289651
:101A7000E2E00C945C240E94DA0C0895682F8EE05A
:101A800090E00E94AF240895A6E0B0E0EAE4FDE013
:101A90000C943E240E94771C8C01809159029091F5
:101AA0005A028017910779F019821A820E94771CD6
:101AB000BC0149815A8180E090E00E94D4031093D8
:101AC0005A02009359022696E4E00C945A240E948C
:101AD000831C6093690270936A0280936B029093F7
:101AE0006C02609365027093660280936702909324
:101AF00068020895089508950E947A0D0895089542
:101B00000E947F0D08958EE490E10E94C3110E940F
:101B10007B0D0E947C0D089581E0089581E0089579
:101B20000E948C0D0895089508950E94930D0E94BF
:101B3000940D08950E949D0C811102C00E943B0DDE
:101B40000E94A90C80936D020E94B30C90939502A1
:101B5000809394020E94E6110E94AE0C0E945607E8
:101B60008091C1010E946E0708950E946E1C0E9420
:101B700032190E9414110E949A0D0E94AE030E9415
:101B8000800D0895A6E0B0E0E8ECFDE00C9434246C
:101B90000E948E0D81110AC00E94440D0E940416FD
:101BA0000E94BB032696EEE00C9450240E942A115A
:101BB0002BE5822E22E0922E540110E0F501619077
:101BC00071905F01812F0E9458106C011F5F1530CA
:101BD00009F44AC06816790689F380916D0281FD87
:101BE0000E9461100E94900D782E10E0662463948C
:101BF000812F0E9458107C01F401A190B1904F01F7
:101C00008A159B0559F1A826BF2400E0CC24C39473
:101C1000D12CC5018C219D21892BC1F07114B1F00B
:101C200009831A830E94771C9C838B836D8221E039
:101C3000C7018C219D21892B09F420E049815A811B
:101C40006B817C818D81922F0E94D4030F5FCC0C1D
:101C5000DD1C0A30F1F6F401F292E2921F5F1530BA
:101C600039F60E94670D9ACF6816790609F0B5CF4C
:101C700093CF1F93CF93DF930E945E0FEC018115EA
:101C800022E5920708F05DC0811540E5940708F051
:101C9000DBC0803E910528F58D3C910508F0ACC075
:101CA000883A910578F4853A910508F0A2C0813010
:101CB000910509F441C00497813A9105E8F1C0E02B
:101CC000D0E03AC0885A91094B97C8F7C85AD0E07B
:101CD000CC0FDD1FC05BDE4F0990D881C02DD464CE
:101CE0002BC0811550E49507F8F4C11580E2D807A0
:101CF00008F0C0C0C83ED105F8F0CE019A95811514
:101D00009F41E8F68D2F0E94FF0F182FCE019927D3
:101D10000E945E0F212F30E0322F2227E901CC27CD
:101D2000DF71C82BD92B08C099270E945E0FCC27E2
:101D3000DF70C82BD92BD06ACE01DF91CF911F91D4
:101D40000895803842E59407C8F5803652E5950736
:101D500008F05BC0C03482E5D807D0F4C03292E509
:101D6000D90708F04BC08C2F8695869520E2829F7C
:101D7000C0011124C37021E030E0A90102C0440F6A
:101D8000551FCA95E2F7EA01C82BD92BDD68D4CFDD
:101D90008C2F86958695877050E2859FC00111240F
:101DA000C37021E030E0A90102C0440F551FCA955D
:101DB000E2F7EA01C82BD92BDC68BECF803C52E5A4
:101DC000950758F48F71C03AD245A0F590E0982F4E
:101DD0008827EC01C46FD06AAFCF805C92458097B2
:101DE00008F06DCFDC2FCC27CC27DF71C06FD06A15
:101DF000A3CFA497D064A0CFD0659ECFCF71D0E001
:101E0000DC2FCC27C16FD06A97CF869586958770D7
:101E100020E2829FC0011124C37021E030E0A901BB
:101E200002C0440F551FCA95E2F7EA01C82BD92B0F
:101E3000DA6882CF0E94FF0FC82FD0E0DC2FCC27BA
:101E4000CC27DF71D06278CF8F710E94FF0F53E0F3
:101E5000CC0FDD1F5A95E1F7CC27DF70282F30E03B
:101E600084FF04C050E1859F90011124C22BD32B25
:101E7000D06962CF8D2F8F710E94FF0F182FCE0176
:101E800099270E945E0F212F30E0322F2227222730
:101E90003F71282B392BE901D5CF462F672F75309D
:101EA00028F44A3018F40E949A12089580E090E0D5
:101EB00008950E944D0F0E94390E08959C01803EA6
:101EC000910509F448C0D8F48133910509F47DC027
:101ED00048F48932910509F46DC08A9709F47CC0F1
:101EE000C90108958933910551F18238910539F17D
:101EF000C597B1F78091940285FFF2CF29C0843E47
:101F0000910509F447C048F4823E910599F1833E5A
:101F10009105A9F121EE30E0E3CF863E910509F469
:101F200044C0873E9105E1F68091940283FD61C033
:101F30009091950291FF2BC024EE30E0D1CF80919B
:101F400094028370811152C08091950283FFC8CFA3
:101F500029E230E0C5CF8091940280FD33C090919A
:101F6000950290FFBDCF23EE30E084FFB9CF20E093
:101F700030E0B6CF8091940282FDF5CFB1CF809151
:101F8000940282FD30C09091950290FD2FC084FF95
:101F9000A7CFEDCF8091950281FFA2CF80919402CF
:101FA00027EE30E084FDE3CF9BCF8091940283FD48
:101FB000F7CF96CF8091940285FD1EC08091950247
:101FC00083FF8ECF29E330E08BCF8091940286FF90
:101FD00087CF2AE230E084CF8091940286FF80CFC1
:101FE00021E330E07DCF22EE30E07ACF20EE30E00A
:101FF00077CF26EE30E074CF25E330E071CF9091BB
:10200000940292FF10C041E0282F2471243009F07F
:1020100040E031E0282F2871283009F030E04317E4
:1020200011F02CE0822793FF10C041E0282F24718B
:10203000243109F040E031E0282F2871283109F0DF
:1020400030E0431711F02CE082273091950230FFE9
:1020500010C051E0282F2171213009F050E041E0FB
:10206000282F2871283009F040E0541711F029E09A
:10207000822731FF10C041E0282F2171213109F062
:1020800040E031E0282F2871283109F030E0431773
:1020900011F029E0822794FD877E089580E008955D
:1020A00008950E945010089508950E9454100895B4
:1020B000E82FF0E0EE0FFF1FE056FD4F8081918189
:1020C0000895089580EA8A95F1F7089500C008956B
:1020D0000E9462100895F894E82FE295EF70F0E006
:1020E00041A18F7021E030E0B90102C0660F771F77
:1020F0008A95E2F7CB01962F9095942391A392A114
:10210000892B82A378940895CF93DF93C0E9D1E01F
:1021100089918F3F11F00E946B1081E0C539D8077B
:10212000B9F7C6E8D1E089918F3F11F00E946B109A
:1021300081E0C039D807B9F7DF91CF9108958F9228
:102140009F92BF92CF92DF92EF92FF920F931F93D5
:10215000CF93DF938C01B62EE62EF12CC70180576A
:102160009E4F6C01FC0180818F3F09F451C0F894AF
:10217000E82FE295EF70F0E091A18F7021E030E060
:1021800001C0220F8A95EAF7892F822B81A382A1B1
:102190002095282322A378940E946610E6E8F1E0B7
:1021A00021E030E0812C912C41914F3F81F0A42F10
:1021B000A295AF70A05EB0E08C9190E04F7002C02D
:1021C000959587954A95E2F7E90180FF04C080E084
:1021D000C82F90E0D92F8C2A9D2A220F331F81E02F
:1021E000E039F80709F7F60180818F3F11F00E946E
:1021F0006B1061E08114910409F460E08B2D0E9462
:102200006810EE0CFF1C0E0D1F1DF80191828082DC
:10221000DF91CF911F910F91FF90EF90DF90CF90C2
:10222000BF909F908F9008950E9484108AE0E0EA0A
:10223000F2E0DF01982F1D929A95E9F7E6E9F2E0C6
:10224000DF011D928A95E9F785E00E9467110E94DF
:1022500051100895AAE0B0E0E0E3F1E10C943D24D0
:10226000FE0131968AE0DF011D928A95E9F710E0C0
:10227000FE2E0F2F612F8F2D902F0E949F101F5F1A
:102280001530C1F74AE050E06F2D702F86E992E0DB
:102290000E947B2421E0892B81F420E045E060EA64
:1022A00072E086E992E00E946811182F0E94551092
:1022B000812F2A96E5E00C9459248AE0EF2DF02F27
:1022C000A6E9B2E001900D928A95E1F7E7CF089573
:1022D000A0E0B0E0EEE6F1E10C943A24D82EE92E2D
:1022E000F62ED72F042FC22F211579F081E080938D
:1022F00070020E94771C90936F0280936E0280E0C0
:10230000CDB7DEB7E8E00C945624C0907002C1143B
:10231000B1F380916E0290916F020E948F1C05971D
:1023200070F310E0000F111FA8016D2D7E2D8F2D71
:102330009D2F0E947B24892B41F0A8016D2D7E2DBD
:102340008F2D9D2F0E948824CC2D109270028C2FEF
:10235000D7CF0E94C20D08950E94101C0E947D1EBE
:102360000E94830D0E94971E0E94B50D0E94A41E1C
:102370000E94A91E0E94A9110E94C31E0E944D1D09
:102380000E94950DF5CF9093A5018093A401089527
:102390000E94960C089580E00E9458108170089564
:1023A0000E942A112FEF86E791E021508040904053
:1023B000E1F700C000000E942A110E94CB11811594
:1023C00021F00E94C8110E94C21C08950E94D011E1
:1023D000089584E0089550E0440F551F94E1699FEB
:1023E000400D511D112494E6899F400D511D11246B
:1023F000CA01889608950F931F93CF93DF9384307B
:10240000C8F46530B8F44A30A8F40E94EB118C018E
:102410000E949124C82FD0E0DC2FCC27C801019660
:102420000E9491249E01282BC901DF91CF911F9119
:102430000F91089580E090E0F8CF0F931F93CF9312
:10244000DF93122F032F843078F4653068F44A301C
:1024500058F40E94EB11EC01602F0E94AF24612F11
:10246000CE0101960E94AF24DF91CF911F910F9171
:1024700008951F93CF93DF93D0E0C0E011C0412FA8
:102480006C2F8D2F0E948C029C01412F6C2F8D2F61
:102490000E941D121F5F1A3091F7CF5FC53011F0F7
:1024A00010E0EDCFDF5FD43041F7DF91CF911F9186
:1024B0000895EF92FF920F931F93CF93DF938C01B8
:1024C000EA017A01E60EF71ECE15DF0529F4CDB735
:1024D000DEB7E6E00C945824003981E0180740F498
:1024E000C80188960E94912489930F5F1F4FECCFFB
:1024F00080E0FACFEF92FF920F931F93CF93DF9379
:102500008C01EA017A01E60EF71ECE15DF0529F4EB
:10251000CDB7DEB7E6E00C945824003981E0180707
:1025200028F46881C80188960E94AF2421960F5F25
:102530001F4FEBCF843038F4653028F44A3018F45C
:102540000E94FB11089580E090E0089580E10895D5
:1025500088E492E00895EF92FF920F931F93CF9338
:10256000DF938C01EA017A01E60EF71ECE15DF0536
:1025700029F4CDB7DEB7E6E00C945824083482E0A5
:10258000180748F4C80188549E4F0E9491248993EB
:102590000F5F1F4FEBCF80E0FACFEF92FF920F93C8
:1025A0001F93CF93DF938C01EA017A01E60EF71EA9
:1025B000CE15DF0529F4CDB7DEB7E6E00C9458243C
:1025C000083482E0180730F46881C80188549E4FAF
:1025D0000E94AF2421960F5F1F4FEACFCF93DF9366
:1025E000C8EBD1E060E0CE010E94AF242196C11576
:1025F00084E0D807B9F7DF91CF910895A8E0B0E063
:10260000E4E0F3E10C943824F82E20E1821708F07E
:1026100067C08FEF93E00E949124811161C008EBA5
:1026200011E0F11033C0FE0131965F0188E0119294
:102630008A95E9F76801FFEFCF1ADF0AC8010E9407
:10264000912489831A82811509F44AC08130C1F42A
:10265000780122E0E20EF11CC6010E9491248A83D7
:102660008115F1F19FEF980F9330E8F482E0C80EE6
:10267000D11CC7010E9491248B83811589F11C8292
:1026800060E0C5010E9489178601D4CF011584E05E
:10269000180731F1C8010E9491240F5F1F4F81116B
:1026A000F5CFFA94BECF8430A1F402E010E0C70168
:1026B000EFEFEE1AFE0A0E949124F501E00FF11FE0
:1026C0008083811569F08C3731F4FE01E00FF11F32
:1026D00012826701D5CF0F5F1F4F0730110539F701
:1026E0002896EAE00C945424CF93DF93EB018631D3
:1026F0009C4719F50E946F0B9D819115A1F08A7A74
:1027000091E0811101C090E090937102811549F030
:1027100085E30E94601B0E94270C80E0DF91CF912F
:10272000089589E2F6CF80917102811521F085E349
:102730000E94771BF0CF89E2FBCF81E0EFCFCF93F0
:10274000DF93EC01FB018581811509F4CFC09E0167
:1027500030572332310508F0AFC00E94B30C90937C
:10276000950280939402FE01E150F047E232F105B8
:1027700020F4EF50FB4D0C9423248091940281604F
:102780008093940290C08091950288608093950216
:102790008AC0809194028260F3CF80919402846019
:1027A000EFCF809194028860EBCF80919502816099
:1027B000EDCF809195028260E9CF80919402806193
:1027C000DFCF809194028062DBCF8091940280649D
:1027D000D7CF0E940207809194028068D1CF809168
:1027E00094028C60CDCF809195028360CFCF809191
:1027F00094028E7FC5CF80919502877FC7CF80914D
:1028000094028D7FBDCF809194028B7FB9CF809150
:102810009402877FB5CF809195028E7FB7CF80914C
:1028200095028D7FB3CF809194028F7EA9CF809146
:1028300094028F7DA5CF809194028F7BA1CF0E94BF
:102840000207809194028F779BCF80919402837FBF
:1028500097CF809195028C7F99CF80919402992790
:1028600082FF939590FB82F990FB83F989CF809149
:102870009502982F909590FB80F990FB81F986CF77
:1028800090919402892F8F7B96FF806479CF0E946C
:10289000020790919402892F97FB87F9805870CF97
:1028A00081E00E943E0D80919402909195020E94D9
:1028B000B80C0E94020780E0DF91CF91089580E07C
:1028C000F0CF90919402892F8F7E94FF806158CF32
:1028D00090919402892F8E7F90FF816051CF9091CB
:1028E0009502892F877F93FF886050CF81E0E4CFE6
:1028F000282F35EB2303C001112497FF04C0805813
:102900009109892F089580589F4FFBCF80917802BD
:1029100080FF0DC06091090170E0660F771F60387D
:102920007105B0F561157105A9F1862F089581FF34
:1029300007C06091090184E0689FB0011124EFCFC6
:1029400082FF04C06091090188E0F6CF9091770280
:102950009115D9F02091080180910901682F70E04C
:10296000921730F043E0660F771F4A95E1F7D7CF13
:10297000899FC001112433E0880F991F3A95E1F730
:10298000622F70E00E940F24CACF68E070E0CDCFC4
:102990008FE7089581E008958091780280FF0CC050
:1029A0006091050170E0759567957595679561155E
:1029B000710549F1862F089581FF06C060910501D8
:1029C00070E075956795F3CF6091050182FD0BC0AE
:1029D000909176029115A1F060910401809105011A
:1029E000961738F0682F70E06038710500F38FE7B4
:1029F0000895899FC001112470E00E940F24F4CF34
:102A000061E070E0D7CF81E00895E3E3E80FE331C0
:102A1000E0F5F0E0ED5EFA4D0C9423240E9486145C
:102A2000819580937C0208950E948614FACF0E94BB
:102A30008614819580937B0208950E948614FACFB4
:102A40000E94CC1480937D0208950E94CC1481953D
:102A5000F9CF0E94CC14819580937E0208950E9444
:102A6000CC14FACF815D990B21E030E001C0220F38
:102A70008A95EAF780917A02822B80937A020895F0
:102A80008091780281608093780208958091780225
:102A90008260F9CF809178028460F5CF40917B020B
:102AA0008D3C59F480917C0287FF0DC010927C020E
:102AB000411559F41092770208C08E3C81F4809140
:102AC0007C0218169CF3411581F080917D02909153
:102AD0007E02892B811159C01092760208958F3C95
:102AE00041F447FFF0CF10927B0280917C02811568
:102AF000E0CF803D19F41416B4F3E5CF90917D0238
:102B0000893D29F41916FCF610927D02DCCF8A3D2E
:102B100019F497FFD8CFF8CF90917E028B3D29F41E
:102B200097FFD1CF10927E02CECF8C3D19F41916AB
:102B3000CCF3C9CF9FE2980F983090F4815D990B48
:102B400021E030E0B90102C0660F771F8A95E2F7F5
:102B5000CB01809590917A02892380937A02B3CF3A
:102B60008D3D31F4809178028E7F80937802ABCFD7
:102B70008E3D21F4809178028D7FF7CF8F3D09F053
:102B8000A2CF809178028B7FF0CF08950E94771CAE
:102B900020917B0230917C02232B211521F0809320
:102BA00074029093750220917D0230917E02232B56
:102BB000211521F0809372029093730289E792E0CD
:102BC0000E94551A089586E0E9E7F2E0DF011D92C0
:102BD0008A95E9F7109277021092760210927802A5
:102BE0000895FC01828181110DC0838181110AC089
:102BF0008481811107C081E09581911101C080E03D
:102C00008170089581E0FCCFA6E0B0E0EAE0F6E153
:102C10000C943A2486E0E9E7F2E09E012F5F3F4FF3
:102C2000D90101900D928A95E1F710927B021092E2
:102C30007C0210927D0210927E028B819C81892BF6
:102C40007901811589F080917402909175020E943A
:102C50008F1C6C01809177028115B9F190910A0166
:102C60009C151D0408F43EC08D819E81892B811521
:102C700091F080917202909173020E948F1C8C01DE
:102C800080917602811509F45FC09091060190173A
:102C9000110608F467C0B70189E792E00E94A81BFB
:102CA000811105C089E792E00E94F11581110E940F
:102CB000C61586E0F701A9E7B2E001900D928A956A
:102CC000E1F72696E8E00C94562420910B019AE057
:102CD000299F900111242C153D0530F68F5F8093BC
:102CE000770202C08F3FD1F7DB80D11459F00E94E8
:102CF000861491E01D140CF09FEF899F802D112404
:102D000080937B02DC80D11459F00E94861491E0FC
:102D10001D140CF09FEF899F802D112480937C025D
:102D200080917B02811509F49FCFD0907C02D11451
:102D300009F49ACF0E94781480937B028D2D0E9413
:102D4000781480937C0290CF209107019AE0299F0C
:102D5000900111242017310708F09DCF8F5F8093D9
:102D6000760202C08F3FD1F71D81111559F00E94E4
:102D7000CC1491E011160CF09FEF899F802D112447
:102D800080937D021E81111559F00E94CC1491E0B0
:102D900011160CF09FEF899F802D112480937E02E5
:102DA00080917D02811509F476CF10917E02111574
:102DB00009F471CF0E94781480937D02812F0E94C4
:102DC000781480937E0267CFA0E0B0E0EAEEF6E1EF
:102DD0000C943924E82FF0E0E45CFD4FB490282FE8
:102DE00026952695269530E0F901E452FD4F049191
:102DF000877010E0082E02C0159507950A94E2F737
:102E000001701127F901E453FD4FE490F12C082ED5
:102E100002C0F594E7940A94E2F7E0FAEE24FF2466
:102E2000E0F8F901E454FD4FC491D0E002C0D5951B
:102E3000C7958A95E2F7C170DD27C62ED12C011502
:102E4000110549F5E114F10431F086EE0E941704F2
:102E5000C601009771F5B6018B2D0E949204C60140
:102E6000009779F5E114F104A1F50115110531F090
:102E700081EE0E945F04C6010097C9F5CD2B31F0A9
:102E80008CE20E94AC04C114D104C9F5CDB7DEB701
:102E9000E9E00C94552481EE0E941704C6010097C6
:102EA00089F2EFE9FFE03197F1F700C000000197E8
:102EB000F6CFEFE9FFE03197F1F700C0000001978E
:102EC000C8CFEFE9FFE03197F1F700C000000197AC
:102ED000C7CF86EE0E945F04C601009731F2EFE98A
:102EE000FFE03197F1F700C000000197F6CFEFE95E
:102EF000FFE03197F1F700C000000197BDCF8FE9E7
:102F00009FE00197F1F700C0000091E0C91AD108D5
:102F1000BACFEF92FF921F93CF93DF93EC01162F5E
:102F20008881811509F45AC0813009F053C0898124
:102F3000813071F47E0182E0E80EF11C8A810E94EA
:102F4000AC04E701812F90E00097E1F52196E8CFEE
:102F5000823041F47E01E2E0EE0EF11C8A810E9493
:102F60001704EFCF833041F47E01F2E0EF0EF11C45
:102F70008A810E945F04E5CF843011F02196E2CF70
:102F80002A81229680E090E06AE0AE014F5F5F4FB9
:102F90002053330B2A30310550F0009799F2EFE9B6
:102FA000FFE03197F1F700C000000197F6CF689F6E
:102FB000F001699FF00D1124C9018E0F9F1F298117
:102FC000EA01E3CFEFE9FFE03197F1F700C000003D
:102FD0000197BACF612F0E94E416B8CFDF91CF914D
:102FE0001F91FF90EF9008950F931F93CF93DF935E
:102FF000C42FD22FFC0185818115C9F04093810235
:103000000E94771C9093800280937F0280E28C0F55
:10301000883040F4C77081E001C0880FCA95EAF794
:103020000E94B504DF91CF911F910F9108951091E7
:103030008102141333C080917F02909180020E941C
:103040008F1C883C910550F5C0E2CD0F1D17C1F0D3
:1030500080E2810F883040F4177081E001C0880F52
:103060001A95EAF70E94BC04C83050F491E08D2F05
:10307000877001C0990F8A95EAF7892F0E94B504DD
:10308000802F0E94AC04C83068F6D77081E001C080
:10309000880FDA95EAF70E94BC04C4CF80E28C0F57
:1030A000883008F0BFCFC77081E001C0880FCA9593
:1030B000EAF7F1CF0F93DB01FC01E851FC47E73061
:1030C000F10598F5EA5DFA4D0C94232406E221EE11
:1030D00041EE6AE17CE7CD010E94F41780E00F9198
:1030E000089507E225EE45EE6BE17CE7F4CF06E2BA
:1030F00021EE40EE68E17CE7EECF07E225EE44EEFC
:1031000069E17CE7E8CF06E221EE42EE6CE17CE784
:10311000E2CF07E225EE46EE6DE17CE7DCCF08E288
:1031200021E045EE6EE17CE7D6CF15968C918111BA
:103130001092810281E0D3CFCF93DF939C01FB01FA
:1031400027378CE7380739F028373C47F1F081E022
:10315000DF91CF9108958581811591F00E94CE185D
:103160000E9483070E94D418D82F0E94D118C82F1C
:103170000E94CE184D2F6C2F0E94B40880E0E8CF3B
:103180000E94CE180E948F07EDCF8581811519F01E
:103190000E94D118E5CF0E94D118F4CF80910E0182
:1031A000089580910D01089580910C01089584E2A5
:1031B00090E00E949124843289F485E290E00E949C
:1031C0009124893059F486E290E00E94912491E0A4
:1031D000843009F090E0892F8170089580E0FCCF61
:1031E000CF93C82F64E2811101C06FEF84E290E0B9
:1031F0000E94AF2469E0C11101C06FEF85E290E049
:103200000E94AF2464E0C11101C06FEF86E290E03C
:103210000E94AF24CF910895089587E290E00E9424
:103220009124682F70E080E090E008950895CF9396
:10323000C62F0E9416196C2F87E290E00E94AF24DF
:10324000CF91089580E00E94F01860E070E0CB011B
:103250000E9417190E9439120E94EE1281E00E940A
:10326000F01808950E940C190E940D190E94161959
:103270000E94D718811102C00E9422190895089552
:103280009C01FB018581811551F0A90157574038F8
:10329000510530F4822F0E94FE1280E0089581E0F3
:1032A00008952FEFFC01208308950E94511908957D
:1032B00080E00895CF92DF92FF920F931F93CF93F8
:1032C000DF93EC01F62E0E945819811110C0E8819D
:1032D000E150E331E0F4F0E0E35DFA4D0C94232497
:1032E00019828CE08A836F2DCE010E94431DDF91ED
:1032F000CF911F910F91FF90DF90CF90089589811A
:103300008330F9F038F4813061F0823099F08FEF3A
:103310008883E9CF8430D9F71A821B821C821D82F0
:10332000E2CF0E94831C0E9429246A837B838C83C2
:103330009D83D9CF0E940D191A821B821C826D8336
:10334000D2CF0A8110E06E01F2E0CF0ED11C053021
:1033500011054CF6802F0E945810F601918382834C
:103360000F5F1F4FF1CF8981823031F0853079F6C0
:103370008A810E943F19B7CF6A817B818C819D81B0
:103380000E9429240E941719AECF4B816A8189813E
:103390000E94FB119827892798279D838C83A3CFB0
:1033A0002C813D813227232732274B816A818981F5
:1033B0000E941D1298CF0E94391295CF6F2DCE0119
:1033C0000E94551990CF0E94A61289838CCF0E942B
:1033D000A8129827892798279A83898384CF6B819D
:1033E00070E089819A81AE014C5F5F4F98278927F1
:1033F00098270E94AB1277CF6B8170E089819A8108
:10340000AE014C5F5F4F9827892798270E94CD1205
:103410006ACF0E94EE1267CF0E94E911D6CF6B816E
:1034200070E089819A81AE014C5F5F4F98278927B0
:1034300098270E94591257CF6B8170E089819A8139
:10344000AE014C5F5F4F9827892798270E947A1218
:103450004ACF90938702809386020895E091860276
:10346000F0918702309729F00190F081E02D0995C5
:10347000089580E00895E0918602F09187023097E8
:1034800021F00280F381E02D09950895DC01E0919F
:103490008602F0918702309739F086E08C930480A1
:1034A000F581E02DCD0109950895DC01E0918602BA
:1034B000F0918702309739F082E08C930680F78193
:1034C000E02DCD0109950895A3E0B0E0EAE6FAE128
:1034D0000C9440249C018091840290918502821773
:1034E0009307A1F03093850220938402E091860235
:1034F000F0918702309751F083E089833B832A83E0
:103500000084F185E02DCE01019609952396E2E035
:103510000C945C24A3E0B0E0E0E9FAE10C944024D0
:103520009C01809182029091830282179307A1F0FF
:103530003093830220938202E0918602F091870209
:10354000309751F084E089833B832A830084F1859E
:10355000E02DCE01019609952396E2E00C945C24BF
:1035600020910201309103012E5F3F4F809119019C
:10357000811579F08091940287FF0BC020910001A2
:10358000309101012E5F3F4F9EE180E0915018F491
:10359000089596E0FACFF90141919F014115B1F3E9
:1035A0008F5FF4CF8115A1F190911901911521F050
:1035B0009091940297FD0FC0209102013091030178
:1035C000F9013296285F3F4F9191981719F1E21750
:1035D000F307D1F71DC0982F969596959695803F45
:1035E000B8F4E0910001F0910101E90FF11D228191
:1035F00030E0877041E050E0BA0102C0660F771FEB
:103600008A95E2F7CB012623392381E0232B19F495
:1036100080E0089581E008959C01FC0132968FEFCF
:1036200090E04191461751F08F3F19F4411101C0CC
:10363000892F9F5F9630A9F78F3F09F40895280FCF
:10364000311D87FD3A95F901628308959C01FC01C3
:103650003296285F3F4F8191861302C0DF011E9290
:10366000E217F307C1F70895FC01862F869586952A
:103670008695603F60F4E80FF11D677021E030E04F
:1036800001C0220F6A95EAF78281822B8283089516
:10369000FC01862F869586958695603F80F4E80F1D
:1036A000F11D677081E090E09C0102C0220F331F82
:1036B0006A95E2F7B9016095828168236283089573
:1036C000682F80911901811559F08091940287FF2C
:1036D00007C080910001909101010E94341B089560
:1036E00080910201909103010E940C1B0895682FA4
:1036F00080911901811559F08091940287FF07C0CC
:1037000080910001909101010E94481B08958091D1
:103710000201909103010E94261B089580911901D6
:10372000811579F08091940287FF0BC0E091000130
:10373000F091010132968EE1DF011D928A95E9F741
:103740000895E0910201F0910301329686E0F4CFF2
:10375000DC01FB0111969C9111978181981322C085
:1037600012968C911297811519F0928189131AC0C3
:1037700013968C911397811519F09381891312C0B8
:1037800015968C911597811519F0958189130AC0AA
:1037900014969C91911521F081E02481291303C096
:1037A00080E001C081E08170089508950E94D51BDA
:1037B00008958F5F809388020E94D61B089583E04E
:1037C000809388020E94D61B08950E94D91B0895F9
:1037D00081E0809388020E94D61B08950E94E81B16
:1037E0000895089508950E94F21B0895089508957C
:1037F0000E94F11B0895CF930E94F61B0E942A118C
:103800000E94F71BC0E08C2F0E945810892B31F4C6
:10381000CF5FC530C1F780E0CF91089581E0FCCF44
:1038200085B7806885BF85B7806885BF08951F927A
:103830001FB61F9211248F939F93AF93BF938091D4
:103840008902811113C08091AA029091AB02A091CC
:10385000AC02B091AD024196A11DB11D8093AA02A8
:103860009093AB02A093AC02B093AD02BF91AF9125
:103870009F918F911F901FBE1F9018958091B2024B
:10388000843031F10E9492031092890288E190E025
:1038900020E40FB6F894A895809360000FBE2093A3
:1038A000600083B7817F846083BF83B7816083BFFB
:1038B0007894889583B78E7F83BF0FB6F894A895C8
:1038C00080916000886180936000109260000FBE5C
:1038D00008950E9402070E949703089582E084BD24
:1038E00093E095BD9AEF97BD80936E0008952FB732
:1038F000F8948091AA029091AB02A091AC02B09191
:10390000AD022FBF08952FB7F8946091AA0270916D
:10391000AB028091AC029091AD022FBF08959C0143
:103920004FB7F8948091AA029091AB02A091AC029B
:10393000B091AD024FBF821B930B089578941F92F4
:103940001FB61F9211248F939F93AF93BF938091C3
:10395000AA029091AB02A091AC02B091AD02019687
:10396000A11DB11D8093AA029093AB02A093AC025B
:10397000B093AD02BF91AF919F918F911F901FBEE9
:103980001F90189581E08093E00080E28093D8003A
:103990001092C9008FE19EE40197F1F700C000008A
:1039A00087E090EBDC018093BB029093BC02A09374
:1039B000BD02B093BE0288E19CE00FB6F894A895D2
:1039C000809360000FBE90936000FFCF88E19CE081
:1039D0000FB6F894A895809360000FBE9093600096
:1039E000FFCF809192020895282FCB01BA01309128
:1039F000B2023430D9F42F702093E9002FEF3091C8
:103A0000E80035FD06C035ED3A95F1F700002A953E
:103A1000B1F72091E80025FF09C040E050E00E9486
:103A2000391F8091E8008E778093E8000895BC01EB
:103A300043E050E084E00E94F41C0895BC0146E09D
:103A400050E084E00E94F41C0895BC0140E250E084
:103A500084E00E94F41C0895CF93DF93D82FC92FE0
:103A600048E050E0682F792F81E00E94F41C88E044
:103A7000ED2FFC2FAAE8B2E001900D928A95E1F7B4
:103A8000DF91CF910895792F603231F440E250E018
:103A9000682F82E00E94F41C0895A0E2B0E0E3E504
:103AA000FDE10C9440248091B202843009F583E05A
:103AB0008093E9008091E80082FF1AC08091E800BD
:103AC00090E085FF09C040E050E060E270E0CE0188
:103AD00001960E94891F91E08091E8008B77809386
:103AE000E800911529F060E2CE0101960E945A1972
:103AF000A096E2E00C945C248091B102811109C08F
:103B00000E9412210E946F218091E20084608093C4
:103B1000E20008951092B10208950E94E81B0895F2
:103B20006091AE0281E0611101C080E00E94DF1B64
:103B300008959091B20281E0943009F080E06091A4
:103B4000AE020E94E51B089542E061EC81E00E9414
:103B50008E2042E261EC84E00E948E2042E261EC21
:103B600082E00E948E2042E260EC83E00E948E2080
:103B70009091B20281E0943009F080E06091AE0251
:103B80000E94D91B08958091B402893089F148F4CC
:103B9000823009F4A1C0833009F45BC0813041F068
:103BA00008958A3009F488C08B3009F46DC00895F7
:103BB0008091B302813A09F04BC08091E800877F81
:103BC0008093E8008091B7029091B802892B61F050
:103BD00060E080E090E070E00E94D91F8091E800F2
:103BE0008B778093E800089568E08AE892E0F3CF4D
:103BF0008091B302813261F58091B7029091B80251
:103C00008D7F892B29F58091E800877F8093E800DC
:103C10008091E80082FF18C09091F3008091F2003B
:103C2000029731F48091F100813011F0863021F457
:103C30008091F100809392028091E8008B778093CD
:103C4000E8000E94C22008958091B2028111E0CF65
:103C500008958091B302813AD9F78091B70290918B
:103C6000B802892BA9F78091E800877F8093E8004C
:103C70008091E80080FFFCCF809119018093F100D2
:103C80008091E8008E77DBCF8091B302813201F71B
:103C90008091B7029091B802892BD1F68091E8000B
:103CA000877F8093E8000E94C2208091B5028093B4
:103CB00019010E94020708958091B302813241F6F2
:103CC0008091E800877F8093E8000E94C220809165
:103CD000B6028093930208958091B302813A09F06D
:103CE000B7CF8091E800877F8093E8008091E8005B
:103CF00080FFFCCF80919302C1CF84B7877F84BFC0
:103D00000FB6F894A8958091600088618093600058
:103D1000109260000FBE80E890E00FB6F894809398
:103D20006100909361000FBE0E94EE1B08950E94F7
:103D300012210E946F21E2EEF0E080818460808396
:103D400078940E94F52308958FE091E00E94291A4B
:103D500008958091B202853031F48091B2028530AD
:103D600019F00E94691C08950E943E1C0E94FB1BD2
:103D7000811599F38091B002811579F30E94231F78
:103D80000E940207EACF08959A014091B90250912A
:103D9000BA020E94CC1E0895FC01AB01D901892F03
:103DA000992783309105C1F068F48130910509F4B9
:103DB00045C0029761F48BE590E02AE133E02D9352
:103DC0003C93089581329105E1F0829739F180E0CA
:103DD00090E020E030E0F3CFCF019927E13059F0B7
:103DE0008230910559F0E6E1F3E0892B81F7849167
:103DF00090E09F01E4CFE2E0F3E0F9CFECEEF2E0F7
:103E0000F6CF6330710518F7FB01EE0FFF1FE25686
:103E1000FE4F2081318189E090E0D1CF6330710580
:103E2000B0F6FB01EE0FFF1FE856FE4F20813181F7
:103E30004B565E4FFA01808190E0C1CF82E190E065
:103E400025E733E0BCCF80E189BD82E189BD09B4BB
:103E500000FEFDCF8091D8008F7D8093D8008091A7
:103E6000E00082608093E0008091E00081FDFCCF63
:103E70000895AF92BF92CF92DF92EF92FF920F938D
:103E80001F93CF936C018B017A010E94E120C82F10
:103E9000811123C0E114F10439F0F701808191818F
:103EA000081B190BC80ED91EA12CB12C0115110528
:103EB000A1F08091E80085FD21C08091E8008E7717
:103EC0008093E800E114F10499F0F7018081918179
:103ED0008A0D9B1D91838083C5E08C2FCF911F910C
:103EE0000F91FF90EF90DF90CF90BF90AF9008952B
:103EF0000E94E1208115E9F2C82FEFCFF6018191F0
:103F00006F018093F10001501109FFEFAF1ABF0A52
:103F1000CDCFAF92BF92CF92DF92EF92FF920F93ED
:103F20001F93CF936C018B017A010E94E120C82F6F
:103F3000811123C0E114F10439F0F70180819181EE
:103F4000081B190BC80ED91EA12CB12C0115110587
:103F5000A1F08091E80085FD21C08091E8008B7779
:103F60008093E800E114F10499F0F70180819181D8
:103F70008A0D9B1D91838083C5E08C2FCF911F916B
:103F80000F91FF90EF90DF90CF90BF90AF9008958A
:103F90000E94E1208115E9F2C82FEFCF8091F10056
:103FA000F60181936F0101501109FFEFAF1ABF0AAB
:103FB000CDCFFC019B018091B9029091BA02861786
:103FC000970718F0672B61F0C90140E0009771F482
:103FD00041110CC08091E80082FF35C080E0089557
:103FE0008091E8008E778093E800EECF2091B202B6
:103FF0002115A9F12530A9F12091E80023FD2DC05C
:104000002091E80022FDE6CF2091E80020FFDECFDE
:104010003091F3002091F200009719F0283031051B
:1040200058F041E02830310509F040E02091E800E7
:104030002E772093E800CACF41914093F100019779
:104040002F5F3F4FE9CF8091B202811541F085305B
:1040500041F08091E80083FFBDCF81E0089582E0C8
:10406000089583E00895FC019B018091B90290912D
:10407000BA028617970718F0672B61F0C90140E074
:10408000009771F441110CC08091E80082FF36C0A6
:1040900080E008958091E8008E778093E800EECF6D
:1040A0002091B2022115B1F12530B1F12091E80043
:1040B00023FD2EC02091E80022FDE6CF2091E800EC
:1040C00020FFDECF3091F3002091F200009719F02D
:1040D0002830310558F041E02830310509F040E042
:1040E0002091E8002E772093E800CACF44914093B6
:1040F000F100319601972F5F3F4FE8CF8091B202D8
:10410000811541F0853041F08091E80083FFBCCFFC
:1041100081E0089582E0089583E00895982F973014
:1041200028F08F708093E90081E008959093E90072
:10413000242F762F50E0981731F07091EC002091E9
:10414000ED005091F00021FD02C09F5FE8CF30915B
:10415000EB003E7F3093EB003091ED003D7F3093DC
:10416000ED003091EB0031603093EB007093EC0088
:104170002093ED005093F0002091EE0027FDE5CF55
:1041800080E008958091B30287FF13C08091E8001A
:1041900082FF06C08091E8008B778093E800089545
:1041A0008091B2028111F2CF08958091B2028115FF
:1041B000D9F38091E80080FFF8CF8091E8008E77F6
:1041C000ECCF2091E4003091E50095E6A901209123
:1041D000EC00822F817020FF06C08091E80080FFF4
:1041E00006C080E008952091E80022FD1AC0809169
:1041F000B202811589F0853089F08091EB0085FD50
:104200000FC02091E4003091E50042175307F9F206
:104210009A95E1F684E0089582E0089583E0089598
:1042200081E008950E9481210E948921E0EEF0E062
:10423000808181608083E8EDF0E080818F778083EA
:1042400019BCA7EDB0E08C918E7F8C9380818F7E1E
:1042500080831092B10208950F931F93CF93DF9341
:104260000E9481210E948921C8EDD0E088818F774A
:10427000888388818068888388818F7D888319BC42
:104280001092B2021092AE021092B0021092AF02DF
:1042900000EE10E0F80180818B7F8083888181604F
:1042A000888342E060E080E00E948E20E1EEF0E052
:1042B00080818E7F8083E2EEF0E080818160808368
:1042C000808188608083F80180818E7F80838881EF
:1042D00080618883DF91CF911F910F910895E8ED60
:1042E000F0E080818F7E8083E7EDF0E08081816067
:1042F000808384E082BF81E08093B1020E942C2100
:104300000895E8EDF0E080818E7F80831092E200D6
:1043100008951092DA001092E10008951F920F9212
:104320000FB60F9211242F933F934F935F936F9388
:104330007F938F939F93AF93BF93EF93FF9380915E
:10434000E10082FF0BC08091E20082FF07C08091F4
:10435000E1008B7F8093E1000E94F4238091DA00DA
:1043600080FF19C08091D80080FF15C08091DA00CD
:104370008E7F8093DA008091D90080FF94C080E125
:1043800089BD82E189BD09B400FEFDCF81E0809343
:10439000B2020E947C1D8091E10080FF19C08091D3
:1043A000E20080FF15C08091E2008E7F8093E200E2
:1043B0008091E20080618093E2008091D800806269
:1043C0008093D80019BC85E08093B2020E94901DB2
:1043D0008091E10084FF29C08091E20084FF25C024
:1043E00080E189BD82E189BD09B400FEFDCF8091E5
:1043F000D8008F7D8093D8008091E1008F7E8093DC
:10440000E1008091E2008F7E8093E2008091E200E3
:1044100081608093E2008091AE02811509F449C069
:1044200084E08093B2020E94991D8091E10083FF95
:1044300029C08091E20083FF25C08091E100877F41
:104440008093E10082E08093B2021092AE028091EC
:10445000E1008E7F8093E1008091E2008E7F809367
:10446000E2008091E20080618093E20042E060E03F
:1044700080E00E948E208091F00088608093F000A0
:104480000E948D1DFF91EF91BF91AF919F918F91F0
:104490007F916F915F914F913F912F910F900FBE40
:1044A0000F901F90189519BC1092B2020E948A1D9D
:1044B00072CF8091E30087FF02C083E0B2CF81E03A
:1044C000B0CF1F920F920FB60F921124EF92FF926E
:1044D0000F931F932F933F934F935F936F937F930C
:1044E0008F939F93AF93BF93CF93EF93FF9309EE77
:1044F00010E0F8018081C091EC008F70C795CC2747
:10450000C795C82B108280EFE82EF12CF70180812F
:10451000877F808378940E94AC22F8011082F70193
:10452000808188608083CF70F801C083FF91EF9114
:10453000CF91BF91AF919F918F917F916F915F913B
:104540004F913F912F911F910F91FF90EF900F90FE
:104550000FBE0F901F901895AAE2B0E0E2EBF2E2D6
:104560000C943E2483EB92E0FC0101962091F10033
:10457000208322E08B3B9207B9F70E94C31D8091F4
:10458000E80083FF38C08091B3029091B4029A3062
:1045900090F5E92FF0E0E05CFA4D0C94232480388C
:1045A00089F0823841F58091B7028F70873018F515
:1045B0008093E9008091EB0085FB882780F91092B9
:1045C000E90006C08091B002880F9091AF02892B5C
:1045D0009091E800977F9093E8008093F10010920B
:1045E000F1008091E8008E7723C0811116C0809180
:1045F000B502813011F18091E80083FF0AC08091FB
:10460000E800877F8093E8008091EB0080628093D0
:10461000EB00AA96E4E00C945A24823061F7809172
:10462000B502811589F01092E9008091E800877F3A
:104630008093E8000E94C220DECF81E0933009F031
:1046400080E08093B002EFCF8091B7028F702FEFA0
:10465000280F263080F68093E9002091EB0020FFA0
:10466000E2CF933031F48091EB0080628093EB00D5
:10467000DACF9091EB0090619093EB0021E030E075
:10468000A90102C0440F551F8A95E2F74093EA0042
:104690001092EA008091EB008860E8CF8111ABCFE7
:1046A0001091B5021F778091E3008078812B809371
:1046B000E3008091E800877F8093E8000E94C22099
:1046C0008091E80080FFFCCF8091E30080688093B8
:1046D000E30083E0111101C082E08093B2028BCF2E
:1046E0008058823008F087CF8091B5029091B60251
:1046F0008C3D53E0950799F583E08A838AE28983AC
:104700004FB7F894DE01139620E03EE051E2E32F2C
:10471000F0E050935700849120FF03C082958F7082
:104720003F5F8F708A30C8F0895C90E08D939D93D5
:104730002F5F243161F74FBF8091E800877F80931E
:10474000E8006AE270E0CE0101960E94D91F8091D4
:10475000E8008B778093E8004ECF805DE6CF6091D4
:10476000B7027091B802AE014F5F5F4F0E94C41E46
:104770008C01892B09F43FCF8091E800877F8093DB
:10478000E800B80189819A810E943320E0CF803807
:1047900009F031CF8091E800877F8093E800809115
:1047A000AE028093F1001DCF811125CF9091B5020B
:1047B000923008F020CF8091E800877F8093E80056
:1047C0009093AE020E94C2208091AE02811531F01A
:1047D00084E08093B2020E94A41D0DCF8091E3007B
:1047E00087FDF6CF81E0F5CF0895CF938091B20297
:1047F000811599F08091E900C091EC008F70C79508
:10480000CC27C795C82B1092E9008091E80083FD62
:104810000E94AC22CF70C093E900CF91089597FB1E
:10482000072E16F4009407D077FD09D00E94672464
:1048300007FC05D03EF4909581959F4F08957095A3
:1048400061957F4F0895EE0FFF1F0590F491E02DC5
:104850000994692796276927782787277827089555
:104860002F923F924F925F926F927F928F929F9280
:10487000AF92BF92CF92DF92EF92FF920F931F936E
:10488000CF93DF93CDB7DEB7CA1BDB0B0FB6F8941F
:10489000DEBF0FBECDBF09942A88398848885F845F
:1048A0006E847D848C849B84AA84B984C884DF80D0
:1048B000EE80FD800C811B81AA81B981CE0FD11DB4
:1048C0000FB6F894DEBF0FBECDBFED010895AA1B51
:1048D000BB1B51E107C0AA1FBB1FA617B70710F0EB
:1048E000A61BB70B881F991F5A95A9F7809590951D
:1048F000BC01CD010895FB01DC0104C08D91019044
:10490000801921F441505040C8F7881B990B089535
:10491000FB01DC0102C001900D9241505040D8F7DC
:104920000895F999FECF92BD81BDF89A992780B577
:104930000895A8E1B0E042E050E00C94D524DC01F9
:10494000A40FB51F4150504048F0CB01840F951F74
:104950002E910E94B02441505040D0F70895262F48
:10496000F999FECF92BD81BDF89A019700B4021665
:1049700039F01FBA20BD0FB6F894FA9AF99A0FBE13
:1049800008950396272F0E94B0240E94AF24252F5C
:104990000E94B024242F0C94B0240196272F0E944B
:1049A000B0240C94AF24DC01CB01FC01F999FECFBB
:1049B00006C0F2BDE1BDF89A319600B40D924150A7
:1049C0005040B8F70895F894FFCF01050105480558
:1049D0004805AD05CA0530053005CF053C064D0636
:1049E0004D06F7136814FF13C913CD130314D11325
:1049F00007141314DD136114E1131714E5131B14CA
:104A00004014E9131F144714EF1325142D14D51364
:104A10000B14D9130F14F3132914371450145F1403
:104A2000C313FB136F140E15141517151D1532152E
:104A30003215321532153215321532153215201550
:104A4000251529152F15401546154A1577187D1877
:104A500066187118831889188F1870197F19B3197F
:104A6000C519D019DB19DE19DE19DE198719871966
:104A7000E319E719EF19FC19091A0C1A0F1A1C1A75
:104A8000CF22F522FB22F522FB224E237023FB22AC
:044A9000C723D42341
:104A94002F024F02280850011E0A1401030201F1DB
:104AA4001C2C1D251D1E1D171D01E200E900EA0036
:104AB400B500B600B700CD008301CC008A01920195
:104AC40094012102230224022502260227022A023B
:104AD400B300B4006F0070009F01CB019F02A002DD
:104AE400E200E900EA00B500B600B700CD0083019A
:104AF400CC008A019201940121022302240225029E
:104B0400260227022A02B300B4006F0070009F013E
:104B1400CB019F02A002F4F5F6F731333236343577
:104B240091909466974422B65F048703A9032C03EB
:044B340045036503CD
:00000001FF
