:100000000C9450020C9488020C9488020C94880280
:100010000C9488020C9488020C9488020C94880238
:100020000C9488020C9488020C941B210C94EF21F0
:100030000C94971B0C9488020C9488020C948802F0
:100040000C9488020C9488020C9488020C94880208
:100050000C9488020C941E1C0C9488020C94880248
:100060000C9488020C9488020C9488020C948802E8
:100070000C9488020C9488020C9488020C948802D8
:100080000C9488020C9488020C9488020C948802C8
:100090000C9488020C9488020C9488020C948802B8
:1000A0000C9488020C9488020C9488021E001F0095
:1000B0002000210022002300240025002600270024
:1000C00014001A000800150017001C0018000C008E
:1000D0001200130004001600070009000A000B00BC
:1000E0000D000E000F002A001D001B000600190065
:1000F0000500110010002D0028000000E100E000C4
:10010000E20000002C000000000050004F002152CF
:1001100029009000910021003E0040004100420073
:100120004300460014001A000800150017001C00C8
:1001300018000C0012004600040016000700090019
:100140000A000B000D000E000F004C001D001B00EC
:10015000060019000500110010002D002800000005
:10016000E100E000E20000002C0000000000500070
:100170004F0021521E001F002000210022002300FA
:10018000240025002600270014001A00080015008E
:1001900017001C0018000C001200130004001600C9
:1001A000070009000A000B000D000E000F002A00D6
:1001B0001D001B00060019000500110010002D0095
:1001C00028000000E100E000E20000002C00000038
:1001D000000050004F0021521E001F00200021008F
:1001E00022002300240025002600270014001A0006
:1001F0000800150017001C0018000C001200130066
:1002000004001600070009000A000B000D000E0094
:100210000F002A001D001B00060019000500110038
:1002200010002D0028000000E100E000E2000000C6
:100230002C000000000050004F0021520000000080
:10024000000000002A2B2800000000000000000031
:100250000000000000000029000000002C1E3420D7
:10026000212224342627252E362D3738271E1F20FD
:100270002122232425263333362E37381F04050642
:100280000708090A0B0C0D0E0F1011121314151686
:100290001718191A1B1C1D2F3130232D3504050684
:1002A0000708090A0B0C0D0E0F1011121314151666
:1002B0001718191A1B1C1D2F3130354C0000000077
:1002C000000000000000000000000000000000002E
:1002D000000000000000000000000000000000001E
:1002E0007E0F00D4FFFFFFC70000007814036E00EC
:1002F00075006D0062006500720039003400320044
:1003000000001203730061006D00310064006100A1
:100310007200650000000403090409025B00030188
:1003200000A0FA09040000010301010009211101E4
:1003300000012240000705810308000109040100B3
:10034000020300000009211101000122220007051B
:1003500082032000010705030320000109040200B5
:10036000010300000009211101000122B600070568
:1003700084032000011201000200000008313A0548
:10038000000001010200010660FF0961A10109628C
:10039000150026FF009520750881020963150026C7
:1003A000FF00952075089102C005010902A1018591
:1003B000020901A100050919012908150025019567
:1003C00008750181020501093009311581257F95E4
:1003D000027508810609381581257F950175088108
:1003E00006050C0A38021581257F950175088106DE
:1003F000C0C005010980A101850319012AB70015B4
:100400000126B700950175108100C0050C0901A1F6
:1004100001850419012AA002150126A00295017583
:10042000108100C005010906A1018506050719E034
:1004300029E71500250195087501810205071900B6
:1004400029EF1500250195F07501810205081901B4
:100450002905950575019102950175039101C00566
:10046000010906A101050719E029E71500250195F5
:100470000875018102950175088101050719002998
:10048000FF150026FF009506750881000508190173
:100490002905950575019102950175039101C0002B
:1004A00011241FBECFEFDAE0DEBFCDBF04B603FEDE
:1004B00018C08091BB029091BC02A091BD02B09186
:1004C000BE028730904BA740B04B59F41092BB024C
:1004D0001092BC021092BD021092BE02E0E0F8E35E
:1004E000099511E0A0E0B1E0ECE5F9E402C0059067
:1004F0000D92A63AB107D9F722E0A6EAB1E001C011
:100500001D92AB3BB207E1F70E94B8110C945A243C
:100510000C94000084E008958430B8F46530A8F4A9
:100520004A3098F450E09AE0699F400D511D112423
:10053000FA0192E3899FE00DF11D1124EE0FFF1FD8
:10054000E455FF4F85919491089581E090E00895DE
:1005500081E0089581E008950E94AA020895089517
:100560000E94AF020895A5E0B0E0E9EBF2E00C9440
:10057000C62349835A833091AD0189819A81311113
:1005800019C0662399F0222389F00E942F08182FA2
:10059000682F89819A810E940B0869817A81812F55
:1005A0000E942C0F2596E3E00C94E2230E941D0884
:1005B000182FF3CF0E942F0869817A81F1CFFC01B7
:1005C000262F408151816281738184810E94B30210
:1005D000089581E00895CF93DF93EC0160E00E94DD
:1005E000DF02BE010E94B002DF91CF91089508950D
:1005F0000E9401070E94F7022FEF84E39CE0215044
:1006000080409040E1F700C0000008950E94F80289
:100610000E94421C08950E94F8020E94661C0895E0
:100620000F931F93CF93DF938C0161E00E94DF0251
:10063000EC01B8010E94AF14811106C080E0DF9187
:10064000CF911F910F910895B801CE010E94AC0285
:100650008823A1F3B801CE010E946F19882371F39A
:10066000B801CE010E949615882341F3B801CE014E
:100670000E94E118882311F3B801CE010E94B3193A
:100680008823E1F2F8018281882361F0C330FCE71E
:10069000DF07E9F058F4C115ECE7DE07A9F0C13037
:1006A000DC47B9F0C8010E94A802C9CFCB358CE75E
:1006B000D807A9F0CC35ECE7DE0771F0CA35DC4786
:1006C00089F70E94820CEECF0E940603B7CF0E94EA
:1006D0008A0C0E940B03B2CF0E94780CE3CF0E94D9
:1006E000860CE0CF0E94731B0E94990308950E941C
:1006F0009D030E94781B0895089581E00895089550
:10070000CF93DF93D82F0E947D03C82F882319F041
:100710008D2F0E947F038C2FDF91CF910895089534
:10072000CF93C82F0E947C038C2F0E948003CF910F
:10073000089580E00E94900308950E94061A0E9486
:1007400090030895CF930E94061AC82F8091A801A4
:100750008C1779F0C093A8010E94031C6093A90133
:100760007093AA018093AB019093AC018C2F0E94EF
:100770009003CF910895ABE0B0E0E1ECF3E00C948E
:10078000C7234F83588769877A878B8761110E94B7
:10079000C30B1E821D8285E0FE013796DE01119695
:1007A00001900D928A95E1F78C819D81892B61F4EE
:1007B00049815A816B817C818D819E810E94EB0AE7
:1007C0002B96E2E00C94E32389819A8189238F3F61
:1007D00079F3CE0101960E94E9028111E9CFF0CFB1
:1007E000FC01808191810E945C080895662329F0B4
:1007F0000E943C120E940F1308950E949612FACF95
:10080000CF93C82F8823B9F08CEF8C0F813AA8F4CE
:100810006C2F80910001909101010E94991A882308
:1008200029F08C2F0E94830B0E94E40B8C2F0E94D6
:100830007B0B0E94E40BCF91089580E28C0F8830EF
:1008400048F4C77081E001C0880FCA95EAF70E949A
:10085000A60BEFCFEBE5EC0FE33040F4F0E0E45B08
:10086000FE4F808190E00E943B1AE5CFE8E5EC0F57
:10087000EB3150F4F0E0EE0FFF1FEA5EFE4F808197
:1008800091810E94601AD7CF83E38C0F833198F651
:1008900061E08C2F0E94F603CECF882381F19CEF7C
:1008A000980F913A28F40E94830B0E94E40B08955C
:1008B00090E2980F983050F4877091E001C0990F42
:1008C0008A95EAF7892F0E94AC0BEFCF9BE5980F32
:1008D000933028F490E080E00E943B1A089598E558
:1008E000980F9B3128F490E080E00E94601A0895F0
:1008F00093E3980F933118F460E00E94F603089593
:100900001F93CF93DF93182FEB010E9400042097D1
:1009100039F4812F0E944D04DF91CF911F910895EA
:100920008FE99FE00197F1F700C000002197EFCF1A
:1009300070E060E0893311F460E570E00E948004AB
:100940000895882321F00E94A60B0E94E40B0895CD
:10095000882321F00E94AC0B0E94E40B0895B0E0C4
:10096000A0E0E5EBF4E00C94C0236C01D62FC72F78
:10097000FC011281058102950F700E949C0BE82EEC
:100980008823E9F0E12E1123D1F08C2F807F803471
:1009900051F080E28D0F8830F8F0011104C08C2FE7
:1009A000807E8032C9F08091950282FF15C082E07E
:1009B0000E94470C0E949C0B91E0E82EE926BC2E79
:1009C000B2949FE0B922FBE0FB15B8F1EB2DF0E00B
:1009D000E45AFB4D0C94AA23E12CF1CF0C2F0F709D
:1009E000C07F11F00295007F112399F0002359F088
:1009F00080E28D0F883010F0D11107C0802F0E9447
:100A0000A60B0E94E40B8D2F63C0802F0E94B60BB3
:100A1000F8CF8D2F0E944D04002379F080E28D0FD6
:100A2000883010F0D11104C0802F0E94AC0B03C09D
:100A3000802F0E94BC0B0E94E40B2B2D2850330BFF
:100A40002430310520F40E94061A0E949003EE2003
:100A500089F00E94980B80FD0DC0F60112820E9461
:100A6000920B0E947F07C6010E94C1060E94920B52
:100A70000E948B07CDB7DEB7E9E00C94DC232C2F66
:100A80002F70F22EC07FC03219F0F29480EFF8225E
:100A9000DD2381F0D13009F449C0112309F451C09C
:100AA000002309F448C0F601858180FFACCF8F7028
:100AB000858341C08091950282FD15C0112359F0B4
:100AC000FF2029F08F2D0E94A60B0E94E40B80E0EE
:100AD0000E940004B2CF80E00E944D04FF2009F480
:100AE000ACCF8F2DA2CF112381F0011106C00E943F
:100AF000C60B8F290E94A104A0CF0130C1F70E942C
:100B0000C60B8F290E94CD0B98CF011106C00E9401
:100B1000DA0B8F2D0E94A80490CF013009F48DCFFD
:100B20008F2D0E94A8040E94DA0B87CF112329F091
:100B3000063008F082CF8F2DDDCF053008F07DCF55
:100B4000E8CF002331F3D93349F4FFEF27EE33E048
:100B5000F15020403040E1F700C000008D2F0E948E
:100B60004D046BCF8C2F86958695837069F081300C
:100B700009F063CF8D2F9C2F9370111102C080E07C
:100B800090E00E94601A59CF8D2F9C2F9370111105
:100B900002C080E090E00E943B1A4FCF612F8D2F62
:100BA0000E94F6034ACF8C2F837079F5111145CF3F
:100BB0004D2F429546954770440F440F8D2F8F70EF
:100BC000042E01C0880F0A94EAF72D2F2071D4FF5C
:100BD00007C02FE030E001C0220F4A95EAF72095C8
:100BE000C695C695C370822BC23049F058F4C13007
:100BF00019F00E945B0721CF0E9455071ECF0E946B
:100C000061071BCF0E94520718CF8695112311F060
:100C10008C2F8170882309F410CF4D2F4295469573
:100C20004770440F440F8D2F8F70042E01C0880F22
:100C30000A94EAF72D2F2071D4FF07C02FE030E08F
:100C400001C0220F4A95EAF72095C695C695C37054
:100C5000822BC23049F058F4C13019F00E94AA0723
:100C6000ECCE0E94A407E9CE0E94B007E6CE0E9417
:100C70006D07E3CECF70112329F08C2F0E947F07E0
:100C80008D2F38CF8D2F0E94A8048C2F0E948B07A8
:100C9000D4CED23F41F160F4D03FB9F0D13F81F0E2
:100CA000112309F446C00111AECE8C2F8F711FC0E5
:100CB000D33F01F1D43FA1F78091950282FD24C07A
:100CC0008C2F8F71112311F312C0112341F00530C5
:100CD00008F0B3CE8C2F8F710E949807AECE0630ED
:100CE00008F0ABCEF7CF8C2F8F711111CFCF0E94B0
:100CF0007F07A3CE112329F08C2F8F710E947607D6
:100D00009CCE0E94720799CE112349F0CF718C2F8F
:100D10000E947F0763E08C2F0E94290C8ECE81E019
:100D20000E94470C023008F488CE82E00E94470CF3
:100D300084CE002359F0D93309F010CF8FEF97EE0E
:100D4000E3E081509040E040E1F706CF8C2F8F71B7
:100D50009DCF0F931F93CF93DF93EC01688179812F
:100D60008A810E9467088C010E94B6070E94510781
:100D7000B801CE010E94AF04DF91CF911F910F9176
:100D80000895CF93DF93EC018B819C81892B29F00F
:100D90008881998189238F3F51F4DF91CF91089504
:100DA000CE010E94A906CE010E94EB02F6CFCE0131
:100DB0000E9410038111F4CF0E949C0B882369F3D9
:100DC0008A81882351F38091950282FFE6CF82E0E9
:100DD0000E94470CE2CF90E080E00E943B1A90E036
:100DE00080E00E94601A0E94C30B0E94E40B0E94E4
:100DF0002B130E940F1308950E948B0B0E94EB0689
:100E000008950E94B30B0E94FC06089592959F706E
:100E1000963091F058F4925F9F70923058F4803F72
:100E200019F030F4883E30F481E008959A5FF4CFF1
:100E3000843FD1F380E00895883EB0F3813FD1F73D
:100E4000F3CFFC0183819481892B29F080819181EA
:100E500089238F3F11F480E00895808191810E9461
:100E60005C080E9406070895A5E0B0E0EAE3F7E019
:100E70000C94C7232596E2E00C94E323A6E0B0E0AF
:100E8000E4E4F7E00C94C7232696E2E00C94E32315
:100E900008950E94480708950E9449078093C4015D
:100EA000089508950E944C0708959091C401892BDC
:100EB0000E944C0708959091C40189230E944C0719
:100EC00008959091C40189270E944C0708950E94BB
:100ED000480708950E94670708950E946A07809353
:100EE000C301089580E00E946D07089591E001C05C
:100EF000990F8A95EAF7892F0E946D07089521E0DE
:100F000030E001C0220F8A95EAF78091C301822B5D
:100F10000E946D07089521E030E001C0220F8A95FC
:100F2000EAF720958091C30182230E946D070895FE
:100F300021E030E001C0220F8A95EAF78091C301D9
:100F400082270E946D0708959091C301892B0E940A
:100F50006D0708959091C30189230E946D0708953C
:100F60009091C30189270E946D0708950895262F47
:100F7000277091E001C0990F2A95EAF723E0769552
:100F800067952A95E1F7FB01EE0FFF1FE60FF71FAC
:100F9000E40FF51F50E040E0682F70E08191DF0121
:100FA00011979B01042E02C0369527950A94E2F70B
:100FB000217021952827292328272C934F5F5F4FE5
:100FC0004330510559F70895A82FA77023E096954F
:100FD00087952A95E1F7FC01EE0FFF1FE80FF91F37
:100FE000E60FF71F50E040E080E0219130E00A2E4C
:100FF00002C0369527950A94E2F721703327042E14
:1010000001C0220F0A94EAF7822B4F5F5F4F4330F3
:10101000510559F70895262F953070F48A3060F401
:10102000682F70E08AE0989F600D711D11244EEAD0
:1010300051E0822F0E94B7070895292F953068F458
:101040008A3058F490E06EEA71E03AE0239F800D18
:10105000911D11240E94E407089580E00895CF9225
:10106000DF92FF920F931F93CF93DF936C01009158
:10107000C3018091C401082BC3E0D0E010E0FC2E36
:10108000C8010C2E02C0959587950A94E2F780FD61
:101090000CC02197A0F7F12C8F2DDF91CF911F91DC
:1010A0000F91FF90DF90CF900895B6018C2F0E9492
:1010B000380F019771F3F0CFCF93DF93EC010E94CB
:1010C0002F08BE010E94380FDF91CF9108951F9322
:1010D000CF93DF93EB019091AD01992339F0CB01D0
:1010E0000E945C08DF91CF911F910895882369F0D9
:1010F000CB010E942F08182F682FCE010E940B08E9
:10110000BE01812F0E94380FEDCFCB010E941D0838
:10111000182FF6CFE1E0F0E0DF0102C0AA0FBB1FFD
:101120006A95E2F7BD01DF0102C0AA0FBB1F4A9515
:10113000E2F76A2B01C0EE0F2A95EAF7962F982363
:10114000961302C08E2B0895E0958E230895242FC8
:10115000462F682F8091C3010E948A080E946D0764
:1011600008951F93CF93DF93C091C50116E080913E
:10117000C6018C1304C0DF91CF911F910895D0E078
:101180001C9FF0011D9FF00D1124E953FE4F40817B
:10119000518162817381848195810E943E072196ED
:1011A000C770E5CF4091F7015091F8016091F901C6
:1011B0007091FA018091FB019091FC010E943E0721
:1011C00008952091C5019091C60156E0291302C0EF
:1011D00080E0089530E0529FF001539FF00D1124FC
:1011E000E953FE4F7181761306C07081781303C0F6
:1011F0007281741304C02F5F3F4F2770E7CF81E0E7
:1012000008951F93CF93DF938091FC01807F09F0B5
:101210004BC08091F901882309F446C08091C50133
:10122000C091C6014091F7015091F8016091FA0117
:101230007091FB01D42FD52316E0C817A9F190E0D7
:1012400061157105A9F1DF3F99F1189FF001199F10
:10125000F00D1124DF01A953BE4F11962C91119767
:10126000251326C02C91241323C012962C9112977B
:1012700021111EC013962D913C91261B370B283C43
:101280003105B0F48091FC018F7080618093FC0186
:10129000E453FE4F80818F708061808387EF91E0FF
:1012A0000E94C1060E94B108DF91CF911F9108955D
:1012B00001968770C2CFA1E1B0E0E1E6F9E00C94BD
:1012C000BD238C0185E0F801DE011D9601900D9291
:1012D0008A95E1F7F801F28087EFA82E81E0B82E19
:1012E0004091FA015091FB014115510509F45AC191
:1012F0009091F7012091F801892F82238F3F09F403
:1013000051C1C080D18083809480E090F901B40104
:10131000641B750BEE2009F4F6C08091FC01382F98
:10132000307F683C710508F0AFC031117AC0EF2CF6
:101330002D1116C09C1114C0F11012C08F70806165
:101340008093FC010E94D208C5010E94C1068091D1
:10135000FC01F80185838E2D6196ECE00C94D92375
:1013600081149104C9F18C2D8D218F3FA9F181E069
:101370008F2580FF05C04F2D6D2D8C2D0E94E1081B
:101380008114910459F18C2D8D218F3F39F181E029
:101390008F25F82FF170BF2E80FF39C04F2D6D2D96
:1013A0008C2D0E94E108A82E811131C0CD86DE86E9
:1013B0008D859E850E945C08292F22952F702430F0
:1013C00078F49F702230A8F09923B9F0F801958144
:1013D000907F99F4EA2CBFCF80E0CBCF80E0D9CFCB
:1013E0002A5F2F70223068F0C8010E94C106AB2C22
:1013F000F1CF992311F0882369F3805E883050F390
:10140000F3CF803F38F3815F833070F7E3CFFF2065
:1014100009F4A1CF8091FC0181608093FC01E12C53
:101420009ACF2D1105C09C1103C0FF2009F486C07E
:10143000C8010E942107882319F1FF2009F180913A
:10144000FC01803270F02091F7013091F80138876B
:101450002F8319869B868A868C87CE0107960E94E9
:10146000C10686E0F801A7EFB1E001900D928A95E0
:10147000E1F70E9401090E94D208EE24E3946BCFA9
:10148000C8010E94C106F9CF311114C0782D998A84
:10149000888AA6016F2D89890E94340787EF91E021
:1014A0000E94C10686E0F50111928A95E9F70E9433
:1014B000D208B5CF2D110EC09C110CC0F1100AC07E
:1014C0008583C8010E94C10686E0F50111928A95C4
:1014D000E9F741CFC8010E942107882389F2FF2044
:1014E00079F28091FC01803208F4BBCF2091F701A2
:1014F0003091F8013A8329831B829D828C828E83EE
:10150000CE010196ACCF683C710508F03DC0EF2CD0
:10151000FF2009F4B5CF2D1129C09C1127C080915F
:10152000FC0180FD1AC0982F907FB9F08583903F11
:1015300031F0982F907F905F8F70892B8583C80141
:101540000E94C10686E0F801A7EFB1E001900D927C
:101550008A95E1F70E94D208FECE86E0F801A7EF57
:10156000B1E001900D928A95E1F7F5CEC8010E9495
:101570002107811176CF8091FC0181608093FC016D
:10158000C8010E94C106E7CE782D998A888AA601F3
:101590006F2D89890E94340786E0F50111928A95A2
:1015A000E9F7D8CFFF2009F46BCFC8010E942107CB
:1015B000E82E882309F464CF86E0F801A7EFB1E0B4
:1015C00001900D928A95E1F787EF91E00E94F00378
:1015D0000E940109BFCFACE0B0E0E1EFFAE00C946B
:1015E000C6234F83588769877A878B879C87CE016C
:1015F00007960E945B098823B1F08A859B85892B19
:1016000039F04F815885842F85238F3F09F06CC0B6
:1016100016E08091C5019091C601891343C02C96B4
:10162000E3E00C94E22386E0FE013796DE0111969A
:1016300001900D928A95E1F78A859B85892B41F36C
:101640008F81988589238F3F19F32091C60130E05F
:10165000C9010196877099274091C501481719065D
:1016600071F40E9401071092C6011092C50186E034
:10167000E7EFF1E0DF011D928A95E9F7C9CF96E027
:10168000929FD001939FB00D1124A953BE4FFE012C
:10169000319601900D929A95E1F78093C6010E94D0
:1016A000B108B6CF819FC001112489539E4F0E947B
:1016B0005B09882309F4B3CFE091C5011E9FF001B7
:1016C0001124E953FE4F40815181628173818481ED
:1016D00095810E943E078091C50190E00196877038
:1016E00099278093C50195CF69857A858B859C85DF
:1016F0000E943E078DCF682F8091000190910101DB
:101700000E94191B0895682F80910001909101019A
:101710000E94271B089580910001909101010E9471
:10172000351B089580911D028595859585950895B1
:1017300080911D028770089590911D02977081E03D
:1017400009F480E00895809140020895909140024C
:10175000892B8093400208958095909140029823B0
:1017600090934002089510924002089590913F0294
:10177000892B80933F020895809590913F02982392
:1017800090933F02089510923F02089580911E02A7
:10179000089508950E94C90B08959091950292FFB3
:1017A00008C090911E02981721F080931E020E949B
:1017B000CA0B089580911E02882329F010921E0200
:1017C00080E00E94CA0B0895CF93DF93E09100015F
:1017D000F0910101809140028083E0910001F0913D
:1017E0000101808190913F02892B808390911E029C
:1017F000992381F0E0910001F09101018081892B12
:10180000808380910001909101010E94851A8111CD
:101810000E94DA0BC0910001D091010140E250E03A
:101820006DEF71E0CE010E940224892B59F080E215
:10183000FE01ADEFB1E001900D928A95E1F7CE0186
:101840000E94131ADF91CF91089508950E94250CEC
:1018500008959091950292FF11C098E0899F9001A0
:101860001124622B60931D020E947F0780911D024C
:101870008595859585950E94260C08950E947F0781
:10188000089510921D0280E00E94260C0895909108
:101890001D028095892380931D02282F277091F4C3
:1018A000282F082E000C330B9217130659F0909135
:1018B000950292FF07C08595859585950E948B07B7
:1018C0000E94410C08959091950292FB222720F9E5
:1018D000281769F080FB92F9909395028091940209
:1018E000909195020E94AC0C82E00E94470C0895F2
:1018F0008091950282FB882780F991E089270E94D8
:10190000630C089581E00E94630C089580E00E94BA
:10191000630C08956FEF7FEF90E080E00E94442415
:10192000089590E080E00E942024873E9E4F19F4A5
:101930000E944914089580E0089582E090E00E949A
:101940001824089583E090E00E941824089584E00C
:1019500090E00E9420240895BC0184E090E00E9461
:1019600044240895AB01BC018FE090E00E9438242C
:101970000895AB01BC0183E190E00E9438240895F2
:1019800060E070E0CB010E94B90C089560E070E067
:10199000CB010E94B20C0E94C00C089567EE7EEF4E
:1019A00090E080E00E94442460E082E090E00E94A9
:1019B000262460E083E090E00E9426241092C40177
:1019C00060E074E184E090E00E94442460E086E0FE
:1019D00090E00E9426246FEF87E090E00E9426248A
:1019E00040E050E0BA0188E090E00E94382460E0D6
:1019F0008DE090E00E94262440E050E0BA0188E1AA
:101A000090E00E94382460E087E190E00E94262464
:101A100040E050E0BA018CE190E00E94382470E090
:101A200060E080E290E00E94442440E050E0BA018F
:101A300088E190E00E94382480E00E9462140E94B5
:101A400091140E94C60C08950E94CE0C0895682F30
:101A50008EE090E00E9426240895A5E0B0E0E3E344
:101A6000FDE00C94C5230E94F71B8C01809141027C
:101A70009091420280179107A1F08FEF89838A83AA
:101A80001B820E94F71B8160782F9D838C83498184
:101A90005A816B818D810E94BB0310934202009397
:101AA00041022596E4E00C94E1230E94031C60931C
:101AB00051027093520280935302909354026093A8
:101AC0004D0270934E0280934F02909350020895FE
:101AD000089508950E94690D089508950E946D0D5E
:101AE000089581E0089582E290E10E94FC190E942D
:101AF000680D0E946A0D08950E94710D08950E945C
:101B00007C0D0895089508950E94820D0E94830D12
:101B100008950E9441100E948F0308950E94EE1BB9
:101B20000E94A1140E9419110E94890D0E946E0D3D
:101B30000895A5E0B0E0EFE9FDE00C94BC230E941D
:101B4000710D81110AC00E942D0D0E944D130E943B
:101B5000A2032596EDE00C94D8230E942F1123E4D4
:101B6000822E22E0922E640110E0F601E190F190C5
:101B70006F01812F0E9464101F5F153009F449C066
:101B8000E816F90691F38091550281FD0E946D10CF
:101B90000E947F0D782E10E0812F0E9464107C013E
:101BA000F401A190B1904F018A159B0561F1A8261F
:101BB000BF2400E0CC24C394D12CC5018C219D21ED
:101BC000892BC1F07720B1F009831A8321E0C70186
:101BD0008C219D21892B09F420E02B830E94F71B87
:101BE0008160782F9D838C8349815A816B818D819F
:101BF0000E94BB030F5FCC0CDD1C0A30F1F6F40130
:101C00003297F182E0821F5F153031F60E94550D48
:101C10009CCFE816F90609F0B6CF95CF1F93CF9366
:101C2000DF930E943D0FEC01C11580E5D807F0F568
:101C3000C11580E4D80708F09CC0C03ED10520F54E
:101C4000CD3CD10508F082C0C83AD10578F4C53A38
:101C5000D10508F073C0C130D10519F1209709F101
:101C6000C430D105F0F4D0E0C0E01BC0C13CD105C8
:101C7000D0F7C85AD0E0CC0FDD1FC15BDE4F099012
:101C8000D881C02DD4640DC0C11580E2D80708F0FA
:101C9000D1C0C11581E0D80708F05AC0C83ED105AF
:101CA00010F7CE01DF91CF911F910895C03682E5E4
:101CB000D80718F5C03482E5D80708F06BC0C032E9
:101CC00082E5D80708F05FC0C11582E5D80708F49F
:101CD00097C02C2F2695269580E2289F90011124ED
:101CE0008C2F8370C1E0D0E002C0CC0FDD1F8A953D
:101CF000E2F7C22BD32BDD68D4CFC03A82E5D807F8
:101D000060F4C03882E5D80708F459C0CF71D0E03C
:101D1000DC2FCC27C46FD06AC4CFC03C82E5D80783
:101D200008F462C0C03E82E5D80708F09CCFDC2FE3
:101D3000CC27CC27DF71C06FD06AB3CFC55AD0E0B3
:101D4000CB57DE4FC881D0E0D064ABCFD065A9CFF0
:101D50008D2F0E94DF0F182FCE0199270E943D0F73
:101D6000C12FD0E0DC2FCC27CC27DF71C82BD92B9B
:101D700098CFCE0199270E943D0FCC27DF70C82B4A
:101D8000D92BD06A8ECFCF71D0E0DC2FCC27C16F9A
:101D9000D06A87CF2C2F26952695277080E2289F22
:101DA000900111248C2F8370C1E0D0E002C0CC0FD1
:101DB000DD1F8A95E2F7C22BD32BDC6872CF2C2F64
:101DC00026952695277080E2289F900111248C2F5C
:101DD0008370C1E0D0E002C0CC0FDD1F8A95E2F72E
:101DE000C22BD32BDA685DCF8C2F8F710E94DF0F4F
:101DF000C82FD0E0DC2FCC27CC27DF71D06251CFA9
:101E00008C2F8F710E94DF0F55E0D695C7955A959C
:101E1000E1F7CF70D0E0DC2FCC27282F30E084FF13
:101E200005C044E0220F331F4A95E1F7C22BD32BA4
:101E3000D06937CF8D2F8F710E94DF0F182FCE0101
:101E400099270E943D0FC12FD0E0DC2FCC27CC2753
:101E5000DF71C82BD92BD2CF462F753030F46A30C2
:101E600020F4672F0E94F917089590E080E008950C
:101E70000E942C0F0E940E0E089582389105B9F130
:101E8000B0F48133910509F47DC048F4893291059D
:101E900009F46DC08A32910509F47BC00895853339
:101EA000910509F45FC08933910509F10895833ED6
:101EB0009105D9F138F4803E910529F1823E9105D2
:101EC00079F10895863E9105D9F1873E910509F48F
:101ED0003EC0843E910541F52091950221FF24C02A
:101EE0008091940284FD19C087EE90E008952091BE
:101EF0009402237009F05AC02091950223FF14C068
:101F000089E290E008952091940220FD38C030913C
:101F1000950230FF09C024FF43C090E080E008959F
:101F20002091940222FDF7CF08952091940222FD82
:101F30003AC03091950230FD39C024FFF5CFEDCF86
:101F40002091940223FFF0CF24FDE7CFCDCF209145
:101F5000940223FD2EC03091950231FFEECF84EE26
:101F600090E008952091940225FFDECFC9CF209103
:101F7000940225FD21C02091950223FFD5CF89E34E
:101F800090E0D2CF2091940226FFCECF8AE290E05B
:101F900008952091940226FFC7CF81E390E0089531
:101FA00083EE90E0089582EE90E0089580EE90E058
:101FB000089586EE90E0089585E390E0089590916D
:101FC000940292FF06C0282F28712830F9F4877FE9
:101FD000846093FF06C0282F28712831F1F4877E92
:101FE00084612091950220FF06C0382F3871383067
:101FF000D9F4877F816021FF06C0282F28712831FE
:10200000D1F4877E816194FD877E0895282F247105
:102010002430F9F68B7F8860DCCF282F247124319F
:1020200001F78B7E8861DDCF382F3171313019F7A0
:102030008E7F8860E0CF282F2171213121F78E7E9D
:102040008861E1CF80E008950E948A0C08950E9483
:102050002F112FEF86E791E0215080409040E1F76B
:1020600000C000000E942F1180E00E94641080FFD9
:1020700004C00E9424100E94421C08950E94271050
:1020800008950E94910C811102C00E94240D0E94AB
:102090009D0C809355020E94A70C9093950280930B
:1020A00094020E943E100E94A20C0E94520780914E
:1020B000C3010E946A07089508950E945C10089564
:1020C00008950E9460100895E82FF0E0EE0FFF1FC2
:1020D000E056FD4F808191810895089580EA8A95A8
:1020E000F1F7089500C008950E946E100895F894C5
:1020F000E82FE295EF70F0E031A1282F2F7081E0FA
:1021000090E001C0880F2A95EAF7982F90959323C5
:1021100091A392A1892B82A378940895CF93DF9302
:10212000C2E9D1E089918F3F11F00E94771081E0E0
:10213000C739D807B9F7C8E8D1E089918F3F11F0C6
:102140000E94771081E0C239D807B9F7DF91CF91AB
:102150000895AF92BF92DF92EF92FF920F931F9379
:10216000CF93DF938C01D62EC62FD0E0CE018E56B2
:102170009E4F7C01FC0120812F3F09F44DC0F89453
:10218000E22FE295EF70F0E031A12F7081E090E056
:1021900001C0880F2A95EAF7932F982B91A392A15B
:1021A0008095892382A378940E947210E8E8F1E078
:1021B00042E951E021E030E0B12CA12C61916F3F68
:1021C000A9F1A62FA295AF70B0E090968C9190E007
:1021D0006F7002C0959587956A95E2F780FD26C0DD
:1021E000C901A82AB92A220F331F4E175F0731F7FA
:1021F000F70180818F3F11F00E94771061E0A114F8
:10220000B10409F460E08D2D0E947410CC0FDD1F25
:10221000C00FD11FB982A882DF91CF911F910F917A
:10222000FF90EF90DF90BF90AF90089590E080E036
:10223000D8CF0E948E108AE0E0EAF2E0DF01982F0A
:102240001D929A95E9F7E6E9F2E0DF011D928A9581
:10225000E9F785E00E946A110E945D100895AAE0E6
:10226000B0E0E5E3F1E10C94C4238E010F5F1F4F52
:102270008AE0F80111928A95E9F7F12C6F2DC801D7
:102280000E94A910F394F5E0FF12F8CF4AE050E065
:10229000B80186E992E00E94022421E0009709F447
:1022A00020E0892B41F08AE0F801A6E9B2E0019034
:1022B0000D928A95E1F745E060EA72E086E992E0E6
:1022C0000E946B11182F0E946110812F2A96E5E061
:1022D0000C94E0230895CF92DF92EF92FF921F9328
:1022E000CF93DF936C017B01C42F222349F081E05F
:1022F000809358020E94F71B9093570280935602D6
:102300001091580211110AC010E0812FDF91CF9176
:102310001F91FF90EF90DF90CF900895809156022B
:10232000909157020E940F1C059770F3D0E0CC0FDC
:10233000DD1FAE01B601C7010E940224892B41F0C6
:10234000AE01B601C7010E940F2410925802DDCFE2
:1023500010E0FBCF0E94F01D0E948E0D0E94FD1D1B
:1023600008950E94021E0E94990D0E941C1E08954D
:102370000E94901B0E94D61D0E94730D0E94AA11FC
:102380000E94B1110E94840DFBCF80915F0280FFFB
:102390000DC06091070170E0660F771F603871050E
:1023A00070F56115710569F1862F089581FF07C0E9
:1023B0006091070184E0689FB0011124EFCF609124
:1023C000070182FD0AC080915E028823A9F0209156
:1023D000060160910701821710F088E0ECCF869F1C
:1023E000C001112433E0880F991F3A95E1F7622F5D
:1023F00070E00E949623D2CF68E070E0D5CF8FE7DF
:10240000089581E0089580915F0280FF0CC0609183
:10241000030170E075956795759567956115710570
:1024200049F1862F089581FF06C06091030170E095
:1024300075956795F3CF6091030182FD0BC0909174
:102440005D029923A1F0609102018091030196172A
:1024500038F0682F70E06038710500F38FE7089559
:10246000899FC001112470E00E949623F4CF61E09F
:1024700070E0D7CF81E008958D3C31F40E94C51102
:1024800081958093630208958E3C19F40E94C511D2
:10249000F8CF8F3C31F40E94C51181958093620280
:1024A0000895803D19F40E94C511F8CF893D29F4A3
:1024B0000E9403128093640208958A3D21F40E94D1
:1024C00003128195F7CF8B3D31F40E940312819561
:1024D0008093650208958C3D19F40E940312F8CF91
:1024E0009FE2980F983070F4815D990B21E030E005
:1024F00001C0220F8A95EAF780916102822B8093B6
:10250000610208958D3D31F480915F028160809376
:102510005F0208958E3D21F480915F028260F7CFC3
:102520008F3DB9F780915F028460F1CF40916202E4
:102530008D3C59F48091630287FF0DC010926302B5
:1025400041110BC010925E0208C08E3C81F4809154
:10255000630218169CF3442381F0809164029091E9
:102560006502892B09F05AC010925D0208958F3CD4
:1025700049F447FFF0CF109262028091630281110B
:10258000ECCFE0CF803D19F41416ACF3E4CF90917A
:102590006402893D29F41916F4F610926402DBCF27
:1025A0008A3D19F497FFD7CFF8CF909165028B3D04
:1025B00029F497FFD0CF10926502CDCF8C3D19F44E
:1025C0001916CCF3C8CF9FE2980F983090F4815D34
:1025D000990B21E030E0B90102C0660F771F8A95A0
:1025E000E2F7CB018095909161028923809361028B
:1025F000B2CF8D3D31F480915F028E7F80935F0278
:10260000AACF8E3D21F480915F028D7FF7CF8F3D61
:1026100009F0A1CF80915F028B7FF0CF08950E94D7
:10262000F71B9C019091620280916302982B21F02C
:1026300030935C0220935B0290916402809165026A
:10264000982B21F030935A022093590280E692E0B1
:102650000E942D1A089586E0E0E6F2E0DF011D9267
:102660008A95E9F710925E0210925D0210925F0265
:102670000895FC01828181110EC0838181110BC0FC
:102680008481811108C091E08581811101C090E0B1
:10269000892F8170089581E0FCCFA6E0B0E0E3E5EA
:1026A000F3E10C94C62386E0E0E6F2E0DE01119649
:1026B00001900D928A95E1F71092620210926302E6
:1026C00010926402109265028B819C81892B89F0A3
:1026D00080915B0290915C020E940F1CAC01909172
:1026E0005E029923C9F1809108018417150608F448
:1026F00040C08D819E81892B91F0809159029091EB
:102700005A020E940F1CAC0190915D02992309F4BA
:1027100071C0809104018417150608F479C0BE01C8
:102720006F5F7F4F80E692E00E94471B811105C0DA
:1027300080E692E00E94391381110E940F1386E017
:10274000FE013196A0E6B2E001900D928A95E1F784
:102750002696E3E00C94E223209109018AE0289F69
:10276000900111242417350720F69F5F90935E0295
:1027700002C09F3FD1F71B81112359F00E94C51160
:102780009FEF11160CF491E0899F802D1124809306
:1027900062021C81112359F00E94C5119FEF11168E
:1027A0000CF491E0899F802D112480936302309175
:1027B0006202332309F49DCF20916302222309F49E
:1027C00098CF45EB3403C0011124992359F090931D
:1027D000620245EB240390011124332339F0309336
:1027E000630287CF81E080936202F3CF81E0809320
:1027F00063027FCF209105018AE0289F9001112478
:102800002417350708F08BCF9F5F90935D0202C0BD
:102810009F3FD1F71D81112359F00E9403129FEFB2
:1028200011160CF491E0899F802D1124809364028D
:102830001E81112359F00E9403129FEF11160CF410
:1028400091E0899F802D112480936502309164026C
:10285000332309F464CF20916502222309F45FCF6A
:1028600045EB3403C0011124992359F0909364027D
:1028700045EB240390011124332339F03093650292
:102880004ECF81E080936402F3CF81E080936502B4
:1028900046CF82E290E00E941824833289F483E2DA
:1028A00090E00E941824823159F484E290E00E9462
:1028B000182491E0803309F090E0892F8170089509
:1028C00080E0FCCFCF93C82F6FEF811163E282E2EB
:1028D00090E00E9426246FEFC11162E183E290E054
:1028E0000E9426246FEFC11160E384E290E00E9411
:1028F0002624CF910895089585E290E00E9418243F
:10290000682F70E090E080E008950895CF93C62F7F
:102910000E9485146C2F85E290E00E942624CF91BE
:10292000089580E00E94621460E070E0CB010E9494
:1029300086140E9485170E94541881E00E94621438
:1029400008950E947B140E947C140E9485140E94AA
:102950004914811102C00E949114089508959C01A8
:10296000FB018281882351F0A90157574038510556
:1029700030F4822F0E94641880E0089581E0089569
:102980002FEFFC01208308950E94C014089580E079
:102990000895B0E0A0E0EFECF4E10C94C123EC0169
:1029A000C62E0E94C714811110C0E881E150E331A6
:1029B000B8F4F0E0E859FB4D0C94AA2319828CE09E
:1029C0008A836C2DCE010E94CA1CCDB7DEB7E8E029
:1029D0000C94DD2389818230C1F028F4813061F0CC
:1029E0008FEF8883EECF833099F08430C9F71A8255
:1029F0001B821C821D82E5CF0E94031C0E94B02313
:102A00006A837B838C839D83DCCF0E947C14F6CF0A
:102A10008A81082F10E07E019EE0D92ED80E053065
:102A2000110578F6802F0E946410F7019383848348
:102A30000F5F1F4FF2E0EF0EF11CD012F0CFC1CFAD
:102A40008981823031F0853059F68A810E94AE1436
:102A5000B8CF6A817B818C819D810E94B0230E94C6
:102A60008614AFCF4B816A8189810E9447179827CE
:102A7000892798279D838C83A4CF2C813D81322781
:102A8000232732274B816A8189810E94691799CF58
:102A90000E94851796CF6C2DCE010E94C41491CF51
:102AA0000E94051889838DCF0E94071898278927CF
:102AB00098279A83898385CF6B8170E089819A8179
:102AC000AE014C5F5F4F9827892798270E940A180C
:102AD00078CF6B8170E089819A81AE014C5F5F4F46
:102AE0009827892798270E942F186BCF0E94541887
:102AF00068CF0E943517D6CF6B8170E089819A81AB
:102B0000AE014C5F5F4F9827892798270E94B11725
:102B100058CF6B8170E089819A81AE014C5F5F4F25
:102B20009827892798270E94D5174BCFCF93DF93FB
:102B3000EC01FB018281882309F4D2C09E01305749
:102B40002332310508F0B2C00E94A70C9093950281
:102B500080939402FE01E150F047E232F10520F447
:102B6000E558FB4D0C94AA238091940281608093D8
:102B7000940293C0809195028860809395028DC0E5
:102B8000809194028260F3CF809194028460EFCFB1
:102B9000809194028860EBCF809195028160EDCFA7
:102BA000809195028260E9CF809194028061DFCFAD
:102BB000809194028062DBCF809194028064D7CFB1
:102BC0000E940107809194028068D1CF8091940285
:102BD0008C60CDCF809195028360CFCF809194029D
:102BE0008E7FC5CF80919502877FC7CF8091940259
:102BF0008D7FBDCF809194028B7FB9CF809194025D
:102C0000877FB5CF809195028E7FB7CF8091950257
:102C10008D7FB3CF809194028F7EA9CF8091940253
:102C20008F7DA5CF809194028F7BA1CF0E94010759
:102C3000809194028F779BCF80919402837F97CF6E
:102C4000809195028C7F99CF8091940282FB992785
:102C500090F921E0922790FB82F990FB83F987CFCE
:102C600080919502982F909591708E7F892B90FB83
:102C700081F983CF90919402892F8F7B96FF806496
:102C800076CF0E94010790919402892F97FB87F9D4
:102C900080586DCF81E00E94270D80919402909121
:102CA00095020E94AC0C0E94010780E0DF91CF9159
:102CB000089580E0F0CF90919402892F8F7E94FF49
:102CC000806155CF90919402892F8E7F90FF816013
:102CD0004ECF90919502892F877F93FF88604DCFCB
:102CE00081E0E4CFB0E0A0E0E8E7F6E10C94C22395
:102CF000E82FF0E0E45CFD4FD490282F2695269530
:102D0000269530E0F901E452FD4F0491877010E000
:102D1000082E02C0159507950A94E2F70170112755
:102D2000F901E453FD4FE490F12C082E02C0F59414
:102D3000E7940A94E2F791E0E922FF24F901E454D0
:102D4000FD4FC491D0E002C0D595C7958A95E2F7B2
:102D5000C170DD270115110519F081EE0E940004F4
:102D6000E114F10419F086EE0E9400048D2D0E94FA
:102D70009804E114F10419F086EE0E944D04011547
:102D8000110519F081EE0E944D04CD2B19F08CE253
:102D90000E949804CDB7DEB7E7E00C94DE23EF92F3
:102DA000FF920F931F93CF93DF93EC01162F0AE04E
:102DB0008881882309F454C0813009F04EC089818C
:102DC000813099F47E0122E0E20EF11C8A810E949A
:102DD0009804E7012196812F815050F3EFE9FFE03D
:102DE0003197F1F700C00000F7CF823041F47E0147
:102DF00082E0E80EF11C8A810E940004EACF833051
:102E000041F47E01E2E0EE0EF11C8A810E944D0445
:102E1000E0CF843011F02196DDCF2A81229690E018
:102E200080E0AE014F5F5F4F2053330B2A303105F6
:102E300048F0019778F2EFE9FFE03197F1F700C031
:102E40000000F7CF089FB001099F700D1124C90140
:102E5000860F971F2981EA01E4CF0E947216BACF2C
:102E6000CDB7DEB7E6E00C94DF2384E0089550E0B0
:102E7000440F551F94E1699F400D511D112494E6A4
:102E8000899F400D511D1124CA01869608950F9304
:102E90001F93CF93DF938430C8F46530B8F44A3081
:102EA000A8F40E9437178C010E941824C82FD0E084
:102EB000DC2FCC27C80101960E9418249E01282BE4
:102EC000C901DF91CF911F910F91089590E080E0AB
:102ED000F8CF0F931F93CF93DF93122F032F8430DC
:102EE00078F4653068F44A3058F40E943717EC01E2
:102EF000602F0E942624612FCE0101960E94262475
:102F0000DF91CF911F910F9108950F931F93CF934E
:102F1000DF93D0E0C0E010E019C00E948A0221E0F7
:102F200030E08C171D0639F034F0402F612F8C2FC4
:102F30000E948C029C01402F612F8C2F0E946917E8
:102F40000F5F0A3051F71F5F153011F000E0E5CF39
:102F50002196C430D105F9F6DF91CF911F910F91E1
:102F60000895EF92FF920F931F93CF93DF93EC019D
:102F70008A017C01E60EF71ECE018696CE15DF058E
:102F800029F4CDB7DEB7E6E00C94DF23C03921E0A9
:102F9000D20740F40E941824F80180830F5F1F4F6E
:102FA0002196EACFF8011082F9CFB0E0A0E0EBED76
:102FB000F7E10C94C1237C016A018C01060F171FF5
:102FC000EC01CE018696C017D10729F4CDB7DEB744
:102FD000E8E00C94DD23C03921E0D20740F4FE0183
:102FE000EE19FF09EC0DFD1D60810E94262421963B
:102FF000E8CF843038F4653028F44A3018F40E9461
:103000004717089590E080E0089580E108958AE4EC
:1030100092E00895EF92FF920F931F93CF93DF9367
:10302000EC018A017C01E60EF71ECE018A549E4F08
:10303000CE15DF0529F4CDB7DEB7E6E00C94DF232B
:10304000CA3422E0D20740F40E941824F801808399
:103050000F5F1F4F2196E9CFF8011082F9CFB0E042
:10306000A0E0E5E3F8E10C94C1237C016A018C0146
:10307000060F171FEC01CE018A549E4FC017D107CF
:1030800029F4CDB7DEB7E8E00C94DD23CA3422E0A2
:10309000D20740F4FE01EE19FF09EC0DFD1D608121
:1030A0000E9426242196E7CFCF93DF93C6EBD1E091
:1030B00060E0CE010E9426242196C11584E0D80745
:1030C000B9F7DF91CF910895A8E0B0E0EAE6F8E122
:1030D0000C94BF23F82E8FE08F1508F46EC08FEF8D
:1030E00093E00E941824811168C006EB11E0F110F2
:1030F00035C0FE0131966F0188E011928A95E9F79B
:103100007801FFEFEF1AFF0AC8010E941824898393
:103110001A82882309F451C08130D1F4580182E029
:10312000A80EB11CC7010E9418248A83882309F4C1
:1031300044C09FEF980F9330F0F4780193E0E90ECC
:10314000F11CC5010E9418248B838823B1F11C82D5
:1031500060E0C6010E94CF168701D2CF011594E02E
:10316000190759F1C8010E941824811101C0FA946D
:103170000F5F1F4FBCCF7501843051F702E010E0A4
:103180007501EFEFEE1AFE0AC5010E941824F60140
:10319000E00FF11F8083882381F08C3741F4E2E057
:1031A000F0E0EC0FFD1FE00FF11F1082D1CF0F5F99
:1031B0001F4F57010730110519F72896EAE00C94C4
:1031C000DB23CF93DF93EB0186319C4711F50E94FF
:1031D000A30B9A81992399F08A7A91E009F490E0FF
:1031E00090936602811109C089E20E947B0B0E94C4
:1031F000E40B80E0DF91CF91089585E3F6CF8091D5
:103200006602811104C089E20E94830BF0CF85E33E
:10321000FBCF81E0EFCF0F931F93CF93DF93C42FAA
:10322000D22FFC0182818823C9F0409369020E9459
:10323000F71B909368028093670280E28C0F8830BE
:1032400040F4C77081E001C0880FCA95EAF70E9478
:10325000A104DF91CF911F910F9108951091690200
:10326000141332C080916702909168020E940F1C73
:10327000883C910548F5C0E2CD0F1D17B9F080E2FA
:10328000810F883040F4177081E001C0880F1A95D3
:10329000EAF70E94A804C83048F481E09D2F977097
:1032A00001C0880F9A95EAF70E94A104802F0E941E
:1032B0009804C83070F6D77081E001C0880FDA95A5
:1032C000EAF70E94A804C5CF80E28C0F883008F688
:1032D000C77081E001C0880FCA95EAF7F2CF0F935B
:1032E000DB0188519C4787309105A0F5FC01E3562E
:1032F000FB4D0C94AA2306E221EE41EE6AE17CE745
:10330000CD010E940B1980E00F91089507E225EE90
:1033100045EE6BE17CE7F4CF06E221EE40EE68E19A
:103320007CE7EECF07E225EE44EE69E17CE7E8CFEB
:1033300006E221EE42EE6CE17CE7E2CF07E225EE09
:1033400046EE6DE17CE7DCCF08E221E045EE6EE180
:103350007CE7D6CF12968C91882319F010926902DF
:10336000D3CF81E0D1CF1F93CF93DF9387372CE763
:10337000920759F0C1E088379C47E1F4FB01C28114
:10338000CC2371F10E94F61906C0FB01C281CC2347
:10339000B1F00E94F3190E947F070E94F919D82FFB
:1033A0000E94F619C82F0E94F3194D2F6C2F0E940E
:1033B000A708C0E08C2FDF91CF911F9108950E9444
:1033C000F3190E948B070E94F919182F0E94F61911
:1033D000D82F0E94F319412F6D2F0E94A708EACF22
:1033E0000E94F619EECF80910C01089580910B0197
:1033F000089580910A0108959093A7018093A601F2
:10340000089590936F0280936E020895E0916E028A
:10341000F0916F02309729F00190F081E02D09952D
:10342000089580E00895E0916E02F0916F02309768
:1034300099F020911501222359F02091940227FF41
:1034400007C0DC012C9111962C93119726E02C9348
:103450000280F381E02D09950895E0916E02F091CC
:103460006F02309739F022E0DC012C930480F58163
:10347000E02D09950895A3E0B0E0E1E4FAE10C94B1
:10348000C72320916C0230916D0228173907A1F0F3
:1034900090936D0280936C02E0916E02F0916F0246
:1034A000309751F023E029839B838A830680F7813C
:1034B000E02DCE01019609952396E2E00C94E323DA
:1034C000A3E0B0E0E6E6FAE10C94C72320916A029B
:1034D00030916B0228173907A1F090936B0280930B
:1034E0006A02E0916E02F0916F02309751F024E091
:1034F00029839B838A830680F781E02DCE01019684
:1035000009952396E2E00C94E323FC013296809126
:103510001501882321F0809194029EE187FF96E0B7
:1035200080E0915008F4089521912223D1F38F5F18
:10353000F8CF662301F1209115012223F1F02091AB
:10354000940227FF1AC0462F4695469546954E3160
:1035500090F4677021E030E002C0220F331F6A95BB
:10356000E2F7840F911DFC01828190E0282339232A
:1035700081E0232B69F480E00895FC0132960896DF
:103580002191261721F0E817F907D1F7F4CF81E050
:1035900008959C01FC0132969FEF80E0419146170F
:1035A00051F09F3F19F4411101C0982F8F5F863071
:1035B000A9F79F3F09F40895290F311D97FD3A950A
:1035C000F90162830895FC01329608962191261331
:1035D00003C0DF0111971C92E817F907B9F70895A6
:1035E000E62FE695E695E695EE3168F4E80FF92FBB
:1035F000F11D677021E030E001C0220F6A95EAF703
:103600008281822B82830895E62FE695E695E695E2
:10361000EE3170F4E80FF92FF11D677021E030E012
:1036200001C0220F6A95EAF7209582812823228320
:10363000089520911501222339F02091940227FF4B
:1036400003C00E94F01A08950E94C91A089520919B
:103650001501222339F02091940227FF03C00E9414
:10366000041B08950E94E31A0895FC01329680918C
:103670001501882351F08091940287FF06C08EE1E6
:10368000DF011D928A95E9F7089586E0F9CF46E0BB
:1036900050E00E94022421E0892B09F420E0822FCF
:1036A000089508950E94511B0895811106C081E07C
:1036B000809370020E94521B089582E0F9CF83E04C
:1036C000809370020E94521B08950E94551B08951A
:1036D00081E0809370020E94521B08950E94681B33
:1036E0000895089508950E94721B089508950895FD
:1036F0000E94711B0895CF930E94761B0E942F1188
:103700000E94771BC0E08C2F0E946410892B31F43B
:10371000CF5FC530C1F780E0CF91089581E0FCCF45
:1037200085B7806885BF85B7806885BF08951F927B
:103730001FB61F9211248F939F93AF93BF938091D5
:103740007102811113C08091AA029091AB02A091E5
:10375000AC02B091AD024196A11DB11D8093AA02A9
:103760009093AB02A093AC02B093AD02BF91AF9126
:103770009F918F911F901FBE1F9018958091B2024C
:10378000843031F10E9472031092710288E190E05E
:1037900020E40FB6F894A895809360000FBE2093A4
:1037A000600083B7817F846083BF83B7816083BFFC
:1037B0007894889583B78E7F83BF0FB6F894A895C9
:1037C00080916000886180936000109260000FBE5D
:1037D00008950E9401070E947703089582E084BD46
:1037E00093E095BD9AEF97BD80936E0008952FB733
:1037F000F8948091AA029091AB02A091AC02B09192
:10380000AD022FBF08952FB7F8946091AA0270916E
:10381000AB028091AC029091AD022FBF08959C0144
:103820004FB7F8948091AA029091AB02A091AC029C
:10383000B091AD024FBF821B930B089578941F92F5
:103840001FB61F9211248F939F93AF93BF938091C4
:10385000AA029091AB02A091AC02B091AD02019688
:10386000A11DB11D8093AA029093AB02A093AC025C
:10387000B093AD02BF91AF919F918F911F901FBEEA
:103880001F90189581E08093E00080E28093D8003B
:103890001092C9008FE19EE40197F1F700C000008B
:1038A00087E090EBDC018093BB029093BC02A09375
:1038B000BD02B093BE0288E19CE00FB6F894A895D3
:1038C000809360000FBE90936000FFCF88E19CE082
:1038D0000FB6F894A895809360000FBE9093600097
:1038E000FFCF8091920208959B01BA019091B2029C
:1038F0009430E9F48F708093E9009FEF8091E800A5
:10390000915085FD06C085ED8A95F1F70000911173
:10391000F5CF8091E80085FF0AC050E040E0C90182
:103920000E94C01E8091E8008E778093E800089581
:1039300043E050E0BC0184E00E94741C089546E01E
:1039400050E0BC0184E00E94741C0895CF93DF9383
:10395000EC0180911501811111C048E050E0BE01D9
:1039600081E00E94741C80E2FE01A2E7B2E00190B7
:103970000D928A95E1F7DF91CF910895809194029D
:1039800087FF05C040E284E050E0BE01EACF48E096
:1039900081E0FACF603231F440E250E0BC0182E0D5
:1039A0000E94741C08958091B102811109C00E9487
:1039B0009F200E94FC208091E20084608093E200BE
:1039C00008951092B10208950E94681B08956091B5
:1039D000AE0281E0611101C080E00E945F1B08958A
:1039E0009091B20281E0943009F080E06091AE02E3
:1039F0000E94651B089542E061EC81E00E941B205B
:103A000042E261EC84E00E941B2042E261EC82E031
:103A10000E941B2042E260EC83E00E941B209091F8
:103A2000B20281E0943009F080E06091AE020E9421
:103A3000551B08958091B402833009F463C030F4BB
:103A40008130E1F1823009F4A0C008958A3009F490
:103A50008CC08B3009F471C0893009F052C080915C
:103A6000B302813209F04DC08091B7029091B80243
:103A7000009719F0029709F044C08091E800877F11
:103A80008093E8008091E80082FF37C09091F300B6
:103A90008091F200029731F48091F100813011F0B1
:103AA000863021F48091F100809392028091E800A9
:103AB0008B778093E8000E944F2023C08091B3024F
:103AC000813AF9F48091E800877F8093E800809143
:103AD000B7029091B802892B61F460E282E792E02C
:103AE00070E00E945E1F8091E8008B778093E80071
:103AF000089560E090E080E0F3CF8091B202811100
:103B0000C1CF08958091B302813AD9F78091B7026D
:103B10009091B802892BA9F78091E800877F809364
:103B2000E8008091E80080FFFCCF80911501809330
:103B3000F1008091E8008E77BCCF8091B302813292
:103B400001F78091B7029091B802892BD1F680914C
:103B5000E800877F8093E8000E944F208091B502A3
:103B6000809315010E94010708958091B30281326C
:103B700041F68091E800877F8093E8000E944F2003
:103B80008091B6028093930208958091B302813AA6
:103B900009F0B7CF8091E800877F8093E80080919B
:103BA000E80080FFFCCF80919302C1CF84B7877F6C
:103BB00084BF0FB6F894A8958091600088618093C7
:103BC0006000109260000FBE80E890E00FB6F8949D
:103BD00080936100909361000FBE0E946E1B089558
:103BE0000E949F200E94FC20E2EEF0E08081846031
:103BF000808378940E947B2308958DE091E00E9459
:103C0000011A08958091B202853031F48091B20298
:103C1000853019F00E94E91B08950E94BE1B809117
:103C2000B002882399F30E947B1B882379F30E94BA
:103C3000AA1E0E940107EACFA0E2B0E0E2E2FEE1A4
:103C40000C94C7238091B202843009F583E08093FD
:103C5000E9008091E80082FF1AC08091E80090E0BE
:103C600085FF09C050E040E060E270E0CE010196BF
:103C70000E940F1F91E08091E8008B778093E8000D
:103C8000992329F060E2CE0101960E94C914A09602
:103C9000E2E00C94E3239A014091B9025091BA02F8
:103CA0000E94531E0895492F55274330510521F195
:103CB00068F44130510509F443C04230510509F41C
:103CC00044C090E080E050E040E026C04132510521
:103CD00051F142325105A9F76330710590F7FB01AC
:103CE000EE0FFF1FE656FE4F4081518169567E4F11
:103CF000FB01808190E010C099278130910581F00F
:103D0000009729F00297E9F6ECEEF2E002C0E6E156
:103D1000F3E0849190E0AF01F9015183408308956D
:103D2000E2E0F3E0F6CF6330710558F6660F771FD7
:103D3000FB01E056FE4F4081518189E090E0ECCFDD
:103D400082E190E045E753E0E7CF8BE590E04AE180
:103D500053E0E2CF80E189BD82E189BD09B400FE74
:103D6000FDCF8091D8008F7D8093D8008091E000B6
:103D700082608093E0008091E00081FDFCCF089597
:103D8000AF92BF92CF92DF92FF920F931F93CF9388
:103D9000DF936C01EB018A010E946E20F82E8111E5
:103DA00023C00115110539F0F80180819181C81BEC
:103DB000D90BC80ED91EB12CA12C2097A9F0809147
:103DC000E80085FD22C08091E8008E778093E800AE
:103DD00001151105A1F0F80180819181A80EB91E8D
:103DE000B182A08285E0F82E8F2DDF91CF911F91B7
:103DF0000F91FF90DF90CF90BF90AF9008950E94F9
:103E00006E208823D1F2F82EEFCFF60181916F0159
:103E10008093F1002197FFEFAF1ABF0ACECFAF9288
:103E2000BF92CF92DF92FF920F931F93CF93DF93B6
:103E30006C01EB018A010E946E20F82E811123C0D3
:103E40000115110539F0F80180819181C81BD90B4A
:103E5000C80ED91EB12CA12C2097A9F08091E800A2
:103E600085FD22C08091E8008B778093E8000115E2
:103E70001105A1F0F80180819181A80EB91EB182CF
:103E8000A08285E0F82E8F2DDF91CF911F910F91A9
:103E9000FF90DF90CF90BF90AF9008950E946E206A
:103EA0008823D1F2F82EEFCF8091F100F6018193B3
:103EB0006F012197FFEFAF1ABF0ACECFFC018091AF
:103EC000B9029091BA0286179707A0F061157105A3
:103ED00029F49091E8009E779093E80090E06115B6
:103EE000710551F4911108C08091E80082FF34C03F
:103EF00080E00895BC01F2CF8091B2028823C1F125
:103F00008530C1F18091E80083FD30C08091E800E8
:103F100082FDEACF8091E80080FFE1CF8091F3003D
:103F20002091F200382F6115710519F02830310504
:103F300058F091E02830310509F090E02091E80038
:103F40002E772093E800CBCF81918093F1006150D0
:103F500071092F5F3F4FE7CF8091B202882341F074
:103F6000853041F08091E80083FFBECF81E0089565
:103F700082E0089583E00895FC018091B902909158
:103F8000BA0286179707A0F06115710529F4809190
:103F9000E8008E778093E80090E06115710551F498
:103FA000911108C08091E80082FF35C080E008953B
:103FB000BC01F2CF8091B2028823C9F18530C9F1EA
:103FC0008091E80083FD31C08091E80082FDEACF56
:103FD0008091E80080FFE1CF8091F3002091F20012
:103FE000382F6115710519F02830310558F091E02E
:103FF0002830310509F090E08091E8008E778093B9
:10400000E800CBCF84918093F10031966150710923
:104010002F5F3F4FE6CF8091B202882341F0853079
:1040200041F08091E80083FFBDCF81E0089582E0F8
:10403000089583E00895982F973028F08F7080932B
:10404000E90081E008959093E900242F762F50E055
:10405000981731F07091EC002091ED005091F00034
:1040600021FD02C09F5FE8CF3091EB003E7F30938F
:10407000EB003091ED003D7F3093ED003091EB008F
:1040800031603093EB007093EC002093ED0050937F
:10409000F0002091EE0027FDE5CF80E008958091AB
:1040A000B30287FF13C08091E80082FF06C08091B1
:1040B000E8008B778093E80004C08091B202811100
:1040C000F2CF08958091B2028823D9F38091E8005D
:1040D00080FFF8CF8091E8008E77ECCF2091E4004C
:1040E0003091E50095E6A9012091EC00822F8170C6
:1040F00020FF06C08091E80080FF06C080E00895A0
:104100002091E80022FD1AC08091B202882389F034
:10411000853089F08091EB0085FD0FC02091E4008F
:104120003091E50042175307F9F29150E1F684E02F
:10413000089582E0089583E0089581E008950E9443
:104140000E210E941621E0EEF0E0808181608083E4
:10415000E8EDF0E080818F77808319BCA7EDB0E0B7
:104160008C918E7F8C9380818F7E80831092B102A0
:1041700008950F931F93CF93DF930E940E210E9407
:104180001621C8EDD0E088818F7788838881806888
:10419000888388818F7D888319BC1092B202109227
:1041A000AE021092B0021092AF0200EE10E0F801E1
:1041B00080818B7F808388818160888342E060E09A
:1041C00080E00E941B20E1EEF0E080818E7F808302
:1041D000E2EEF0E08081816080838081886080836E
:1041E000F80180818E7F8083888180618883DF9160
:1041F000CF911F910F910895E8EDF0E080818F7EBF
:104200008083E7EDF0E080818160808384E082BF7D
:1042100081E08093B1020E94B9200895E8EDF0E0BA
:1042200080818E7F80831092E20008951092DA00E0
:104230001092E10008951F920F920FB60F92112471
:104240002F933F934F935F936F937F938F939F939E
:10425000AF93BF93EF93FF938091E10082FF0BC078
:104260008091E20082FF07C08091E1008B7F809304
:10427000E1000E947A238091DA0080FF19C08091CA
:10428000D80080FF15C08091DA008E7F8093DA001D
:104290008091D90080FF96C080E189BD82E189BD0F
:1042A00009B400FEFDCF81E08093B2020E94D31CCE
:1042B0008091E10080FF19C08091E20080FF15C06D
:1042C0008091E2008E7F8093E2008091E200806125
:1042D0008093E2008091D80080628093D80019BC5E
:1042E00085E08093B2020E94E71C8091E10084FF88
:1042F0002BC08091E20084FF27C080E189BD82E16C
:1043000089BD89B5982F917080FFFBCF8091D8002F
:104310008F7D8093D8008091E1008F7E8093E100B3
:104320008091E2008F7E8093E2008091E2008160C4
:104330008093E2008091AE02882309F449C084E0B2
:104340008093B2020E94F01C8091E10083FF29C09B
:104350008091E20083FF25C08091E100877F8093F8
:10436000E10082E08093B2021092AE028091E100FF
:104370008E7F8093E1008091E2008E7F8093E20047
:104380008091E20080618093E20042E060E080E0A2
:104390000E941B208091F00088608093F0000E94B2
:1043A000E41CFF91EF91BF91AF919F918F917F910D
:1043B0006F915F914F913F912F910F900FBE0F9092
:1043C0001F90189519BC1092B2020E94E11C70CF88
:1043D0008091E30087FD93E09093B202B3CF1F92E8
:1043E0000F920FB60F9211242F933F934F935F9329
:1043F0006F937F938F939F93AF93BF93CF93DF93ED
:10440000EF93FF93D091E900DF708091EC00C82F0B
:10441000C17080FDC0E81092E9008091F000877FB4
:104420008093F00078940E9433221092E9008091EA
:10443000F00088608093F000CD2BCF70C093E9002E
:10444000FF91EF91DF91CF91BF91AF919F918F91AC
:104450007F916F915F914F913F912F910F900FBE80
:104460000F901F901895AAE2B0E0E9E3F2E20C94F5
:10447000C62383EB92E02091F100FC012193CF0150
:10448000F2E08B3B9F07B9F70E941A1D8091E8006C
:1044900083FF1EC18091B3029091B4029A3008F05C
:1044A00017C1E92FF0E0EC55FB4D0C94AA2380389E
:1044B00099F0823809F00CC18091B7028F70873073
:1044C00008F006C18093E9008091EB0085FB882706
:1044D00080F91092E90006C08091AF029091B0027D
:1044E000911182609091E800977F9093E80080930B
:1044F000F1001092F1008091E8008E77E5C08823EA
:1045000009F4D3C0823009F0E3C08091B502811173
:10451000D6C08091B7028F702FEF280F263008F099
:10452000D7C08093E9002091EB0020FFC8C09330F2
:1045300031F48091EB0080628093EB00C0C09091D9
:10454000EB0090619093EB0021E030E001C0220F7E
:104550008A95EAF72093EA001092EA008091EB0036
:104560008860EACF8111B4C01091B5021F778091A5
:10457000E3008078812B8093E3008091E800877FBF
:104580008093E8000E944F208091E80080FFFCCFDC
:104590008091E30080688093E30082E0111183E062
:1045A0008093B20295C08058823008F091C080910B
:1045B000B5029091B6028C3D23E09207A1F583E00D
:1045C0008A838AE289834FB7F894DE01139620E04C
:1045D0003EE051E2E32FF0E050935700E49120FFDA
:1045E00003C0E295EF703F5FEF708E2F90E0EA30EE
:1045F000C0F0C7968D939D932F5F243159F74FBF1D
:104600008091E800877F8093E8006AE270E0CE0145
:1046100001960E945E1F8091E8008B778093E800EE
:1046200057C0C096E7CF6091B7027091B802AE0153
:104630004F5F5F4F0E944B1EBC01892B09F448C09D
:104640009091E800977F9093E80089819A810E9479
:10465000BC1FE1CF8038E1F58091E800877F80932F
:10466000E8008091AE028093F10045CF811130C007
:104670009091B502923060F58091E800877F809339
:10468000E8009093AE020E944F208091AE028823F2
:1046900011F084E005C08091E30087FDFACF81E04E
:1046A0008093B2020E94FB1C13C08091B50281303E
:1046B00079F481E0933009F080E08093B0021092A9
:1046C000E9008091E800877F8093E8000E944F20F6
:1046D0008091E80083FF0AC08091E800877F809383
:1046E000E8008091EB0080628093EB00AA96E3E003
:1046F0000C94E2230895CF938091B2028823A1F015
:10470000C091E900CF709091EC00892F817090FDED
:1047100080E8C82B1092E9008091E80083FD0E9498
:104720003322CF70C093E900CF91089597FB072EF5
:1047300016F4009407D077FD09D00E94EE2307FC01
:1047400005D03EF4909581959F4F089570956195A1
:104750007F4F0895EE0FFF1F0590F491E02D09940F
:1047600069279627692778278727782708952F9222
:104770003F924F925F926F927F928F929F92AF92F1
:10478000BF92CF92DF92EF92FF920F931F93CF933E
:10479000DF93CDB7DEB7CA1BDB0B0FB6F894DEBFD5
:1047A0000FBECDBF09942A88398848885F846E84FB
:1047B0007D848C849B84AA84B984C884DF80EE8045
:1047C000FD800C811B81AA81B981CE0FD11D0FB64E
:1047D000F894DEBF0FBECDBFED010895AA1BBB1B31
:1047E00051E107C0AA1FBB1FA617B70710F0A61BF1
:1047F000B70B881F991F5A95A9F780959095BC0112
:10480000CD010895FB01DC0104C08D910190801958
:1048100021F441505040C8F7881B990B0895FB01C3
:10482000DC0102C001900D9241505040D8F708952C
:10483000F999FECF92BD81BDF89A992780B5089568
:10484000A8E1B0E042E050E00C944C24262FF99906
:10485000FECF92BD81BDF89A019700B4021639F0DF
:104860001FBA20BD0FB6F894FA9AF99A0FBE0895B0
:104870000396272F0E9427240E942624252F0E947A
:104880002724242F0C9427240196272F0E942724C5
:104890000C942624DC01CB01FC01F999FECF06C063
:1048A000F2BDE1BDF89A319600B40D9241505040EE
:1048B000B8F70895F894FFCFEE04EE043F053F05E6
:1048C000B205CE051D051D05D3053A064906490664
:1048D000DE14EA14201532153D1548154B154B15FD
:1048E0004B15F014F014501554155C156915761518
:1048F00079157C158915EE156216F615C015C415C7
:10490000FA15C815FE150A16D4155B16D8150E161D
:10491000DC1512163A16E01516164116E6151C1689
:104920002416CC150216D0150616EA1520163016D8
:104930004A165916BA15F21569168C1992197B196F
:10494000861998199E19A41957227F2268237F225D
:0C4950006823B222D32268232A233623D6
:10495C001F02280850011E0A1401030201711CA633
:10496C001C9F1C981C01E200E900EA00B500B6008F
:10497C00B700CD008301CC008A0192019401210281
:10498C00230224022502260227022A02B300B400C5
:10499C006F0070009F01CB019F02A002818283E215
:1049AC0000E900EA00B500B600B700CD008301CCE9
:1049BC00008A01920194012102230224022502267D
:1049CC000227022A02B300B4006F0070009F01CBD3
:1049DC00019F02A002818283F4F5F6F7313332365F
:1049EC00343591909466974022B65F048703A903EF
:0649FC002C0345036503D6
:00000001FF
