:100000000C94C4010C94FC010C94FC010C94FC01B4
:100010000C94FC010C94FC010C94FC010C94FC016C
:100020000C94FC010C94FC010C9470200C94442161
:100030000C94EC1A0C94FC010C94FC010C94FC0143
:100040000C94FC010C94FC010C94FC010C94FC013C
:100050000C94FC010C94731B0C94FC010C94FC019B
:100060000C94FC010C94FC010C94FC010C94FC011C
:100070000C94FC010C94FC010C94FC010C94FC010C
:100080000C94FC010C94FC010C94FC010C94FC01FC
:100090000C94FC010C94FC010C94FC010C94FC01EC
:1000A0000C94FC010C94FC010C94FC0129001E0032
:1000B0001F0020002A002B0004000500280000007B
:1000C0001D0000002C000000215229001E001F000E
:1000D00020002A002B0004000500280000001D005D
:1000E00000002C000000215229001E001F002000EB
:1000F0002A002B0004000500280000001D0000005D
:100100002C000000215229001E001F0020002A00A0
:100110002B0004000500280000001D0000002C003A
:100120000000215200000000000000002A2B2800DF
:100130000000000000000000000000000000002996
:10014000000000002C1E3420212224342627252ED6
:10015000362D3738271E1F2021222324252633330E
:10016000362E37381F0405060708090A0B0C0D0E3A
:100170000F101112131415161718191A1B1C1D2F06
:100180003130232D350405060708090A0B0C0D0E26
:100190000F101112131415161718191A1B1C1D2FE6
:1001A0003130354C0000000000000000000000006D
:1001B000000000000000000000000000000000003F
:1001C00000000000000000007E0F00D4FFFFFFC70A
:1001D00000000078140363006F006D00700065007C
:1001E00069007400310032000000120373006100E6
:1001F0006D003100640061007200650000000403BE
:10020000090409025B00030100A0FA0904000001CF
:1002100003010100092111010001224000070581AD
:100220000308000109040100020300000009211174
:1002300001000122220007058203200001070503B7
:10024000032000010904020001030000000921113C
:1002500001000122B60007058403200001120100FD
:100260000200000008313A0300000101020001060B
:1002700060FF0961A1010962150026FF0095207544
:100280000881020963150026FF0095207508910278
:10029000C005010902A10185020901A10005091992
:1002A000012908150025019508750181020501093C
:1002B0003009311581257F950275088106093815A9
:1002C00081257F950175088106050C0A3802158184
:1002D000257F950175088106C0C005010980A1012F
:1002E000850319012AB700150126B700950175107D
:1002F0008100C0050C0901A101850419012AA00291
:10030000150126A002950175108100C0050109069E
:10031000A1018506050719E029E7150025019508C3
:10032000750181020507190029EF1500250195F0D7
:1003300075018102050819012905950575019102CC
:10034000950175039101C005010906A10105071971
:10035000E029E715002501950875018102950175D1
:100360000881010507190029FF150026FF009506E1
:100370007508810005081901290595057501910287
:10038000950175039101C00011241FBECFEFDAE083
:10039000DEBFCDBF04B603FE18C0809191029091DC
:1003A0009202A0919302B09194028730904BA740A3
:1003B000B04B59F410929102109292021092930253
:1003C00010929402E0E0F8E3099511E0A0E0B1E0BA
:1003D000E6E0F8E402C005900D92A03AB107D9F723
:1003E00022E0A0EAB1E001C01D92A139B207E1F715
:1003F0000E9410110C94AF230C94000084E0089527
:100400008430B8F46330A8F4453098F450E095E0B7
:10041000699F400D511D1124FA019FE0899FE00D55
:10042000F11D1124EE0FFF1FE455FF4F85919491AC
:10043000089581E090E0089581E0089581E00895B5
:100440000E941E02089508950E9423020895A5E0C7
:10045000B0E0EDE2F2E00C941B2349835A83309123
:10046000A70189819A81311119C0662399F022234D
:1004700089F00E94A307182F682F89819A810E9412
:100480007F0769817A81812F0E94980E2596E3E08B
:100490000C9437230E949107182FF3CF0E94A307D3
:1004A00069817A81F1CFFC01262F408151816281DF
:1004B000738184810E942702089581E00895CF937B
:1004C000DF93EC0160E00E945302BE010E9424020F
:1004D000DF91CF91089508950E9475060E946B02E6
:1004E0002FEF84E39CE0215080409040E1F700C072
:1004F000000008950E946C020E94971B08950E94BC
:100500006C020E94BB1B08950F931F93CF93DF9340
:100510008C0161E00E945302EC01B8010E940714B3
:10052000811106C080E0DF91CF911F910F91089556
:10053000B801CE010E9420028823A1F3B801CE01A8
:100540000E94C518882371F3B801CE010E94EE14F1
:10055000882341F3B801CE010E943718882311F394
:10056000B801CE010E9409198823E1F2F8018281C5
:10057000882361F0C330FCE7DF07E9F058F4C115C8
:10058000ECE7DE07A9F0C130DC47B9F0C8010E94F2
:100590001C02C9CFCB358CE7D807A9F0CC35ECE7E6
:1005A000DE0771F0CA35DC4789F70E94F60BEECF03
:1005B0000E947A02B7CF0E94FE0B0E947F02B2CF48
:1005C0000E94EC0BE3CF0E94FA0BE0CF0E94C91A05
:1005D0000E940D0308950E9411030E94CE1A0895EF
:1005E000089581E008950895CF93DF93D82F0E9456
:1005F000F102C82F882319F08D2F0E94F3028C2F4F
:10060000DF91CF9108950895CF93C82F0E94F002F3
:100610008C2F0E94F402CF91089580E00E94040381
:1006200008950E945C190E9404030895CF930E94CC
:100630005C19C82F8091A2018C1779F0C093A20198
:100640000E94581B6093A3017093A4018093A5019D
:100650009093A6018C2F0E940403CF910895ABE0E4
:10066000B0E0E5E3F3E00C941C234F8358876987DF
:100670007A878B8761110E94370B1E821D8285E06D
:10068000FE013796DE01119601900D928A95E1F7F1
:100690008C819D81892B61F449815A816B817C8198
:1006A0008D819E810E945F0A2B96E2E00C94382394
:1006B00089819A8189238F3F79F3CE0101960E9427
:1006C0005D028111E9CFF0CFFC01808191810E9410
:1006D000D0070895662329F00E9494110E946712A2
:1006E00008950E94EE11FACFCF93C82F8823B9F056
:1006F0008CEF8C0F813AA8F46C2F809100019091BF
:1007000001010E94EF19882329F08C2F0E94F70A1B
:100710000E94580B8C2F0E94EF0A0E94580BCF9119
:10072000089580E28C0F883048F4C77081E001C0E2
:10073000880FCA95EAF70E941A0BEFCFEBE5EC0F92
:10074000E33040F4F0E0E45BFE4F808190E00E94F3
:100750009119E5CFE8E5EC0FEB3150F4F0E0EE0F46
:10076000FF1FEA5EFE4F808191810E94B619D7CFAC
:1007700083E38C0F833198F661E08C2F0E946A032B
:10078000CECF882381F19CEF980F913A28F40E94F4
:10079000F70A0E94580B089590E2980F983050F491
:1007A000877091E001C0990F8A95EAF7892F0E941E
:1007B000200BEFCF9BE5980F933028F490E080E07A
:1007C0000E949119089598E5980F9B3128F490E0C4
:1007D00080E00E94B619089593E3980F933118F4BE
:1007E00060E00E946A0308951F93CF93DF93182F50
:1007F000EB010E947403209739F4812F0E94C103FA
:10080000DF91CF911F9108958FE99FE00197F1F754
:1008100000C000002197EFCF70E060E0893311F451
:1008200060E570E00E94F4030895882321F00E949F
:100830001A0B0E94580B0895882321F00E94200B68
:100840000E94580B0895B0E0A0E0E9E2F4E00C94B7
:1008500015236C01D62FC72FFC011281058102954B
:100860000F700E94100BE82E8823E9F0E12E11236F
:10087000D1F08C2F807F803451F080E28D0F883052
:10088000F8F0011104C08C2F807E8032C9F0809175
:10089000790282FF15C082E00E94BB0B0E94100B00
:1008A00091E0E82EE926BC2EB2949FE0B922FBE04D
:1008B000FB15B8F1EB2DF0E0EF54FC4D0C94FF224A
:1008C000E12CF1CF0C2F0F70C07F11F00295007F4B
:1008D000112399F0002359F080E28D0F883010F039
:1008E000D11107C0802F0E941A0B0E94580B8D2F28
:1008F00063C0802F0E942A0BF8CF8D2F0E94C10366
:10090000002379F080E28D0F883010F0D11104C0FF
:10091000802F0E94200B03C0802F0E94300B0E946A
:10092000580B2B2D2850330B2430310520F40E9416
:100930005C190E940403EE2089F00E940C0B80FDDC
:100940000DC0F60112820E94060B0E94F306C6013A
:100950000E9435060E94060B0E94FF06CDB7DEB747
:10096000E9E00C9431232C2F2F70F22EC07FC0327F
:1009700019F0F29480EFF822DD2381F0D13009F4F0
:1009800049C0112309F451C0002309F448C0F601FD
:10099000858180FFACCF8F70858341C080917902C3
:1009A00082FD15C0112359F0FF2029F08F2D0E94E0
:1009B0001A0B0E94580B80E00E947403B2CF80E0B3
:1009C0000E94C103FF2009F4ACCF8F2DA2CF1123C9
:1009D00081F0011106C00E943A0B8F290E94150474
:1009E000A0CF0130C1F70E943A0B8F290E94410B22
:1009F00098CF011106C00E944E0B8F2D0E941C043F
:100A000090CF013009F48DCF8F2D0E941C040E94DD
:100A10004E0B87CF112329F0063008F082CF8F2D9F
:100A2000DDCF053008F07DCFE8CF002331F3D93397
:100A300049F4FFEF27EE33E0F15020403040E1F77A
:100A400000C000008D2F0E94C1036BCF8C2F8695B4
:100A50008695837069F0813009F063CF8D2F9C2FCC
:100A60009370111102C080E090E00E94B61959CF36
:100A70008D2F9C2F9370111102C080E090E00E9496
:100A800091194FCF612F8D2F0E946A034ACF8C2F6F
:100A9000837079F5111145CF4D2F429546954770DA
:100AA000440F440F8D2F8F70042E01C0880F0A94BD
:100AB000EAF72D2F2071D4FF07C02FE030E001C0EE
:100AC000220F4A95EAF72095C695C695C370822BEA
:100AD000C23049F058F4C13019F00E94CF0621CF3E
:100AE0000E94C9061ECF0E94D5061BCF0E94C606D3
:100AF00018CF8695112311F08C2F8170882309F46B
:100B000010CF4D2F429546954770440F440F8D2FBF
:100B10008F70042E01C0880F0A94EAF72D2F2071E0
:100B2000D4FF07C02FE030E001C0220F4A95EAF75A
:100B30002095C695C695C370822BC23049F058F4F3
:100B4000C13019F00E941E07ECCE0E941807E9CEB2
:100B50000E942407E6CE0E94E106E3CECF70112367
:100B600029F08C2F0E94F3068D2F38CF8D2F0E94F5
:100B70001C048C2F0E94FF06D4CED23F41F160F4BA
:100B8000D03FB9F0D13F81F0112309F446C00111E3
:100B9000AECE8C2F8F711FC0D33F01F1D43FA1F790
:100BA0008091790282FD24C08C2F8F71112311F363
:100BB00012C0112341F0053008F0B3CE8C2F8F7195
:100BC0000E940C07AECE063008F0ABCEF7CF8C2FCC
:100BD0008F711111CFCF0E94F306A3CE112329F0FC
:100BE0008C2F8F710E94EA069CCE0E94E60699CE59
:100BF000112349F0CF718C2F0E94F30663E08C2FF4
:100C00000E949D0B8ECE81E00E94BB0B023008F447
:100C100088CE82E00E94BB0B84CE002359F0D933EA
:100C200009F010CF8FEF97EEE3E081509040E04065
:100C3000E1F706CF8C2F8F719DCF0F931F93CF932A
:100C4000DF93EC01688179818A810E94DB078C0146
:100C50000E942A070E94C506B801CE010E94230403
:100C6000DF91CF911F910F910895CF93DF93EC0106
:100C70008B819C81892B29F08881998189238F3FE1
:100C800051F4DF91CF910895CE010E941D06CE014F
:100C90000E945F02F6CFCE010E9484028111F4CF40
:100CA0000E94100B882369F38A81882351F3809175
:100CB000790282FFE6CF82E00E94BB0BE2CF90E098
:100CC00080E00E94911990E080E00E94B6190E9495
:100CD000370B0E94580B0E9483120E9467120895DE
:100CE0000E94FF0A0E945F0608950E94270B0E943F
:100CF0007006089592959F70963091F058F4925F27
:100D00009F70923058F4803F19F030F4883E30F4F0
:100D100081E008959A5FF4CF843FD1F380E0089595
:100D2000883EB0F3813FD1F7F3CFFC0183819481FA
:100D3000892B29F08081918189238F3F11F480E0F4
:100D40000895808191810E94D0070E947A060895BB
:100D5000A5E0B0E0EEEAF6E00C941C232596E2E074
:100D60000C943823A6E0B0E0E8EBF6E00C941C23EA
:100D70002696E2E00C94382308950E94BC0608955C
:100D80000E94BD068093AF01089508950E94C00699
:100D900008959091AF01892B0E94C006089590910B
:100DA000AF0189230E94C00608959091AF01892761
:100DB0000E94C00608950E94BC0608950E94DB06AA
:100DC00008950E94DE068093AE01089580E00E949F
:100DD000E106089591E001C0990F8A95EAF7892FFD
:100DE0000E94E106089521E030E001C0220F8A95BB
:100DF000EAF78091AE01822B0E94E106089521E07E
:100E000030E001C0220F8A95EAF720958091AE016B
:100E100082230E94E106089521E030E001C0220F04
:100E20008A95EAF78091AE0182270E94E106089533
:100E30009091AE01892B0E94E10608959091AE0138
:100E400089230E94E10608959091AE0189270E94AE
:100E5000E10608950895262F277091E001C0990FAB
:100E60002A95EAF723E0769567952A95E1F7FB0145
:100E7000EE0FFF1FE60FF71FE40FF51F50E040E0F5
:100E8000682F70E08191DF0111979B01042E02C051
:100E9000369527950A94E2F7217021952827292372
:100EA00028272C934F5F5F4F4330510559F7089522
:100EB000A82FA77023E0969587952A95E1F7FC0166
:100EC000EE0FFF1FE80FF91FE60FF71F50E040E09D
:100ED00080E0219130E00A2E02C0369527950A94D1
:100EE000E2F721703327042E01C0220F0A94EAF79B
:100EF000822B4F5F5F4F4330510559F70895262FDE
:100F0000933070F4853060F4682F70E085E0989F2E
:100F1000600D711D112448EA51E0822F0E942B07B9
:100F20000895292F933068F4853058F490E068EAEA
:100F300071E035E0239F800D911D11240E94580718
:100F4000089580E00895CF92DF92FF920F931F9350
:100F5000CF93DF936C010091AE018091AF01082B1C
:100F6000C3E0D0E010E0FC2EC8010C2E02C0959525
:100F700087950A94E2F780FD0CC02197A0F7F12C29
:100F80008F2DDF91CF911F910F91FF90DF90CF9028
:100F90000895B6018C2F0E94A40E019771F3F0CF33
:100FA000CF93DF93EC010E94A307BE010E94A40E21
:100FB000DF91CF9108951F93CF93DF93EB01909131
:100FC000A701992339F0CB010E94D007DF91CF917F
:100FD0001F910895882369F0CB010E94A307182F61
:100FE000682FCE010E947F07BE01812F0E94A40EB0
:100FF000EDCFCB010E949107182FF6CFE1E0F0E092
:10100000DF0102C0AA0FBB1F6A95E2F7BD01DF0135
:1010100002C0AA0FBB1F4A95E2F76A2B01C0EE0F70
:101020002A95EAF7962F9823961302C08E2B0895DF
:10103000E0958E230895242F462F682F8091AE01CE
:101040000E94FE070E94E10608951F93CF93DF934D
:10105000C091B00116E08091B1018C1304C0DF9102
:10106000CF911F910895D0E01C9FF0011D9FF00DBE
:101070001124EE54FE4F408151816281738184813D
:1010800095810E94B2062196C770E5CF4091E2019A
:101090005091E3016091E4017091E5018091E601D6
:1010A0009091E7010E94B20608952091B0019091BD
:1010B000B10156E0291302C080E0089530E0529F4C
:1010C000F001539FF00D1124EE54FE4F7181761301
:1010D00006C07081781303C07281741304C02F5F3F
:1010E0003F4F2770E7CF81E008951F93CF93DF93A1
:1010F0008091E701807F09F04BC08091E401882353
:1011000009F446C08091B001C091B1014091E20163
:101110005091E3016091E5017091E601D42FD52350
:1011200016E0C817A9F190E061157105A9F1DF3F3C
:1011300099F1189FF001199FF00D1124DF01AE54B1
:10114000BE4F11962C911197251326C02C91241374
:1011500023C012962C91129721111EC013962D9127
:101160003C91261B370B283C3105B0F48091E701F8
:101170008F7080618093E701E954FE4F80818F700A
:101180008061808382EE91E00E9435060E942508EE
:10119000DF91CF911F91089501968770C2CFA1E191
:1011A000B0E0E5EDF8E00C9412238C0185E0F80145
:1011B000DE011D9601900D928A95E1F7F801F2800B
:1011C00082EEA82E81E0B82E4091E5015091E60113
:1011D0004115510509F45AC19091E2012091E301B2
:1011E000892F82238F3F09F451C1C080D180838031
:1011F0009480E090E401B401641B750BEE2009F4C7
:10120000F6C08091E701382F307F683C710508F007
:10121000AFC031117AC0EF2C2D1116C09C1114C033
:10122000F11012C08F7080618093E7010E94460820
:10123000C5010E9435068091E701F80185838E2D56
:101240006196ECE00C942E2381149104C9F18C2D4D
:101250008D218F3FA9F181E08F2580FF05C04F2DA3
:101260006D2D8C2D0E9455088114910459F18C2DFF
:101270008D218F3F39F181E08F25F82FF170BF2E3E
:1012800080FF39C04F2D6D2D8C2D0E945508A82E42
:10129000811131C0CD86DE868D859E850E94D00766
:1012A000292F22952F70243078F49F702230A8F0D7
:1012B0009923B9F0F8019581907F99F4EA2CBFCF7A
:1012C00080E0CBCF80E0D9CF2A5F2F70223068F04A
:1012D000C8010E943506AB2CF1CF992311F0882369
:1012E00069F3805E883050F3F3CF803F38F3815F3D
:1012F000833070F7E3CFFF2009F4A1CF8091E7019D
:1013000081608093E701E12C9ACF2D1105C09C11DB
:1013100003C0FF2009F486C0C8010E9495068823F7
:1013200019F1FF2009F18091E701803270F02091DE
:10133000E2013091E30138872F8319869B868A86E4
:101340008C87CE0107960E94350686E0F801A2EE52
:10135000B1E001900D928A95E1F70E9475080E9414
:101360004608EE24E3946BCFC8010E943506F9CFFE
:10137000311114C0782D998A888AA6016F2D898928
:101380000E94A80682EE91E00E94350686E0F501F3
:1013900011928A95E9F70E944608B5CF2D110EC02B
:1013A0009C110CC0F1100AC08583C8010E9435064B
:1013B00086E0F50111928A95E9F741CFC8010E94B4
:1013C0009506882389F2FF2079F28091E701803227
:1013D00008F4BBCF2091E2013091E3013A832983E5
:1013E0001B829D828C828E83CE010196ACCF683C9D
:1013F000710508F03DC0EF2CFF2009F4B5CF2D1189
:1014000029C09C1127C08091E70180FD1AC0982F48
:10141000907FB9F08583903F31F0982F907F905F57
:101420008F70892B8583C8010E94350686E0F801FC
:10143000A2EEB1E001900D928A95E1F70E94460874
:10144000FECE86E0F801A2EEB1E001900D928A9501
:10145000E1F7F5CEC8010E949506811176CF809103
:10146000E70181608093E701C8010E943506E7CE5D
:10147000782D998A888AA6016F2D89890E94A806ED
:1014800086E0F50111928A95E9F7D8CFFF2009F49B
:101490006BCFC8010E949506E82E882309F464CF1B
:1014A00086E0F801A2EEB1E001900D928A95E1F795
:1014B00082EE91E00E9464030E947508BFCFACE009
:1014C000B0E0E5E6FAE00C941B234F835887698768
:1014D0007A878B879C87CE0107960E94CF08882346
:1014E000B1F08A859B85892B39F04F815885842FEF
:1014F00085238F3F09F06CC016E08091B001909178
:10150000B101891343C02C96E3E00C94372386E0A5
:10151000FE013796DE01119601900D928A95E1F752
:101520008A859B85892B41F38F81988589238F3FFD
:1015300019F32091B10130E0C90101968770992714
:101540004091B0014817190671F40E947506109277
:10155000B1011092B00186E0E2EEF1E0DF011D92F0
:101560008A95E9F7C9CF96E0929FD001939FB00D7D
:101570001124AE54BE4FFE01319601900D929A9502
:10158000E1F78093B1010E942508B6CF819FC00189
:1015900011248E549E4F0E94CF08882309F4B3CFA4
:1015A000E091B0011E9FF0011124EE54FE4F4081E6
:1015B000518162817381848195810E94B2068091FC
:1015C000B00190E00196877099278093B00195CF84
:1015D00069857A858B859C850E94B2068DCF682FA0
:1015E00080910001909101010E946F1A0895682F67
:1015F00080910001909101010E947D1A08958091CF
:101600000001909101010E948B1A089580910802B7
:101610008595859585950895809108028770089530
:1016200090910802977081E009F480E0089580911C
:101630002B02089590912B02892B80932B02089501
:10164000809590912B02982390932B0208951092ED
:101650002B02089590912A02892B80932A020895E3
:10166000809590912A02982390932A0208951092CF
:101670002A02089580910902089508950E943D0B61
:1016800008959091790292FF08C0909109029817ED
:1016900021F0809309020E943E0B08958091090277
:1016A000882329F01092090280E00E943E0B0895E1
:1016B000CF93DF93E0910001F091010180912B0223
:1016C0008083E0910001F0910101808190912A02D4
:1016D000892B808390910902992381F0E091000188
:1016E000F09101018081892B80838091000190918C
:1016F00001010E94DB1981110E944E0BC091000173
:10170000D091010140E250E068EE71E0CE010E940C
:101710005723892B59F080E2FE01A8EEB1E0019039
:101720000D928A95E1F7CE010E946919DF91CF9160
:10173000089508950E94990B08959091790292FF5F
:1017400011C098E0899F90011124622B60930802D8
:101750000E94F306809108028595859585950E94E3
:101760009A0B08950E94F30608951092080280E0F3
:101770000E949A0B08959091080280958923809386
:101780000802282F277091F4282F082E000C330B05
:101790009217130659F09091790292FF07C0859530
:1017A000859585950E94FF060E94B50B089590913E
:1017B000790292FB222720F9281769F080FB92F921
:1017C0009093790280917802909179020E94200C86
:1017D00082E00E94BB0B08958091790282FB8827EA
:1017E00080F991E089270E94D70B089581E00E943B
:1017F000D70B089580E00E94D70B08956FEF7FEF1D
:1018000090E080E00E949923089590E080E00E949B
:101810007523873E9E4F19F40E94A113089580E01E
:10182000089582E090E00E946D23089583E090E0A7
:101830000E946D23089584E090E00E94752308952E
:10184000BC0184E090E00E9499230895AB01BC01A3
:101850008FE090E00E948D230895AB01BC0183E1ED
:1018600090E00E948D23089560E070E0CB010E941B
:101870002D0C089560E070E0CB010E94260C0E94C0
:10188000340C089567EE7EEF90E080E00E9499238B
:1018900060E082E090E00E947B2360E083E090E0E3
:1018A0000E947B231092AF0160E074E184E090E03D
:1018B0000E94992360E086E090E00E947B236FEF16
:1018C00087E090E00E947B2340E050E0BA0188E08E
:1018D00090E00E948D2360E08DE090E00E947B23E9
:1018E00040E050E0BA0188E190E00E948D2360E082
:1018F00087E190E00E947B2340E050E0BA018CE158
:1019000090E00E948D2370E060E080E290E00E9411
:10191000992340E050E0BA0188E190E00E948D23D5
:1019200080E00E94BA130E94E9130E943A0C0895C5
:101930000E94420C0895682F8EE090E00E947B2365
:101940000895A5E0B0E0E7EAFCE00C941A230E94B9
:101950004C1B8C0180912C0290912D0280179107D5
:10196000A1F08FEF89838A831B820E944C1B8160C8
:10197000782F9D838C8349815A816B818D810E9450
:101980002F0310932D0200932C022596E4E00C9473
:1019900036230E94581B6093350270933602809361
:1019A0003702909338026093310270933202809331
:1019B0003302909334020895089508950E94DD0C37
:1019C000089508950E94E10C089581E008958EE83D
:1019D0009FE00E9452190E94DC0C0E94DE0C0895C8
:1019E0000E94E50C08950E94F00C08950895089552
:1019F0000E94F60C0E94F70C08950E94AD0F0E9401
:101A0000030308950E94431B0E94F9130E946F1064
:101A10000E94FD0C0E94E20C0895A5E0B0E0E3E115
:101A2000FDE00C9414230E94E50C81110AC00E9471
:101A3000A10C0E94A5120E9416032596EAE00C94C0
:101A400030230E94851010912E0280E00E94D00F5A
:101A500018130EC010912F0281E00E94D00F811345
:101A600007C01091300282E00E94D00F1817F9F2DF
:101A70008091390281FD0E94D60F0E94F30CC82E7E
:101A80008EE2A82E82E0B82E10E0812F0E94D00FA7
:101A9000082FF50181915F01081731F1D02ED8266A
:101AA000F12CEE24E3948D2D8E21B1F0CC20A1F009
:101AB000F9821A8391E0802F8E2109F490E09B83B4
:101AC0000E944C1B8160782F9D838C8349815A81B1
:101AD0006B818D810E942F03F394EE0CF5E0FF12D1
:101AE000E2CFF501319700831F5F133071F60E943A
:101AF000C90C9FCF1F93CF93DF930E94A90EEC01D7
:101B0000C11580E5D807F0F5C11580E4D80708F0C5
:101B10009CC0C03ED10520F5CD3CD10508F082C067
:101B2000C83AD10578F4C53AD10508F073C0C13080
:101B3000D10519F1209709F1C430D105F0F4D0E0B6
:101B4000C0E01BC0C13CD105D0F7C85AD0E0CC0FD3
:101B5000DD1FC15BDE4F0990D881C02DD4640DC05C
:101B6000C11580E2D80708F0D1C0C11581E0D807BF
:101B700008F05AC0C83ED10510F7CE01DF91CF91D1
:101B80001F910895C03682E5D80718F5C03482E564
:101B9000D80708F06BC0C03282E5D80708F05FC0F4
:101BA000C11582E5D80708F497C02C2F26952695F5
:101BB00080E2289F900111248C2F8370C1E0D0E037
:101BC00002C0CC0FDD1F8A95E2F7C22BD32BDD6854
:101BD000D4CFC03A82E5D80760F4C03882E5D80790
:101BE00008F459C0CF71D0E0DC2FCC27C46FD06A85
:101BF000C4CFC03C82E5D80708F462C0C03E82E58D
:101C0000D80708F09CCFDC2FCC27CC27DF71C06F22
:101C1000D06AB3CFC55AD0E0CB57DE4FC881D0E0F1
:101C2000D064ABCFD065A9CF8D2F0E944B0F182F5A
:101C3000CE0199270E94A90EC12FD0E0DC2FCC271E
:101C4000CC27DF71C82BD92B98CFCE0199270E94C2
:101C5000A90ECC27DF70C82BD92BD06A8ECFCF71BD
:101C6000D0E0DC2FCC27C16FD06A87CF2C2F2695F0
:101C70002695277080E2289F900111248C2F837075
:101C8000C1E0D0E002C0CC0FDD1F8A95E2F7C22B85
:101C9000D32BDC6872CF2C2F26952695277080E2F7
:101CA000289F900111248C2F8370C1E0D0E002C0E6
:101CB000CC0FDD1F8A95E2F7C22BD32BDA685DCFFC
:101CC0008C2F8F710E944B0FC82FD0E0DC2FCC27B8
:101CD000CC27DF71D06251CF8C2F8F710E944B0FB8
:101CE00055E0D695C7955A95E1F7CF70D0E0DC2F37
:101CF000CC27282F30E084FF05C044E0220F331F9B
:101D00004A95E1F7C22BD32BD06937CF8D2F8F7136
:101D10000E944B0F182FCE0199270E94A90EC12FA8
:101D2000D0E0DC2FCC27CC27DF71C82BD92BD2CF2A
:101D3000462F733030F4653020F4672F0E944F1720
:101D4000089590E080E008950E94980E0E947A0D18
:101D5000089582389105B9F1B0F48133910509F401
:101D60007DC048F48932910509F46DC08A3291052D
:101D700009F47BC008958533910509F45FC0893368
:101D8000910509F10895833E9105D9F138F4803E1B
:101D9000910529F1823E910579F10895863E9105DC
:101DA000D9F1873E910509F43EC0843E910541F585
:101DB0002091790221FF24C08091780284FD19C00E
:101DC00087EE90E0089520917802237009F05AC0C0
:101DD0002091790223FF14C089E290E008952091B8
:101DE000780220FD38C03091790230FF09C024FF0D
:101DF00043C090E080E008952091780222FDF7CF63
:101E000008952091780222FD3AC03091790230FD88
:101E100039C024FFF5CFEDCF2091780223FFF0CF1A
:101E200024FDE7CFCDCF2091780223FD2EC0309145
:101E3000790231FFEECF84EE90E008952091780290
:101E400025FFDECFC9CF2091780225FD21C020914A
:101E5000790223FFD5CF89E390E0D2CF2091780299
:101E600026FFCECF8AE290E008952091780226FFE7
:101E7000C7CF81E390E0089583EE90E0089582EE6D
:101E800090E0089580EE90E0089586EE90E0089549
:101E900085E390E008959091780292FF06C0282F84
:101EA00028712830F9F4877F846093FF06C0282FBB
:101EB00028712831F1F4877E84612091790220FF16
:101EC00006C0382F38713830D9F4877F816021FF00
:101ED00006C0282F28712831D1F4877E816194FDB6
:101EE000877E0895282F24712430F9F68B7F88602F
:101EF000DCCF282F2471243101F78B7E8861DDCF60
:101F0000382F3171313019F78E7F8860E0CF282F5C
:101F10002171213121F78E7E8861E1CF80E0089523
:101F20000E94FE0B08950E9485102FEF86E791E036
:101F3000215080409040E1F700C000000E948510D1
:101F400080E00E94D00F80FF04C00E94900F0E948A
:101F5000971B08950E94930F08950E94050C81110C
:101F600002C00E94980C0E94110C809339020E94BA
:101F70001B0C90937902809378020E94AA0F0E9412
:101F8000160C0E94C6068091AE010E94DE060895DE
:101F900008950E94C80F089508950E94CC0F0895D7
:101FA000E82FF0E0E358FD4F80810895089580EA1E
:101FB0008A95F1F7089500C008950E94D70F0895FB
:101FC000F894E82FE295EF70F0E031A1282F2F7000
:101FD00081E090E001C0880F2A95EAF7982F90954C
:101FE000932391A392A1892B82A378940895CF93F0
:101FF000DF9384E90E94E00F86E60E94E00F87E904
:102000000E94E00FC8E8D1E089918F3F11F00E9453
:10201000E00F81E0CD38D807B9F7DF91CF9108956F
:10202000B0E0A0E0E6E1F0E10C941623EC01D62E3E
:10203000062F10E0C80183579E4F7C01FC01808170
:102040008F3F09F445C0F894E82FE295EF70F0E077
:1020500091A18F7021E030E001C0220F8A95EAF74C
:10206000892F822B81A382A12095282322A37894F3
:102070000E94DB0FE8E8F1E04DE851E031E0C12CCF
:1020800021912F3F51F1A22FA295AF70B0E0909611
:102090008C9190E02F7002C0959587952A95E2F774
:1020A00080FD1BC0832FC82A330F4E175F0741F7EF
:1020B000F70180818F3F11F00E94E00F61E0C110B5
:1020C00001C060E08D2D0E94DD0FC00FD11FC882BE
:1020D000CDB7DEB7E8E00C94322380E0E4CF0E9475
:1020E000F70F83E0EDE7F2E0DF01982F1D929A955C
:1020F000E9F7EAE7F2E0DF011D928A95E9F783E06C
:102100000E94C4100E94C90F0895A3E0B0E0EBE85C
:10211000F0E10C941B2319821A821B8260E0CE012D
:1021200001960E94101061E0CE0101960E941010ED
:1021300062E0CE0101960E94101043E050E0BE0123
:102140006F5F7F4F8AE792E00E94572321E000975C
:1021500009F420E0892B49F089819A81AB81809331
:102160007A0290937B02A0937C0243E06DE772E0D9
:102170008AE792E00E94C510182F0E94CD0F812F90
:102180002396E3E00C9437230895CF92DF92EF92E9
:10219000FF920F931F93CF936C017B01042F222397
:1021A00049F081E080933C020E944C1B90933B02DB
:1021B00080933A02C0913C02C1110AC0C0E08C2F4A
:1021C000CF911F910F91FF90EF90DF90CF900895E6
:1021D00080913A0290913B020E94641B059770F334
:1021E00010E0A801B601C7010E945723892B41F0D6
:1021F000A801B601C7010E94642310923C02DFCF00
:10220000C0E0FBCF0E94451D0E94020D0E94521D9E
:1022100008950E94571D0E940D0D0E94711D089582
:102220000E94E51A0E942B1D0E94E70C0E940211D9
:102230000E9409110E94F80CFBCF8091430280FF9D
:102240000DC06091070170E0660F771F603871055F
:1022500070F56115710569F1862F089581FF07C03A
:102260006091070184E0689FB0011124EFCF609175
:10227000070182FD0AC0809142028823A9F02091C3
:10228000060160910701821710F088E0ECCF869F6D
:10229000C001112433E0880F991F3A95E1F7622FAE
:1022A00070E00E94EB22D2CF68E070E0D5CF8FE7DC
:1022B000089581E008958091430280FF0CC06091F1
:1022C000030170E0759567957595679561157105C2
:1022D00049F1862F089581FF06C06091030170E0E7
:1022E00075956795F3CF6091030182FD0BC09091C6
:1022F00041029923A1F06091020180910301961798
:1023000038F0682F70E06038710500F38FE70895AA
:10231000899FC001112470E00E94EB22F4CF61E09C
:1023200070E0D7CF81E008958D3C31F40E941D11FB
:1023300081958093470208958E3C19F40E941D11E7
:10234000F8CF8F3C31F40E941D1181958093460295
:102350000895803D19F40E941D11F8CF893D29F49C
:102360000E945B118093480208958A3D21F40E94E7
:102370005B118195F7CF8B3D31F40E945B11819504
:102380008093490208958C3D19F40E945B11F8CFA7
:102390009FE2980F983070F4815D990B21E030E056
:1023A00001C0220F8A95EAF780914502822B809323
:1023B000450208958D3D31F4809143028160809300
:1023C000430208958E3D21F4809143028260F7CF4D
:1023D0008F3DB9F7809143028460F1CF409146026E
:1023E0008D3C59F48091470287FF0DC0109247023F
:1023F00041110BC01092420208C08E3C81F48091C2
:10240000470218169CF3442381F080914802909172
:102410004902892B09F05AC01092410208958F3C5D
:1024200049F447FFF0CF1092460280914702811194
:10243000ECCFE0CF803D19F41416ACF3E4CF9091CB
:102440004802893D29F41916F4F610924802DBCFB0
:102450008A3D19F497FFD7CFF8CF909149028B3D71
:1024600029F497FFD0CF10924902CDCF8C3D19F4BB
:102470001916CCF3C8CF9FE2980F983090F4815D85
:10248000990B21E030E0B90102C0660F771F8A95F1
:10249000E2F7CB0180959091450289238093450214
:1024A000B2CF8D3D31F4809143028E7F8093430201
:1024B000AACF8E3D21F4809143028D7FF7CF8F3DCF
:1024C00009F0A1CF809143028B7FF0CF08950E9445
:1024D0004C1B9C019091460280914702982B21F061
:1024E0003093400220933F0290914802809149022C
:1024F000982B21F030933E0220933D0284E492E039
:102500000E948319089586E0E4E4F2E0DF011D9261
:102510008A95E9F71092420210924102109243020A
:102520000895FC01828181110EC0838181110BC04D
:102530008481811108C091E08581811101C090E002
:10254000892F8170089581E0FCCFA6E0B0E0EBEA2E
:10255000F2E10C941B2386E0E4E4F2E0DE01119644
:1025600001900D928A95E1F710924602109247026F
:1025700010924802109249028B819C81892B89F02C
:1025800080913F02909140020E94641BAC019091A7
:1025900042029923C9F1809108018417150608F4B5
:1025A00040C08D819E81892B91F080913D02909158
:1025B0003E020E94641BAC0190914102992309F4F0
:1025C00071C0809104018417150608F479C0BE011A
:1025D0006F5F7F4F84E492E00E949D1A811105C0D5
:1025E00084E492E00E94911281110E94671286E0B9
:1025F000FE013196A4E4B2E001900D928A95E1F7D4
:102600002696E3E00C943723209109018AE0289F65
:10261000900111242417350720F69F5F9093420202
:1026200002C09F3FD1F71B81112359F00E941D1159
:102630009FEF11160CF491E0899F802D1124809357
:1026400046021C81112359F00E941D119FEF1116A3
:102650000CF491E0899F802D1124809347023091E2
:102660004602332309F49DCF20914702222309F427
:1026700098CF45EB3403C0011124992359F090936E
:10268000460245EB240390011124332339F03093A3
:10269000470287CF81E080934602F3CF81E08093A9
:1026A00047027FCF209105018AE0289F90011124E5
:1026B0002417350708F08BCF9F5F9093410202C02B
:1026C0009F3FD1F71D81112359F00E945B119FEFAD
:1026D00011160CF491E0899F802D112480934802FB
:1026E0001E81112359F00E945B119FEF11160CF40B
:1026F00091E0899F802D11248093490230914802F6
:10270000332309F464CF20914902222309F45FCFD7
:1027100045EB3403C0011124992359F090934802EA
:1027200045EB240390011124332339F030934902FF
:102730004ECF81E080934802F3CF81E0809349023D
:1027400046CF82E290E00E946D23833289F483E2D7
:1027500090E00E946D23803159F484E290E00E9461
:102760006D2391E0863109F090E0892F8170089502
:1027700080E0FCCFCF93C82F6FEF811163E282E23C
:1027800090E00E947B236FEFC11160E183E290E053
:102790000E947B236FEFC11166E184E290E00E940A
:1027A0007B23CF910895089585E290E00E946D23E8
:1027B000682F70E090E080E008950895CF93C62FD1
:1027C0000E94DD136C2F85E290E00E947B23CF9165
:1027D000089580E00E94BA1360E070E0CB010E948F
:1027E000DE130E94DD160E94AA1781E00E94BA1330
:1027F00008950E94D3130E94D4130E94DD130E94F7
:10280000A113811102C00E94E913089508959C014B
:10281000FB018281882351F0A901575740385105A7
:1028200030F4822F0E94BA1780E0089581E0089565
:102830002FEFFC01208308950E941814089580E072
:102840000895B0E0A0E0E7E2F4E10C941623EC0177
:10285000E62E0E941F14811110C0E881E150E3317F
:10286000B8F4F0E0E354FC4D0C94FF2219828CE0A4
:102870008A836E2DCE010E941F1CCDB7DEB7E8E023
:102880000C94322389818230C1F028F4813061F0C8
:102890008FEF8883EECF833099F08430C9F71A82A6
:1028A0001B821C821D82E5CF0E94581B0E940523BB
:1028B0006A837B838C839D83DCCF0E94D413F6CF05
:1028C0008A81082F10E06E0193E0C90ED11C9CE1B3
:1028D000F92EF80E0330110560F6802F0E94D00FFC
:1028E000F60181936F010F5F1F4FF012F3CFC1CF3D
:1028F0008981823031F0853059F68A810E94061430
:10290000B8CF6A817B818C819D810E9405230E94C2
:10291000DE13AFCF4B816A8189810E949F16982771
:10292000892798279D838C83A4CF2C813D813227D2
:10293000232732274B816A8189810E94C11699CF52
:102940000E94DD1696CF6E2DCE010E941C1491CFF1
:102950000E945B1789838DCF0E945D179827892776
:1029600098279A83898385CF6B8170E089819A81CA
:10297000AE014C5F5F4F9827892798270E94601708
:1029800078CF6B8170E089819A81AE014C5F5F4F97
:102990009827892798270E9485176BCF0E94AA172E
:1029A00068CF0E948D16D6CF6B8170E089819A81A5
:1029B000AE014C5F5F4F9827892798270E9409171F
:1029C00058CF6B8170E089819A81AE014C5F5F4F77
:1029D0009827892798270E942C174BCFCF93DF93F6
:1029E000EC01FB018281882309F4D2C09E0130579B
:1029F0002332310508F0B2C00E941B0C909379027B
:102A000080937802FE01E150F047E232F10520F4B4
:102A1000E053FC4D0C94FF228091780281608093FA
:102A2000780293C0809179028860809379028DC08A
:102A3000809178028260F3CF809178028460EFCF3A
:102A4000809178028860EBCF809179028160EDCF30
:102A5000809179028260E9CF809178028061DFCF36
:102A6000809178028062DBCF809178028064D7CF3A
:102A70000E947506809178028068D1CF809178029B
:102A80008C60CDCF809179028360CFCF8091780226
:102A90008E7FC5CF80917902877FC7CF80917802E2
:102AA0008D7FBDCF809178028B7FB9CF80917802E6
:102AB000877FB5CF809179028E7FB7CF80917902E1
:102AC0008D7FB3CF809178028F7EA9CF80917802DD
:102AD0008F7DA5CF809178028F7BA1CF0E94750654
:102AE000809178028F779BCF80917802837F97CFF8
:102AF000809179028C7F99CF8091780282FB99270F
:102B000090F921E0922790FB82F990FB83F987CF1F
:102B100080917902982F909591708E7F892B90FBF0
:102B200081F983CF90917802892F8F7B96FF806403
:102B300076CF0E94750690917802892F97FB87F9CE
:102B400080586DCF81E00E949B0C8091780290911B
:102B500079020E94200C0E94750680E0DF91CF91DF
:102B6000089580E0F0CF90917802892F8F7E94FFB6
:102B7000806155CF90917802892F8E7F90FF816080
:102B80004ECF90917902892F877F93FF88604DCF38
:102B900081E0E4CFB0E0A0E0E0EDF5E10C94172394
:102BA000E82FF0E0EC5DFE4FD490282F2695269577
:102BB000269530E0F901EC53FE4F0491877010E048
:102BC000082E02C0159507950A94E2F701701127A7
:102BD000F901EC54FE4FE490F12C082E02C0F5945C
:102BE000E7940A94E2F791E0E922FF24F901EC5519
:102BF000FE4FC491D0E002C0D595C7958A95E2F703
:102C0000C170DD270115110519F081EE0E947403D2
:102C1000E114F10419F086EE0E9474038D2D0E94D8
:102C20000C04E114F10419F086EE0E94C1030115B1
:102C3000110519F081EE0E94C103CD2B19F08CE231
:102C40000E940C04CDB7DEB7E7E00C943323EF927B
:102C5000FF920F931F93CF93DF93EC01162F0AE09F
:102C60008881882309F454C0813009F04EC08981DD
:102C7000813099F47E0122E0E20EF11C8A810E94EB
:102C80000C04E7012196812F815050F3EFE9FFE01A
:102C90003197F1F700C00000F7CF823041F47E0198
:102CA00082E0E80EF11C8A810E947403EACF83302F
:102CB00041F47E01E2E0EE0EF11C8A810E94C10324
:102CC000E0CF843011F02196DDCF2A81229690E06A
:102CD00080E0AE014F5F5F4F2053330B2A30310548
:102CE00048F0019778F2EFE9FFE03197F1F700C083
:102CF0000000F7CF089FB001099F700D1124C90192
:102D0000860F971F2981EA01E4CF0E94CA15BACF26
:102D1000CDB7DEB7E6E00C94342384E0089550E0AC
:102D2000440F551F9AE0699F400D511D11249EE1EB
:102D3000899F400D511D1124CA01869608950F9355
:102D40001F93CF93DF938430C8F46330B8F44530D9
:102D5000A8F40E948F168C010E946D23C82FD0E02A
:102D6000DC2FCC27C80101960E946D239E01282BE1
:102D7000C901DF91CF911F910F91089590E080E0FC
:102D8000F8CF0F931F93CF93DF93122F032F84302D
:102D900078F4633068F4453058F40E948F16EC01E3
:102DA000602F0E947B23612FCE0101960E947B231E
:102DB000DF91CF911F910F9108950F931F93CF93A0
:102DC000DF93D0E0C0E010E019C00E94FE0121E0D6
:102DD00030E08C171D0639F034F0402F612F8C2F16
:102DE0000E9400029C01402F612F8C2F0E94C1166F
:102DF0000F5F053051F71F5F133011F000E0E5CF92
:102E00002196C430D105F9F6DF91CF911F910F9132
:102E10000895EF92FF920F931F93CF93DF93EC01EE
:102E20008A017C01E60EF71ECE018696CE15DF05DF
:102E300029F4CDB7DEB7E6E00C943423C837D105CA
:102E400040F40E946D23F80180830F5F1F4F21968D
:102E5000EBCFF8011082F9CFB0E0A0E0E2E3F7E1B8
:102E60000C9416237C016A018C01060F171FEC01DC
:102E7000CE018696C017D10729F4CDB7DEB7E8E0BA
:102E80000C943223C837D10540F4FE01EE19FF0936
:102E9000EC0DFD1D60810E947B232196E9CF8430DB
:102EA00038F4633028F4453018F40E949F160895D2
:102EB00090E080E0089580E1089582E693E008952F
:102EC000EF92FF920F931F93CF93DF93EC018A0150
:102ED0007C01E60EF71ECE0182569F4FCE15DF0510
:102EE00029F4CDB7DEB7E6E00C943423C23623E0F4
:102EF000D20740F40E946D23F80180830F5F1F4FBB
:102F00002196E9CFF8011082F9CFB0E0A0E0EBE81C
:102F1000F7E10C9416237C016A018C01060F171F40
:102F2000EC01CE0182569F4FC017D10729F4CDB7CF
:102F3000DEB7E8E00C943223C23623E0D20740F437
:102F4000FE01EE19FF09EC0DFD1D60810E947B233F
:102F50002196E7CFCF93DF93CEE9D0E060E0CE01BA
:102F60000E947B232196C11584E0D807B9F7DF9131
:102F7000CF910895A8E0B0E0E0ECF7E10C941423C1
:102F8000F82E8FE08F1508F46EC08FEF93E00E944B
:102F90006D23811168C00EE910E0F11035C0FE010B
:102FA00031966F0188E011928A95E9F77801FFEF79
:102FB000EF1AFF0AC8010E946D2389831A828823B1
:102FC00009F451C08130D1F4580182E0A80EB11C3F
:102FD000C7010E946D238A83882309F444C09FEFB0
:102FE000980F9330F0F4780193E0E90EF11CC501DD
:102FF0000E946D238B838823B1F11C8260E0C6019F
:103000000E9427168701D2CF011594E0190759F1C4
:10301000C8010E946D23811101C0FA940F5F1F4FF8
:10302000BCCF7501843051F702E010E07501EFEF7D
:10303000EE1AFE0AC5010E946D23F601E00FF11F92
:103040008083882381F08C3741F4E2E0F0E0EC0FDC
:10305000FD1FE00FF11F1082D1CF0F5F1F4F5701EF
:103060000730110519F72896EAE00C943023CF9326
:10307000DF93EB0186319C4711F50E94170B9A8173
:10308000992399F08A7A91E009F490E090934A02AA
:10309000811109C089E20E94EF0A0E94580B80E06A
:1030A000DF91CF91089585E3F6CF80914A02811197
:1030B00004C089E20E94F70AF0CF85E3FBCF81E0EC
:1030C000EFCF0F931F93CF93DF93C42FD22FFC0129
:1030D00082818823C9F040934D020E944C1B90933B
:1030E0004C0280934B0280E28C0F883040F4C77012
:1030F00081E001C0880FCA95EAF70E941504DF91AC
:10310000CF911F910F91089510914D02141332C069
:1031100080914B0290914C020E94641B883C910567
:1031200048F5C0E2CD0F1D17B9F080E2810F88305D
:1031300040F4177081E001C0880F1A95EAF70E94E9
:103140001C04C83048F481E09D2F977001C0880F9F
:103150009A95EAF70E941504802F0E940C04C8304B
:1031600070F6D77081E001C0880FDA95EAF70E9407
:103170001C04C5CF80E28C0F883008F6C77081E050
:1031800001C0880FCA95EAF7F2CF0F93DB0188518F
:103190009C4787309105A0F5FC01EE50FC4D0C9446
:1031A000FF2206E221EE41EE6AE17CE7CD010E94BA
:1031B000611880E00F91089507E225EE45EE6BE17E
:1031C0007CE7F4CF06E221EE40EE68E17CE7EECF4B
:1031D00007E225EE44EE69E17CE7E8CF06E221EE66
:1031E00042EE6CE17CE7E2CF07E225EE46EE6DE1D0
:1031F0007CE7DCCF08E221E045EE6EE17CE7D6CF4C
:1032000012968C91882319F010924D02D3CF81E051
:10321000D1CF1F93CF93DF9387372CE7920759F0D5
:10322000C1E088379C47E1F4FB01C281CC2371F1F6
:103230000E944C1906C0FB01C281CC23B1F00E9450
:1032400049190E94F3060E944F19D82F0E944C1969
:10325000C82F0E9449194D2F6C2F0E941B08C0E0F7
:103260008C2FDF91CF911F9108950E9449190E94E0
:10327000FF060E944F19182F0E944C19D82F0E9448
:103280004919412F6D2F0E941B08EACF0E944C194B
:10329000EECF80910C01089580910B0108958091EB
:1032A0000A0108959093A1018093A001089590933D
:1032B0005302809352020895E0915202F09153021A
:1032C000309729F00190F081E02D0995089580E074
:1032D0000895E0915202F0915302309799F02091B5
:1032E0001501222359F02091780227FF07C0DC0145
:1032F0002C9111962C93119726E02C930280F38148
:10330000E02D09950895E0915202F0915302309713
:1033100039F022E0DC012C930480F581E02D099541
:103320000895A3E0B0E0E7E9F9E10C941C232091B3
:1033300050023091510228173907A1F090935102A1
:1033400080935002E0915202F0915302309751F075
:1033500023E029839B838A830680F781E02DCE01B9
:10336000019609952396E2E00C943823A3E0B0E09F
:10337000ECEBF9E10C941C2320914E0230914F02AA
:1033800028173907A1F090934F0280934E02E091E5
:103390005202F0915302309751F024E029839B832D
:1033A0008A830680F781E02DCE0101960995239648
:1033B000E2E00C943823FC013296809115018823B9
:1033C00021F0809178029EE187FF96E080E09150A5
:1033D00008F4089521912223D1F38F5FF8CF66235B
:1033E00001F1209115012223F1F02091780227FFAD
:1033F0001AC0462F4695469546954E3190F4677013
:1034000021E030E002C0220F331F6A95E2F7840FFB
:10341000911DFC01828190E02823392381E0232B38
:1034200069F480E00895FC013296089621912617F0
:1034300021F0E817F907D1F7F4CF81E008959C0156
:10344000FC0132969FEF80E04191461751F09F3F7B
:1034500019F4411101C0982F8F5F8630A9F79F3F63
:1034600009F40895290F311D97FD3A95F9016283FA
:103470000895FC01329608962191261303C0DF01BE
:1034800011971C92E817F907B9F70895E62FE6950A
:10349000E695E695EE3168F4E80FF92FF11D6770B7
:1034A00021E030E001C0220F6A95EAF78281822B89
:1034B00082830895E62FE695E695E695EE3170F461
:1034C000E80FF92FF11D677021E030E001C0220FF5
:1034D0006A95EAF720958281282322830895209116
:1034E0001501222339F02091780227FF03C00E94A2
:1034F000461A08950E941F1A08952091150122234B
:1035000039F02091780227FF03C00E945A1A0895CB
:103510000E94391A0895FC01329680911501882382
:1035200051F08091780287FF06C08EE1DF011D9285
:103530008A95E9F7089586E0F9CF46E050E00E94C9
:10354000572321E0892B09F420E0822F0895089564
:103550000E94A71A0895811106C081E08093540249
:103560000E94A81A089582E0F9CF83E08093540264
:103570000E94A81A08950E94AB1A089581E08093D2
:1035800054020E94A81A08950E94BE1A0895089530
:1035900008950E94C81A0895089508950E94C71AB0
:1035A0000895CF930E94CC1A0E9485100E94CD1AD4
:1035B000C0E08C2F0E94D00F811105C0CF5FC330B7
:1035C000C1F7CF91089581E0FCCF85B7806885BFB2
:1035D00085B7806885BF08951F921FB61F9211247A
:1035E0008F939F93AF93BF9380915502811113C026
:1035F0008091800290918102A0918202B091830219
:103600004196A11DB11D8093800290938102A093E9
:103610008202B0938302BF91AF919F918F911F90CF
:103620001FBE1F90189580918802843031F10E944E
:10363000E6021092550288E190E020E40FB6F8947B
:10364000A895809360000FBE2093600083B7817FB0
:10365000846083BF83B7816083BF7894889583B784
:103660008E7F83BF0FB6F894A89580916000886123
:1036700080936000109260000FBE08950E9475064E
:103680000E94EB02089582E084BD93E095BD9AEF1D
:1036900097BD80936E0008952FB7F89480918002B3
:1036A00090918102A0918202B09183022FBF089570
:1036B0002FB7F8946091800270918102809182020C
:1036C000909183022FBF08959C014FB7F894809189
:1036D000800290918102A0918202B09183024FBF3B
:1036E000821B930B089578941F921FB61F9211248A
:1036F0008F939F93AF93BF938091800290918102AB
:10370000A0918202B09183020196A11DB11D809308
:10371000800290938102A0938202B0938302BF91B2
:10372000AF919F918F911F901FBE1F90189581E0C0
:103730008093E00080E28093D8001092C9008FE16E
:103740009EE40197F1F700C0000087E090EBDC01F8
:103750008093910290939202A0939302B09394026B
:1037600088E19CE00FB6F894A895809360000FBEA6
:1037700090936000FFCF88E19CE00FB6F894A89585
:10378000809360000FBE90936000FFCF809176021F
:1037900008959B01BA01909188029430E9F48F70EA
:1037A0008093E9009FEF8091E800915085FD06C06D
:1037B00085ED8A95F1F700009111F5CF8091E80031
:1037C00085FF0AC050E040E0C9010E94151E8091AB
:1037D000E8008E778093E800089543E050E0BC0154
:1037E00084E00E94C91B089546E050E0BC0184E0DB
:1037F0000E94C91B0895CF93DF93EC0180911501BE
:10380000811111C048E050E0BE0181E00E94C91B57
:1038100080E2FE01A6E5B2E001900D928A95E1F703
:10382000DF91CF9108958091780287FF05C040E233
:1038300084E050E0BE01EACF48E081E0FACF603298
:1038400031F440E250E0BC0182E00E94C91B0895BF
:1038500080918702811109C00E94F41F0E945120AB
:103860008091E20084608093E200089510928702C4
:1038700008950E94BE1A08956091840281E061114A
:1038800001C080E00E94B51A08959091880281E0FD
:10389000943009F080E0609184020E94BB1A089580
:1038A00042E061EC81E00E94701F42E261EC84E042
:1038B0000E94701F42E261EC82E00E94701F42E2AF
:1038C00060EC83E00E94701F9091880281E0943048
:1038D00009F080E0609184020E94AB1A0895809103
:1038E0008A02833009F463C030F48130E1F1823020
:1038F00009F4A0C008958A3009F48CC08B3009F413
:1039000071C0893009F052C080918902813209F07A
:103910004DC080918D0290918E02009719F0029710
:1039200009F044C08091E800877F8093E80080918F
:10393000E80082FF37C09091F3008091F200029777
:1039400031F48091F100813011F0863021F48091C2
:10395000F100809376028091E8008B778093E800F5
:103960000E94A41F23C080918902813AF9F48091BA
:10397000E800877F8093E80080918D0290918E020D
:10398000892B61F460E286E592E070E00E94B31E4C
:103990008091E8008B778093E800089560E090E0E4
:1039A00080E0F3CF809188028111C1CF089580918A
:1039B0008902813AD9F780918D0290918E02892BEC
:1039C000A9F78091E800877F8093E8008091E80064
:1039D00080FFFCCF809115018093F1008091E80079
:1039E0008E77BCCF80918902813201F780918D0260
:1039F00090918E02892BD1F68091E800877F809389
:103A0000E8000E94A41F80918B02809315010E9400
:103A10007506089580918902813241F68091E8000F
:103A2000877F8093E8000E94A41F80918C0280937E
:103A30007702089580918902813A09F0B7CF809189
:103A4000E800877F8093E8008091E80080FFFCCF4A
:103A500080917702C1CF84B7877F84BF0FB6F89477
:103A6000A89580916000886180936000109260004A
:103A70000FBE80E890E00FB6F894809361009093B9
:103A800061000FBE0E94C41A08950E94F41F0E9494
:103A90005120E2EEF0E080818460808378940E947F
:103AA000D02208958DE091E00E94571908958091E9
:103AB0008802853031F480918802853019F00E94A7
:103AC0003E1B08950E94131B80918602882399F360
:103AD0000E94D11A882379F30E94FF1D0E94750667
:103AE000EACFA0E2B0E0E7E7FDE10C941C2380916F
:103AF0008802843009F583E08093E9008091E80032
:103B000082FF1AC08091E80090E085FF09C050E074
:103B100040E060E270E0CE0101960E94641E91E0F8
:103B20008091E8008B778093E800992329F060E288
:103B3000CE0101960E942114A096E2E00C94382355
:103B40009A0140918F02509190020E94A81D089501
:103B5000492F55274330510521F168F44130510573
:103B600009F443C04230510509F444C090E080E0BC
:103B700050E040E026C04132510551F1423251053A
:103B8000A9F76330710590F7FB01EE0FFF1FED56AB
:103B9000FE4F4081518160577E4FFB01808190E054
:103BA00010C099278130910581F0009729F0029784
:103BB000E9F6E4EDF1E002C0EEEFF1E0849190E08F
:103BC000AF01F901518340830895EAEEF1E0F6CFA9
:103BD0006330710558F6660F771FFB01E756FE4FFD
:103BE0004081518189E090E0ECCF82E190E04DE5A9
:103BF00052E0E7CF8BE590E042E052E0E2CF80E197
:103C000089BD82E189BD09B400FEFDCF8091D80055
:103C10008F7D8093D8008091E00082608093E000E7
:103C20008091E00081FDFCCF0895AF92BF92CF92CA
:103C3000DF92FF920F931F93CF93DF936C01EB0101
:103C40008A010E94C31FF82E811123C0011511059E
:103C500039F0F80180819181C81BD90BC80ED91E9B
:103C6000B12CA12C2097A9F08091E80085FD22C0FD
:103C70008091E8008E778093E80001151105A1F08E
:103C8000F80180819181A80EB91EB182A08285E0E1
:103C9000F82E8F2DDF91CF911F910F91FF90DF9024
:103CA000CF90BF90AF9008950E94C31F8823D1F298
:103CB000F82EEFCFF60181916F018093F1002197EB
:103CC000FFEFAF1ABF0ACECFAF92BF92CF92DF9273
:103CD000FF920F931F93CF93DF936C01EB018A0147
:103CE0000E94C31FF82E811123C00115110539F060
:103CF000F80180819181C81BD90BC80ED91EB12C47
:103D0000A12C2097A9F08091E80085FD22C0809128
:103D1000E8008B778093E80001151105A1F0F80108
:103D200080819181A80EB91EB182A08285E0F82E13
:103D30008F2DDF91CF911F910F91FF90DF90CF904A
:103D4000BF90AF9008950E94C31F8823D1F2F82E30
:103D5000EFCF8091F100F60181936F012197FFEF82
:103D6000AF1ABF0ACECFFC0180918F0290919002D2
:103D700086179707A0F06115710529F49091E80066
:103D80009E779093E80090E06115710551F49111D0
:103D900008C08091E80082FF34C080E00895BC0133
:103DA000F2CF809188028823C1F18530C1F18091E2
:103DB000E80083FD30C08091E80082FDEACF809169
:103DC000E80080FFE1CF8091F3002091F200382FCE
:103DD0006115710519F02830310558F091E028304F
:103DE000310509F090E02091E8002E772093E8005B
:103DF000CBCF81918093F100615071092F5F3F4FCC
:103E0000E7CF80918802882341F0853041F080918E
:103E1000E80083FFBECF81E0089582E0089583E04B
:103E20000895FC0180918F02909190028617970768
:103E3000A0F06115710529F48091E8008E778093D8
:103E4000E80090E06115710551F4911108C080916E
:103E5000E80082FF35C080E00895BC01F2CF809178
:103E600088028823C9F18530C9F18091E80083FD7B
:103E700031C08091E80082FDEACF8091E80080FFA8
:103E8000E1CF8091F3002091F200382F6115710588
:103E900019F02830310558F091E02830310509F04B
:103EA00090E08091E8008E778093E800CBCF8491FA
:103EB0008093F1003196615071092F5F3F4FE6CF3B
:103EC00080918802882341F0853041F08091E8009C
:103ED00083FFBDCF81E0089582E0089583E00895D7
:103EE000982F973028F08F708093E90081E0089533
:103EF0009093E900242F762F50E0981731F07091BD
:103F0000EC002091ED005091F00021FD02C09F5F78
:103F1000E8CF3091EB003E7F3093EB003091ED0025
:103F20003D7F3093ED003091EB0031603093EB003A
:103F30007093EC002093ED005093F0002091EE0080
:103F400027FDE5CF80E008958091890287FF13C0A7
:103F50008091E80082FF06C08091E8008B77809313
:103F6000E80004C0809188028111F2CF0895809109
:103F700088028823D9F38091E80080FFF8CF8091F0
:103F8000E8008E77ECCF2091E4003091E50095E6D3
:103F9000A9012091EC00822F817020FF06C0809142
:103FA000E80080FF06C080E008952091E80022FD2F
:103FB0001AC080918802882389F0853089F0809129
:103FC000EB0085FD0FC02091E4003091E500421721
:103FD0005307F9F29150E1F684E0089582E00895E4
:103FE00083E0089581E008950E9463200E946B2081
:103FF000E0EEF0E0808181608083E8EDF0E0808198
:104000008F77808319BCA7EDB0E08C918E7F8C9365
:1040100080818F7E80831092870208950F931F9373
:10402000CF93DF930E9463200E946B20C8EDD0E005
:1040300088818F77888388818068888388818F7D55
:10404000888319BC10928802109284021092860212
:104050001092850200EE10E0F80180818B7F808352
:1040600088818160888342E060E080E00E94701F68
:10407000E1EEF0E080818E7F8083E2EEF0E08081EF
:1040800081608083808188608083F80180818E7F59
:104090008083888180618883DF91CF911F910F9108
:1040A0000895E8EDF0E080818F7E8083E7EDF0E019
:1040B00080818160808384E082BF81E08093870279
:1040C0000E940E200895E8EDF0E080818E7F8083CD
:1040D0001092E20008951092DA001092E100089523
:1040E0001F920F920FB60F9211242F933F934F936D
:1040F0005F936F937F938F939F93AF93BF93EF9350
:10410000FF938091E10082FF0BC08091E20082FF6B
:1041100007C08091E1008B7F8093E1000E94CF2255
:104120008091DA0080FF19C08091D80080FF15C00F
:104130008091DA008E7F8093DA008091D90080FF31
:1041400096C080E189BD82E189BD09B400FEFDCF42
:1041500081E0809388020E94281C8091E10080FF0A
:1041600019C08091E20080FF15C08091E2008E7F2F
:104170008093E2008091E20080618093E200809170
:10418000D80080628093D80019BC85E080938802B3
:104190000E943C1C8091E10084FF2BC08091E200D2
:1041A00084FF27C080E189BD82E189BD89B5982F50
:1041B000917080FFFBCF8091D8008F7D8093D800D5
:1041C0008091E1008F7E8093E1008091E2008F7EFC
:1041D0008093E2008091E20081608093E200809110
:1041E0008402882309F449C084E0809388020E94F5
:1041F000451C8091E10083FF29C08091E20083FF8C
:1042000025C08091E100877F8093E10082E0809368
:104210008802109284028091E1008E7F8093E100F9
:104220008091E2008E7F8093E2008091E2008061C5
:104230008093E20042E060E080E00E94701F809185
:10424000F00088608093F0000E94391CFF91EF918C
:10425000BF91AF919F918F917F916F915F914F919E
:104260003F912F910F900FBE0F901F90189519BC82
:10427000109288020E94361C70CF8091E30087FD67
:1042800093E090938802B3CF1F920F920FB60F92D4
:1042900011242F933F934F935F936F937F938F934B
:1042A0009F93AF93BF93CF93DF93EF93FF93D091FF
:1042B000E900DF708091EC00C82FC17080FDC0E87C
:1042C0001092E9008091F000877F8093F00078944D
:1042D0000E9488211092E9008091F000886080930C
:1042E000F000CD2BCF70C093E900FF91EF91DF91EB
:1042F000CF91BF91AF919F918F917F916F915F917E
:104300004F913F912F910F900FBE0F901F901895D6
:10431000AAE2B0E0EEE8F1E20C941B2389E892E017
:104320002091F100FC012193CF01F2E081399F0738
:10433000B9F70E946F1C8091E80083FF1EC1809135
:10434000890290918A029A3008F017C1E92FF0E0B3
:10435000E750FC4D0C94FF22803899F0823809F028
:104360000CC180918D028F70873008F006C1809358
:10437000E9008091EB0085FB882780F91092E90025
:1043800006C0809185029091860291118260909181
:10439000E800977F9093E8008093F1001092F1007D
:1043A0008091E8008E77E5C0882309F4D3C082307D
:1043B00009F0E3C080918B028111D6C080918D02FB
:1043C0008F702FEF280F263008F0D7C08093E900B8
:1043D0002091EB0020FFC8C0933031F48091EB00B6
:1043E00080628093EB00C0C09091EB00906190934D
:1043F000EB0021E030E001C0220F8A95EAF720931C
:10440000EA001092EA008091EB008860EACF811107
:10441000B4C010918B021F778091E3008078812BCC
:104420008093E3008091E800877F8093E8000E94FA
:10443000A41F8091E80080FFFCCF8091E30080689A
:104440008093E30082E0111183E08093880295C09D
:104450008058823008F091C080918B0290918C023C
:104460008C3D23E09207A1F583E08A838AE2898369
:104470004FB7F894DE01139620E03EE051E2E32FBF
:10448000F0E050935700E49120FF03C0E295EF70F5
:104490003F5FEF708E2F90E0EA30C0F0C7968D93AB
:1044A0009D932F5F243159F74FBF8091E800877F9C
:1044B0008093E8006AE270E0CE0101960E94B31E8C
:1044C0008091E8008B778093E80057C0C096E7CFD3
:1044D00060918D0270918E02AE014F5F5F4F0E941E
:1044E000A01DBC01892B09F448C09091E800977F7A
:1044F0009093E80089819A810E94111FE1CF803852
:10450000E1F58091E800877F8093E8008091840244
:104510008093F10045CF811130C090918B02923091
:1045200060F58091E800877F8093E8009093840293
:104530000E94A41F80918402882311F084E005C0AA
:104540008091E30087FDFACF81E0809388020E948A
:10455000501C13C080918B02813079F481E093303C
:1045600009F080E0809386021092E9008091E800D3
:10457000877F8093E8000E94A41F8091E80083FF5A
:104580000AC08091E800877F8093E8008091EB006B
:1045900080628093EB00AA96E3E00C9437230895A1
:1045A000CF93809188028823A1F0C091E900CF7059
:1045B0009091EC00892F817090FD80E8C82B1092BB
:1045C000E9008091E80083FD0E948821CF70C093AC
:1045D000E900CF91089597FB072E16F4009407D0B9
:1045E00077FD09D00E94432307FC05D03EF4909547
:1045F00081959F4F0895709561957F4F0895EE0FB7
:10460000FF1F0590F491E02D0994692796276927EB
:1046100078278727782708952F923F924F925F92AD
:104620006F927F928F929F92AF92BF92CF92DF92C2
:10463000EF92FF920F931F93CF93DF93CDB7DEB727
:10464000CA1BDB0B0FB6F894DEBF0FBECDBF0994BB
:104650002A88398848885F846E847D848C849B8412
:10466000AA84B984C884DF80EE80FD800C811B8120
:10467000AA81B981CE0FD11D0FB6F894DEBF0FBE4F
:10468000CDBFED010895AA1BBB1B51E107C0AA1FB6
:10469000BB1FA617B70710F0A61BB70B881F991FE3
:1046A0005A95A9F780959095BC01CD010895FB011D
:1046B000DC0104C08D910190801921F441505040DB
:1046C000C8F7881B990B0895FB01DC0102C001901B
:1046D0000D9241505040D8F70895F999FECF92BD00
:1046E00081BDF89A992780B50895A8E1B0E042E02D
:1046F00050E00C94A123262FF999FECF92BD81BDE5
:10470000F89A019700B4021639F01FBA20BD0FB60F
:10471000F894FA9AF99A0FBE08950396272F0E94EB
:104720007C230E947B23252F0E947C23242F0C9422
:104730007C230196272F0E947C230C947B23DC0191
:10474000CB01FC01F999FECF06C0F2BDE1BDF89A9C
:10475000319600B40D9241505040B8F70895F89446
:10476000FFCF62046204B304B3042605420591043A
:1047700091044705AE05BD05BD05361442147814F5
:104780008A149514A014A314A314A3144814481451
:10479000A814AC14B414C114CE14D114D414E1145C
:1047A0004615BA154E1518151C1552152015561517
:1047B00062152C15B3153015661534156A1592154A
:1047C00038156E1599153E1574157C1524155A1556
:1047D00028155E15421578158815A215B115121504
:1047E0004A15C115E218E818D118DC18EE18F418AB
:1047F000FA18AC21D421BD22D421BD2207222822BF
:06480000BD227F228B2285
:104806000A02280850011E0A1401030201C61BFBF6
:104816001BF41BED1B01E200E900EA00B500B6003F
:10482600B700CD008301CC008A01920194012102D8
:10483600230224022502260227022A02B300B4001C
:104846006F0070009F01CB019F02A002818283E26C
:1048560000E900EA00B500B600B700CD008301CC40
:10486600008A0192019401210223022402250226D4
:104876000227022A02B300B4006F0070009F01CB2A
:10488600019F02A002818283F4F5F6F731946697C0
:104896004022B647036F02910214022D024D020018
:00000001FF
