:100000000C94C6010C94FE010C94FE010C94FE01AC
:100010000C94FE010C94FE010C94FE010C94FE0164
:100020000C94FE010C94FE010C94DC200C94AF2186
:100030000C94651B0C94FE010C94FE010C94FE01C3
:100040000C94FE010C94FE010C94FE010C94FE0134
:100050000C94FE010C94EC1B0C94FE010C94FE011C
:100060000C94FE010C94FE010C94FE010C94FE0114
:100070000C94FE010C94FE010C94FE010C94FE0104
:100080000C94FE010C94FE010C94FE010C94FE01F4
:100090000C94FE010C94FE010C94FE010C94FE01E4
:1000A0000C94FE010C94FE010C94FE0129001E002C
:1000B0001F0020002A002B0004000500280000007B
:1000C0001D0000002C000000215229001E001F000E
:1000D00020002A002B0004000500280000001D005D
:1000E00000002C000000215229001E001F002000EB
:1000F0002A002B0004000500280000001D0000005D
:100100002C000000215229001E001F0020002A00A0
:100110002B0004000500280000001D0000002C003A
:100120000000215200000000000000002A2B2800DF
:100130000000000000000000000000000000002996
:10014000000000002C1E3420212224342627252ED6
:10015000362D3738271E1F2021222324252633330E
:10016000362E37381F0405060708090A0B0C0D0E3A
:100170000F101112131415161718191A1B1C1D2F06
:100180003130232D350405060708090A0B0C0D0E26
:100190000F101112131415161718191A1B1C1D2FE6
:1001A0003130354C0000000000000000000000006D
:1001B000000000000000000000000000000000003F
:1001C00000000000000000007E0F00D4FFFFFFC70A
:1001D00000000078140363006F006D00700065007C
:1001E00069007400310032000000120373006100E6
:1001F0006D003100640061007200650000000403BE
:10020000090409025B00030100A0FA0904000001CF
:1002100003010100092111010001224400070581A9
:100220000308000109040100020300000009211174
:1002300001000122220007058203200001070503B7
:10024000032000010904020001030000000921113C
:1002500001000122B60007058403200001120100FD
:100260000200000008313A0300010101020001060A
:1002700060FF0961A1010962150026FF0095207544
:100280000881020963150026FF0095207508910278
:10029000C005010902A10185020901A10005091992
:1002A000012908150025019508750181020501093C
:1002B0003009311581257F950275088106093815A9
:1002C00081257F950175088106050C0A3802158184
:1002D000257F950175088106C0C005010980A1012F
:1002E000850319012AB700150126B700950175107D
:1002F0008100C0050C0901A101850419012AA00291
:10030000150126A002950175108100C0050109069E
:10031000A1018506050719E029E7150025019508C3
:10032000750181020507190029EF1500250195F0D7
:1003300075018102050819012905950575019102CC
:10034000950175039101C005010906A10105071971
:10035000E029E715002501950875018102950175D1
:100360000881010507190029FF150026FF009506E1
:100370007508810005081901290515002501950555
:1003800075019102950175039101C00011241FBEF2
:10039000CFEFDAE0DEBFCDBF04B603FE18C0809118
:1003A000910290919202A0919302B09194028730B1
:1003B000904BA740B04B59F41092910210929202C8
:1003C0001092930210929402E0E0F8E3099511E094
:1003D000A0E0B1E0E0E3F9E402C005900D92AE398F
:1003E000B107D9F722E0AEE9B1E001C01D92A13911
:1003F000B207E1F70E94FE100C9431240C94000027
:100400008430B8F46330A8F4453098F4E42FF0E079
:1004100095E0699FE00DF11D11249FE0899FE00D9B
:10042000F11D1124EE0FFF1FE455FF4F85919491AC
:10043000089581E090E0089581E008950E941C02F3
:10044000089581E0089581E008950E9423020895AF
:1004500008950E9428020895A6E0B0E0E2E3F2E0E9
:100460000C948D2349835A839E833091A501898101
:100470009A8131111AC03E81311599F0211589F008
:100480000E94AC07182F682F89819A810E948807E3
:1004900069817A81812F0E94B90E2696E3E00C943F
:1004A000A9230E949A07182FF3CF0E94AC076981F5
:1004B0007A81F1CFFC01262F4081518162817381C5
:1004C000848195810E942C020895CF93DF93D82FC9
:1004D000C92F61E00E945A026D2F7C2F0E941E02DC
:1004E000DF91CF910895CF93DF93D82FC92F60E08C
:1004F0000E945A026D2F7C2F0E942902DF91CF911A
:10050000089581E008950E9481020895CF93C82F35
:100510000E9476068C2F0E9483022FEF84E39CE0DA
:10052000215080409040E1F700C00000CF91089535
:1005300081E00E9486020E94101C089580E00E94C3
:1005400086020E94341C08950F931F93CF93DF936C
:100550008C0161E00E945A02EC01B8010E948F18E0
:10056000811509F442C0B801CE010E94250281150F
:10057000E1F1B801CE010E94A9178115B1F1B801CE
:10058000CE010E94EE12811581F1B801CE010E94C8
:10059000C312811551F1B801CE010E94EB178115EC
:1005A00021F1F8018581811581F0CA35FCE7DF076B
:1005B00039F178F4C130ECE7DE07F9F0C330FCE73D
:1005C000DF07C9F0C115DC4771F0C8010E942102A4
:1005D0000DC0CB35ECE7DE07B1F0CC35DC47A9F731
:1005E0000E94F90BF2CF0E94980280E0DF91CF9138
:1005F0001F910F9108950E940A0C0E949E02F5CF50
:100600000E94020CE2CF0E94060CDFCF0E94421B28
:100610000E94260308950E942A030E94471B089502
:1006200081E008950895CF93DF93D82F0E9410039F
:10063000C82F811519F08D2F0E9412038C2FDF9186
:10064000CF91089508950E941303089580E00E94B9
:10065000230308950E947D190E9423030895CF93D8
:100660000E947D19C82F8091A0018C1779F0C0934A
:10067000A0010E94D11B6093A1017093A2018093FD
:10068000A3019093A4018C2F0E942303CF9108957E
:10069000ADE0B0E0EEE4F3E00C948E234887598798
:1006A0006A877B878C879D8791110E94050B1F822B
:1006B00086E0FE013896DE01119601900D928A9532
:1006C000E1F78D8181110DC029813A814B815C81D7
:1006D0006D817E818F810E944F0A2D96E2E00C94FD
:1006E000AA23CE0101960E9465028111EDCFF5CFBC
:1006F000FC018481813021F4808191810E94D507A1
:100700000895611529F00E9454140E94151508954A
:100710000E949D14FACFCF93C82F811599F08CEFCA
:100720008C0F813A88F48C2F0E94211A811529F0B0
:100730008C2F0E94C61A0E949B0B8C2F0E94AF1A0E
:100740000E949B0BCF91089580E28C0F883048F473
:10075000C77081E001C0880FCA95EAF70E94E60AD7
:10076000EFCF8BE58C0F833038F42C2F2452330BD2
:10077000C9010E94B319E6CFE8E5EC0FEB3150F464
:10078000F0E0EE0FFF1FE65EFE4F808191810E9438
:10079000D919D8CF83E38C0F8331A0F661E08C2F79
:1007A0000E948103CFCF811581F19CEF980F913A80
:1007B00028F40E94C61A0E949B0B089590E2980F9D
:1007C000983050F4877091E001C0990F8A95EAF74C
:1007D000892F0E94EC0AEFCF9BE5980F933028F405
:1007E00080E090E00E94B319089598E5980F9B313E
:1007F00028F480E090E00E94D919089593E3980FBF
:10080000933118F460E00E94810308950F931F93C1
:10081000CF93C82F8B010E948B030115110539F46A
:100820008C2F0E94D303CF911F910F9108958FE9D0
:100830009FE00197F1F700C0000001501109EDCFD2
:1008400060E570E0893311F060E070E00E9406041A
:100850000895811521F00E94E60A0E949B0B0895DD
:10086000811521F00E94EC0A0E949B0B0895A0E0E4
:10087000B0E0EDE3F4E00C9488236C01D62FC72F91
:10088000FC011581068102950F700E94DB0AE82E9B
:100890008115F9F0E12E1115E1F08C2F807F803465
:1008A00061F080E28D0F8830F0F08C2F807E8032F6
:1008B00021F4D230C0F00115B1F08091790282FFAD
:1008C00012C082E00E94CC0B0E94DB0A91E0E82E6D
:1008D000E926EC2FE295EF70C03CB0F5F0E0ED5C5E
:1008E000FB4D0C947123E12CF4CF0C2F0F70C03111
:1008F00010F00295007F111599F0011559F080E272
:100900008D0F883010F0D11107C0802F0E94E60AA9
:100910000E949B0B8D2F51C0802F0E94F70AF8CFA9
:100920008D2F0E94D303011579F080E28D0F88305E
:1009300010F0D11104C0802F0E94EC0A03C0802F58
:100940000E94FD0A0E949B0BE11489F00E94D70AC5
:1009500080FD0DC0F60115820E94D10A0E94F706A3
:10096000C6010E943D060E94D10A0E940307CDB72E
:10097000DEB7E8E00C94A423FC2FFF70FF2EC07FAD
:10098000C03219F0F29480EFF822D11541F0D13045
:10099000D1F1111509F444C00115F1F0BBCF8091DC
:1009A000790282FD15C0111559F0F11429F08F2D2F
:1009B0000E94E60A0E949B0B80E00E948B03C4CF3A
:1009C00080E00E94D303F11409F4BECF8F2DB4CF81
:1009D000111569F0011104C08F2D0E942904B4CFB4
:1009E000013009F0B1CF8F2D0E941D0BADCF011149
:1009F000ABCF8F2D0E9430048F2D0E94290B8F2D9D
:100A00000E940C0BA1CF111521F0063008F09CCFED
:100A1000E3CF053008F098CF8F2D0E94300494CF9B
:100A20000115D1F3D93349F42FEF87EE93E021502C
:100A300080409040E1F700C000008D2F0E94D3035A
:100A400083CF8C2F869586958370811569F08130D0
:100A500009F07ACF8D2F9C2F9370111102C080E086
:100A600090E00E94D91970CF8D2F9C2F9370111197
:100A700002C080E090E00E94B31966CF612F8D2FF5
:100A80000E94810361CF8C2F8370811134C01111BA
:100A900024C04D2F429546954770440F440F8D2F2B
:100AA0008F70042E01C0880F0A94EAF72D2F207151
:100AB000D4FF07C02FE030E001C0220F4A95EAF7CB
:100AC0002095C695C695C370822BC23071F0C33095
:100AD00079F0C13039F00E94D3060E947D190E943E
:100AE000230332CF0E94CD06F8CF0E94D906F5CF5E
:100AF0000E94CA06F2CF111539F1C0FFEECF4D2F7B
:100B0000429546954770440F440F8D2F8F70042EE9
:100B100001C0880F0A94EAF72D2F2071D4FF07C077
:100B20002FE030E001C0220F4A95EAF72095C695E4
:100B3000C695C370822BC23069F0C33071F0C130EA
:100B400031F00E942507C9CF823038F2D8CF0E94F9
:100B50001F07C3CF0E942B07C0CF0E94E506BDCF61
:100B6000CF70111539F08C2F0E94F7068D2F0E943F
:100B70002904B3CF8D2F0E9430048C2F0E940307CD
:100B8000ACCFD23F41F170F4D03FC9F0D13F91F0EA
:100B9000111509F446C0011509F440C08D2F0E94BB
:100BA0008B039BCFD33FF1F0D43F91F78091790233
:100BB00082FD22C08C2F8F71111501F310C0111509
:100BC00041F0053008F089CF8C2F8F710E941307F8
:100BD00084CF0630F7CF8C2F8F711111CFCF0E94A9
:100BE000F7067BCF111529F08C2F8F710E94EE062E
:100BF00074CF0E94EA0671CF111531F063E08C2F9B
:100C00008F710E94AD0B69CF81E00E94CC0B023046
:100C100008F463CF82E00E94CC0B5FCF8C2F8F71E2
:100C2000DECF011579F0D93349F4EFEFF7EE23E089
:100C3000E150F0402040E1F700C000008D2F0E94FD
:100C4000D3034BCF8C2F8F7199CF0F931F93CF93DB
:100C5000DF93EC01688179818D810E94E2078C012C
:100C60000E9431070E94C906B801CE010E943704D4
:100C7000DF91CF911F910F910895CF93DF93EC01F6
:100C80008C81811599F0CE010E94A402811111C0BE
:100C90000E94DB0A811551F08D81811539F0809118
:100CA000790282FF03C082E00E94CC0BDF91CF91DA
:100CB0000895CE010E942506CE010E947302F6CF50
:100CC00080E090E00E94B31980E090E00E94D91982
:100CD0000E94050B0E949B0B0E9432150E94151565
:100CE00008950E94DD1A0E94600608950E94F40A89
:100CF0000E9471060895282F92959F70963099F062
:100D000060F4925F9F70923030F4203FB1F038F47D
:100D100081E0283E38F080E008959A5FF3CF81E0CB
:100D2000243FC9F7089591E0813F09F090E081E008
:100D3000283E08F080E0892B089581E00895FC01A9
:100D40008481811539F0808191810E94D5070E94AC
:100D50007B06089580E00895A6E0B0E0E2EBF6E0BF
:100D60000C948E232696E2E00C94AA23A7E0B0E030
:100D7000ECEBF6E00C948E232796E2E00C94AA2389
:100D800008950E94C00608950E94C1068093AD0197
:100D9000089508950E94C40608959091AD01892B8D
:100DA0000E94C40608959091AD0189230E94C40653
:100DB00008959091AD0189270E94C40608950E946C
:100DC000C00608950E94DF0608950E94E2068093FF
:100DD000AC01089580E00E94E506089591E001C00D
:100DE000990F8A95EAF7892F0E94E506089521E078
:100DF00030E001C0220F8A95EAF78091AC01822B86
:100E00000E94E506089521E030E0A90102C0440FE8
:100E1000551F8A95E2F7CA0180959091AC0189230C
:100E20000E94E506089521E030E001C0220F8A9576
:100E3000EAF78091AC0182270E94E506089590911F
:100E4000AC01892B0E94E50608959091AC0189239D
:100E50000E94E50608959091AC0189270E94E5065D
:100E6000089508959B01677091E001C0990F6A95FC
:100E7000EAF763E0369527956A95E1F7B901660FC1
:100E8000771F260F371FFA01E20FF31F40E050E0F3
:100E9000682F70E08191DF019B01042E02C036951E
:100EA00027950A94E2F721702195282729232827DE
:100EB0002E934F5F5F4F4330510561F708959C01BA
:100EC000A82FA77083E0369527958A95E1F7C90189
:100ED000880F991F820F931FFB01E80FF91F40E055
:100EE00050E080E0219130E00A2E02C0369527952F
:100EF0000A94E2F721703327042E01C0220F0A94CE
:100F0000EAF7822B4F5F5F4F4330510559F7089541
:100F1000282F862F933068F4253058F4622F70E024
:100F200025E0929F600D711D112446EA51E00E9458
:100F300032070895292F933068F4853058F490E0F3
:100F400066EA71E035E0239F800D911D11240E9417
:100F50005F07089580E00895A0E0B0E0E2EBF7E0DD
:100F60000C9489237C010091AC018091AD01082B88
:100F7000C3E0D0E010E0C8010C2E02C09595879523
:100F80000A94E2F780FD09C02197A8F7D12C8D2D96
:100F9000CDB7DEB7E7E00C94A523DC2EB7018C2F8C
:100FA0000E94C50E019781F3F2CFCF93DF93D82F24
:100FB000C92F0E94AC076D2F7C2F0E94C50EDF91B8
:100FC000CF9108951F93CF93DF93162FD72F909132
:100FD000A501911541F0862F972F0E94D507DF912B
:100FE000CF911F910895811581F0862F972F0E9430
:100FF000AC07C82F682F812F9D2F0E948807612F73
:101000007D2F8C2F0E94C50EEACF862F972F0E942E
:101010009A07C82FF4CFE1E0F0E0DF0102C0AA0F89
:10102000BB1F6A95E2F7BD01DF0102C0AA0FBB1F1B
:101030004A95E2F76A2B01C0EE0F2A95EAF7962F40
:101040009823961302C08E2B0895E0958E23089561
:10105000242F462F682F8091AC010E940B080E941C
:10106000E50608950F931F93CF93E091AE01C7E07B
:101070008091AF018E1304C0CF911F910F910895FD
:101080000E2F10E0CE9FF0011124E055FE4F20817D
:101090003181428153816481758186810E94B606C7
:1010A000F8013196E770E4CF2091E8013091E90131
:1010B0004091EA015091EB016091EC017091ED01DA
:1010C0008091EE010E94B60608958091EE01803174
:1010D00078F48091ED01811559F0E091AE012091F5
:1010E000AF013091E9014091E80157E02E1301C0B2
:1010F00008956E2F70E05E9FF0011124DF01A0556E
:10110000BE4F14968C911497811561F111968C91B4
:101110001197831327C08C91841324C015968C914A
:10112000159781111FC012968D919C91A091EA0193
:10113000B091EB018A1B9B0B883C910598F4809140
:10114000EE018F7080618093EE01EA54FE4F808142
:101150008F708061808388EE91E00E943D060E943E
:1011600032080895FB013196E770C0CFE091AE01DF
:101170009091AF0127E0E91302C080E00895AE2FFF
:10118000B0E02E9FF0011124E055FE4F318136135F
:1011900006C03081381303C03581341304C0FD010B
:1011A0003196E770E8CF81E008958F929F92AF92D9
:1011B000BF92DF92EF92FF920F931F93CF93DF9333
:1011C000CDB7DEB72D970FB6F894DEBF0FBECDBFFB
:1011D0008C0186E0F801DE01189601900D928A9547
:1011E000E1F7F801F580848198EE892E91E0992E3F
:1011F0009091EC0191111BC0811509F4FFC0F1140D
:1012000009F440C1C8010E949F06811509F43AC142
:1012100087E0F801D40101900D928A95E1F7C401AD
:101220000E9478030E9465080E945408E7C0E0808D
:10123000A280B380D090ED012091EA013091EB01C2
:10124000A501421B530BD11409F4DBC0483C5105E6
:1012500008F0A6C0811509F4D1C09091E9019180F0
:101260008091EE01803108F06BC0991228C09091F6
:10127000E8019E1124C0F1105DC08F7080618093E1
:10128000EE010E94540888EE91E00E943D06809194
:10129000EE01F8018683F12C8F2D2D960FB6F89470
:1012A000DEBF0FBECDBFDF91CF911F910F91FF9099
:1012B000EF90DF90BF90AF909F908F900895F110C6
:1012C00039C040E0692D8E2D0E94B60840E0692D9E
:1012D0008E2D0E94B608F82E8111DDCF8885998564
:1012E0000E94D507292F22952F70903450F49F70BB
:1012F000223080F0911599F0F8019681903178F4C0
:10130000CBCF2A5F2F70223078F0C8010E943D06B3
:10131000FD2CC2CF911519F0811509F4BDCF805E67
:10132000883008F4B9CFF1CF803F08F4B5CF815FA2
:101330008330F7CF8091EE0181608093EE01ABCFD7
:10134000991207C09091E8019E1103C0F11409F4AD
:1013500079C0C8010E949F06811509F493C0F11459
:1013600009F490C08091EE01803288F02091E8016C
:101370003091E9013A832983BC82AB829091EC01E0
:101380009D831E828F83CE0101960E943D0687E0D9
:10139000F801A8EEB1E001900D928A95E1F742CFF5
:1013A0009091EE019031A0F4488559856A857B853E
:1013B0008C859D850E94AC0688EE91E00E943D06DA
:1013C00087E0F40111928A95E9F70E94540863CFEF
:1013D0008115A1F02091E90181812813BACF809174
:1013E000E8018E11B6CFF110B4CF9683C8010E94E8
:1013F0003D0687E0F40111928A95E9F7FF24F39402
:101400004BCF483C510508F041C08115B9F3F114A8
:10141000C9F19091E901818198132AC08091E80176
:101420008E1126C08091EE0180FD19C08031B8F088
:101430008683807F803F39F08681982F907F905FF0
:101440008F70892B8683C8010E943D0687E0F801D2
:10145000A8EEB1E001900D928A95E1F7E5CE87E024
:10146000F801A8EEB1E001900D928A95E1F7C6CFA0
:10147000C8010E949F0681118ACF8091EE01816090
:101480008093EE01C8010E943D06B8CF488559857A
:101490006A857B858C859D850E94AC0691CFAEE0E8
:1014A000B0E0E5E5FAE00C948D23288739874A8778
:1014B0005B876C877D878E87CE0108960E94D50852
:1014C0006C858115A9F0611541F0288539854A851B
:1014D0005B857D858E850E94B60617E08091AE0102
:1014E0009091AF0189133AC02E96E3E00C94A923A2
:1014F00087E0FE013896DE01119601900D928A95E3
:10150000E1F7611551F3A091AF018A2F90E00196A8
:10151000877099272091AE012817190689F097E066
:101520009A9FD0011124A055BE4FFE013196019023
:101530000D929A95E1F78093AF010E943208CDCFCA
:101540000E9476061092AF011092AE0187E0E8EE9D
:10155000F1E0DF011D928A95E9F7BFCF189FC00126
:10156000112480559E4F0E94D508811509F4BCCFE7
:10157000E091AE011E9FF0011124E055FE4F208145
:101580003181428153816481758186810E94B606D2
:101590008091AE0190E00196877099278093AE010B
:1015A0009DCF8091170286958695869508958091A6
:1015B00017028770089590911702977081E091113A
:1015C00001C080E008958091430208959091430204
:1015D000982B909343020895982F90958091430201
:1015E00089238093430208951092430208959091B5
:1015F0004202982B909342020895982F90958091E3
:101600004202892380934202089510924202089573
:1016100008950E94080B089590911802292F2823FD
:10162000211531F080958923809318020E94090BBF
:10163000089508950E94190B089590911902292F79
:101640002823281729F0982B909319020E941A0B2F
:10165000089590911902292F2823211531F08095A2
:101660008923809319020E941A0B08958091190210
:10167000811529F01092190280E00E941A0B08953A
:10168000CF93C091430280914202C82B80911902EE
:10169000811531F0C82B0E94FF1981110E94360B71
:1016A0008C2FCF910895CF93DF93C0910201D091F9
:1016B00003010E94400B8883C0910201D091030175
:1016C00048E050E06FE072E0CE010E94C923892B10
:1016D00059F088E0FE01AFE0B2E001900D928A95EA
:1016E000E1F7CE010E948A19DF91CF910895CF933F
:1016F000DF93C0910001D09101010E94400B8983CA
:10170000C0910001D091010140E250E06FEE71E024
:10171000CE010E94C923892B59F080E2FE01AFEE71
:10172000B1E001900D928A95E1F7CE010E949519E2
:10173000DF91CF91089580911901811539F0809141
:10174000780287FF03C00E94770B08950E94530B15
:10175000089508950E94A90B0895962F209179026B
:1017600022FF11C0682F660F660F660F692B60930A
:1017700017020E94F7068091170286958695869536
:101780000E94AA0B08950E94F7060895109217026E
:1017900080E00E94AA0B08959091170280958923FA
:1017A00080931702282F277021110DC0891759F037
:1017B0009091790292FF07C08695869586950E9442
:1017C00003070E94C60B08959091790292FB22278D
:1017D00020F9281769F080FB92F9909379028091A3
:1017E0007802909179020E942C0C82E00E94CC0B2E
:1017F000089580917902002482FF0394802D0E9435
:10180000E40B089581E00E94E40B089580E00E94BB
:10181000E40B08956FEF7FEF80E090E00E941B24BF
:10182000089580E090E00E94E723853E9E4F19F4E2
:101830000E942618089580E0089582E090E00E94BA
:10184000DF23089583E090E00E94DF23089584E081
:1018500090E00E94E7230895BC0184E090E00E949C
:101860001B240895AB01BC018FE090E00E940F247F
:101870000895AB01BC0183E190E00E940F2408951C
:1018800060E070E0CB010E94390C089560E070E0E8
:10189000CB010E94320C0E94400C0895A8E0B0E0F9
:1018A000E4E5FCE00C948E2365EE7EEF80E090E0B2
:1018B0000E941B2460E082E090E00E94FD2381E012
:1018C0008093AD0161E083E090E00E94FD2360E041
:1018D00074E184E090E00E941B2460E086E090E0E8
:1018E0000E94FD2360E087E090E00E94FD2340E03D
:1018F00050E0BA0188E090E00E940F2460E083E2AB
:1019000090E00E94FD2360E08CE090E00E94FD23C7
:1019100060E08DE090E00E94FD2319821A821B8214
:101920001C821D821E821F82188648E050E067E1FB
:1019300070E0CE0101960E94ED2340E050E0BA0134
:101940008FE190E00E940F2480E00E943F180E94E7
:1019500071180E94460C2896E2E00C94AA230E947B
:101960004E0C0895682F8EE090E00E94FD230895AC
:10197000A6E0B0E0EEEBFCE00C948C230E94C51BCB
:101980008C0180914402909145028017910779F073
:1019900019821A820E94C51BBC0149815A8180E0CC
:1019A00090E00E944803109345020093440226965B
:1019B000E4E00C94A8230E94D11B60934D02709325
:1019C0004E0280934F0290935002609349027093AD
:1019D0004A0280934B0290934C0208950895089513
:1019E0000E94EE0C089508950E94F30C08958AEB6E
:1019F0009FE00E9415110E94EF0C0E94F00C0895C8
:101A000081E0089581E008950E94000D08950895F1
:101A100008950E94070D0E94080D08950E94110C60
:101A2000811102C00E94AF0C0E941D0C80935102D4
:101A30000E94270C90937902809378020E943811BB
:101A40000E94220C0E94CA068091AC010E94E2060C
:101A500008950E94BC1B0E9481180E9467100E947A
:101A60000E0D0E9422030E94F40C0895A6E0B0E03F
:101A7000ECE3FDE00C9485230E94020D81110AC065
:101A80000E94B80C0E9453150E942F032696EBE08B
:101A90000C94A1230E947D101091460280E00E94C8
:101AA000C40F18130EC01091470281E00E94C40FAA
:101AB000181307C01091480282E00E94C40F181743
:101AC000F9F28091510281FD0E94CA0F0E94040D1B
:101AD000C82E86E4A82E82E0B82E00E099249394C4
:101AE000802F0E94C40F182FF50191915F01891773
:101AF00031F1D82ED926F12CEE24E3948D2D8E21B0
:101B00008115B1F0C114A1F0F9820A830E94C51BAE
:101B10009C838B839D8291E0812F8E21811101C056
:101B200090E049815A816B817C818D810E944803BC
:101B3000F394EE0CF5E0FF12E1CFF50112930F5F85
:101B4000033071F60E94DB0C9DCF1F93CF93DF9380
:101B50000E94CA0EEC01811522E5920708F05DC0D3
:101B6000811540E5940708F0DBC0803E910528F51B
:101B70008D3C910508F0ACC0883A910578F4853A1F
:101B8000910508F0A2C08130910509F441C0049785
:101B9000813A9105E8F1C0E0D0E03AC0885A910955
:101BA0004B97C8F7C85AD0E0CC0FDD1FC05BDE4FA3
:101BB0000990D881C02DD4642BC0811550E49507BD
:101BC000F8F4C11580E2D80708F0C0C0C83ED105BE
:101BD000F8F0CE019A9581159F41E8F68D2F0E946D
:101BE0006B0F182FCE0199270E94CA0E212F30E0CB
:101BF000322F2227E901CC27DF71C82BD92B08C04F
:101C000099270E94CA0ECC27DF70C82BD92BD06A27
:101C1000CE01DF91CF911F910895803842E594075E
:101C2000C8F5803652E5950708F05BC0C03482E500
:101C3000D807D0F4C03292E5D90708F04BC08C2FFA
:101C40008695869520E2829FC0011124C37021E011
:101C500030E0A90102C0440F551FCA95E2F7EA011E
:101C6000C82BD92BDD68D4CF8C2F869586958770AD
:101C700050E2859FC0011124C37021E030E0A9012A
:101C800002C0440F551FCA95E2F7EA01C82BD92BB1
:101C9000DC68BECF803C52E5950758F48F71C03A9E
:101CA000D245A0F590E0982F8827EC01C46FD06A48
:101CB000AFCF805C9245809708F06DCFDC2FCC27AA
:101CC000CC27DF71C06FD06AA3CFA497D064A0CF18
:101CD000D0659ECFCF71D0E0DC2FCC27C16FD06A0A
:101CE00097CF86958695877020E2829FC001112448
:101CF000C37021E030E0A90102C0440F551FCA950E
:101D0000E2F7EA01C82BD92BDA6882CF0E946B0F69
:101D1000C82FD0E0DC2FCC27CC27DF71D06278CF62
:101D20008F710E946B0F53E0CC0FDD1F5A95E1F7C6
:101D3000CC27DF70282F30E084FF04C050E1859F5E
:101D400090011124C22BD32BD06962CF8D2F8F71BC
:101D50000E946B0F182FCE0199270E94CA0E212FC7
:101D600030E0322F222722273F71282B392BE9011F
:101D7000D5CF462F672F733028F4453018F40E94D2
:101D8000E911089580E090E008950E94B90E0E9444
:101D9000A50D08959C01803E910509F448C0D8F432
:101DA0008133910509F47DC048F48932910509F425
:101DB0006DC08A9709F47CC0C901089589339105E3
:101DC00051F18238910539F1C597B1F780917802C8
:101DD00085FFF2CF29C0843E910509F447C048F43D
:101DE000823E910599F1833E9105A9F121EE30E003
:101DF000E3CF863E910509F444C0873E9105E1F6A4
:101E00008091780283FD61C09091790291FF2BC08F
:101E100024EE30E0D1CF809178028370811152C0DE
:101E20008091790283FFC8CF29E230E0C5CF80914D
:101E3000780280FD33C09091790290FFBDCF23EEF0
:101E400030E084FFB9CF20E030E0B6CF8091780257
:101E500082FDF5CFB1CF8091780282FD30C09091A4
:101E6000790290FD2FC084FFA7CFEDCF809179023A
:101E700081FFA2CF8091780227EE30E084FDE3CF8E
:101E80009BCF8091780283FDF7CF96CF8091780227
:101E900085FD1EC08091790283FF8ECF29E330E05B
:101EA0008BCF8091780286FF87CF2AE230E084CF03
:101EB0008091780286FF80CF21E330E07DCF22EE53
:101EC00030E07ACF20EE30E077CF26EE30E074CFEE
:101ED00025E330E071CF9091780292FF10C041E08D
:101EE000282F2471243009F040E031E0282F287198
:101EF000283009F030E0431711F02CE0822793FFDF
:101F000010C041E0282F2471243109F040E031E075
:101F1000282F2871283109F030E0431711F02CE008
:101F200082273091790230FF10C051E0282F2171B3
:101F3000213009F050E041E0282F2871283009F0C5
:101F400040E0541711F029E0822731FF10C041E032
:101F5000282F2171213109F040E031E0282F28712C
:101F6000283109F030E0431711F029E0822794FD71
:101F7000877E089580E0089508950E94BC0F08951B
:101F800008950E94C00F0895E82FF0E0E358FD4F38
:101F900080810895089580EA8A95F1F7089500C038
:101FA00008950E94CB0F0895F894E82FE295EF7002
:101FB000F0E041A18F7021E030E0B90102C0660F6E
:101FC000771F8A95E2F7CB01962F9095942391A3E2
:101FD00092A1892B82A3789408950F931F93CF9396
:101FE000DF9384E90E94D40F86E60E94D40F87E92C
:101FF0000E94D40FC6E8D1E00BE811E089918F3F31
:1020000011F00E94D40F0C171D07C1F7DF91CF917B
:102010001F910F910895A0E0B0E0E1E1F0E10C9490
:102020008823EC01D62E062F10E0C80185579E4F5D
:102030007C01FC0180818F3F09F444C0F894E82FB3
:10204000E295EF70F0E091A18F7021E030E001C0E7
:10205000220F8A95EAF7892F822B81A382A12095EE
:10206000282322A378940E94CF0FA6E8B1E091E044
:10207000C12C8D918F3F79F0E82FE295EF70E05EF3
:10208000F0E0208130E08F7002C0359527958A9569
:10209000E2F7892F20FD80E0C82A990FF1E0AB38E4
:1020A000BF0739F7F70180818F3F11F00E94D40FED
:1020B00061E0C11001C060E08D2D0E94D10FC00F02
:1020C000D11FC882CDB7DEB7E8E00C94A4230E94EC
:1020D000ED0F83E0EDE7F2E0DF01982F1D929A9576
:1020E000E9F7EAE7F2E0DF011D928A95E9F783E07C
:1020F0000E94BB100E94BD0F0895A3E0B0E0E3E88A
:10210000F0E10C948C238E010F5F1F4F83E0F801E8
:1021100011928A95E9F760E0C8010E940B1061E016
:10212000C8010E940B1062E0C8010E940B1043E03E
:1021300050E0B8018AE792E00E94C92321E0892B90
:1021400081F420E043E06DE772E08AE792E00E94CC
:10215000BC10182F0E94C10F812F2396E4E00C942D
:10216000A82389819A81AB8180937A0290937B0224
:10217000A0937C02E7CF0895A0E0B0E0E2ECF0E1AC
:102180000C948823D82EE92EF62ED72F042FC22F99
:10219000211579F081E0809354020E94C51B909331
:1021A00053028093520280E0CDB7DEB7E8E00C9492
:1021B000A423C0905402C114B1F3809152029091B3
:1021C00053020E94DD1B059770F310E0A8016D2DEE
:1021D0007E2D8F2D9D2F0E94C923892B41F0A801B0
:1021E0006D2D7E2D8F2D9D2F0E94D623CC2D1092EC
:1021F00054028C2FD9CF0E94360D08950E945E1B89
:102200000E94CB1D0E94F70C0E94E51D0E94290D23
:102210000E94F21D0E94F71D0E94FB100E94111ED9
:102220000E949B1C0E94090DF5CF90939F01809303
:102230009E0108950E940A0C089580E00E94C40F38
:10224000817008950E947D102FEF86E791E0215064
:1022500080409040E1F700C000000E947D100E9485
:102260001D11811521F00E941A110E94101C089561
:102270000E942211089584E0089550E0440F551FF4
:102280009AE0699F400D511D11249EE1899F400DE8
:10229000511D1124CA01889608950F931F93CF935F
:1022A000DF938430C8F46330B8F44530A8F40E945A
:1022B0003D118C010E94DF23C82FD0E0DC2FCC27FA
:1022C000C80101960E94DF239E01282BC901DF91DE
:1022D000CF911F910F91089580E090E0F8CF0F9378
:1022E0001F93CF93DF93122F032F843078F4633042
:1022F00068F4453058F40E943D11EC01602F0E94B3
:10230000FD23612FCE0101960E94FD23DF91CF9125
:102310001F910F9108951F93CF93DF93D0E0C0E0FA
:1023200011C0412F6C2F8D2F0E9400029C01412F64
:102330006C2F8D2F0E946F111F5F153091F7CF5FAB
:10234000C33011F010E0EDCFDF5FD43041F7DF9103
:10235000CF911F910895EF92FF920F931F93CF9308
:10236000DF938C01EA017A01E60EF71ECE15DF0538
:1023700029F4CDB7DEB7E6E00C94A62380E0083759
:10238000110520F4C80188960E94DF2389930F5F0E
:102390001F4FECCFEF92FF920F931F93CF93DF93DA
:1023A0008C01EA017A01E60EF71ECE15DF0529F44D
:1023B000CDB7DEB7E6E00C94A6230837110528F464
:1023C0006881C80188960E94FD2321960F5F1F4FE8
:1023D000ECCF843038F4633028F4453018F40E9490
:1023E0004D11089580E090E0089580E1089580E621
:1023F00093E00895EF92FF920F931F93CF93DF9393
:102400008C01EA017A01E60EF71ECE15DF0529F4EC
:10241000CDB7DEB7E6E00C94A623003683E01807BC
:1024200048F4C80180569F4F0E94DF2389930F5FB5
:102430001F4FEBCF80E0FACFEF92FF920F931F93E5
:10244000CF93DF938C01EA017A01E60EF71ECE15D9
:10245000DF0529F4CDB7DEB7E6E00C94A6230036FD
:1024600083E0180730F46881C80180569F4F0E94AE
:10247000FD2321960F5F1F4FEACFCF93DF93C0EA72
:10248000D0E060E0CE010E94FD232196C11584E0DA
:10249000D807B9F7DF91CF910895A8E0B0E0E3E560
:1024A000F2E10C948623F82E20E1821708F067C031
:1024B0008FEF93E00E94DF23811161C000EA10E0FA
:1024C000F11033C0FE0131965F0188E011928A95C8
:1024D000E9F76801FFEFCF1ADF0AC8010E94DF2386
:1024E00089831A82811509F44AC08130C1F47801C8
:1024F00022E0E20EF11CC6010E94DF238A838115CF
:10250000F1F19FEF980F9330E8F482E0C80ED11CF0
:10251000C7010E94DF238B83811589F11C8260E053
:10252000C5010E94D8168601D4CF011584E0180792
:1025300031F1C8010E94DF230F5F1F4F8111F5CFDA
:10254000FA94BECF8430A1F402E010E0C701EFEFAF
:10255000EE1AFE0A0E94DF23F501E00FF11F8083CF
:10256000811569F08C3731F4FE01E00FF11F128202
:102570006701D5CF0F5F1F4F0730110539F7289638
:10258000EAE00C94A223CF93DF93EB0186319C47C2
:1025900019F50E94E30A9D819115A1F08A7A91E0D4
:1025A000811101C090E090935502811549F085E3B7
:1025B0000E94AF1A0E949B0B80E0DF91CF9108959B
:1025C00089E2F6CF80915502811521F085E30E94C2
:1025D000C61AF0CF89E2FBCF81E0EFCFCF93DF9334
:1025E000EC01FB018581811509F4CFC09E013057B4
:1025F0002332310508F0AFC00E94270C9093790276
:1026000080937802FE01E150F047E232F10520F4B8
:10261000E15CFB4D0C947123809178028160809382
:10262000780290C0809179028860809379028AC094
:10263000809178028260F3CF809178028460EFCF3E
:10264000809178028860EBCF809179028160EDCF34
:10265000809179028260E9CF809178028061DFCF3A
:10266000809178028062DBCF809178028064D7CF3E
:102670000E947606809178028068D1CF809178029E
:102680008C60CDCF809179028360CFCF809178022A
:102690008E7FC5CF80917902877FC7CF80917802E6
:1026A0008D7FBDCF809178028B7FB9CF80917802EA
:1026B000877FB5CF809179028E7FB7CF80917902E5
:1026C0008D7FB3CF809178028F7EA9CF80917802E1
:1026D0008F7DA5CF809178028F7BA1CF0E94760657
:1026E000809178028F779BCF80917802837F97CFFC
:1026F000809179028C7F99CF80917802992782FF0F
:10270000939590FB82F990FB83F989CF80917902B0
:10271000982F909590FB80F990FB81F986CF90914E
:102720007802892F8F7B96FF806479CF0E9476068E
:1027300090917802892F97FB87F9805870CF81E0BC
:102740000E94B20C80917802909179020E942C0C28
:102750000E94760680E0DF91CF91089580E0F0CF6F
:1027600090917802892F8F7E94FF806158CF90914D
:102770007802892F8E7F90FF816051CF90917902EE
:10278000892F877F93FF886050CF81E0E4CF282F87
:1027900035EB2303C001112497FF04C08058910931
:1027A000892F089580589F4FFBCF80915C0280FF56
:1027B0000DC06091090170E0660F771F60387105E8
:1027C000B0F561157105A9F1862F089581FF07C045
:1027D0006091090184E0689FB0011124EFCF82FF6E
:1027E00004C06091090188E0F6CF90915B029115D9
:1027F000D9F02091080180910901682F70E09217AB
:1028000030F043E0660F771F4A95E1F7D7CF899FF5
:10281000C001112433E0880F991F3A95E1F7622F28
:1028200070E00E945D23CACF68E070E0CDCF8FE7F3
:10283000089581E0089580915C0280FF0CC0609152
:10284000050170E07595679575956795611571053A
:1028500049F1862F089581FF06C06091050170E05F
:1028600075956795F3CF6091050182FD0BC090913E
:102870005A029115A1F0609104018091050196170B
:1028800038F0682F70E06038710500F38FE7089525
:10289000899FC001112470E00E945D23F4CF61E0A4
:1028A00070E0D7CF81E00895E3E3E80FE331E0F58E
:1028B000F0E0EF59FB4D0C9471230E94D5138195E4
:1028C0008093600208950E94D513FACF0E94D51319
:1028D000819580935F0208950E94D513FACF0E94DC
:1028E0001B148093610208950E941B148195F9CFF7
:1028F0000E941B1481958093620208950E941B140C
:10290000FACF815D990B21E030E001C0220F8A955A
:10291000EAF780915E02822B80935E020895809197
:102920005C02816080935C02089580915C02826009
:10293000F9CF80915C028460F5CF40915F028D3CBD
:1029400059F48091600287FF0DC01092600241151A
:1029500059F410925B0208C08E3C81F480916002B1
:1029600018169CF3411581F08091610290916202EA
:10297000892B811159C010925A0208958F3C41F45D
:1029800047FFF0CF10925F02809160028115E0CF87
:10299000803D19F41416B4F3E5CF90916102893D9E
:1029A00029F41916FCF610926102DCCF8A3D19F465
:1029B00097FFD8CFF8CF909162028B3D29F497FF13
:1029C000D1CF10926202CECF8C3D19F41916CCF300
:1029D000C9CF9FE2980F983090F4815D990B21E068
:1029E00030E0B90102C0660F771F8A95E2F7CB018C
:1029F000809590915E02892380935E02B3CF8D3DD6
:102A000031F480915C028E7F80935C02ABCF8E3D6F
:102A100021F480915C028D7FF7CF8F3D09F0A2CF2A
:102A200080915C028B7FF0CF08950E94C51B20919E
:102A30005F0230916002232B211521F08093580210
:102A4000909359022091610230916202232B21154B
:102A500021F080935602909357028DE592E00E94F8
:102A6000A419089586E0EDE5F2E0DF011D928A9554
:102A7000E9F710925B0210925A0210925C020895DC
:102A8000FC01828181110DC0838181110AC0848182
:102A9000811107C081E09581911101C080E08170B2
:102AA000089581E0FCCFA6E0B0E0E9E5F5E10C9403
:102AB000882386E0EDE5F2E09E012F5F3F4FD901CC
:102AC00001900D928A95E1F710925F0210926002D8
:102AD00010926102109262028B819C81892B790194
:102AE000811589F080915802909159020E94DD1B56
:102AF0006C0180915B028115B9F190910A019C15DE
:102B00001D0408F43EC08D819E81892B811591F0B2
:102B100080915602909157020E94DD1B8C0180919A
:102B20005A02811509F45FC09091060190171106B1
:102B300008F467C0B7018DE592E00E94F71A811191
:102B400005C08DE592E00E94401581110E94151587
:102B500086E0F701ADE5B2E001900D928A95E1F7CC
:102B60002696E8E00C94A42320910B019AE0299F7B
:102B7000900111242C153D0530F68F5F80935B0288
:102B800002C08F3FD1F7DB80D11459F00E94D513DA
:102B900091E01D140CF09FEF899F802D11248093EC
:102BA0005F02DC80D11459F00E94D51391E01D140E
:102BB0000CF09FEF899F802D1124809360028091FB
:102BC0005F02811509F49FCFD0906002D11409F4FF
:102BD0009ACF0E94C71380935F028D2D0E94C71366
:102BE0008093600290CF209107019AE0299F900185
:102BF00011242017310708F09DCF8F5F80935A0270
:102C000002C08F3FD1F71D81111559F00E941B148E
:102C100091E011160CF09FEF899F802D1124809375
:102C200061021E81111559F00E941B1491E01116CA
:102C30000CF09FEF899F802D112480936202809178
:102C40006102811509F476CF10916202111509F421
:102C500071CF0E94C71380936102812F0E94C71316
:102C60008093620267CFA0E0B0E0E9E3F6E10C9464
:102C70008723E82FF0E0EC5DFE4FB490282F2695D7
:102C80002695269530E0F901EC53FE4F04918770AC
:102C900010E0082E02C0159507950A94E2F701701E
:102CA0001127F901EC54FE4FE490F12C082E02C0DC
:102CB000F594E7940A94E2F7E0FAEE24FF24E0F8B2
:102CC000F901EC55FE4FC491D0E002C0D595C795EF
:102CD0008A95E2F7C170DD27C62ED12C01151105AA
:102CE00049F5E114F10431F086EE0E948B03C60130
:102CF000009771F5B6018B2D0E940604C60100975E
:102D000079F5E114F104A1F50115110531F081EE19
:102D10000E94D303C6010097C9F5CD2B31F08CE298
:102D20000E942004C114D104C9F5CDB7DEB7E9E093
:102D30000C94A32381EE0E948B03C601009789F2B5
:102D4000EFE9FFE03197F1F700C000000197F6CFFF
:102D5000EFE9FFE03197F1F700C000000197C8CF1D
:102D6000EFE9FFE03197F1F700C000000197C7CF0E
:102D700086EE0E94D303C601009731F2EFE9FFE02F
:102D80003197F1F700C000000197F6CFEFE9FFE0BF
:102D90003197F1F700C000000197BDCF8FE99FE0A8
:102DA0000197F1F700C0000091E0C91AD108BACF2D
:102DB000EF92FF921F93CF93DF93EC01162F888140
:102DC000811509F45AC0813009F053C089818130DE
:102DD00071F47E0182E0E80EF11C8A810E942004D9
:102DE000E701812F90E00097E1F52196E8CF82304E
:102DF00041F47E01E2E0EE0EF11C8A810E948B0319
:102E0000EFCF833041F47E01F2E0EF0EF11C8A81B6
:102E10000E94D303E5CF843011F02196E2CF2A81BE
:102E2000229680E090E06AE0AE014F5F5F4F205352
:102E3000330B2A30310550F0009799F2EFE9FFE0AB
:102E40003197F1F700C000000197F6CF689FF001BD
:102E5000699FF00D1124C9018E0F9F1F2981EA017E
:102E6000E3CFEFE9FFE03197F1F700C000000197F1
:102E7000BACF612F0E943316B8CFDF91CF911F9147
:102E8000FF90EF9008950F931F93CF93DF93C42F7C
:102E9000D22FFC0185818115C9F0409365020E9403
:102EA000C51B909364028093630280E28C0F88308C
:102EB00040F4C77081E001C0880FCA95EAF70E940C
:102EC0002904DF91CF911F910F9108951091650210
:102ED000141333C080916302909164020E94DD1B41
:102EE000883C910550F5C0E2CD0F1D17C1F080E27E
:102EF000810F883040F4177081E001C0880F1A9567
:102F0000EAF70E943004C83050F491E08D2F8770AA
:102F100001C0990F8A95EAF7892F0E942904802F12
:102F20000E942004C83068F6D77081E001C0880F85
:102F3000DA95EAF70E943004C4CF80E28C0F883023
:102F400008F0BFCFC77081E001C0880FCA95EAF7CB
:102F5000F1CF0F93DB01FC01E851FC47E730F105AD
:102F600098F5EC58FB4D0C94712306E221EE41EEEE
:102F70006AE17CE7CD010E94431780E00F9108953C
:102F800007E225EE45EE6BE17CE7F4CF06E221EEA9
:102F900040EE68E17CE7EECF07E225EE44EE69E122
:102FA0007CE7E8CF06E221EE42EE6CE17CE7E2CF7F
:102FB00007E225EE46EE6DE17CE7DCCF08E221E09A
:102FC00045EE6EE17CE7D6CF15968C91811110927B
:102FD000650281E0D3CFCF93DF939C01FB012737BC
:102FE0008CE7380739F028373C47F1F081E0DF9172
:102FF000CF9108958581811591F00E941D180E943E
:10300000F7060E942318D82F0E942018C82F0E946C
:103010001D184D2F6C2F0E94280880E0E8CF0E94D9
:103020001D180E940307EDCF8581811519F00E94BC
:103030002018E5CF0E942018F4CF80910E0108954A
:1030400080910D01089580910C01089584E290E033
:103050000E94DF23843289F485E290E00E94DF231E
:10306000893059F486E290E00E94DF2391E08430B9
:1030700009F090E0892F8170089580E0FCCFCF9314
:10308000C82F64E2811101C06FEF84E290E00E94DA
:10309000FD2369E0C11101C06FEF85E290E00E945D
:1030A000FD2364E0C11101C06FEF86E290E00E9451
:1030B000FD23CF910895089587E290E00E94DF23D9
:1030C000682F70E080E090E008950895CF93C62FB8
:1030D0000E9465186C2F87E290E00E94FD23CF913B
:1030E000089580E00E943F1860E070E0CB010E94EC
:1030F00066180E948B110E943D1281E00E943F18C9
:1031000008950E945B180E945C180E9465180E9436
:103110002618811102C00E947118089508959C011B
:10312000FB018581811551F0A901575740385105A0
:1031300030F4822F0E944D1280E0089581E00895BE
:103140002FEFFC01208308950E94A018089580E0CD
:103150000895CF92DF92FF920F931F93CF93DF9347
:10316000EC01F62E0E94A718811110C0E881E150F1
:10317000E331E0F4F0E0E558FB4D0C947123198243
:103180008CE08A836F2DCE010E94911CDF91CF913C
:103190001F910F91FF90DF90CF9008958981833028
:1031A000F9F038F4813061F0823099F08FEF888344
:1031B000E9CF8430D9F71A821B821C821D82E2CFAC
:1031C0000E94D11B0E9477236A837B838C839D831B
:1031D000D9CF0E945C181A821B821C826D83D2CFC9
:1031E0000A8110E06E0183E0C80ED11C0330110586
:1031F0004CF6802F0E94C40FF60181936F010F5F80
:103200001F4FF4CF8981823031F0853079F68A8181
:103210000E948E18B7CF6A817B818C819D810E942C
:1032200077230E946618AECF4B816A8189810E9404
:103230004D119827892798279D838C83A3CF2C81B4
:103240003D813227232732274B816A8189810E9461
:103250006F1198CF0E948B1195CF6F2DCE010E94D8
:10326000A41890CF0E94F51189838CCF0E94F7118A
:103270009827892798279A83898384CF6B8170E068
:1032800089819A81AE014C5F5F4F982789279827E3
:103290000E94FA1177CF6B8170E089819A81AE012B
:1032A0004C5F5F4F9827892798270E941C126ACF8E
:1032B0000E943D1267CF0E943B11D6CF6B8170E018
:1032C00089819A81AE014C5F5F4F982789279827A3
:1032D0000E94AB1157CF6B8170E089819A81AE015A
:1032E0004C5F5F4F9827892798270E94CA114ACFC1
:1032F00090936B0280936A020895E0916A02F091C4
:103300006B02309729F00190F081E02D0995089526
:1033100080E00895E0916A02F0916B02309721F00D
:103320000280F381E02D09950895DC01E0916A02A5
:10333000F0916B02309739F086E08C930480F58130
:10334000E02DCD0109950895DC01E0916A02F0912C
:103350006B02309739F082E08C930680F781E02D84
:10336000CD0109950895A3E0B0E0E9EBF9E10C94F3
:103370008E239C01809168029091690282179307C5
:10338000A1F03093690220936802E0916A02F09103
:103390006B02309751F083E089833B832A8300845A
:1033A000F185E02DCE01019609952396E2E00C947B
:1033B000AA23A3E0B0E0EFEDF9E10C948E239C0189
:1033C000809166029091670282179307A1F0309373
:1033D000670220936602E0916A02F0916B023097D7
:1033E00051F084E089833B832A830084F185E02DBA
:1033F000CE01019609952396E2E00C94AA23209130
:103400000201309103012E5F3F4F80911901811518
:1034100079F08091780287FF0BC0209100013091F4
:1034200001012E5F3F4F9EE180E0915018F4089516
:1034300096E0FACFF90141919F014115B1F38F5FF9
:10344000F4CF8115A1F190911901911521F090917E
:10345000780297FD0FC02091020130910301F9011C
:103460003296285F3F4F9191981719F1E217F307B1
:10347000D1F71DC0982F969596959695803FB8F4F4
:10348000E0910001F0910101E90FF11D228130E08E
:10349000877041E050E0BA0102C0660F771F8A953D
:1034A000E2F7CB012623392381E0232B19F480E0B6
:1034B000089581E008959C01FC0132968FEF90E021
:1034C0004191461751F08F3F19F4411101C0892FE6
:1034D0009F5F9630A9F78F3F09F40895280F311D9B
:1034E00087FD3A95F901628308959C01FC013296AB
:1034F000285F3F4F8191861302C0DF011E92E217C1
:10350000F307C1F70895FC01862F86958695869569
:10351000603F60F4E80FF11D677021E030E001C00A
:10352000220F6A95EAF78281822B82830895FC013B
:10353000862F869586958695603F80F4E80FF11D6D
:10354000677081E090E09C0102C0220F331F6A95F2
:10355000E2F7B90160958281682362830895682F3C
:1035600080911901811559F08091780287FF07C079
:1035700080910001909101010E94831A0895809129
:103580000201909103010E945B1A0895682F8091B7
:103590001901811559F08091780287FF07C0809149
:1035A0000001909101010E94971A089580910201F3
:1035B000909103010E94751A089580911901811557
:1035C00079F08091780287FF0BC0E0910001F091C3
:1035D000010132968EE1DF011D928A95E9F7089587
:1035E000E0910201F0910301329686E0F4CFDC0114
:1035F000FB0111969C9111978181981322C012961C
:103600008C911297811519F0928189131AC0139623
:103610008C911397811519F09381891312C0159617
:103620008C911597811519F0958189130AC014960C
:103630009C91911521F081E02481291303C080E041
:1036400001C081E08170089508950E94241B0895AF
:103650008F5F80936C020E94251B089583E0809306
:103660006C020E94251B08950E94281B089581E08A
:1036700080936C020E94251B08950E94371B0895B9
:10368000089508950E94411B0895089508950E9489
:10369000401B0895CF930E94451B0E947D100E94FD
:1036A000461BC0E08C2F0E94C40F811105C0CF5F64
:1036B000C330C1F7CF91089581E0FCCF85B7806812
:1036C00085BF85B7806885BF08951F921FB61F927A
:1036D00011248F939F93AF93BF9380916D028111BB
:1036E00013C08091800290918102A0918202B091DA
:1036F00083024196A11DB11D8093800290938102A7
:10370000A0938202B0938302BF91AF919F918F915A
:103710001F901FBE1F90189580918802843031F150
:103720000E94060310926D0288E190E020E40FB63B
:10373000F894A895809360000FBE2093600083B733
:10374000817F846083BF83B7816083BF78948895CD
:1037500083B78E7F83BF0FB6F894A89580916000E1
:10376000886180936000109260000FBE08950E94EF
:1037700076060E940B03089582E084BD93E095BD18
:103780009AEF97BD80936E0008952FB7F8948091BB
:10379000800290918102A0918202B09183022FBF9A
:1037A00008952FB7F8946091800270918102809102
:1037B0008202909183022FBF08959C014FB7F89425
:1037C0008091800290918102A0918202B091830247
:1037D0004FBF821B930B089578941F921FB61F92C0
:1037E00011248F939F93AF93BF9380918002909108
:1037F0008102A0918202B09183020196A11DB11DA8
:103800008093800290938102A0938202B0938302FE
:10381000BF91AF919F918F911F901FBE1F901895E0
:1038200081E08093E00080E28093D8001092C9008C
:103830008FE19EE40197F1F700C0000087E090EB74
:10384000DC018093910290939202A0939302B09333
:10385000940288E19CE00FB6F894A89580936000EC
:103860000FBE90936000FFCF88E19CE00FB6F89404
:10387000A895809360000FBE90936000FFCF809169
:1038800076020895282FCB01BA0130918802343096
:10389000D9F42F702093E9002FEF3091E80035FD27
:1038A00006C035ED3A95F1F700002A95B1F7209161
:1038B000E80025FF09C040E050E00E94871E80918B
:1038C000E8008E778093E8000895BC0143E050E063
:1038D00084E00E94421C0895BC0146E050E084E070
:1038E0000E94421C0895BC0140E250E084E00E9426
:1038F000421C0895CF93DF93D82FC92F48E050E0A2
:10390000682F792F81E00E94421C88E0ED2FFC2F68
:10391000AEE6B2E001900D928A95E1F7DF91CF918A
:103920000895792F603231F440E250E0682F82E050
:103930000E94421C0895A0E2B0E0E1EAFCE10C9490
:103940008E2380918802843009F583E08093E9001A
:103950008091E80082FF1AC08091E80090E085FF26
:1039600009C040E050E060E270E0CE0101960E94A4
:10397000D71E91E08091E8008B778093E800911545
:1039800029F060E2CE0101960E94A918A096E2E01B
:103990000C94AA2380918702811109C00E946020A3
:1039A0000E94BD208091E20084608093E20008952F
:1039B0001092870208950E94371B08956091840237
:1039C00081E0611101C080E00E942E1B089590915A
:1039D000880281E0943009F080E0609184020E94C6
:1039E000341B089542E061EC81E00E94DC1F42E25A
:1039F00061EC84E00E94DC1F42E261EC82E00E9404
:103A0000DC1F42E260EC83E00E94DC1F90918802A0
:103A100081E0943009F080E0609184020E94281BCC
:103A2000089580918A02893089F148F4823009F43E
:103A3000A1C0833009F45BC0813041F008958A3021
:103A400009F488C08B3009F46DC008958091890213
:103A5000813A09F04BC08091E800877F8093E800AD
:103A600080918D0290918E02892B61F060E080E060
:103A700090E070E00E94271F8091E8008B77809390
:103A8000E800089568E08EE692E0F3CF8091890225
:103A9000813261F580918D0290918E028D7F892B0C
:103AA00029F58091E800877F8093E8008091E80005
:103AB00082FF18C09091F3008091F200029731F4D8
:103AC0008091F100813011F0863021F48091F10075
:103AD000809376028091E8008B778093E8000E94C3
:103AE00010200895809188028111E0CF089580917F
:103AF0008902813AD9F780918D0290918E02892BAB
:103B0000A9F78091E800877F8093E8008091E80022
:103B100080FFFCCF809119018093F1008091E80033
:103B20008E77DBCF80918902813201F780918D02FF
:103B300090918E02892BD1F68091E800877F809347
:103B4000E8000E94102080918B02809319010E944E
:103B50007606089580918902813241F68091E800CD
:103B6000877F8093E8000E94102080918C028093D0
:103B70007702089580918902813A09F0B7CF809148
:103B8000E800877F8093E8008091E80080FFFCCF09
:103B900080917702C1CF84B7877F84BF0FB6F89436
:103BA000A895809160008861809360001092600009
:103BB0000FBE80E890E00FB6F89480936100909378
:103BC00061000FBE0E943D1B08950E9460200E946C
:103BD000BD20E2EEF0E080818460808378940E94D2
:103BE000432308958FE091E00E9478190895809111
:103BF0008802853031F480918802853019F00E9466
:103C0000B71B08950E948C1B0E944A1B811599F3D3
:103C100080918602811579F30E94711E0E947606BA
:103C2000EACF08959A0140918F02509190020E942C
:103C30001A1E0895FC01AB01D901892F9927833001
:103C40009105C1F068F48130910509F445C00297EF
:103C500061F48BE590E022E032E02D933C930895EF
:103C600081329105E1F0829739F180E090E020E027
:103C700030E0F3CFCF019927E13059F08230910540
:103C800059F0EEEFF1E0892B81F7849190E09F01EC
:103C9000E4CFEAEEF1E0F9CFE4EDF1E0F6CF633006
:103CA000710518F7FB01EE0FFF1FE956FE4F20814B
:103CB000318189E090E0D1CF63307105B0F6FB012E
:103CC000EE0FFF1FEF56FE4F2081318142575E4FAE
:103CD000FA01808190E0C1CF82E190E02DE532E0F1
:103CE000BCCF80E189BD82E189BD09B400FEFDCF72
:103CF0008091D8008F7D8093D8008091E000826011
:103D00008093E0008091E00081FDFCCF0895AF92A8
:103D1000BF92CF92DF92EF92FF920F931F93CF93B8
:103D20006C018B017A010E942F20C82F811123C0C2
:103D3000E114F10439F0F70180819181081B190B1E
:103D4000C80ED91EA12CB12C01151105A1F080912E
:103D5000E80085FD21C08091E8008E778093E8001F
:103D6000E114F10499F0F701808191818A0D9B1D86
:103D700091838083C5E08C2FCF911F910F91FF908D
:103D8000EF90DF90CF90BF90AF9008950E942F20CA
:103D90008115E9F2C82FEFCFF60181916F01809371
:103DA000F10001501109FFEFAF1ABF0ACDCFAF925A
:103DB000BF92CF92DF92EF92FF920F931F93CF9318
:103DC0006C018B017A010E942F20C82F811123C022
:103DD000E114F10439F0F70180819181081B190B7E
:103DE000C80ED91EA12CB12C01151105A1F080918E
:103DF000E80085FD21C08091E8008B778093E80082
:103E0000E114F10499F0F701808191818A0D9B1DE5
:103E100091838083C5E08C2FCF911F910F91FF90EC
:103E2000EF90DF90CF90BF90AF9008950E942F2029
:103E30008115E9F2C82FEFCF8091F100F60181934F
:103E40006F0101501109FFEFAF1ABF0ACDCFFC017E
:103E50009B0180918F02909190028617970718F02E
:103E6000672B61F0C90140E0009771F441110CC06B
:103E70008091E80082FF35C080E008958091E800DD
:103E80008E778093E800EECF209188022115A9F16A
:103E90002530A9F12091E80023FD2DC02091E800F4
:103EA00022FDE6CF2091E80020FFDECF3091F30025
:103EB0002091F200009719F02830310558F041E0C8
:103EC0002830310509F040E02091E8002E7720935A
:103ED000E800CACF41914093F10001972F5F3F4F17
:103EE000E9CF80918802811541F0853041F08091C1
:103EF000E80083FFBDCF81E0089582E0089583E06C
:103F00000895FC019B0180918F0290919002861789
:103F1000970718F0672B61F0C90140E0009771F432
:103F200041110CC08091E80082FF36C080E0089506
:103F30008091E8008E778093E800EECF2091880290
:103F40002115B1F12530B1F12091E80023FD2EC0FB
:103F50002091E80022FDE6CF2091E80020FFDECF8F
:103F60003091F3002091F200009719F028303105CC
:103F700058F041E02830310509F040E02091E80098
:103F80002E772093E800CACF44914093F1003196F8
:103F900001972F5F3F4FE8CF80918802811541F054
:103FA000853041F08091E80083FFBCCF81E0089527
:103FB00082E0089583E00895982F973028F08F705D
:103FC0008093E90081E008959093E900242F762FF3
:103FD00050E0981731F07091EC002091ED00509175
:103FE000F00021FD02C09F5FE8CF3091EB003E7FE3
:103FF0003093EB003091ED003D7F3093ED00309138
:10400000EB0031603093EB007093EC002093ED00F7
:104010005093F0002091EE0027FDE5CF80E0089559
:104020008091890287FF13C08091E80082FF06C05B
:104030008091E8008B778093E80008958091880252
:104040008111F2CF0895809188028115D9F3809172
:10405000E80080FFF8CF8091E8008E77ECCF2091C8
:10406000E4003091E50095E6A9012091EC00822F53
:10407000817020FF06C08091E80080FF06C080E0CC
:1040800008952091E80022FD1AC0809188028115D0
:1040900089F0853089F08091EB0085FD0FC020917B
:1040A000E4003091E50042175307F9F29A95E1F6E2
:1040B00084E0089582E0089583E0089581E0089502
:1040C0000E94CF200E94D720E0EEF0E08081816046
:1040D0008083E8EDF0E080818F77808319BCA7EDC5
:1040E000B0E08C918E7F8C9380818F7E8083109244
:1040F000870208950F931F93CF93DF930E94CF20E1
:104100000E94D720C8EDD0E088818F77888388818E
:104110008068888388818F7D888319BC109288028B
:1041200010928402109286021092850200EE10E036
:10413000F80180818B7F808388818160888342E061
:1041400060E080E00E94DC1FE1EEF0E080818E7F85
:104150008083E2EEF0E080818160808380818860EE
:104160008083F80180818E7F80838881806188834D
:10417000DF91CF911F910F910895E8EDF0E08081DC
:104180008F7E8083E7EDF0E080818160808384E032
:1041900082BF81E0809387020E947A200895E8ED33
:1041A000F0E080818E7F80831092E200089510926B
:1041B000DA001092E10008951F920F920FB60F924D
:1041C00011242F933F934F935F936F937F938F931C
:1041D0009F93AF93BF93EF93FF938091E10082FF92
:1041E0000BC08091E20082FF07C08091E1008B7FCD
:1041F0008093E1000E9442238091DA0080FF19C081
:104200008091D80080FF15C08091DA008E7F809366
:10421000DA008091D90080FF94C080E189BD82E1FD
:1042200089BD09B400FEFDCF81E0809388020E9421
:10423000CA1C8091E10080FF19C08091E20080FFDC
:1042400015C08091E2008E7F8093E2008091E200B1
:1042500080618093E2008091D80080628093D800D2
:1042600019BC85E0809388020E94DE1C8091E100E9
:1042700084FF29C08091E20084FF25C080E189BDD0
:1042800082E189BD09B400FEFDCF8091D8008F7D09
:104290008093D8008091E1008F7E8093E10080912F
:1042A000E2008F7E8093E2008091E2008160809343
:1042B000E20080918402811509F449C084E0809372
:1042C00088020E94E71C8091E10083FF29C0809151
:1042D000E20083FF25C08091E100877F8093E100A9
:1042E00082E080938802109284028091E1008E7FA8
:1042F0008093E1008091E2008E7F8093E2008091C4
:10430000E20080618093E20042E060E080E00E9491
:10431000DC1F8091F00088608093F0000E94DB1C1D
:10432000FF91EF91BF91AF919F918F917F916F918D
:104330005F914F913F912F910F900FBE0F901F9063
:10434000189519BC109288020E94D81C72CF8091D7
:10435000E30087FF02C083E0B2CF81E0B0CF1F92BD
:104360000F920FB60F921124EF92FF920F931F93AB
:104370002F933F934F935F936F937F938F939F936D
:10438000AF93BF93CF93EF93FF9309EE10E0F80143
:104390008081C091EC008F70C795CC27C795C82B42
:1043A000108280EFE82EF12CF7018081877F8083D7
:1043B00078940E94FA21F8011082F70180818860C8
:1043C0008083CF70F801C083FF91EF91CF91BF91AF
:1043D000AF919F918F917F916F915F914F913F919D
:1043E0002F911F910F91FF90EF900F900FBE0F90A4
:1043F0001F901895AAE2B0E0E0E0F2E20C948C2362
:1044000089E892E0FC0101962091F100208322E0EE
:1044100081399207B9F70E94111D8091E80083FF4E
:1044200038C08091890290918A029A3090F5E92FE4
:10443000F0E0E257FB4D0C947123803889F082380C
:1044400041F580918D028F70873018F58093E900D7
:104450008091EB0085FB882780F91092E90006C067
:1044600080918602880F90918502892B9091E800B7
:10447000977F9093E8008093F1001092F100809173
:10448000E8008E7723C0811116C080918B028130A5
:1044900011F18091E80083FF0AC08091E800877FD6
:1044A0008093E8008091EB0080628093EB00AA96F5
:1044B000E4E00C94A823823061F780918B0281158F
:1044C00089F01092E9008091E800877F8093E800EE
:1044D0000E941020DECF81E0933009F080E08093CD
:1044E0008602EFCF80918D028F702FEF280F26303C
:1044F00080F68093E9002091EB0020FFE2CF93301B
:1045000031F48091EB0080628093EB00DACF9091E0
:10451000EB0090619093EB0021E030E0A90102C034
:10452000440F551F8A95E2F74093EA001092EA0083
:104530008091EB008860E8CF8111ABCF10918B02A6
:104540001F778091E3008078812B8093E300809136
:10455000E800877F8093E8000E9410208091E800A7
:1045600080FFFCCF8091E30080688093E30083E0CC
:10457000111101C082E0809388028BCF8058823075
:1045800008F087CF80918B0290918C028C3D53E094
:10459000950799F583E08A838AE289834FB7F89477
:1045A000DE01139620E03EE051E2E32FF0E050936D
:1045B0005700849120FF03C082958F703F5F8F70FA
:1045C0008A30C8F0895C90E08D939D932F5F2431F1
:1045D00061F74FBF8091E800877F8093E8006AE22F
:1045E00070E0CE0101960E94271F8091E8008B7732
:1045F0008093E8004ECF805DE6CF60918D02709190
:104600008E02AE014F5F5F4F0E94121E8C01892BFC
:1046100009F43FCF8091E800877F8093E800B801DC
:1046200089819A810E94811FE0CF803809F031CFC3
:104630008091E800877F8093E800809184028093D6
:10464000F1001DCF811125CF90918B02923008F09F
:1046500020CF8091E800877F8093E80090938402C8
:104660000E94102080918402811531F084E08093B3
:1046700088020E94F21C0DCF8091E30087FDF6CFE7
:1046800081E0F5CF0895CF9380918802811599F04C
:104690008091E900C091EC008F70C795CC27C79539
:1046A000C82B1092E9008091E80083FD0E94FA2156
:1046B000CF70C093E900CF91089597FB072E16F4B1
:1046C000009407D077FD09D00E94B52307FC05D0E0
:1046D0003EF4909581959F4F0895709561957F4F19
:1046E0000895EE0FFF1F0590F491E02D09946927BE
:1046F0009627692778278727782708952F923F9252
:104700004F925F926F927F928F929F92AF92BF92E1
:10471000CF92DF92EF92FF920F931F93CF93DF938D
:10472000CDB7DEB7CA1BDB0B0FB6F894DEBF0FBEEA
:10473000CDBF09942A88398848885F846E847D8437
:104740008C849B84AA84B984C884DF80EE80FD8039
:104750000C811B81AA81B981CE0FD11D0FB6F894AF
:10476000DEBF0FBECDBFED010895AA1BBB1B51E1FB
:1047700007C0AA1FBB1FA617B70710F0A61BB70BD1
:10478000881F991F5A95A9F780959095BC01CD0176
:104790000895FB01DC0104C08D910190801921F482
:1047A00041505040C8F7881B990B0895FB01DC016C
:1047B00002C001900D9241505040D8F70895F999E8
:1047C000FECF92BD81BDF89A992780B50895A8E1E2
:1047D000B0E042E050E00C942324DC01A40FB51FAC
:1047E0004150504048F0CB01840F951F2E910E94FC
:1047F000FE2341505040D0F70895262FF999FECF5F
:1048000092BD81BDF89A019700B4021639F01FBA23
:1048100020BD0FB6F894FA9AF99A0FBE0895039640
:10482000272F0E94FE230E94FD23252F0E94FE2396
:10483000242F0C94FE230196272F0E94FE230C9414
:10484000FD23DC01CB01FC01F999FECF06C0F2BDCE
:10485000E1BDF89A319600B40D9241505040B8F73E
:104860000895F894FFCF75047504BC04BC042105B9
:104870003E05A404A4044305B005C105C1054613C3
:10488000B7134E1318131C1352132013561362132D
:104890002C13B0133013661334136A138F133813A9
:1048A0006E1396133E1374137C1324135A13281398
:1048B0005E134213781386139F13AE1312134A1319
:1048C000BE135D14631466146C1481148114811476
:1048D000811481148114811481146F147414781458
:1048E0007E148F1495149914C617CC17B517C017DA
:1048F000D217D817DE17BF18CE18021914191F19AE
:104900002A192D192D192D19D618D618321936191C
:104910003E194B1958195B195E196B191D22432258
:104920004922432249229C22BE22492215232223C6
:104930001A023A02280850011E0A14010302013F1C
:104940001C7A1C731C6C1C651C01E200E900EA0067
:10495000B500B600B700CD008301CC008A019201FA
:1049600094012102230224022502260227022A02A0
:10497000B300B4006F0070009F01CB019F02A00242
:10498000E200E900EA00B500B600B700CD008301FF
:10499000CC008A0192019401210223022402250203
:1049A000260227022A02B300B4006F0070009F01A4
:1049B000CB019F02A002F4F5F6F7319466974422EA
:0E49C000B647036F02910214022D024D020051
:00000001FF
